{
  "_format": "hh-sol-artifact-1",
  "contractName": "EmailVerifier",
  "sourceName": "src/verifier/email/EmailVerifier.sol",
  "abi": [
    {
      "inputs": [],
      "stateMutability": "nonpayable",
      "type": "constructor"
    },
    {
      "inputs": [
        {
          "internalType": "bytes",
          "name": "_reason",
          "type": "bytes"
        }
      ],
      "name": "GetEmailHashByZKRevert",
      "type": "error"
    },
    {
      "inputs": [
        {
          "internalType": "uint8",
          "name": "_emailVerifyType",
          "type": "uint8"
        }
      ],
      "name": "InvalidEmailVerifyType",
      "type": "error"
    },
    {
      "inputs": [
        {
          "internalType": "bytes1",
          "name": "_encodings",
          "type": "bytes1"
        }
      ],
      "name": "InvalidEncodings",
      "type": "error"
    },
    {
      "inputs": [
        {
          "internalType": "bytes",
          "name": "_data",
          "type": "bytes"
        },
        {
          "internalType": "uint256",
          "name": "_index",
          "type": "uint256"
        }
      ],
      "name": "ReadBytes32OutOfBounds",
      "type": "error"
    },
    {
      "anonymous": false,
      "inputs": [
        {
          "indexed": false,
          "internalType": "bytes32",
          "name": "emailServer",
          "type": "bytes32"
        },
        {
          "indexed": false,
          "internalType": "bytes",
          "name": "oldKey",
          "type": "bytes"
        }
      ],
      "name": "DeleteDKIMKey",
      "type": "event"
    },
    {
      "anonymous": false,
      "inputs": [
        {
          "indexed": true,
          "internalType": "address",
          "name": "previousOwner",
          "type": "address"
        },
        {
          "indexed": true,
          "internalType": "address",
          "name": "newOwner",
          "type": "address"
        }
      ],
      "name": "OwnershipTransferred",
      "type": "event"
    },
    {
      "anonymous": false,
      "inputs": [
        {
          "indexed": false,
          "internalType": "bytes32",
          "name": "emailServer",
          "type": "bytes32"
        },
        {
          "indexed": false,
          "internalType": "bytes",
          "name": "key",
          "type": "bytes"
        }
      ],
      "name": "UpdateDKIMKey",
      "type": "event"
    },
    {
      "inputs": [],
      "name": "AtSignBytes1",
      "outputs": [
        {
          "internalType": "bytes1",
          "name": "",
          "type": "bytes1"
        }
      ],
      "stateMutability": "view",
      "type": "function"
    },
    {
      "inputs": [],
      "name": "DotSignBytes1",
      "outputs": [
        {
          "internalType": "bytes1",
          "name": "",
          "type": "bytes1"
        }
      ],
      "stateMutability": "view",
      "type": "function"
    },
    {
      "inputs": [
        {
          "internalType": "bytes32[]",
          "name": "_emailServers",
          "type": "bytes32[]"
        },
        {
          "internalType": "bytes[]",
          "name": "_keys",
          "type": "bytes[]"
        }
      ],
      "name": "batchUpdateDKIMKeys",
      "outputs": [],
      "stateMutability": "nonpayable",
      "type": "function"
    },
    {
      "inputs": [
        {
          "internalType": "bytes32",
          "name": "_emailServer",
          "type": "bytes32"
        }
      ],
      "name": "deleteDKIMKey",
      "outputs": [],
      "stateMutability": "nonpayable",
      "type": "function"
    },
    {
      "inputs": [
        {
          "internalType": "uint256",
          "name": "_startIndex",
          "type": "uint256"
        },
        {
          "internalType": "bytes",
          "name": "_data",
          "type": "bytes"
        }
      ],
      "name": "dkimVerify",
      "outputs": [
        {
          "internalType": "bool",
          "name": "ret",
          "type": "bool"
        },
        {
          "internalType": "bytes32",
          "name": "emailHash",
          "type": "bytes32"
        },
        {
          "internalType": "bytes",
          "name": "subject",
          "type": "bytes"
        },
        {
          "internalType": "uint256",
          "name": "endIndex",
          "type": "uint256"
        }
      ],
      "stateMutability": "view",
      "type": "function"
    },
    {
      "inputs": [
        {
          "internalType": "bytes32",
          "name": "_emailServer",
          "type": "bytes32"
        }
      ],
      "name": "getDKIMKey",
      "outputs": [
        {
          "internalType": "bytes",
          "name": "",
          "type": "bytes"
        }
      ],
      "stateMutability": "view",
      "type": "function"
    },
    {
      "inputs": [],
      "name": "getGuardianVerifierInfo",
      "outputs": [
        {
          "internalType": "bytes",
          "name": "metadata",
          "type": "bytes"
        }
      ],
      "stateMutability": "view",
      "type": "function"
    },
    {
      "inputs": [
        {
          "internalType": "bytes32",
          "name": "hash",
          "type": "bytes32"
        },
        {
          "internalType": "bytes",
          "name": "signer",
          "type": "bytes"
        },
        {
          "internalType": "bytes",
          "name": "signature",
          "type": "bytes"
        }
      ],
      "name": "isValidPermission",
      "outputs": [
        {
          "internalType": "bool",
          "name": "",
          "type": "bool"
        }
      ],
      "stateMutability": "view",
      "type": "function"
    },
    {
      "inputs": [
        {
          "internalType": "bytes32",
          "name": "hash",
          "type": "bytes32"
        },
        {
          "internalType": "bytes[]",
          "name": "signers",
          "type": "bytes[]"
        },
        {
          "internalType": "bytes[]",
          "name": "signatures",
          "type": "bytes[]"
        }
      ],
      "name": "isValidPermissions",
      "outputs": [
        {
          "internalType": "bool",
          "name": "",
          "type": "bool"
        }
      ],
      "stateMutability": "view",
      "type": "function"
    },
    {
      "inputs": [
        {
          "internalType": "bytes",
          "name": "signer",
          "type": "bytes"
        }
      ],
      "name": "isValidSigner",
      "outputs": [
        {
          "internalType": "bool",
          "name": "",
          "type": "bool"
        }
      ],
      "stateMutability": "pure",
      "type": "function"
    },
    {
      "inputs": [
        {
          "internalType": "bytes[]",
          "name": "signers",
          "type": "bytes[]"
        }
      ],
      "name": "isValidSigners",
      "outputs": [
        {
          "internalType": "bool",
          "name": "",
          "type": "bool"
        }
      ],
      "stateMutability": "pure",
      "type": "function"
    },
    {
      "inputs": [],
      "name": "owner",
      "outputs": [
        {
          "internalType": "address",
          "name": "",
          "type": "address"
        }
      ],
      "stateMutability": "view",
      "type": "function"
    },
    {
      "inputs": [],
      "name": "renounceOwnership",
      "outputs": [],
      "stateMutability": "nonpayable",
      "type": "function"
    },
    {
      "inputs": [
        {
          "internalType": "address",
          "name": "newOwner",
          "type": "address"
        }
      ],
      "name": "transferOwnership",
      "outputs": [],
      "stateMutability": "nonpayable",
      "type": "function"
    },
    {
      "inputs": [
        {
          "internalType": "bytes32",
          "name": "_emailServer",
          "type": "bytes32"
        },
        {
          "internalType": "bytes",
          "name": "key",
          "type": "bytes"
        }
      ],
      "name": "updateDKIMKey",
      "outputs": [],
      "stateMutability": "nonpayable",
      "type": "function"
    }
  ],
  "bytecode": "0x60806040523480156200001157600080fd5b5062000032620000266200003860201b60201c565b6200004060201b60201c565b62000104565b600033905090565b60008060009054906101000a900473ffffffffffffffffffffffffffffffffffffffff169050816000806101000a81548173ffffffffffffffffffffffffffffffffffffffff021916908373ffffffffffffffffffffffffffffffffffffffff1602179055508173ffffffffffffffffffffffffffffffffffffffff168173ffffffffffffffffffffffffffffffffffffffff167f8be0079c531659141344cd1fd0a4f28419497f9722a3daafe3b4186f6b6457e060405160405180910390a35050565b61471880620001146000396000f3fe608060405234801561001057600080fd5b50600436106100f55760003560e01c8063715018a611610097578063e7326b8311610066578063e7326b8314610289578063f2fde38b146102a7578063f6e5311b146102c3578063f9da5051146102df576100f5565b8063715018a61461021357806389c18fb01461021d5780638da5cb5b1461024d578063dda54c7c1461026b576100f5565b80634a8de449116100d35780634a8de449146101645780635661bbe5146101945780636fa51706146101c757806370043ea0146101e3576100f5565b8063284ce1b6146100fa578063295f3f741461011657806337517b7914610134575b600080fd5b610114600480360381019061010f9190612a2b565b61030f565b005b61011e610435565b60405161012b9190612b3c565b60405180910390f35b61014e60048036038101906101499190612c8e565b61043a565b60405161015b9190612cf2565b60405180910390f35b61017e60048036038101906101799190612d43565b610458565b60405161018b9190612b3c565b60405180910390f35b6101ae60048036038101906101a99190612dfc565b6104fd565b6040516101be9493929190612e7a565b60405180910390f35b6101e160048036038101906101dc9190612d43565b610686565b005b6101fd60048036038101906101f89190612fa7565b6106fb565b60405161020a9190612cf2565b60405180910390f35b61021b610762565b005b61023760048036038101906102329190612ff0565b610776565b6040516102449190612cf2565b60405180910390f35b6102556108c7565b60405161026291906130c6565b60405180910390f35b6102736108f0565b604051610280919061311c565b60405180910390f35b6102916108f8565b60405161029e919061311c565b60405180910390f35b6102c160048036038101906102bc9190613163565b610900565b005b6102dd60048036038101906102d89190613190565b610983565b005b6102f960048036038101906102f491906131f0565b6109ee565b6040516103069190612cf2565b60405180910390f35b610317610ad0565b6000848490509050828290508114610364576040517f08c379a000000000000000000000000000000000000000000000000000000000815260040161035b90613308565b60405180910390fd5b60005b8181101561042d57600086868381811061038457610383613328565b5b9050602002013590503660008686858181106103a3576103a2613328565b5b90506020028101906103b59190613366565b9150915081816001600086815260200190815260200160002091826103db9291906135e0565b507f5a12783564a9746169bd15ead5abe2b0ad28813626c5b4b50d9ea5946373dcab83838360405161040f939291906136dd565b60405180910390a150505080806104259061373e565b915050610367565b505050505050565b606090565b6000602082510361044e5760019050610453565b600090505b919050565b606060016000838152602001908152602001600020805461047890613403565b80601f01602080910402602001604051908101604052809291908181526020018280546104a490613403565b80156104f15780601f106104c6576101008083540402835291602001916104f1565b820191906000526020600020905b8154815290600101906020018083116104d457829003601f168201915b50505050509050919050565b600080606060008061051a888888610b4e9290919263ffffffff16565b9050876105269061373e565b97503660003660008b6004600a61053d9190613786565b61054791906137c8565b95506000610560878d8d610b629290919263ffffffff16565b80985081925050508b8b88908363ffffffff168a61057e91906137c8565b9261058b93929190613806565b945094508063ffffffff16876105a191906137c8565b96506105b8878d8d610b629290919263ffffffff16565b80985081925050508b8b88908363ffffffff168a6105d691906137c8565b926105e393929190613806565b925092508063ffffffff16876105f991906137c8565b9650506106098c8c8c8787610b84565b965060008560ff160361063b576106238c8c8c8787610bb1565b97506106348c8c8c87878787610c4f565b9850610678565b846040517f3e77c3e800000000000000000000000000000000000000000000000000000000815260040161066f919061385d565b60405180910390fd5b505050505093509350935093565b61068e610ad0565b6001600082815260200190815260200160002060006106ad91906128f5565b7f39bf28c3d2ffd0db3c9ed61fe6b7c26b30cfd0a33099907ec479c6998f58f64181600160008481526020019081526020016000206040516106f09291906138fc565b60405180910390a150565b600080600090505b825181101561075757600061073184838151811061072457610723613328565b5b602002602001015161043a565b9050806107435760009250505061075d565b50808061074f9061373e565b915050610703565b50600190505b919050565b61076a610ad0565b6107746000610dd9565b565b600080600080610788600087876104fd565b509250925092506107cd6040518060400160405280600a81526020017f5573657220636865636b00000000000000000000000000000000000000000000815250610e9d565b8261080d576040517f08c379a000000000000000000000000000000000000000000000000000000000815260040161080490613978565b60405180910390fd5b80805190602001206108238a60001c6020610f36565b805190602001201461086a576040517f08c379a0000000000000000000000000000000000000000000000000000000008152600401610861906139e4565b60405180910390fd5b61087688886000611172565b82146108b7576040517f08c379a00000000000000000000000000000000000000000000000000000000081526004016108ae90613a50565b60405180910390fd5b6001935050505095945050505050565b60008060009054906101000a900473ffffffffffffffffffffffffffffffffffffffff16905090565b602e60f81b81565b604060f81b81565b610908610ad0565b600073ffffffffffffffffffffffffffffffffffffffff168173ffffffffffffffffffffffffffffffffffffffff1603610977576040517f08c379a000000000000000000000000000000000000000000000000000000000815260040161096e90613ae2565b60405180910390fd5b61098081610dd9565b50565b61098b610ad0565b81816001600086815260200190815260200160002091826109ad9291906135e0565b507f5a12783564a9746169bd15ead5abe2b0ad28813626c5b4b50d9ea5946373dcab8383836040516109e1939291906136dd565b60405180910390a1505050565b6000828290508585905014610a38576040517f08c379a0000000000000000000000000000000000000000000000000000000008152600401610a2f90613b4e565b60405180910390fd5b60005b85859050811015610ac1576000610a9b88888885818110610a5f57610a5e613328565b5b9050602002810190610a719190613366565b888887818110610a8457610a83613328565b5b9050602002810190610a969190613366565b610776565b905080610aad57600092505050610ac7565b508080610ab99061373e565b915050610a3b565b50600190505b95945050505050565b610ad8611181565b73ffffffffffffffffffffffffffffffffffffffff16610af66108c7565b73ffffffffffffffffffffffffffffffffffffffff1614610b4c576040517f08c379a0000000000000000000000000000000000000000000000000000000008152600401610b4390613bba565b60405180910390fd5b565b6000818401358060f81c9150509392505050565b6000808483013563ffffffff8160e01c16925060048401915050935093915050565b6060366000610b968888888888611189565b91509150610ba48282611453565b9250505095945050505050565b6000806000610bc38888888888611c34565b9250925050600285858463ffffffff1690600185610be19190613bea565b63ffffffff1692610bf493929190613806565b604051610c02929190613c52565b602060405180830381855afa158015610c1f573d6000803e3d6000fd5b5050506040513d601f19601f82011682018060405250810190610c429190613c80565b9250505095945050505050565b6000366000366000610c648b8b8e8c8c6120e1565b818195509550838397509750505050506000610cab85858585604051602001610c909493929190613cad565b60405160208183030381529060405280519060200120610458565b90506000815111610cf1576040517f08c379a0000000000000000000000000000000000000000000000000000000008152600401610ce890613d21565b60405180910390fd5b610dc760028b8b604051610d06929190613d41565b602060405180830381855afa158015610d23573d6000803e3d6000fd5b5050506040513d601f19601f82011682018060405250810190610d469190613c80565b826040518060400160405280600381526020017f01000100000000000000000000000000000000000000000000000000000000008152508b8b8080601f016020809104026020016040519081016040528093929190818152602001838380828437600081840152601f19601f820116905080830192505050505050506124d8565b95505050505050979650505050505050565b60008060009054906101000a900473ffffffffffffffffffffffffffffffffffffffff169050816000806101000a81548173ffffffffffffffffffffffffffffffffffffffff021916908373ffffffffffffffffffffffffffffffffffffffff1602179055508173ffffffffffffffffffffffffffffffffffffffff168173ffffffffffffffffffffffffffffffffffffffff167f8be0079c531659141344cd1fd0a4f28419497f9722a3daafe3b4186f6b6457e060405160405180910390a35050565b610f3381604051602401610eb19190613d9e565b6040516020818303038152906040527f41304fac000000000000000000000000000000000000000000000000000000007bffffffffffffffffffffffffffffffffffffffffffffffffffffffff19166020820180517bffffffffffffffffffffffffffffffffffffffffffffffffffffffff8381831617835250505050612527565b50565b606060006002836002610f499190613786565b610f5391906137c8565b67ffffffffffffffff811115610f6c57610f6b612b63565b5b6040519080825280601f01601f191660200182016040528015610f9e5781602001600182028036833780820191505090505b5090507f300000000000000000000000000000000000000000000000000000000000000081600081518110610fd657610fd5613328565b5b60200101907effffffffffffffffffffffffffffffffffffffffffffffffffffffffffffff1916908160001a9053507f78000000000000000000000000000000000000000000000000000000000000008160018151811061103a57611039613328565b5b60200101907effffffffffffffffffffffffffffffffffffffffffffffffffffffffffffff1916908160001a9053506000600184600261107a9190613786565b61108491906137c8565b90505b6001811115611124577f3031323334353637383961626364656600000000000000000000000000000000600f8616601081106110c6576110c5613328565b5b1a60f81b8282815181106110dd576110dc613328565b5b60200101907effffffffffffffffffffffffffffffffffffffffffffffffffffffffffffff1916908160001a905350600485901c94508061111d90613dc0565b9050611087565b5060008414611168576040517f08c379a000000000000000000000000000000000000000000000000000000000815260040161115f90613e35565b60405180910390fd5b8091505092915050565b60008184013590509392505050565b600033905090565b366000806111cc6004600060098111156111a6576111a5613e55565b5b6111b09190613786565b896111bb91906137c8565b8888610b629290919263ffffffff16565b508091505060006112126004600160098111156111ec576111eb613e55565b5b6111f69190613786565b8a61120191906137c8565b8989610b629290919263ffffffff16565b508091505060008263ffffffff16146112ba577f0d0a7375626a6563743a000000000000000000000000000000000000000000006112756002846112569190613e84565b63ffffffff16600a89896125419190939291909392919063ffffffff16565b146112b5576040517f08c379a00000000000000000000000000000000000000000000000000000000081526004016112ac90613f08565b60405180910390fd5b61133f565b7f7375626a6563743a0000000000000000000000000000000000000000000000006112fe8363ffffffff16600889896125419190939291909392919063ffffffff16565b1461133e576040517f08c379a000000000000000000000000000000000000000000000000000000000815260040161133590613f08565b60405180910390fd5b5b600060088361134e9190613bea565b63ffffffff1690505b8163ffffffff16811015611418577f0a0000000000000000000000000000000000000000000000000000000000000087878381811061139957611398613328565b5b9050013560f81c60f81b7effffffffffffffffffffffffffffffffffffffffffffffffffffffffffffff191603611405576040517f08c379a00000000000000000000000000000000000000000000000000000000081526004016113fc90613f74565b60405180910390fd5b80806114109061373e565b915050611357565b5085856008846114289190613bea565b63ffffffff16908363ffffffff169261144393929190613806565b9350935050509550959350505050565b606060005b6001848490506114689190613f94565b811015611c2d577f20000000000000000000000000000000000000000000000000000000000000008484838181106114a3576114a2613328565b5b9050013560f81c60f81b7effffffffffffffffffffffffffffffffffffffffffffffffffffffffffffff1916036114e557806114de9061373e565b9050611458565b6000807f3f00000000000000000000000000000000000000000000000000000000000000868660018661151891906137c8565b81811061152857611527613328565b5b9050013560f81c60f81b7effffffffffffffffffffffffffffffffffffffffffffffffffffffffffffff191603611b2b577f3d0000000000000000000000000000000000000000000000000000000000000086868581811061158d5761158c613328565b5b9050013560f81c60f81b7effffffffffffffffffffffffffffffffffffffffffffffffffffffffffffff1916146115f9576040517f08c379a00000000000000000000000000000000000000000000000000000000081526004016115f09061403a565b60405180910390fd5b600060028461160891906137c8565b93505b60018787905061161b9190613f94565b841015611750577f3f0000000000000000000000000000000000000000000000000000000000000087878681811061165657611655613328565b5b9050013560f81c60f81b7effffffffffffffffffffffffffffffffffffffffffffffffffffffffffffff19161480156116f857507f3f0000000000000000000000000000000000000000000000000000000000000087876002876116ba91906137c8565b8181106116ca576116c9613328565b5b9050013560f81c60f81b7effffffffffffffffffffffffffffffffffffffffffffffffffffffffffffff1916145b1561173f57868660018661170c91906137c8565b81811061171c5761171b613328565b5b9050013560f81c60f81b905060038461173591906137c8565b9350839250611750565b836117499061373e565b935061160b565b60008303611793576040517f08c379a000000000000000000000000000000000000000000000000000000000815260040161178a906140cc565b60405180910390fd5b5b6001878790506117a49190613f94565b8410156118fc577f3f0000000000000000000000000000000000000000000000000000000000000087876001876117db91906137c8565b8181106117eb576117ea613328565b5b9050013560f81c60f81b7effffffffffffffffffffffffffffffffffffffffffffffffffffffffffffff1916036118eb577f3d00000000000000000000000000000000000000000000000000000000000000878760028761184c91906137c8565b81811061185c5761185b613328565b5b9050013560f81c60f81b7effffffffffffffffffffffffffffffffffffffffffffffffffffffffffffff1916146118c8576040517f08c379a00000000000000000000000000000000000000000000000000000000081526004016118bf9061403a565b60405180910390fd5b6001846118d591906137c8565b91506002846118e491906137c8565b93506118fc565b836118f59061373e565b9350611794565b6000820361193f576040517f08c379a00000000000000000000000000000000000000000000000000000000081526004016119369061415e565b60405180910390fd5b7f4200000000000000000000000000000000000000000000000000000000000000817effffffffffffffffffffffffffffffffffffffffffffffffffffffffffffff191614806119d057507f6200000000000000000000000000000000000000000000000000000000000000817effffffffffffffffffffffffffffffffffffffffffffffffffffffffffffff1916145b15611a1a57846119f08888869086926119eb93929190613806565b61257d565b604051602001611a019291906141af565b6040516020818303038152906040529450505050611458565b7f5100000000000000000000000000000000000000000000000000000000000000817effffffffffffffffffffffffffffffffffffffffffffffffffffffffffffff19161480611aab57507f7100000000000000000000000000000000000000000000000000000000000000817effffffffffffffffffffffffffffffffffffffffffffffffffffffffffffff1916145b15611aee5784878785908592611ac393929190613806565b604051602001611ad5939291906141d3565b6040516020818303038152906040529450505050611458565b806040517fd9d25b20000000000000000000000000000000000000000000000000000000008152600401611b22919061311c565b60405180910390fd5b8291505b600186869050611b3f9190613f94565b831015611bdb577f20000000000000000000000000000000000000000000000000000000000000008686600186611b7691906137c8565b818110611b8657611b85613328565b5b9050013560f81c60f81b7effffffffffffffffffffffffffffffffffffffffffffffffffffffffffffff191603611bca57829050600283611bc791906137c8565b92505b82611bd49061373e565b9250611b2f565b60008114611be95780611bee565b858590505b905083868684908492611c0393929190613806565b604051602001611c15939291906141d3565b60405160208183030381529060405293505050611458565b5092915050565b6000806000611c78600460026009811115611c5257611c51613e55565b5b611c5c9190613786565b89611c6791906137c8565b8888610b629290919263ffffffff16565b5080935050611cbc600460036009811115611c9657611c95613e55565b5b611ca09190613786565b89611cab91906137c8565b8888610b629290919263ffffffff16565b5080925050611cff6004806009811115611cd957611cd8613e55565b5b611ce39190613786565b89611cee91906137c8565b8888610b629290919263ffffffff16565b508091505060008363ffffffff1614611da7577f0d0a66726f6d3a00000000000000000000000000000000000000000000000000611d62600285611d439190613e84565b63ffffffff16600788886125419190939291909392919063ffffffff16565b14611da2576040517f08c379a0000000000000000000000000000000000000000000000000000000008152600401611d9990613f08565b60405180910390fd5b611e2c565b7f66726f6d3a000000000000000000000000000000000000000000000000000000611deb8463ffffffff16600588886125419190939291909392919063ffffffff16565b14611e2b576040517f08c379a0000000000000000000000000000000000000000000000000000000008152600401611e2290613f08565b60405180910390fd5b5b8163ffffffff16600484611e409190613bea565b63ffffffff16108015611e5e57508063ffffffff168263ffffffff16105b611e9d576040517f08c379a0000000000000000000000000000000000000000000000000000000008152600401611e9490614245565b60405180910390fd5b7f3c000000000000000000000000000000000000000000000000000000000000008585600185611ecd9190613e84565b63ffffffff16818110611ee357611ee2613328565b5b9050013560f81c60f81b7effffffffffffffffffffffffffffffffffffffffffffffffffffffffffffff1916148015611f8b57507f3e000000000000000000000000000000000000000000000000000000000000008585600184611f479190613bea565b63ffffffff16818110611f5d57611f5c613328565b5b9050013560f81c60f81b7effffffffffffffffffffffffffffffffffffffffffffffffffffffffffffff1916145b1561207b576000600183611f9f9190613e84565b63ffffffff1690505b600484611fb59190613bea565b63ffffffff16811115612075577f0a00000000000000000000000000000000000000000000000000000000000000868683818110611ff657611ff5613328565b5b9050013560f81c60f81b7effffffffffffffffffffffffffffffffffffffffffffffffffffffffffffff191603612062576040517f08c379a000000000000000000000000000000000000000000000000000000000815260040161205990613f74565b60405180910390fd5b808061206d90613dc0565b915050611fa8565b506120d6565b6005836120889190613bea565b63ffffffff168263ffffffff16146120d5576040517f08c379a00000000000000000000000000000000000000000000000000000000081526004016120cc906142b1565b60405180910390fd5b5b955095509592505050565b3660003660008061212760046005600981111561210157612100613e55565b5b61210b9190613786565b8961211691906137c8565b8b8b610b629290919263ffffffff16565b50809150507f0d0a646b696d2d7369676e61747572653a00000000000000000000000000000061217c60028361215d9190613e84565b63ffffffff1660118a8a6125419190939291909392919063ffffffff16565b146121bc576040517f08c379a00000000000000000000000000000000000000000000000000000000081526004016121b39061431d565b60405180910390fd5b60006121fd6004600660098111156121d7576121d6613e55565b5b6121e19190613786565b8a6121ec91906137c8565b8c8c610b629290919263ffffffff16565b8163ffffffff1691505080915050600061224c60046007600981111561222657612225613e55565b5b6122309190613786565b8b61223b91906137c8565b8d8d610b629290919263ffffffff16565b8163ffffffff16915050809150508263ffffffff1682116122a2576040517f08c379a000000000000000000000000000000000000000000000000000000000815260040161229990614389565b60405180910390fd5b7f3b20733d000000000000000000000000000000000000000000000000000000006122ec6004846122d39190613f94565b60048c8c6125419190939291909392919063ffffffff16565b1461232c576040517f08c379a0000000000000000000000000000000000000000000000000000000008152600401612323906143f5565b60405180910390fd5b88888390839261233e93929190613806565b965096505050600061238560046008600981111561235f5761235e613e55565b5b6123699190613786565b8a61237491906137c8565b8c8c610b629290919263ffffffff16565b8163ffffffff169150508091505060006123d360046009808111156123ad576123ac613e55565b5b6123b79190613786565b8b6123c291906137c8565b8d8d610b629290919263ffffffff16565b8163ffffffff16915050809150508263ffffffff168211612429576040517f08c379a000000000000000000000000000000000000000000000000000000000815260040161242090614389565b60405180910390fd5b7f3b20643d0000000000000000000000000000000000000000000000000000000061247360048461245a9190613f94565b60048c8c6125419190939291909392919063ffffffff16565b146124b3576040517f08c379a00000000000000000000000000000000000000000000000000000000081526004016124aa90614461565b60405180910390fd5b8888839083926124c593929190613806565b9450945050505095509550955095915050565b60008060606124e88486886127ba565b809250819350505081801561251b5750612518602082516125099190613f94565b8261285a90919063ffffffff16565b87145b92505050949350505050565b61253e816125366128c16128ea565b63ffffffff16565b50565b6000808386013590506000600884602061255b9190613f94565b6125659190613786565b9050808183901c901b60001b92505050949350505050565b6060600083838080601f016020809104026020016040519081016040528093929190818152602001838380828437600081840152601f19601f820116905080830192505050505050509050600081510361262757600067ffffffffffffffff8111156125ec576125eb612b63565b5b6040519080825280601f01601f19166020018201604052801561261e5781602001600182028036833780820191505090505b509150506127b4565b60006004825161263791906144b0565b14612677576040517f08c379a000000000000000000000000000000000000000000000000000000000815260040161266e9061452d565b60405180910390fd5b60006040518060a001604052806080815260200161466360809139905060006003600484516126a6919061454d565b6126b09190613786565b905060006020826126c191906137c8565b67ffffffffffffffff8111156126da576126d9612b63565b5b6040519080825280601f01601f19166020018201604052801561270c5781602001600182028036833780820191505090505b5090508351840151603d60ff82160361273a57600183039250613d3d61ffff821603612739576001830392505b5b828252600184018586518101602085015b818310156127a757600483019250825160ff8082168601511660ff808360081c168701511660061b0160ff808360101c1687015116600c1b60ff808460181c168801511660121b01018060e81b8352600383019250505061274b565b5050505050809450505050505b92915050565b6000606060008551855185518888886040516020016127de9695949392919061459f565b6040516020818303038152906040529050835167ffffffffffffffff81111561280a57612809612b63565b5b6040519080825280601f01601f19166020018201604052801561283c5781602001600182028036833780820191505090505b50915083516020830182516020840160055afa925050935093915050565b60008060208361286a91906137c8565b905080845110156128b45783836040517fde59ba130000000000000000000000000000000000000000000000000000000081526004016128ab929190614603565b60405180910390fd5b8084015191505092915050565b60008151905060006a636f6e736f6c652e6c6f679050602083016000808483855afa5050505050565b612935819050919050565b50805461290190613403565b6000825580601f106129135750612932565b601f016020900490600052602060002090810190612931919061293f565b5b50565b61293d614633565b565b5b80821115612958576000816000905550600101612940565b5090565b6000604051905090565b600080fd5b600080fd5b600080fd5b600080fd5b600080fd5b60008083601f84011261299557612994612970565b5b8235905067ffffffffffffffff8111156129b2576129b1612975565b5b6020830191508360208202830111156129ce576129cd61297a565b5b9250929050565b60008083601f8401126129eb576129ea612970565b5b8235905067ffffffffffffffff811115612a0857612a07612975565b5b602083019150836020820283011115612a2457612a2361297a565b5b9250929050565b60008060008060408587031215612a4557612a44612966565b5b600085013567ffffffffffffffff811115612a6357612a6261296b565b5b612a6f8782880161297f565b9450945050602085013567ffffffffffffffff811115612a9257612a9161296b565b5b612a9e878288016129d5565b925092505092959194509250565b600081519050919050565b600082825260208201905092915050565b60005b83811015612ae6578082015181840152602081019050612acb565b60008484015250505050565b6000601f19601f8301169050919050565b6000612b0e82612aac565b612b188185612ab7565b9350612b28818560208601612ac8565b612b3181612af2565b840191505092915050565b60006020820190508181036000830152612b568184612b03565b905092915050565b600080fd5b7f4e487b7100000000000000000000000000000000000000000000000000000000600052604160045260246000fd5b612b9b82612af2565b810181811067ffffffffffffffff82111715612bba57612bb9612b63565b5b80604052505050565b6000612bcd61295c565b9050612bd98282612b92565b919050565b600067ffffffffffffffff821115612bf957612bf8612b63565b5b612c0282612af2565b9050602081019050919050565b82818337600083830152505050565b6000612c31612c2c84612bde565b612bc3565b905082815260208101848484011115612c4d57612c4c612b5e565b5b612c58848285612c0f565b509392505050565b600082601f830112612c7557612c74612970565b5b8135612c85848260208601612c1e565b91505092915050565b600060208284031215612ca457612ca3612966565b5b600082013567ffffffffffffffff811115612cc257612cc161296b565b5b612cce84828501612c60565b91505092915050565b60008115159050919050565b612cec81612cd7565b82525050565b6000602082019050612d076000830184612ce3565b92915050565b6000819050919050565b612d2081612d0d565b8114612d2b57600080fd5b50565b600081359050612d3d81612d17565b92915050565b600060208284031215612d5957612d58612966565b5b6000612d6784828501612d2e565b91505092915050565b6000819050919050565b612d8381612d70565b8114612d8e57600080fd5b50565b600081359050612da081612d7a565b92915050565b60008083601f840112612dbc57612dbb612970565b5b8235905067ffffffffffffffff811115612dd957612dd8612975565b5b602083019150836001820283011115612df557612df461297a565b5b9250929050565b600080600060408486031215612e1557612e14612966565b5b6000612e2386828701612d91565b935050602084013567ffffffffffffffff811115612e4457612e4361296b565b5b612e5086828701612da6565b92509250509250925092565b612e6581612d0d565b82525050565b612e7481612d70565b82525050565b6000608082019050612e8f6000830187612ce3565b612e9c6020830186612e5c565b8181036040830152612eae8185612b03565b9050612ebd6060830184612e6b565b95945050505050565b600067ffffffffffffffff821115612ee157612ee0612b63565b5b602082029050602081019050919050565b6000612f05612f0084612ec6565b612bc3565b90508083825260208201905060208402830185811115612f2857612f2761297a565b5b835b81811015612f6f57803567ffffffffffffffff811115612f4d57612f4c612970565b5b808601612f5a8982612c60565b85526020850194505050602081019050612f2a565b5050509392505050565b600082601f830112612f8e57612f8d612970565b5b8135612f9e848260208601612ef2565b91505092915050565b600060208284031215612fbd57612fbc612966565b5b600082013567ffffffffffffffff811115612fdb57612fda61296b565b5b612fe784828501612f79565b91505092915050565b60008060008060006060868803121561300c5761300b612966565b5b600061301a88828901612d2e565b955050602086013567ffffffffffffffff81111561303b5761303a61296b565b5b61304788828901612da6565b9450945050604086013567ffffffffffffffff81111561306a5761306961296b565b5b61307688828901612da6565b92509250509295509295909350565b600073ffffffffffffffffffffffffffffffffffffffff82169050919050565b60006130b082613085565b9050919050565b6130c0816130a5565b82525050565b60006020820190506130db60008301846130b7565b92915050565b60007fff0000000000000000000000000000000000000000000000000000000000000082169050919050565b613116816130e1565b82525050565b6000602082019050613131600083018461310d565b92915050565b613140816130a5565b811461314b57600080fd5b50565b60008135905061315d81613137565b92915050565b60006020828403121561317957613178612966565b5b60006131878482850161314e565b91505092915050565b6000806000604084860312156131a9576131a8612966565b5b60006131b786828701612d2e565b935050602084013567ffffffffffffffff8111156131d8576131d761296b565b5b6131e486828701612da6565b92509250509250925092565b60008060008060006060868803121561320c5761320b612966565b5b600061321a88828901612d2e565b955050602086013567ffffffffffffffff81111561323b5761323a61296b565b5b613247888289016129d5565b9450945050604086013567ffffffffffffffff81111561326a5761326961296b565b5b613276888289016129d5565b92509250509295509295909350565b600082825260208201905092915050565b7f6261746368557064617465444b494d4b6579733a20494e56414c49445f4c454e60008201527f4754480000000000000000000000000000000000000000000000000000000000602082015250565b60006132f2602383613285565b91506132fd82613296565b604082019050919050565b60006020820190508181036000830152613321816132e5565b9050919050565b7f4e487b7100000000000000000000000000000000000000000000000000000000600052603260045260246000fd5b600080fd5b600080fd5b600080fd5b6000808335600160200384360303811261338357613382613357565b5b80840192508235915067ffffffffffffffff8211156133a5576133a461335c565b5b6020830192506001820236038313156133c1576133c0613361565b5b509250929050565b600082905092915050565b7f4e487b7100000000000000000000000000000000000000000000000000000000600052602260045260246000fd5b6000600282049050600182168061341b57607f821691505b60208210810361342e5761342d6133d4565b5b50919050565b60008190508160005260206000209050919050565b60006020601f8301049050919050565b600082821b905092915050565b6000600883026134967fffffffffffffffffffffffffffffffffffffffffffffffffffffffffffffffff82613459565b6134a08683613459565b95508019841693508086168417925050509392505050565b6000819050919050565b60006134dd6134d86134d384612d70565b6134b8565b612d70565b9050919050565b6000819050919050565b6134f7836134c2565b61350b613503826134e4565b848454613466565b825550505050565b600090565b613520613513565b61352b8184846134ee565b505050565b5b8181101561354f57613544600082613518565b600181019050613531565b5050565b601f8211156135945761356581613434565b61356e84613449565b8101602085101561357d578190505b61359161358985613449565b830182613530565b50505b505050565b600082821c905092915050565b60006135b760001984600802613599565b1980831691505092915050565b60006135d083836135a6565b9150826002028217905092915050565b6135ea83836133c9565b67ffffffffffffffff81111561360357613602612b63565b5b61360d8254613403565b613618828285613553565b6000601f8311600181146136475760008415613635578287013590505b61363f85826135c4565b8655506136a7565b601f19841661365586613434565b60005b8281101561367d57848901358255600182019150602085019450602081019050613658565b8683101561369a5784890135613696601f8916826135a6565b8355505b6001600288020188555050505b50505050505050565b60006136bc8385612ab7565b93506136c9838584612c0f565b6136d283612af2565b840190509392505050565b60006040820190506136f26000830186612e5c565b81810360208301526137058184866136b0565b9050949350505050565b7f4e487b7100000000000000000000000000000000000000000000000000000000600052601160045260246000fd5b600061374982612d70565b91507fffffffffffffffffffffffffffffffffffffffffffffffffffffffffffffffff820361377b5761377a61370f565b5b600182019050919050565b600061379182612d70565b915061379c83612d70565b92508282026137aa81612d70565b915082820484148315176137c1576137c061370f565b5b5092915050565b60006137d382612d70565b91506137de83612d70565b92508282019050808211156137f6576137f561370f565b5b92915050565b600080fd5b600080fd5b6000808585111561381a576138196137fc565b5b8386111561382b5761382a613801565b5b6001850283019150848603905094509492505050565b600060ff82169050919050565b61385781613841565b82525050565b6000602082019050613872600083018461384e565b92915050565b6000815461388581613403565b61388f8186612ab7565b945060018216600081146138aa57600181146138c0576138f3565b60ff1983168652811515602002860193506138f3565b6138c985613434565b60005b838110156138eb578154818901526001820191506020810190506138cc565b808801955050505b50505092915050565b60006040820190506139116000830185612e5c565b81810360208301526139238184613878565b90509392505050565b7f494e56414c49445f544f4b454e00000000000000000000000000000000000000600082015250565b6000613962600d83613285565b915061396d8261392c565b602082019050919050565b6000602082019050818103600083015261399181613955565b9050919050565b7f494e56414c49445f4e4f4e43455f484153480000000000000000000000000000600082015250565b60006139ce601283613285565b91506139d982613998565b602082019050919050565b600060208201905081810360008301526139fd816139c1565b9050919050565b7f494e56414c49445f5349474e4552000000000000000000000000000000000000600082015250565b6000613a3a600e83613285565b9150613a4582613a04565b602082019050919050565b60006020820190508181036000830152613a6981613a2d565b9050919050565b7f4f776e61626c653a206e6577206f776e657220697320746865207a65726f206160008201527f6464726573730000000000000000000000000000000000000000000000000000602082015250565b6000613acc602683613285565b9150613ad782613a70565b604082019050919050565b60006020820190508181036000830152613afb81613abf565b9050919050565b7f696e76616c696420617267730000000000000000000000000000000000000000600082015250565b6000613b38600c83613285565b9150613b4382613b02565b602082019050919050565b60006020820190508181036000830152613b6781613b2b565b9050919050565b7f4f776e61626c653a2063616c6c6572206973206e6f7420746865206f776e6572600082015250565b6000613ba4602083613285565b9150613baf82613b6e565b602082019050919050565b60006020820190508181036000830152613bd381613b97565b9050919050565b600063ffffffff82169050919050565b6000613bf582613bda565b9150613c0083613bda565b9250828201905063ffffffff811115613c1c57613c1b61370f565b5b92915050565b600081905092915050565b6000613c398385613c22565b9350613c46838584612c0f565b82840190509392505050565b6000613c5f828486613c2d565b91508190509392505050565b600081519050613c7a81612d17565b92915050565b600060208284031215613c9657613c95612966565b5b6000613ca484828501613c6b565b91505092915050565b6000613cba828688613c2d565b9150613cc7828486613c2d565b915081905095945050505050565b7f7a65726f00000000000000000000000000000000000000000000000000000000600082015250565b6000613d0b600483613285565b9150613d1682613cd5565b602082019050919050565b60006020820190508181036000830152613d3a81613cfe565b9050919050565b6000613d4e828486613c2d565b91508190509392505050565b600081519050919050565b6000613d7082613d5a565b613d7a8185613285565b9350613d8a818560208601612ac8565b613d9381612af2565b840191505092915050565b60006020820190508181036000830152613db88184613d65565b905092915050565b6000613dcb82612d70565b915060008203613dde57613ddd61370f565b5b600182039050919050565b7f537472696e67733a20686578206c656e67746820696e73756666696369656e74600082015250565b6000613e1f602083613285565b9150613e2a82613de9565b602082019050919050565b60006020820190508181036000830152613e4e81613e12565b9050919050565b7f4e487b7100000000000000000000000000000000000000000000000000000000600052602160045260246000fd5b6000613e8f82613bda565b9150613e9a83613bda565b9250828203905063ffffffff811115613eb657613eb561370f565b5b92915050565b7f4645000000000000000000000000000000000000000000000000000000000000600082015250565b6000613ef2600283613285565b9150613efd82613ebc565b602082019050919050565b60006020820190508181036000830152613f2181613ee5565b9050919050565b7f4e45000000000000000000000000000000000000000000000000000000000000600082015250565b6000613f5e600283613285565b9150613f6982613f28565b602082019050919050565b60006020820190508181036000830152613f8d81613f51565b9050919050565b6000613f9f82612d70565b9150613faa83612d70565b9250828203905081811115613fc257613fc161370f565b5b92915050565b7f5f70617273655375626a6563744865616465723a20494e56414c49445f48454160008201527f4445520000000000000000000000000000000000000000000000000000000000602082015250565b6000614024602383613285565b915061402f82613fc8565b604082019050919050565b6000602082019050818103600083015261405381614017565b9050919050565b7f5f70617273655375626a6563744865616465723a20494e56414c49445f53544160008201527f52545f4845414445520000000000000000000000000000000000000000000000602082015250565b60006140b6602983613285565b91506140c18261405a565b604082019050919050565b600060208201905081810360008301526140e5816140a9565b9050919050565b7f5f70617273655375626a6563744865616465723a20494e56414c49445f454e4460008201527f5f48454144455200000000000000000000000000000000000000000000000000602082015250565b6000614148602783613285565b9150614153826140ec565b604082019050919050565b600060208201905081810360008301526141778161413b565b9050919050565b600061418982612aac565b6141938185613c22565b93506141a3818560208601612ac8565b80840191505092915050565b60006141bb828561417e565b91506141c7828461417e565b91508190509392505050565b60006141df828661417e565b91506141ec828486613c2d565b9150819050949350505050565b7f4c45000000000000000000000000000000000000000000000000000000000000600082015250565b600061422f600283613285565b915061423a826141f9565b602082019050919050565b6000602082019050818103600083015261425e81614222565b9050919050565b7f4145000000000000000000000000000000000000000000000000000000000000600082015250565b600061429b600283613285565b91506142a682614265565b602082019050919050565b600060208201905081810360008301526142ca8161428e565b9050919050565b7f4445000000000000000000000000000000000000000000000000000000000000600082015250565b6000614307600283613285565b9150614312826142d1565b602082019050919050565b60006020820190508181036000830152614336816142fa565b9050919050565b7f4448450000000000000000000000000000000000000000000000000000000000600082015250565b6000614373600383613285565b915061437e8261433d565b602082019050919050565b600060208201905081810360008301526143a281614366565b9050919050565b7f4453450000000000000000000000000000000000000000000000000000000000600082015250565b60006143df600383613285565b91506143ea826143a9565b602082019050919050565b6000602082019050818103600083015261440e816143d2565b9050919050565b7f4444450000000000000000000000000000000000000000000000000000000000600082015250565b600061444b600383613285565b915061445682614415565b602082019050919050565b6000602082019050818103600083015261447a8161443e565b9050919050565b7f4e487b7100000000000000000000000000000000000000000000000000000000600052601260045260246000fd5b60006144bb82612d70565b91506144c683612d70565b9250826144d6576144d5614481565b5b828206905092915050565b7f696e76616c696420626173653634206465636f64657220696e70757400000000600082015250565b6000614517601c83613285565b9150614522826144e1565b602082019050919050565b600060208201905081810360008301526145468161450a565b9050919050565b600061455882612d70565b915061456383612d70565b92508261457357614572614481565b5b828204905092915050565b6000819050919050565b61459961459482612d70565b61457e565b82525050565b60006145ab8289614588565b6020820191506145bb8288614588565b6020820191506145cb8287614588565b6020820191506145db828661417e565b91506145e7828561417e565b91506145f3828461417e565b9150819050979650505050505050565b6000604082019050818103600083015261461d8185612b03565b905061462c6020830184612e6b565b9392505050565b7f4e487b7100000000000000000000000000000000000000000000000000000000600052605160045260246000fdfe000000000000000000000000000000000000000000000000000000000000000000000000000000000000003e0000003f3435363738393a3b3c3d00000000000000000102030405060708090a0b0c0d0e0f101112131415161718190000000000001a1b1c1d1e1f202122232425262728292a2b2c2d2e2f303132330000000000a2646970667358221220105ce54c28ce179200cc14fcd56703882c6c44ba14ce5d554f5564bff6c97b1e64736f6c63430008130033",
  "linkReferences": {},
  "deployedLinkReferences": {}
}