{
  "_format": "hh-sol-artifact-1",
  "contractName": "SingleKeyVerifier",
  "sourceName": "src/verifier/singleKey/SingleKeyVerifier.sol",
  "abi": [
    {
      "inputs": [],
      "name": "getGuardianVerifierInfo",
      "outputs": [
        {
          "internalType": "bytes",
          "name": "metadata",
          "type": "bytes"
        }
      ],
      "stateMutability": "pure",
      "type": "function"
    },
    {
      "inputs": [
        {
          "internalType": "bytes32",
          "name": "hash",
          "type": "bytes32"
        },
        {
          "internalType": "bytes",
          "name": "signer",
          "type": "bytes"
        },
        {
          "internalType": "bytes",
          "name": "signature",
          "type": "bytes"
        }
      ],
      "name": "isValidPermission",
      "outputs": [
        {
          "internalType": "bool",
          "name": "",
          "type": "bool"
        }
      ],
      "stateMutability": "view",
      "type": "function"
    },
    {
      "inputs": [
        {
          "internalType": "bytes32",
          "name": "hash",
          "type": "bytes32"
        },
        {
          "internalType": "bytes[]",
          "name": "signers",
          "type": "bytes[]"
        },
        {
          "internalType": "bytes[]",
          "name": "signatures",
          "type": "bytes[]"
        }
      ],
      "name": "isValidPermissions",
      "outputs": [
        {
          "internalType": "bool",
          "name": "",
          "type": "bool"
        }
      ],
      "stateMutability": "view",
      "type": "function"
    },
    {
      "inputs": [
        {
          "internalType": "bytes",
          "name": "signer",
          "type": "bytes"
        }
      ],
      "name": "isValidSigner",
      "outputs": [
        {
          "internalType": "bool",
          "name": "",
          "type": "bool"
        }
      ],
      "stateMutability": "pure",
      "type": "function"
    },
    {
      "inputs": [
        {
          "internalType": "bytes[]",
          "name": "signers",
          "type": "bytes[]"
        }
      ],
      "name": "isValidSigners",
      "outputs": [
        {
          "internalType": "bool",
          "name": "",
          "type": "bool"
        }
      ],
      "stateMutability": "pure",
      "type": "function"
    }
  ],
  "bytecode": "0x608060405234801561001057600080fd5b50610e5d806100206000396000f3fe608060405234801561001057600080fd5b50600436106100575760003560e01c8063295f3f741461005c57806337517b791461007a57806370043ea0146100aa57806389c18fb0146100da578063f9da50511461010a575b600080fd5b61006461013a565b60405161007191906106fd565b60405180910390f35b610094600480360381019061008f9190610868565b61013f565b6040516100a191906108cc565b60405180910390f35b6100c460048036038101906100bf91906109cd565b61015d565b6040516100d191906108cc565b60405180910390f35b6100f460048036038101906100ef9190610a4c565b6101c4565b60405161010191906108cc565b60405180910390f35b610124600480360381019061011f9190610ad7565b6101e7565b60405161013191906108cc565b60405180910390f35b606090565b600060148251036101535760019050610158565b600090505b919050565b600080600090505b82518110156101b957600061019384838151811061018657610185610b62565b5b602002602001015161013f565b9050806101a5576000925050506101bf565b5080806101b190610bca565b915050610165565b50600190505b919050565b6000806101d0846102ad565b90506101dd8186856102bb565b9150509392505050565b6000815183511461022d576040517f08c379a000000000000000000000000000000000000000000000000000000000815260040161022490610c6f565b60405180910390fd5b60005b83518110156102a057600061027a8686848151811061025257610251610b62565b5b602002602001015186858151811061026d5761026c610b62565b5b60200260200101516101c4565b90508061028c576000925050506102a6565b50808061029890610bca565b915050610230565b50600190505b9392505050565b600060148201519050919050565b60008060006102ca8585610481565b91509150600060048111156102e2576102e1610c8f565b5b8160048111156102f5576102f4610c8f565b5b14801561032d57508573ffffffffffffffffffffffffffffffffffffffff168273ffffffffffffffffffffffffffffffffffffffff16145b1561033d5760019250505061047a565b6000808773ffffffffffffffffffffffffffffffffffffffff16631626ba7e60e01b8888604051602401610372929190610ccd565b604051602081830303815290604052907bffffffffffffffffffffffffffffffffffffffffffffffffffffffff19166020820180517bffffffffffffffffffffffffffffffffffffffffffffffffffffffff83818316178352505050506040516103dc9190610d39565b600060405180830381855afa9150503d8060008114610417576040519150601f19603f3d011682016040523d82523d6000602084013e61041c565b606091505b509150915081801561042f575060208151145b80156104735750631626ba7e60e01b7bffffffffffffffffffffffffffffffffffffffffffffffffffffffff1916818060200190518101906104719190610d65565b145b9450505050505b9392505050565b60008060418351036104c25760008060006020860151925060408601519150606086015160001a90506104b687828585610502565b945094505050506104fb565b60408351036104f25760008060208501519150604085015190506104e786838361060e565b9350935050506104fb565b60006002915091505b9250929050565b6000807f7fffffffffffffffffffffffffffffff5d576e7357a4501ddfe92f46681b20a08360001c111561053d576000600391509150610605565b601b8560ff16141580156105555750601c8560ff1614155b15610567576000600491509150610605565b60006001878787876040516000815260200160405260405161058c9493929190610dae565b6020604051602081039080840390855afa1580156105ae573d6000803e3d6000fd5b505050602060405103519050600073ffffffffffffffffffffffffffffffffffffffff168173ffffffffffffffffffffffffffffffffffffffff16036105fc57600060019250925050610605565b80600092509250505b94509492505050565b60008060007f7fffffffffffffffffffffffffffffffffffffffffffffffffffffffffffffff60001b841690506000601b60ff8660001c901c6106519190610df3565b905061065f87828885610502565b935093505050935093915050565b600081519050919050565b600082825260208201905092915050565b60005b838110156106a757808201518184015260208101905061068c565b60008484015250505050565b6000601f19601f8301169050919050565b60006106cf8261066d565b6106d98185610678565b93506106e9818560208601610689565b6106f2816106b3565b840191505092915050565b6000602082019050818103600083015261071781846106c4565b905092915050565b6000604051905090565b600080fd5b600080fd5b600080fd5b600080fd5b7f4e487b7100000000000000000000000000000000000000000000000000000000600052604160045260246000fd5b610775826106b3565b810181811067ffffffffffffffff821117156107945761079361073d565b5b80604052505050565b60006107a761071f565b90506107b3828261076c565b919050565b600067ffffffffffffffff8211156107d3576107d261073d565b5b6107dc826106b3565b9050602081019050919050565b82818337600083830152505050565b600061080b610806846107b8565b61079d565b90508281526020810184848401111561082757610826610738565b5b6108328482856107e9565b509392505050565b600082601f83011261084f5761084e610733565b5b813561085f8482602086016107f8565b91505092915050565b60006020828403121561087e5761087d610729565b5b600082013567ffffffffffffffff81111561089c5761089b61072e565b5b6108a88482850161083a565b91505092915050565b60008115159050919050565b6108c6816108b1565b82525050565b60006020820190506108e160008301846108bd565b92915050565b600067ffffffffffffffff8211156109025761090161073d565b5b602082029050602081019050919050565b600080fd5b600061092b610926846108e7565b61079d565b9050808382526020820190506020840283018581111561094e5761094d610913565b5b835b8181101561099557803567ffffffffffffffff81111561097357610972610733565b5b808601610980898261083a565b85526020850194505050602081019050610950565b5050509392505050565b600082601f8301126109b4576109b3610733565b5b81356109c4848260208601610918565b91505092915050565b6000602082840312156109e3576109e2610729565b5b600082013567ffffffffffffffff811115610a0157610a0061072e565b5b610a0d8482850161099f565b91505092915050565b6000819050919050565b610a2981610a16565b8114610a3457600080fd5b50565b600081359050610a4681610a20565b92915050565b600080600060608486031215610a6557610a64610729565b5b6000610a7386828701610a37565b935050602084013567ffffffffffffffff811115610a9457610a9361072e565b5b610aa08682870161083a565b925050604084013567ffffffffffffffff811115610ac157610ac061072e565b5b610acd8682870161083a565b9150509250925092565b600080600060608486031215610af057610aef610729565b5b6000610afe86828701610a37565b935050602084013567ffffffffffffffff811115610b1f57610b1e61072e565b5b610b2b8682870161099f565b925050604084013567ffffffffffffffff811115610b4c57610b4b61072e565b5b610b588682870161099f565b9150509250925092565b7f4e487b7100000000000000000000000000000000000000000000000000000000600052603260045260246000fd5b7f4e487b7100000000000000000000000000000000000000000000000000000000600052601160045260246000fd5b6000819050919050565b6000610bd582610bc0565b91507fffffffffffffffffffffffffffffffffffffffffffffffffffffffffffffffff8203610c0757610c06610b91565b5b600182019050919050565b600082825260208201905092915050565b7f696e76616c696420617267730000000000000000000000000000000000000000600082015250565b6000610c59600c83610c12565b9150610c6482610c23565b602082019050919050565b60006020820190508181036000830152610c8881610c4c565b9050919050565b7f4e487b7100000000000000000000000000000000000000000000000000000000600052602160045260246000fd5b610cc781610a16565b82525050565b6000604082019050610ce26000830185610cbe565b8181036020830152610cf481846106c4565b90509392505050565b600081905092915050565b6000610d138261066d565b610d1d8185610cfd565b9350610d2d818560208601610689565b80840191505092915050565b6000610d458284610d08565b915081905092915050565b600081519050610d5f81610a20565b92915050565b600060208284031215610d7b57610d7a610729565b5b6000610d8984828501610d50565b91505092915050565b600060ff82169050919050565b610da881610d92565b82525050565b6000608082019050610dc36000830187610cbe565b610dd06020830186610d9f565b610ddd6040830185610cbe565b610dea6060830184610cbe565b95945050505050565b6000610dfe82610bc0565b9150610e0983610bc0565b9250828201905080821115610e2157610e20610b91565b5b9291505056fea2646970667358221220a3186ed8d26c22454319322210cb57d05591531a128a5876f95f3c839c9f9b4e64736f6c63430008130033",
  "linkReferences": {},
  "deployedLinkReferences": {}
}