{
  "_format": "hh-sol-artifact-1",
  "contractName": "TestAccount",
  "sourceName": "src/test/TestAccount.sol",
  "abi": [
    {
      "anonymous": false,
      "inputs": [
        {
          "indexed": true,
          "internalType": "address",
          "name": "owner",
          "type": "address"
        }
      ],
      "name": "AddedOwner",
      "type": "event"
    },
    {
      "anonymous": false,
      "inputs": [
        {
          "indexed": true,
          "internalType": "bytes32",
          "name": "approvedHash",
          "type": "bytes32"
        },
        {
          "indexed": true,
          "internalType": "address",
          "name": "owner",
          "type": "address"
        }
      ],
      "name": "ApproveHash",
      "type": "event"
    },
    {
      "anonymous": false,
      "inputs": [
        {
          "indexed": true,
          "internalType": "address",
          "name": "handler",
          "type": "address"
        }
      ],
      "name": "ChangedFallbackHandler",
      "type": "event"
    },
    {
      "anonymous": false,
      "inputs": [
        {
          "indexed": true,
          "internalType": "address",
          "name": "guard",
          "type": "address"
        }
      ],
      "name": "ChangedGuard",
      "type": "event"
    },
    {
      "anonymous": false,
      "inputs": [
        {
          "indexed": false,
          "internalType": "uint256",
          "name": "threshold",
          "type": "uint256"
        }
      ],
      "name": "ChangedThreshold",
      "type": "event"
    },
    {
      "anonymous": false,
      "inputs": [
        {
          "indexed": true,
          "internalType": "address",
          "name": "module",
          "type": "address"
        }
      ],
      "name": "DisabledModule",
      "type": "event"
    },
    {
      "anonymous": false,
      "inputs": [
        {
          "indexed": true,
          "internalType": "address",
          "name": "module",
          "type": "address"
        }
      ],
      "name": "EnabledModule",
      "type": "event"
    },
    {
      "anonymous": false,
      "inputs": [
        {
          "indexed": true,
          "internalType": "bytes32",
          "name": "txHash",
          "type": "bytes32"
        },
        {
          "indexed": false,
          "internalType": "uint256",
          "name": "payment",
          "type": "uint256"
        }
      ],
      "name": "ExecutionFailure",
      "type": "event"
    },
    {
      "anonymous": false,
      "inputs": [
        {
          "indexed": true,
          "internalType": "address",
          "name": "module",
          "type": "address"
        }
      ],
      "name": "ExecutionFromModuleFailure",
      "type": "event"
    },
    {
      "anonymous": false,
      "inputs": [
        {
          "indexed": true,
          "internalType": "address",
          "name": "module",
          "type": "address"
        }
      ],
      "name": "ExecutionFromModuleSuccess",
      "type": "event"
    },
    {
      "anonymous": false,
      "inputs": [
        {
          "indexed": true,
          "internalType": "bytes32",
          "name": "txHash",
          "type": "bytes32"
        },
        {
          "indexed": false,
          "internalType": "uint256",
          "name": "payment",
          "type": "uint256"
        }
      ],
      "name": "ExecutionSuccess",
      "type": "event"
    },
    {
      "anonymous": false,
      "inputs": [
        {
          "indexed": true,
          "internalType": "address",
          "name": "owner",
          "type": "address"
        }
      ],
      "name": "RemovedOwner",
      "type": "event"
    },
    {
      "anonymous": false,
      "inputs": [
        {
          "indexed": true,
          "internalType": "address",
          "name": "sender",
          "type": "address"
        },
        {
          "indexed": false,
          "internalType": "uint256",
          "name": "value",
          "type": "uint256"
        }
      ],
      "name": "SafeReceived",
      "type": "event"
    },
    {
      "anonymous": false,
      "inputs": [
        {
          "indexed": true,
          "internalType": "address",
          "name": "initiator",
          "type": "address"
        },
        {
          "indexed": false,
          "internalType": "address[]",
          "name": "owners",
          "type": "address[]"
        },
        {
          "indexed": false,
          "internalType": "uint256",
          "name": "threshold",
          "type": "uint256"
        },
        {
          "indexed": false,
          "internalType": "address",
          "name": "initializer",
          "type": "address"
        },
        {
          "indexed": false,
          "internalType": "address",
          "name": "fallbackHandler",
          "type": "address"
        }
      ],
      "name": "SafeSetup",
      "type": "event"
    },
    {
      "anonymous": false,
      "inputs": [
        {
          "indexed": true,
          "internalType": "bytes32",
          "name": "msgHash",
          "type": "bytes32"
        }
      ],
      "name": "SignMsg",
      "type": "event"
    },
    {
      "stateMutability": "nonpayable",
      "type": "fallback"
    },
    {
      "inputs": [],
      "name": "VERSION",
      "outputs": [
        {
          "internalType": "string",
          "name": "",
          "type": "string"
        }
      ],
      "stateMutability": "view",
      "type": "function"
    },
    {
      "inputs": [
        {
          "internalType": "address",
          "name": "owner",
          "type": "address"
        },
        {
          "internalType": "uint256",
          "name": "_threshold",
          "type": "uint256"
        }
      ],
      "name": "addOwnerWithThreshold",
      "outputs": [],
      "stateMutability": "nonpayable",
      "type": "function"
    },
    {
      "inputs": [
        {
          "internalType": "bytes32",
          "name": "hashToApprove",
          "type": "bytes32"
        }
      ],
      "name": "approveHash",
      "outputs": [],
      "stateMutability": "nonpayable",
      "type": "function"
    },
    {
      "inputs": [
        {
          "internalType": "address",
          "name": "",
          "type": "address"
        },
        {
          "internalType": "bytes32",
          "name": "",
          "type": "bytes32"
        }
      ],
      "name": "approvedHashes",
      "outputs": [
        {
          "internalType": "uint256",
          "name": "",
          "type": "uint256"
        }
      ],
      "stateMutability": "view",
      "type": "function"
    },
    {
      "inputs": [
        {
          "internalType": "uint256",
          "name": "_threshold",
          "type": "uint256"
        }
      ],
      "name": "changeThreshold",
      "outputs": [],
      "stateMutability": "nonpayable",
      "type": "function"
    },
    {
      "inputs": [
        {
          "internalType": "bytes32",
          "name": "dataHash",
          "type": "bytes32"
        },
        {
          "internalType": "bytes",
          "name": "data",
          "type": "bytes"
        },
        {
          "internalType": "bytes",
          "name": "signatures",
          "type": "bytes"
        },
        {
          "internalType": "uint256",
          "name": "requiredSignatures",
          "type": "uint256"
        }
      ],
      "name": "checkNSignatures",
      "outputs": [],
      "stateMutability": "view",
      "type": "function"
    },
    {
      "inputs": [
        {
          "internalType": "bytes32",
          "name": "dataHash",
          "type": "bytes32"
        },
        {
          "internalType": "bytes",
          "name": "data",
          "type": "bytes"
        },
        {
          "internalType": "bytes",
          "name": "signatures",
          "type": "bytes"
        }
      ],
      "name": "checkSignatures",
      "outputs": [],
      "stateMutability": "view",
      "type": "function"
    },
    {
      "inputs": [
        {
          "internalType": "address",
          "name": "prevModule",
          "type": "address"
        },
        {
          "internalType": "address",
          "name": "module",
          "type": "address"
        }
      ],
      "name": "disableModule",
      "outputs": [],
      "stateMutability": "nonpayable",
      "type": "function"
    },
    {
      "inputs": [],
      "name": "domainSeparator",
      "outputs": [
        {
          "internalType": "bytes32",
          "name": "",
          "type": "bytes32"
        }
      ],
      "stateMutability": "view",
      "type": "function"
    },
    {
      "inputs": [
        {
          "internalType": "address",
          "name": "module",
          "type": "address"
        }
      ],
      "name": "enableModule",
      "outputs": [],
      "stateMutability": "nonpayable",
      "type": "function"
    },
    {
      "inputs": [
        {
          "internalType": "address",
          "name": "to",
          "type": "address"
        },
        {
          "internalType": "uint256",
          "name": "value",
          "type": "uint256"
        },
        {
          "internalType": "bytes",
          "name": "data",
          "type": "bytes"
        },
        {
          "internalType": "enum Enum.Operation",
          "name": "operation",
          "type": "uint8"
        },
        {
          "internalType": "uint256",
          "name": "safeTxGas",
          "type": "uint256"
        },
        {
          "internalType": "uint256",
          "name": "baseGas",
          "type": "uint256"
        },
        {
          "internalType": "uint256",
          "name": "gasPrice",
          "type": "uint256"
        },
        {
          "internalType": "address",
          "name": "gasToken",
          "type": "address"
        },
        {
          "internalType": "address",
          "name": "refundReceiver",
          "type": "address"
        },
        {
          "internalType": "uint256",
          "name": "_nonce",
          "type": "uint256"
        }
      ],
      "name": "encodeTransactionData",
      "outputs": [
        {
          "internalType": "bytes",
          "name": "",
          "type": "bytes"
        }
      ],
      "stateMutability": "view",
      "type": "function"
    },
    {
      "inputs": [
        {
          "internalType": "address",
          "name": "to",
          "type": "address"
        },
        {
          "internalType": "uint256",
          "name": "value",
          "type": "uint256"
        },
        {
          "internalType": "bytes",
          "name": "data",
          "type": "bytes"
        },
        {
          "internalType": "enum Enum.Operation",
          "name": "operation",
          "type": "uint8"
        },
        {
          "internalType": "uint256",
          "name": "safeTxGas",
          "type": "uint256"
        },
        {
          "internalType": "uint256",
          "name": "baseGas",
          "type": "uint256"
        },
        {
          "internalType": "uint256",
          "name": "gasPrice",
          "type": "uint256"
        },
        {
          "internalType": "address",
          "name": "gasToken",
          "type": "address"
        },
        {
          "internalType": "address payable",
          "name": "refundReceiver",
          "type": "address"
        },
        {
          "internalType": "bytes",
          "name": "signatures",
          "type": "bytes"
        }
      ],
      "name": "execTransaction",
      "outputs": [
        {
          "internalType": "bool",
          "name": "success",
          "type": "bool"
        }
      ],
      "stateMutability": "payable",
      "type": "function"
    },
    {
      "inputs": [
        {
          "internalType": "address",
          "name": "to",
          "type": "address"
        },
        {
          "internalType": "uint256",
          "name": "value",
          "type": "uint256"
        },
        {
          "internalType": "bytes",
          "name": "data",
          "type": "bytes"
        },
        {
          "internalType": "enum Enum.Operation",
          "name": "operation",
          "type": "uint8"
        }
      ],
      "name": "execTransactionFromModule",
      "outputs": [
        {
          "internalType": "bool",
          "name": "success",
          "type": "bool"
        }
      ],
      "stateMutability": "nonpayable",
      "type": "function"
    },
    {
      "inputs": [
        {
          "internalType": "address",
          "name": "to",
          "type": "address"
        },
        {
          "internalType": "uint256",
          "name": "value",
          "type": "uint256"
        },
        {
          "internalType": "bytes",
          "name": "data",
          "type": "bytes"
        },
        {
          "internalType": "enum Enum.Operation",
          "name": "operation",
          "type": "uint8"
        }
      ],
      "name": "execTransactionFromModuleReturnData",
      "outputs": [
        {
          "internalType": "bool",
          "name": "success",
          "type": "bool"
        },
        {
          "internalType": "bytes",
          "name": "returnData",
          "type": "bytes"
        }
      ],
      "stateMutability": "nonpayable",
      "type": "function"
    },
    {
      "inputs": [],
      "name": "getChainId",
      "outputs": [
        {
          "internalType": "uint256",
          "name": "",
          "type": "uint256"
        }
      ],
      "stateMutability": "view",
      "type": "function"
    },
    {
      "inputs": [
        {
          "internalType": "address",
          "name": "start",
          "type": "address"
        },
        {
          "internalType": "uint256",
          "name": "pageSize",
          "type": "uint256"
        }
      ],
      "name": "getModulesPaginated",
      "outputs": [
        {
          "internalType": "address[]",
          "name": "array",
          "type": "address[]"
        },
        {
          "internalType": "address",
          "name": "next",
          "type": "address"
        }
      ],
      "stateMutability": "view",
      "type": "function"
    },
    {
      "inputs": [],
      "name": "getOwners",
      "outputs": [
        {
          "internalType": "address[]",
          "name": "",
          "type": "address[]"
        }
      ],
      "stateMutability": "view",
      "type": "function"
    },
    {
      "inputs": [
        {
          "internalType": "uint256",
          "name": "offset",
          "type": "uint256"
        },
        {
          "internalType": "uint256",
          "name": "length",
          "type": "uint256"
        }
      ],
      "name": "getStorageAt",
      "outputs": [
        {
          "internalType": "bytes",
          "name": "",
          "type": "bytes"
        }
      ],
      "stateMutability": "view",
      "type": "function"
    },
    {
      "inputs": [],
      "name": "getThreshold",
      "outputs": [
        {
          "internalType": "uint256",
          "name": "",
          "type": "uint256"
        }
      ],
      "stateMutability": "view",
      "type": "function"
    },
    {
      "inputs": [
        {
          "internalType": "address",
          "name": "to",
          "type": "address"
        },
        {
          "internalType": "uint256",
          "name": "value",
          "type": "uint256"
        },
        {
          "internalType": "bytes",
          "name": "data",
          "type": "bytes"
        },
        {
          "internalType": "enum Enum.Operation",
          "name": "operation",
          "type": "uint8"
        },
        {
          "internalType": "uint256",
          "name": "safeTxGas",
          "type": "uint256"
        },
        {
          "internalType": "uint256",
          "name": "baseGas",
          "type": "uint256"
        },
        {
          "internalType": "uint256",
          "name": "gasPrice",
          "type": "uint256"
        },
        {
          "internalType": "address",
          "name": "gasToken",
          "type": "address"
        },
        {
          "internalType": "address",
          "name": "refundReceiver",
          "type": "address"
        },
        {
          "internalType": "uint256",
          "name": "_nonce",
          "type": "uint256"
        }
      ],
      "name": "getTransactionHash",
      "outputs": [
        {
          "internalType": "bytes32",
          "name": "",
          "type": "bytes32"
        }
      ],
      "stateMutability": "view",
      "type": "function"
    },
    {
      "inputs": [
        {
          "internalType": "address",
          "name": "module",
          "type": "address"
        }
      ],
      "name": "isModuleEnabled",
      "outputs": [
        {
          "internalType": "bool",
          "name": "",
          "type": "bool"
        }
      ],
      "stateMutability": "view",
      "type": "function"
    },
    {
      "inputs": [
        {
          "internalType": "address",
          "name": "owner",
          "type": "address"
        }
      ],
      "name": "isOwner",
      "outputs": [
        {
          "internalType": "bool",
          "name": "",
          "type": "bool"
        }
      ],
      "stateMutability": "view",
      "type": "function"
    },
    {
      "inputs": [],
      "name": "nonce",
      "outputs": [
        {
          "internalType": "uint256",
          "name": "",
          "type": "uint256"
        }
      ],
      "stateMutability": "view",
      "type": "function"
    },
    {
      "inputs": [
        {
          "internalType": "address",
          "name": "prevOwner",
          "type": "address"
        },
        {
          "internalType": "address",
          "name": "owner",
          "type": "address"
        },
        {
          "internalType": "uint256",
          "name": "_threshold",
          "type": "uint256"
        }
      ],
      "name": "removeOwner",
      "outputs": [],
      "stateMutability": "nonpayable",
      "type": "function"
    },
    {
      "inputs": [
        {
          "internalType": "address",
          "name": "handler",
          "type": "address"
        }
      ],
      "name": "setFallbackHandler",
      "outputs": [],
      "stateMutability": "nonpayable",
      "type": "function"
    },
    {
      "inputs": [
        {
          "internalType": "address",
          "name": "guard",
          "type": "address"
        }
      ],
      "name": "setGuard",
      "outputs": [],
      "stateMutability": "nonpayable",
      "type": "function"
    },
    {
      "inputs": [
        {
          "internalType": "address[]",
          "name": "_owners",
          "type": "address[]"
        },
        {
          "internalType": "uint256",
          "name": "_threshold",
          "type": "uint256"
        },
        {
          "internalType": "address",
          "name": "to",
          "type": "address"
        },
        {
          "internalType": "bytes",
          "name": "data",
          "type": "bytes"
        },
        {
          "internalType": "address",
          "name": "fallbackHandler",
          "type": "address"
        },
        {
          "internalType": "address",
          "name": "paymentToken",
          "type": "address"
        },
        {
          "internalType": "uint256",
          "name": "payment",
          "type": "uint256"
        },
        {
          "internalType": "address payable",
          "name": "paymentReceiver",
          "type": "address"
        }
      ],
      "name": "setup",
      "outputs": [],
      "stateMutability": "nonpayable",
      "type": "function"
    },
    {
      "inputs": [
        {
          "internalType": "bytes32",
          "name": "",
          "type": "bytes32"
        }
      ],
      "name": "signedMessages",
      "outputs": [
        {
          "internalType": "uint256",
          "name": "",
          "type": "uint256"
        }
      ],
      "stateMutability": "view",
      "type": "function"
    },
    {
      "inputs": [
        {
          "internalType": "address",
          "name": "targetContract",
          "type": "address"
        },
        {
          "internalType": "bytes",
          "name": "calldataPayload",
          "type": "bytes"
        }
      ],
      "name": "simulateAndRevert",
      "outputs": [],
      "stateMutability": "nonpayable",
      "type": "function"
    },
    {
      "inputs": [
        {
          "internalType": "address",
          "name": "prevOwner",
          "type": "address"
        },
        {
          "internalType": "address",
          "name": "oldOwner",
          "type": "address"
        },
        {
          "internalType": "address",
          "name": "newOwner",
          "type": "address"
        }
      ],
      "name": "swapOwner",
      "outputs": [],
      "stateMutability": "nonpayable",
      "type": "function"
    },
    {
      "stateMutability": "payable",
      "type": "receive"
    }
  ],
  "bytecode": "0x608060405234801561001057600080fd5b50600160048190555061656c80620000296000396000f3fe6080604052600436106101d15760003560e01c8063affed0e0116100f7578063e19a9dd911610095578063f08a032311610064578063f08a032314610796578063f698da25146107bf578063f8dc5dd9146107ea578063ffa1ad741461081357610226565b8063e19a9dd9146106dc578063e318b52b14610705578063e75235b81461072e578063e86637db1461075957610226565b8063cc2f8452116100d1578063cc2f84521461060f578063d4d9bdcd1461064d578063d8d11f7814610676578063e009cfde146106b357610226565b8063affed0e014610592578063b4faba09146105bd578063b63e800d146105e657610226565b80635624b25b1161016f5780636a7612021161013e5780636a761202146104d15780637d83297414610501578063934f3a111461053e578063a0e67e2b1461056757610226565b80635624b25b146104055780635ae6bd3714610442578063610b59251461047f578063694e80c3146104a857610226565b80632f54bf6e116101ab5780632f54bf6e146103225780633408e4701461035f578063468721a71461038a5780635229073f146103c757610226565b80630d582f131461029357806312fb68e0146102bc5780632d9ad53d146102e557610226565b36610226573373ffffffffffffffffffffffffffffffffffffffff167f3d0ce9bfc3ed7d6862dbb28b2dea94561fe714a1b4d019aa8af39730d1ad7c3d3460405161021c919061414e565b60405180910390a2005b34801561023257600080fd5b5060007f6c9a6c4a39284e37ed1cf53d337577d14212a4870fb976a4366c693b939918d560001b905080548061026757600080f35b36600080373360601b365260008060143601600080855af13d6000803e8061028e573d6000fd5b3d6000f35b34801561029f57600080fd5b506102ba60048036038101906102b59190614207565b61083e565b005b3480156102c857600080fd5b506102e360048036038101906102de91906143c3565b610bc4565b005b3480156102f157600080fd5b5061030c60048036038101906103079190614462565b611203565b60405161031991906144aa565b60405180910390f35b34801561032e57600080fd5b5061034960048036038101906103449190614462565b6112d5565b60405161035691906144aa565b60405180910390f35b34801561036b57600080fd5b506103746113a7565b604051610381919061414e565b60405180910390f35b34801561039657600080fd5b506103b160048036038101906103ac91906144ea565b6113b4565b6040516103be91906144aa565b60405180910390f35b3480156103d357600080fd5b506103ee60048036038101906103e991906144ea565b611587565b6040516103fc9291906145ec565b60405180910390f35b34801561041157600080fd5b5061042c6004803603810190610427919061461c565b6115bd565b604051610439919061465c565b60405180910390f35b34801561044e57600080fd5b506104696004803603810190610464919061467e565b611655565b604051610476919061414e565b60405180910390f35b34801561048b57600080fd5b506104a660048036038101906104a19190614462565b61166d565b005b3480156104b457600080fd5b506104cf60048036038101906104ca91906146ab565b61198f565b005b6104eb60048036038101906104e69190614776565b611a63565b6040516104f891906144aa565b60405180910390f35b34801561050d57600080fd5b5061052860048036038101906105239190614892565b611e22565b604051610535919061414e565b60405180910390f35b34801561054a57600080fd5b50610565600480360381019061056091906148d2565b611e47565b005b34801561057357600080fd5b5061057c611ea3565b6040516105899190614a1b565b60405180910390f35b34801561059e57600080fd5b506105a761205b565b6040516105b4919061414e565b60405180910390f35b3480156105c957600080fd5b506105e460048036038101906105df9190614a3d565b612061565b005b3480156105f257600080fd5b5061060d60048036038101906106089190614aef565b612083565b005b34801561061b57600080fd5b5061063660048036038101906106319190614207565b6121d6565b604051610644929190614bf5565b60405180910390f35b34801561065957600080fd5b50610674600480360381019061066f919061467e565b6124f2565b005b34801561068257600080fd5b5061069d60048036038101906106989190614c25565b61265d565b6040516106aa9190614d34565b60405180910390f35b3480156106bf57600080fd5b506106da60048036038101906106d59190614d4f565b61268a565b005b3480156106e857600080fd5b5061070360048036038101906106fe9190614462565b6129ab565b005b34801561071157600080fd5b5061072c60048036038101906107279190614d8f565b612b33565b005b34801561073a57600080fd5b506107436130c5565b604051610750919061414e565b60405180910390f35b34801561076557600080fd5b50610780600480360381019061077b9190614c25565b6130cf565b60405161078d919061465c565b60405180910390f35b3480156107a257600080fd5b506107bd60048036038101906107b89190614462565b613191565b005b3480156107cb57600080fd5b506107d46131e8565b6040516107e19190614d34565b60405180910390f35b3480156107f657600080fd5b50610811600480360381019061080c9190614de2565b613244565b005b34801561081f57600080fd5b506108286135e2565b6040516108359190614e8a565b60405180910390f35b61084661361b565b600073ffffffffffffffffffffffffffffffffffffffff168273ffffffffffffffffffffffffffffffffffffffff16141580156108b05750600173ffffffffffffffffffffffffffffffffffffffff168273ffffffffffffffffffffffffffffffffffffffff1614155b80156108e857503073ffffffffffffffffffffffffffffffffffffffff168273ffffffffffffffffffffffffffffffffffffffff1614155b610927576040517f08c379a000000000000000000000000000000000000000000000000000000000815260040161091e90614ef8565b60405180910390fd5b600073ffffffffffffffffffffffffffffffffffffffff16600260008473ffffffffffffffffffffffffffffffffffffffff1673ffffffffffffffffffffffffffffffffffffffff16815260200190815260200160002060009054906101000a900473ffffffffffffffffffffffffffffffffffffffff1673ffffffffffffffffffffffffffffffffffffffff16146109f5576040517f08c379a00000000000000000000000000000000000000000000000000000000081526004016109ec90614f64565b60405180910390fd5b60026000600173ffffffffffffffffffffffffffffffffffffffff1673ffffffffffffffffffffffffffffffffffffffff16815260200190815260200160002060009054906101000a900473ffffffffffffffffffffffffffffffffffffffff16600260008473ffffffffffffffffffffffffffffffffffffffff1673ffffffffffffffffffffffffffffffffffffffff16815260200190815260200160002060006101000a81548173ffffffffffffffffffffffffffffffffffffffff021916908373ffffffffffffffffffffffffffffffffffffffff1602179055508160026000600173ffffffffffffffffffffffffffffffffffffffff1673ffffffffffffffffffffffffffffffffffffffff16815260200190815260200160002060006101000a81548173ffffffffffffffffffffffffffffffffffffffff021916908373ffffffffffffffffffffffffffffffffffffffff16021790555060036000815480929190610b6590614fb3565b91905055508173ffffffffffffffffffffffffffffffffffffffff167f9465fa0c962cc76958e6373a993326400c1c94f8be2fe3a952adfa7f60b2ea2660405160405180910390a28060045414610bc057610bbf8161198f565b5b5050565b610bd860418261368b90919063ffffffff16565b82511015610c1b576040517f08c379a0000000000000000000000000000000000000000000000000000000008152600401610c1290615047565b60405180910390fd5b6000808060008060005b868110156111f757610c3788826136cf565b80945081955082965050505060008460ff1603610eda5789898051906020012014610c97576040517f08c379a0000000000000000000000000000000000000000000000000000000008152600401610c8e906150b3565b60405180910390fd5b8260001c9450610cb160418861368b90919063ffffffff16565b8260001c1015610cf6576040517f08c379a0000000000000000000000000000000000000000000000000000000008152600401610ced9061511f565b60405180910390fd5b8751610d0f60208460001c6136fe90919063ffffffff16565b1115610d50576040517f08c379a0000000000000000000000000000000000000000000000000000000008152600401610d479061518b565b60405180910390fd5b60006020838a01015190508851610d8682610d7860208760001c6136fe90919063ffffffff16565b6136fe90919063ffffffff16565b1115610dc7576040517f08c379a0000000000000000000000000000000000000000000000000000000008152600401610dbe906151f7565b60405180910390fd5b60606020848b010190506320c13b0b60e01b7bffffffffffffffffffffffffffffffffffffffffffffffffffffffff19168773ffffffffffffffffffffffffffffffffffffffff166320c13b0b8d846040518363ffffffff1660e01b8152600401610e33929190615217565b602060405180830381865afa158015610e50573d6000803e3d6000fd5b505050506040513d601f19601f82011682018060405250810190610e7491906152a6565b7bffffffffffffffffffffffffffffffffffffffffffffffffffffffff191614610ed3576040517f08c379a0000000000000000000000000000000000000000000000000000000008152600401610eca9061531f565b60405180910390fd5b50506110a2565b60018460ff1603610fba578260001c94508473ffffffffffffffffffffffffffffffffffffffff163373ffffffffffffffffffffffffffffffffffffffff161480610f7657506000600860008773ffffffffffffffffffffffffffffffffffffffff1673ffffffffffffffffffffffffffffffffffffffff16815260200190815260200160002060008c81526020019081526020016000205414155b610fb5576040517f08c379a0000000000000000000000000000000000000000000000000000000008152600401610fac9061538b565b60405180910390fd5b6110a1565b601e8460ff16111561104e5760018a604051602001610fd99190615423565b60405160208183030381529060405280519060200120600486610ffc9190615456565b85856040516000815260200160405260405161101b949392919061549a565b6020604051602081039080840390855afa15801561103d573d6000803e3d6000fd5b5050506020604051035194506110a0565b60018a85858560405160008152602001604052604051611071949392919061549a565b6020604051602081039080840390855afa158015611093573d6000803e3d6000fd5b5050506020604051035194505b5b5b8573ffffffffffffffffffffffffffffffffffffffff168573ffffffffffffffffffffffffffffffffffffffff161180156111695750600073ffffffffffffffffffffffffffffffffffffffff16600260008773ffffffffffffffffffffffffffffffffffffffff1673ffffffffffffffffffffffffffffffffffffffff16815260200190815260200160002060009054906101000a900473ffffffffffffffffffffffffffffffffffffffff1673ffffffffffffffffffffffffffffffffffffffff1614155b80156111a25750600173ffffffffffffffffffffffffffffffffffffffff168573ffffffffffffffffffffffffffffffffffffffff1614155b6111e1576040517f08c379a00000000000000000000000000000000000000000000000000000000081526004016111d89061552b565b60405180910390fd5b84955080806111ef90614fb3565b915050610c25565b50505050505050505050565b60008173ffffffffffffffffffffffffffffffffffffffff16600173ffffffffffffffffffffffffffffffffffffffff16141580156112ce5750600073ffffffffffffffffffffffffffffffffffffffff16600160008473ffffffffffffffffffffffffffffffffffffffff1673ffffffffffffffffffffffffffffffffffffffff16815260200190815260200160002060009054906101000a900473ffffffffffffffffffffffffffffffffffffffff1673ffffffffffffffffffffffffffffffffffffffff1614155b9050919050565b6000600173ffffffffffffffffffffffffffffffffffffffff168273ffffffffffffffffffffffffffffffffffffffff16141580156113a05750600073ffffffffffffffffffffffffffffffffffffffff16600260008473ffffffffffffffffffffffffffffffffffffffff1673ffffffffffffffffffffffffffffffffffffffff16815260200190815260200160002060009054906101000a900473ffffffffffffffffffffffffffffffffffffffff1673ffffffffffffffffffffffffffffffffffffffff1614155b9050919050565b6000804690508091505090565b6000600173ffffffffffffffffffffffffffffffffffffffff163373ffffffffffffffffffffffffffffffffffffffff161415801561147f5750600073ffffffffffffffffffffffffffffffffffffffff16600160003373ffffffffffffffffffffffffffffffffffffffff1673ffffffffffffffffffffffffffffffffffffffff16815260200190815260200160002060009054906101000a900473ffffffffffffffffffffffffffffffffffffffff1673ffffffffffffffffffffffffffffffffffffffff1614155b6114be576040517f08c379a00000000000000000000000000000000000000000000000000000000081526004016114b590615597565b60405180910390fd5b6114eb858585857fffffffffffffffffffffffffffffffffffffffffffffffffffffffffffffffff613726565b9050801561153b573373ffffffffffffffffffffffffffffffffffffffff167f6895c13664aa4f67288b25d7a21d7aaa34916e355fb9b6fae0a139a9085becb860405160405180910390a261157f565b3373ffffffffffffffffffffffffffffffffffffffff167facd2c8702804128fdb0db2bb49f6d127dd0181c13fd45dbfe16de0930e2bd37560405160405180910390a25b949350505050565b60006060611597868686866113b4565b915060405160203d0181016040523d81523d6000602083013e8091505094509492505050565b606060006020836115ce91906155b7565b67ffffffffffffffff8111156115e7576115e6614298565b5b6040519080825280601f01601f1916602001820160405280156116195781602001600182028036833780820191505090505b50905060005b8381101561164a5780850154806020830260208501015250808061164290614fb3565b91505061161f565b508091505092915050565b60076020528060005260406000206000915090505481565b61167561361b565b600073ffffffffffffffffffffffffffffffffffffffff168173ffffffffffffffffffffffffffffffffffffffff16141580156116df5750600173ffffffffffffffffffffffffffffffffffffffff168173ffffffffffffffffffffffffffffffffffffffff1614155b61171e576040517f08c379a000000000000000000000000000000000000000000000000000000000815260040161171590615645565b60405180910390fd5b600073ffffffffffffffffffffffffffffffffffffffff16600160008373ffffffffffffffffffffffffffffffffffffffff1673ffffffffffffffffffffffffffffffffffffffff16815260200190815260200160002060009054906101000a900473ffffffffffffffffffffffffffffffffffffffff1673ffffffffffffffffffffffffffffffffffffffff16146117ec576040517f08c379a00000000000000000000000000000000000000000000000000000000081526004016117e3906156b1565b60405180910390fd5b60016000600173ffffffffffffffffffffffffffffffffffffffff1673ffffffffffffffffffffffffffffffffffffffff16815260200190815260200160002060009054906101000a900473ffffffffffffffffffffffffffffffffffffffff16600160008373ffffffffffffffffffffffffffffffffffffffff1673ffffffffffffffffffffffffffffffffffffffff16815260200190815260200160002060006101000a81548173ffffffffffffffffffffffffffffffffffffffff021916908373ffffffffffffffffffffffffffffffffffffffff1602179055508060016000600173ffffffffffffffffffffffffffffffffffffffff1673ffffffffffffffffffffffffffffffffffffffff16815260200190815260200160002060006101000a81548173ffffffffffffffffffffffffffffffffffffffff021916908373ffffffffffffffffffffffffffffffffffffffff1602179055508073ffffffffffffffffffffffffffffffffffffffff167fecdf3a3effea5783a3c4c2140e677577666428d44ed9d474a0b3a4c9943f844060405160405180910390a250565b61199761361b565b6003548111156119dc576040517f08c379a00000000000000000000000000000000000000000000000000000000081526004016119d39061571d565b60405180910390fd5b6001811015611a20576040517f08c379a0000000000000000000000000000000000000000000000000000000008152600401611a1790615789565b60405180910390fd5b806004819055507f610f7ff2b304ae8903c3de74c60c6ab1f7d6226b3f52c5161905bb5ad4039c93600454604051611a58919061414e565b60405180910390a150565b6000806000611a7d8e8e8e8e8e8e8e8e8e8e6005546130cf565b905060056000815480929190611a9290614fb3565b919050555080805190602001209150611aac828286611e47565b506000611ab761377f565b9050600073ffffffffffffffffffffffffffffffffffffffff168173ffffffffffffffffffffffffffffffffffffffff1614611b6f578073ffffffffffffffffffffffffffffffffffffffff166375f0bb528f8f8f8f8f8f8f8f8f8f8f336040518d63ffffffff1660e01b8152600401611b3c9c9b9a9998979695949392919061585c565b600060405180830381600087803b158015611b5657600080fd5b505af1158015611b6a573d6000803e3d6000fd5b505050505b6101f4611baa6109c48b611b839190615917565b603f60408d611b9291906155b7565b611b9c919061597a565b6137b090919063ffffffff16565b611bb49190615917565b5a1015611bf6576040517f08c379a0000000000000000000000000000000000000000000000000000000008152600401611bed906159f7565b60405180910390fd5b60005a9050611c688f8f8f8f8080601f016020809104026020016040519081016040528093929190818152602001838380828437600081840152601f19601f820116905080830192505050505050508e60008d14611c54578e611c63565b6109c45a611c629190615a17565b5b613726565b9350611c7d5a826137ca90919063ffffffff16565b90508380611c8c575060008a14155b80611c98575060008814155b611cd7576040517f08c379a0000000000000000000000000000000000000000000000000000000008152600401611cce90615a97565b60405180910390fd5b600080891115611cf157611cee828b8b8b8b6137f3565b90505b8415611d3457837f442e715f626346e8c54381002da614f62bee8d27386535b2521ec8540898556e82604051611d27919061414e565b60405180910390a2611d6d565b837f23428b18acfb3ea64b08dc0c1d296ea9c09702c09083ca5272e64d115b687d2382604051611d64919061414e565b60405180910390a25b5050600073ffffffffffffffffffffffffffffffffffffffff168173ffffffffffffffffffffffffffffffffffffffff1614611e11578073ffffffffffffffffffffffffffffffffffffffff16639327136883856040518363ffffffff1660e01b8152600401611dde929190615ab7565b600060405180830381600087803b158015611df857600080fd5b505af1158015611e0c573d6000803e3d6000fd5b505050505b50509b9a5050505050505050505050565b6008602052816000526040600020602052806000526040600020600091509150505481565b6000600454905060008111611e91576040517f08c379a0000000000000000000000000000000000000000000000000000000008152600401611e8890615b2c565b60405180910390fd5b611e9d84848484610bc4565b50505050565b6060600060035467ffffffffffffffff811115611ec357611ec2614298565b5b604051908082528060200260200182016040528015611ef15781602001602082028036833780820191505090505b50905060008060026000600173ffffffffffffffffffffffffffffffffffffffff1673ffffffffffffffffffffffffffffffffffffffff16815260200190815260200160002060009054906101000a900473ffffffffffffffffffffffffffffffffffffffff1690505b600173ffffffffffffffffffffffffffffffffffffffff168173ffffffffffffffffffffffffffffffffffffffff16146120525780838381518110611fa357611fa2615b4c565b5b602002602001019073ffffffffffffffffffffffffffffffffffffffff16908173ffffffffffffffffffffffffffffffffffffffff1681525050600260008273ffffffffffffffffffffffffffffffffffffffff1673ffffffffffffffffffffffffffffffffffffffff16815260200190815260200160002060009054906101000a900473ffffffffffffffffffffffffffffffffffffffff169050818061204a90614fb3565b925050611f5b565b82935050505090565b60055481565b600080825160208401855af4806000523d6020523d600060403e60403d016000fd5b6120ce8a8a80806020026020016040519081016040528093929190818152602001838360200280828437600081840152601f19601f8201169050808301925050505050505089613992565b600073ffffffffffffffffffffffffffffffffffffffff168473ffffffffffffffffffffffffffffffffffffffff161461210c5761210b84613da0565b5b61215a8787878080601f016020809104026020016040519081016040528093929190818152602001838380828437600081840152601f19601f82011690508083019250505050505050613e3d565b600082111561217457612172826000600186856137f3565b505b3373ffffffffffffffffffffffffffffffffffffffff167f141df868a6331af528e38c83b7aa03edc19be66e37ae67f9285bf4f8e3c6a1a88b8b8b8b896040516121c2959493929190615c06565b60405180910390a250505050505050505050565b60606000600173ffffffffffffffffffffffffffffffffffffffff168473ffffffffffffffffffffffffffffffffffffffff16148061221a575061221984611203565b5b612259576040517f08c379a000000000000000000000000000000000000000000000000000000000815260040161225090615ca0565b60405180910390fd5b6000831161229c576040517f08c379a000000000000000000000000000000000000000000000000000000000815260040161229390615d0c565b60405180910390fd5b8267ffffffffffffffff8111156122b6576122b5614298565b5b6040519080825280602002602001820160405280156122e45781602001602082028036833780820191505090505b5091506000600160008673ffffffffffffffffffffffffffffffffffffffff1673ffffffffffffffffffffffffffffffffffffffff16815260200190815260200160002060009054906101000a900473ffffffffffffffffffffffffffffffffffffffff1691505b600073ffffffffffffffffffffffffffffffffffffffff168273ffffffffffffffffffffffffffffffffffffffff16141580156123b65750600173ffffffffffffffffffffffffffffffffffffffff168273ffffffffffffffffffffffffffffffffffffffff1614155b80156123c157508381105b1561248957818382815181106123da576123d9615b4c565b5b602002602001019073ffffffffffffffffffffffffffffffffffffffff16908173ffffffffffffffffffffffffffffffffffffffff1681525050600160008373ffffffffffffffffffffffffffffffffffffffff1673ffffffffffffffffffffffffffffffffffffffff16815260200190815260200160002060009054906101000a900473ffffffffffffffffffffffffffffffffffffffff169150808061248190614fb3565b91505061234c565b600173ffffffffffffffffffffffffffffffffffffffff168273ffffffffffffffffffffffffffffffffffffffff16146124e757826001826124cb9190615a17565b815181106124dc576124db615b4c565b5b602002602001015191505b808352509250929050565b600073ffffffffffffffffffffffffffffffffffffffff16600260003373ffffffffffffffffffffffffffffffffffffffff1673ffffffffffffffffffffffffffffffffffffffff16815260200190815260200160002060009054906101000a900473ffffffffffffffffffffffffffffffffffffffff1673ffffffffffffffffffffffffffffffffffffffff16036125c0576040517f08c379a00000000000000000000000000000000000000000000000000000000081526004016125b790615d78565b60405180910390fd5b6001600860003373ffffffffffffffffffffffffffffffffffffffff1673ffffffffffffffffffffffffffffffffffffffff1681526020019081526020016000206000838152602001908152602001600020819055503373ffffffffffffffffffffffffffffffffffffffff16817ff2a0eb156472d1440255b0d7c1e19cc07115d1051fe605b0dce69acfec884d9c60405160405180910390a350565b60006126728c8c8c8c8c8c8c8c8c8c8c6130cf565b8051906020012090509b9a5050505050505050505050565b61269261361b565b600073ffffffffffffffffffffffffffffffffffffffff168173ffffffffffffffffffffffffffffffffffffffff16141580156126fc5750600173ffffffffffffffffffffffffffffffffffffffff168173ffffffffffffffffffffffffffffffffffffffff1614155b61273b576040517f08c379a000000000000000000000000000000000000000000000000000000000815260040161273290615645565b60405180910390fd5b8073ffffffffffffffffffffffffffffffffffffffff16600160008473ffffffffffffffffffffffffffffffffffffffff1673ffffffffffffffffffffffffffffffffffffffff16815260200190815260200160002060009054906101000a900473ffffffffffffffffffffffffffffffffffffffff1673ffffffffffffffffffffffffffffffffffffffff1614612808576040517f08c379a00000000000000000000000000000000000000000000000000000000081526004016127ff90615de4565b60405180910390fd5b600160008273ffffffffffffffffffffffffffffffffffffffff1673ffffffffffffffffffffffffffffffffffffffff16815260200190815260200160002060009054906101000a900473ffffffffffffffffffffffffffffffffffffffff16600160008473ffffffffffffffffffffffffffffffffffffffff1673ffffffffffffffffffffffffffffffffffffffff16815260200190815260200160002060006101000a81548173ffffffffffffffffffffffffffffffffffffffff021916908373ffffffffffffffffffffffffffffffffffffffff1602179055506000600160008373ffffffffffffffffffffffffffffffffffffffff1673ffffffffffffffffffffffffffffffffffffffff16815260200190815260200160002060006101000a81548173ffffffffffffffffffffffffffffffffffffffff021916908373ffffffffffffffffffffffffffffffffffffffff1602179055508073ffffffffffffffffffffffffffffffffffffffff167faab4fa2b463f581b2b32cb3b7e3b704b9ce37cc209b5fb4d77e593ace405427660405160405180910390a25050565b6129b361361b565b600073ffffffffffffffffffffffffffffffffffffffff168173ffffffffffffffffffffffffffffffffffffffff1614612ac1578073ffffffffffffffffffffffffffffffffffffffff166301ffc9a77fe6d7a83a000000000000000000000000000000000000000000000000000000006040518263ffffffff1660e01b8152600401612a409190615e13565b602060405180830381865afa158015612a5d573d6000803e3d6000fd5b505050506040513d601f19601f82011682018060405250810190612a819190615e5a565b612ac0576040517f08c379a0000000000000000000000000000000000000000000000000000000008152600401612ab790615ed3565b60405180910390fd5b5b60007f4a204f620c8c5ccdca3fd54d003badd85ba500436a431f0cbda4f558c93c34c860001b90508181558173ffffffffffffffffffffffffffffffffffffffff167f1151116914515bc0891ff9047a6cb32cf902546f83066499bcf8ba33d2353fa260405160405180910390a25050565b612b3b61361b565b600073ffffffffffffffffffffffffffffffffffffffff168173ffffffffffffffffffffffffffffffffffffffff1614158015612ba55750600173ffffffffffffffffffffffffffffffffffffffff168173ffffffffffffffffffffffffffffffffffffffff1614155b8015612bdd57503073ffffffffffffffffffffffffffffffffffffffff168173ffffffffffffffffffffffffffffffffffffffff1614155b612c1c576040517f08c379a0000000000000000000000000000000000000000000000000000000008152600401612c1390614ef8565b60405180910390fd5b600073ffffffffffffffffffffffffffffffffffffffff16600260008373ffffffffffffffffffffffffffffffffffffffff1673ffffffffffffffffffffffffffffffffffffffff16815260200190815260200160002060009054906101000a900473ffffffffffffffffffffffffffffffffffffffff1673ffffffffffffffffffffffffffffffffffffffff1614612cea576040517f08c379a0000000000000000000000000000000000000000000000000000000008152600401612ce190614f64565b60405180910390fd5b600073ffffffffffffffffffffffffffffffffffffffff168273ffffffffffffffffffffffffffffffffffffffff1614158015612d545750600173ffffffffffffffffffffffffffffffffffffffff168273ffffffffffffffffffffffffffffffffffffffff1614155b612d93576040517f08c379a0000000000000000000000000000000000000000000000000000000008152600401612d8a90614ef8565b60405180910390fd5b8173ffffffffffffffffffffffffffffffffffffffff16600260008573ffffffffffffffffffffffffffffffffffffffff1673ffffffffffffffffffffffffffffffffffffffff16815260200190815260200160002060009054906101000a900473ffffffffffffffffffffffffffffffffffffffff1673ffffffffffffffffffffffffffffffffffffffff1614612e60576040517f08c379a0000000000000000000000000000000000000000000000000000000008152600401612e5790615f3f565b60405180910390fd5b600260008373ffffffffffffffffffffffffffffffffffffffff1673ffffffffffffffffffffffffffffffffffffffff16815260200190815260200160002060009054906101000a900473ffffffffffffffffffffffffffffffffffffffff16600260008373ffffffffffffffffffffffffffffffffffffffff1673ffffffffffffffffffffffffffffffffffffffff16815260200190815260200160002060006101000a81548173ffffffffffffffffffffffffffffffffffffffff021916908373ffffffffffffffffffffffffffffffffffffffff16021790555080600260008573ffffffffffffffffffffffffffffffffffffffff1673ffffffffffffffffffffffffffffffffffffffff16815260200190815260200160002060006101000a81548173ffffffffffffffffffffffffffffffffffffffff021916908373ffffffffffffffffffffffffffffffffffffffff1602179055506000600260008473ffffffffffffffffffffffffffffffffffffffff1673ffffffffffffffffffffffffffffffffffffffff16815260200190815260200160002060006101000a81548173ffffffffffffffffffffffffffffffffffffffff021916908373ffffffffffffffffffffffffffffffffffffffff1602179055508173ffffffffffffffffffffffffffffffffffffffff167ff8d49fc529812e9a7c5c50e69c20f0dccc0db8fa95c98bc58cc9a4f1c1299eaf60405160405180910390a28073ffffffffffffffffffffffffffffffffffffffff167f9465fa0c962cc76958e6373a993326400c1c94f8be2fe3a952adfa7f60b2ea2660405160405180910390a2505050565b6000600454905090565b606060007fbb8310d486368db6bd6f849402fdd73ad53d316b5a4b2644ad6efe0f941286d860001b8d8d8d8d604051613109929190615f8f565b60405180910390208c8c8c8c8c8c8c6040516020016131329b9a99989796959493929190615fa8565b604051602081830303815290604052805190602001209050601960f81b600160f81b61315c6131e8565b8360405160200161317094939291906160a0565b6040516020818303038152906040529150509b9a5050505050505050505050565b61319961361b565b6131a281613da0565b8073ffffffffffffffffffffffffffffffffffffffff167f5ac6c46c93c8d0e53714ba3b53db3e7c046da994313d7ed0d192028bc7c228b060405160405180910390a250565b60007f47e79534a245952e8b16893a336b85a3d9ea9fa8c573f3d803afb92a7946921860001b6132166113a7565b306040516020016132299392919061614d565b60405160208183030381529060405280519060200120905090565b61324c61361b565b80600160035461325c9190615a17565b101561329d576040517f08c379a00000000000000000000000000000000000000000000000000000000081526004016132949061571d565b60405180910390fd5b600073ffffffffffffffffffffffffffffffffffffffff168273ffffffffffffffffffffffffffffffffffffffff16141580156133075750600173ffffffffffffffffffffffffffffffffffffffff168273ffffffffffffffffffffffffffffffffffffffff1614155b613346576040517f08c379a000000000000000000000000000000000000000000000000000000000815260040161333d90614ef8565b60405180910390fd5b8173ffffffffffffffffffffffffffffffffffffffff16600260008573ffffffffffffffffffffffffffffffffffffffff1673ffffffffffffffffffffffffffffffffffffffff16815260200190815260200160002060009054906101000a900473ffffffffffffffffffffffffffffffffffffffff1673ffffffffffffffffffffffffffffffffffffffff1614613413576040517f08c379a000000000000000000000000000000000000000000000000000000000815260040161340a90615f3f565b60405180910390fd5b600260008373ffffffffffffffffffffffffffffffffffffffff1673ffffffffffffffffffffffffffffffffffffffff16815260200190815260200160002060009054906101000a900473ffffffffffffffffffffffffffffffffffffffff16600260008573ffffffffffffffffffffffffffffffffffffffff1673ffffffffffffffffffffffffffffffffffffffff16815260200190815260200160002060006101000a81548173ffffffffffffffffffffffffffffffffffffffff021916908373ffffffffffffffffffffffffffffffffffffffff1602179055506000600260008473ffffffffffffffffffffffffffffffffffffffff1673ffffffffffffffffffffffffffffffffffffffff16815260200190815260200160002060006101000a81548173ffffffffffffffffffffffffffffffffffffffff021916908373ffffffffffffffffffffffffffffffffffffffff1602179055506003600081548092919061358290616184565b91905055508173ffffffffffffffffffffffffffffffffffffffff167ff8d49fc529812e9a7c5c50e69c20f0dccc0db8fa95c98bc58cc9a4f1c1299eaf60405160405180910390a280600454146135dd576135dc8161198f565b5b505050565b6040518060400160405280600581526020017f312e342e3100000000000000000000000000000000000000000000000000000081525081565b3073ffffffffffffffffffffffffffffffffffffffff163373ffffffffffffffffffffffffffffffffffffffff1614613689576040517f08c379a0000000000000000000000000000000000000000000000000000000008152600401613680906161f9565b60405180910390fd5b565b600080830361369d57600090506136c9565b600082846136ab91906155b7565b90508284826136ba919061597a565b146136c457600080fd5b809150505b92915050565b60008060008360410260208101860151925060408101860151915060ff60418201870151169350509250925092565b600080828461370d9190615917565b90508381101561371c57600080fd5b8091505092915050565b600060018081111561373b5761373a6157d6565b5b83600181111561374e5761374d6157d6565b5b03613766576000808551602087018986f49050613776565b600080855160208701888a87f190505b95945050505050565b6000807f4a204f620c8c5ccdca3fd54d003badd85ba500436a431f0cbda4f558c93c34c860001b9050805491505090565b6000818310156137c057816137c2565b825b905092915050565b6000828211156137d957600080fd5b600082846137e79190615a17565b90508091505092915050565b600080600073ffffffffffffffffffffffffffffffffffffffff168373ffffffffffffffffffffffffffffffffffffffff16146138305782613832565b325b9050600073ffffffffffffffffffffffffffffffffffffffff168473ffffffffffffffffffffffffffffffffffffffff16036139165761389b3a8610613878573a61387a565b855b61388d888a6136fe90919063ffffffff16565b61368b90919063ffffffff16565b91508073ffffffffffffffffffffffffffffffffffffffff166108fc839081150290604051600060405180830381858888f19350505050613911576040517f08c379a000000000000000000000000000000000000000000000000000000000815260040161390890616265565b60405180910390fd5b613988565b61393b8561392d888a6136fe90919063ffffffff16565b61368b90919063ffffffff16565b915061394884828461407a565b613987576040517f08c379a000000000000000000000000000000000000000000000000000000000815260040161397e906162d1565b60405180910390fd5b5b5095945050505050565b6000600454146139d7576040517f08c379a00000000000000000000000000000000000000000000000000000000081526004016139ce9061633d565b60405180910390fd5b8151811115613a1b576040517f08c379a0000000000000000000000000000000000000000000000000000000008152600401613a129061571d565b60405180910390fd5b6001811015613a5f576040517f08c379a0000000000000000000000000000000000000000000000000000000008152600401613a5690615789565b60405180910390fd5b60006001905060005b8351811015613d0c576000848281518110613a8657613a85615b4c565b5b60200260200101519050600073ffffffffffffffffffffffffffffffffffffffff168173ffffffffffffffffffffffffffffffffffffffff1614158015613afa5750600173ffffffffffffffffffffffffffffffffffffffff168173ffffffffffffffffffffffffffffffffffffffff1614155b8015613b3257503073ffffffffffffffffffffffffffffffffffffffff168173ffffffffffffffffffffffffffffffffffffffff1614155b8015613b6a57508073ffffffffffffffffffffffffffffffffffffffff168373ffffffffffffffffffffffffffffffffffffffff1614155b613ba9576040517f08c379a0000000000000000000000000000000000000000000000000000000008152600401613ba090614ef8565b60405180910390fd5b600073ffffffffffffffffffffffffffffffffffffffff16600260008373ffffffffffffffffffffffffffffffffffffffff1673ffffffffffffffffffffffffffffffffffffffff16815260200190815260200160002060009054906101000a900473ffffffffffffffffffffffffffffffffffffffff1673ffffffffffffffffffffffffffffffffffffffff1614613c77576040517f08c379a0000000000000000000000000000000000000000000000000000000008152600401613c6e90614f64565b60405180910390fd5b80600260008573ffffffffffffffffffffffffffffffffffffffff1673ffffffffffffffffffffffffffffffffffffffff16815260200190815260200160002060006101000a81548173ffffffffffffffffffffffffffffffffffffffff021916908373ffffffffffffffffffffffffffffffffffffffff160217905550809250508080613d0490614fb3565b915050613a68565b506001600260008373ffffffffffffffffffffffffffffffffffffffff1673ffffffffffffffffffffffffffffffffffffffff16815260200190815260200160002060006101000a81548173ffffffffffffffffffffffffffffffffffffffff021916908373ffffffffffffffffffffffffffffffffffffffff160217905550825160038190555081600481905550505050565b3073ffffffffffffffffffffffffffffffffffffffff168173ffffffffffffffffffffffffffffffffffffffff1603613e0e576040517f08c379a0000000000000000000000000000000000000000000000000000000008152600401613e05906163a9565b60405180910390fd5b60007f6c9a6c4a39284e37ed1cf53d337577d14212a4870fb976a4366c693b939918d560001b90508181555050565b600073ffffffffffffffffffffffffffffffffffffffff1660016000600173ffffffffffffffffffffffffffffffffffffffff1673ffffffffffffffffffffffffffffffffffffffff16815260200190815260200160002060009054906101000a900473ffffffffffffffffffffffffffffffffffffffff1673ffffffffffffffffffffffffffffffffffffffff1614613f0c576040517f08c379a0000000000000000000000000000000000000000000000000000000008152600401613f0390616415565b60405180910390fd5b6001806000600173ffffffffffffffffffffffffffffffffffffffff1673ffffffffffffffffffffffffffffffffffffffff16815260200190815260200160002060006101000a81548173ffffffffffffffffffffffffffffffffffffffff021916908373ffffffffffffffffffffffffffffffffffffffff160217905550600073ffffffffffffffffffffffffffffffffffffffff168273ffffffffffffffffffffffffffffffffffffffff161461407657613fc882614122565b614007576040517f08c379a0000000000000000000000000000000000000000000000000000000008152600401613ffe90616481565b60405180910390fd5b6140368260008360017fffffffffffffffffffffffffffffffffffffffffffffffffffffffffffffffff613726565b614075576040517f08c379a000000000000000000000000000000000000000000000000000000000815260040161406c906164ed565b60405180910390fd5b5b5050565b60008063a9059cbb848460405160240161409592919061650d565b6040516020818303038152906040529060e01b6020820180517bffffffffffffffffffffffffffffffffffffffffffffffffffffffff83818316178352505050509050602060008251602084016000896127105a03f13d60008114614105576020811461410d5760009350614118565b819350614118565b600051158215171593505b5050509392505050565b600080823b905060008111915050919050565b6000819050919050565b61414881614135565b82525050565b6000602082019050614163600083018461413f565b92915050565b6000604051905090565b600080fd5b600080fd5b600073ffffffffffffffffffffffffffffffffffffffff82169050919050565b60006141a88261417d565b9050919050565b6141b88161419d565b81146141c357600080fd5b50565b6000813590506141d5816141af565b92915050565b6141e481614135565b81146141ef57600080fd5b50565b600081359050614201816141db565b92915050565b6000806040838503121561421e5761421d614173565b5b600061422c858286016141c6565b925050602061423d858286016141f2565b9150509250929050565b6000819050919050565b61425a81614247565b811461426557600080fd5b50565b60008135905061427781614251565b92915050565b600080fd5b600080fd5b6000601f19601f8301169050919050565b7f4e487b7100000000000000000000000000000000000000000000000000000000600052604160045260246000fd5b6142d082614287565b810181811067ffffffffffffffff821117156142ef576142ee614298565b5b80604052505050565b6000614302614169565b905061430e82826142c7565b919050565b600067ffffffffffffffff82111561432e5761432d614298565b5b61433782614287565b9050602081019050919050565b82818337600083830152505050565b600061436661436184614313565b6142f8565b90508281526020810184848401111561438257614381614282565b5b61438d848285614344565b509392505050565b600082601f8301126143aa576143a961427d565b5b81356143ba848260208601614353565b91505092915050565b600080600080608085870312156143dd576143dc614173565b5b60006143eb87828801614268565b945050602085013567ffffffffffffffff81111561440c5761440b614178565b5b61441887828801614395565b935050604085013567ffffffffffffffff81111561443957614438614178565b5b61444587828801614395565b9250506060614456878288016141f2565b91505092959194509250565b60006020828403121561447857614477614173565b5b6000614486848285016141c6565b91505092915050565b60008115159050919050565b6144a48161448f565b82525050565b60006020820190506144bf600083018461449b565b92915050565b600281106144d257600080fd5b50565b6000813590506144e4816144c5565b92915050565b6000806000806080858703121561450457614503614173565b5b6000614512878288016141c6565b9450506020614523878288016141f2565b935050604085013567ffffffffffffffff81111561454457614543614178565b5b61455087828801614395565b9250506060614561878288016144d5565b91505092959194509250565b600081519050919050565b600082825260208201905092915050565b60005b838110156145a757808201518184015260208101905061458c565b60008484015250505050565b60006145be8261456d565b6145c88185614578565b93506145d8818560208601614589565b6145e181614287565b840191505092915050565b6000604082019050614601600083018561449b565b818103602083015261461381846145b3565b90509392505050565b6000806040838503121561463357614632614173565b5b6000614641858286016141f2565b9250506020614652858286016141f2565b9150509250929050565b6000602082019050818103600083015261467681846145b3565b905092915050565b60006020828403121561469457614693614173565b5b60006146a284828501614268565b91505092915050565b6000602082840312156146c1576146c0614173565b5b60006146cf848285016141f2565b91505092915050565b600080fd5b600080fd5b60008083601f8401126146f8576146f761427d565b5b8235905067ffffffffffffffff811115614715576147146146d8565b5b602083019150836001820283011115614731576147306146dd565b5b9250929050565b60006147438261417d565b9050919050565b61475381614738565b811461475e57600080fd5b50565b6000813590506147708161474a565b92915050565b60008060008060008060008060008060006101408c8e03121561479c5761479b614173565b5b60006147aa8e828f016141c6565b9b505060206147bb8e828f016141f2565b9a505060408c013567ffffffffffffffff8111156147dc576147db614178565b5b6147e88e828f016146e2565b995099505060606147fb8e828f016144d5565b975050608061480c8e828f016141f2565b96505060a061481d8e828f016141f2565b95505060c061482e8e828f016141f2565b94505060e061483f8e828f016141c6565b9350506101006148518e828f01614761565b9250506101208c013567ffffffffffffffff81111561487357614872614178565b5b61487f8e828f01614395565b9150509295989b509295989b9093969950565b600080604083850312156148a9576148a8614173565b5b60006148b7858286016141c6565b92505060206148c885828601614268565b9150509250929050565b6000806000606084860312156148eb576148ea614173565b5b60006148f986828701614268565b935050602084013567ffffffffffffffff81111561491a57614919614178565b5b61492686828701614395565b925050604084013567ffffffffffffffff81111561494757614946614178565b5b61495386828701614395565b9150509250925092565b600081519050919050565b600082825260208201905092915050565b6000819050602082019050919050565b6149928161419d565b82525050565b60006149a48383614989565b60208301905092915050565b6000602082019050919050565b60006149c88261495d565b6149d28185614968565b93506149dd83614979565b8060005b83811015614a0e5781516149f58882614998565b9750614a00836149b0565b9250506001810190506149e1565b5085935050505092915050565b60006020820190508181036000830152614a3581846149bd565b905092915050565b60008060408385031215614a5457614a53614173565b5b6000614a62858286016141c6565b925050602083013567ffffffffffffffff811115614a8357614a82614178565b5b614a8f85828601614395565b9150509250929050565b60008083601f840112614aaf57614aae61427d565b5b8235905067ffffffffffffffff811115614acc57614acb6146d8565b5b602083019150836020820283011115614ae857614ae76146dd565b5b9250929050565b6000806000806000806000806000806101008b8d031215614b1357614b12614173565b5b60008b013567ffffffffffffffff811115614b3157614b30614178565b5b614b3d8d828e01614a99565b9a509a50506020614b508d828e016141f2565b9850506040614b618d828e016141c6565b97505060608b013567ffffffffffffffff811115614b8257614b81614178565b5b614b8e8d828e016146e2565b96509650506080614ba18d828e016141c6565b94505060a0614bb28d828e016141c6565b93505060c0614bc38d828e016141f2565b92505060e0614bd48d828e01614761565b9150509295989b9194979a5092959850565b614bef8161419d565b82525050565b60006040820190508181036000830152614c0f81856149bd565b9050614c1e6020830184614be6565b9392505050565b60008060008060008060008060008060006101408c8e031215614c4b57614c4a614173565b5b6000614c598e828f016141c6565b9b50506020614c6a8e828f016141f2565b9a505060408c013567ffffffffffffffff811115614c8b57614c8a614178565b5b614c978e828f016146e2565b99509950506060614caa8e828f016144d5565b9750506080614cbb8e828f016141f2565b96505060a0614ccc8e828f016141f2565b95505060c0614cdd8e828f016141f2565b94505060e0614cee8e828f016141c6565b935050610100614d008e828f016141c6565b925050610120614d128e828f016141f2565b9150509295989b509295989b9093969950565b614d2e81614247565b82525050565b6000602082019050614d496000830184614d25565b92915050565b60008060408385031215614d6657614d65614173565b5b6000614d74858286016141c6565b9250506020614d85858286016141c6565b9150509250929050565b600080600060608486031215614da857614da7614173565b5b6000614db6868287016141c6565b9350506020614dc7868287016141c6565b9250506040614dd8868287016141c6565b9150509250925092565b600080600060608486031215614dfb57614dfa614173565b5b6000614e09868287016141c6565b9350506020614e1a868287016141c6565b9250506040614e2b868287016141f2565b9150509250925092565b600081519050919050565b600082825260208201905092915050565b6000614e5c82614e35565b614e668185614e40565b9350614e76818560208601614589565b614e7f81614287565b840191505092915050565b60006020820190508181036000830152614ea48184614e51565b905092915050565b7f4753323033000000000000000000000000000000000000000000000000000000600082015250565b6000614ee2600583614e40565b9150614eed82614eac565b602082019050919050565b60006020820190508181036000830152614f1181614ed5565b9050919050565b7f4753323034000000000000000000000000000000000000000000000000000000600082015250565b6000614f4e600583614e40565b9150614f5982614f18565b602082019050919050565b60006020820190508181036000830152614f7d81614f41565b9050919050565b7f4e487b7100000000000000000000000000000000000000000000000000000000600052601160045260246000fd5b6000614fbe82614135565b91507fffffffffffffffffffffffffffffffffffffffffffffffffffffffffffffffff8203614ff057614fef614f84565b5b600182019050919050565b7f4753303230000000000000000000000000000000000000000000000000000000600082015250565b6000615031600583614e40565b915061503c82614ffb565b602082019050919050565b6000602082019050818103600083015261506081615024565b9050919050565b7f4753303237000000000000000000000000000000000000000000000000000000600082015250565b600061509d600583614e40565b91506150a882615067565b602082019050919050565b600060208201905081810360008301526150cc81615090565b9050919050565b7f4753303231000000000000000000000000000000000000000000000000000000600082015250565b6000615109600583614e40565b9150615114826150d3565b602082019050919050565b60006020820190508181036000830152615138816150fc565b9050919050565b7f4753303232000000000000000000000000000000000000000000000000000000600082015250565b6000615175600583614e40565b91506151808261513f565b602082019050919050565b600060208201905081810360008301526151a481615168565b9050919050565b7f4753303233000000000000000000000000000000000000000000000000000000600082015250565b60006151e1600583614e40565b91506151ec826151ab565b602082019050919050565b60006020820190508181036000830152615210816151d4565b9050919050565b6000604082019050818103600083015261523181856145b3565b9050818103602083015261524581846145b3565b90509392505050565b60007fffffffff0000000000000000000000000000000000000000000000000000000082169050919050565b6152838161524e565b811461528e57600080fd5b50565b6000815190506152a08161527a565b92915050565b6000602082840312156152bc576152bb614173565b5b60006152ca84828501615291565b91505092915050565b7f4753303234000000000000000000000000000000000000000000000000000000600082015250565b6000615309600583614e40565b9150615314826152d3565b602082019050919050565b60006020820190508181036000830152615338816152fc565b9050919050565b7f4753303235000000000000000000000000000000000000000000000000000000600082015250565b6000615375600583614e40565b91506153808261533f565b602082019050919050565b600060208201905081810360008301526153a481615368565b9050919050565b600081905092915050565b7f19457468657265756d205369676e6564204d6573736167653a0a333200000000600082015250565b60006153ec601c836153ab565b91506153f7826153b6565b601c82019050919050565b6000819050919050565b61541d61541882614247565b615402565b82525050565b600061542e826153df565b915061543a828461540c565b60208201915081905092915050565b600060ff82169050919050565b600061546182615449565b915061546c83615449565b9250828203905060ff81111561548557615484614f84565b5b92915050565b61549481615449565b82525050565b60006080820190506154af6000830187614d25565b6154bc602083018661548b565b6154c96040830185614d25565b6154d66060830184614d25565b95945050505050565b7f4753303236000000000000000000000000000000000000000000000000000000600082015250565b6000615515600583614e40565b9150615520826154df565b602082019050919050565b6000602082019050818103600083015261554481615508565b9050919050565b7f4753313034000000000000000000000000000000000000000000000000000000600082015250565b6000615581600583614e40565b915061558c8261554b565b602082019050919050565b600060208201905081810360008301526155b081615574565b9050919050565b60006155c282614135565b91506155cd83614135565b92508282026155db81614135565b915082820484148315176155f2576155f1614f84565b5b5092915050565b7f4753313031000000000000000000000000000000000000000000000000000000600082015250565b600061562f600583614e40565b915061563a826155f9565b602082019050919050565b6000602082019050818103600083015261565e81615622565b9050919050565b7f4753313032000000000000000000000000000000000000000000000000000000600082015250565b600061569b600583614e40565b91506156a682615665565b602082019050919050565b600060208201905081810360008301526156ca8161568e565b9050919050565b7f4753323031000000000000000000000000000000000000000000000000000000600082015250565b6000615707600583614e40565b9150615712826156d1565b602082019050919050565b60006020820190508181036000830152615736816156fa565b9050919050565b7f4753323032000000000000000000000000000000000000000000000000000000600082015250565b6000615773600583614e40565b915061577e8261573d565b602082019050919050565b600060208201905081810360008301526157a281615766565b9050919050565b60006157b58385614578565b93506157c2838584614344565b6157cb83614287565b840190509392505050565b7f4e487b7100000000000000000000000000000000000000000000000000000000600052602160045260246000fd5b60028110615816576158156157d6565b5b50565b600081905061582782615805565b919050565b600061583782615819565b9050919050565b6158478161582c565b82525050565b61585681614738565b82525050565b600061016082019050615872600083018f614be6565b61587f602083018e61413f565b8181036040830152615892818c8e6157a9565b90506158a1606083018b61583e565b6158ae608083018a61413f565b6158bb60a083018961413f565b6158c860c083018861413f565b6158d560e0830187614be6565b6158e361010083018661584d565b8181036101208301526158f681856145b3565b9050615906610140830184614be6565b9d9c50505050505050505050505050565b600061592282614135565b915061592d83614135565b925082820190508082111561594557615944614f84565b5b92915050565b7f4e487b7100000000000000000000000000000000000000000000000000000000600052601260045260246000fd5b600061598582614135565b915061599083614135565b9250826159a05761599f61594b565b5b828204905092915050565b7f4753303130000000000000000000000000000000000000000000000000000000600082015250565b60006159e1600583614e40565b91506159ec826159ab565b602082019050919050565b60006020820190508181036000830152615a10816159d4565b9050919050565b6000615a2282614135565b9150615a2d83614135565b9250828203905081811115615a4557615a44614f84565b5b92915050565b7f4753303133000000000000000000000000000000000000000000000000000000600082015250565b6000615a81600583614e40565b9150615a8c82615a4b565b602082019050919050565b60006020820190508181036000830152615ab081615a74565b9050919050565b6000604082019050615acc6000830185614d25565b615ad9602083018461449b565b9392505050565b7f4753303031000000000000000000000000000000000000000000000000000000600082015250565b6000615b16600583614e40565b9150615b2182615ae0565b602082019050919050565b60006020820190508181036000830152615b4581615b09565b9050919050565b7f4e487b7100000000000000000000000000000000000000000000000000000000600052603260045260246000fd5b6000819050919050565b6000615b9460208401846141c6565b905092915050565b6000602082019050919050565b6000615bb58385614968565b9350615bc082615b7b565b8060005b85811015615bf957615bd68284615b85565b615be08882614998565b9750615beb83615b9c565b925050600181019050615bc4565b5085925050509392505050565b60006080820190508181036000830152615c21818789615ba9565b9050615c30602083018661413f565b615c3d6040830185614be6565b615c4a6060830184614be6565b9695505050505050565b7f4753313035000000000000000000000000000000000000000000000000000000600082015250565b6000615c8a600583614e40565b9150615c9582615c54565b602082019050919050565b60006020820190508181036000830152615cb981615c7d565b9050919050565b7f4753313036000000000000000000000000000000000000000000000000000000600082015250565b6000615cf6600583614e40565b9150615d0182615cc0565b602082019050919050565b60006020820190508181036000830152615d2581615ce9565b9050919050565b7f4753303330000000000000000000000000000000000000000000000000000000600082015250565b6000615d62600583614e40565b9150615d6d82615d2c565b602082019050919050565b60006020820190508181036000830152615d9181615d55565b9050919050565b7f4753313033000000000000000000000000000000000000000000000000000000600082015250565b6000615dce600583614e40565b9150615dd982615d98565b602082019050919050565b60006020820190508181036000830152615dfd81615dc1565b9050919050565b615e0d8161524e565b82525050565b6000602082019050615e286000830184615e04565b92915050565b615e378161448f565b8114615e4257600080fd5b50565b600081519050615e5481615e2e565b92915050565b600060208284031215615e7057615e6f614173565b5b6000615e7e84828501615e45565b91505092915050565b7f4753333030000000000000000000000000000000000000000000000000000000600082015250565b6000615ebd600583614e40565b9150615ec882615e87565b602082019050919050565b60006020820190508181036000830152615eec81615eb0565b9050919050565b7f4753323035000000000000000000000000000000000000000000000000000000600082015250565b6000615f29600583614e40565b9150615f3482615ef3565b602082019050919050565b60006020820190508181036000830152615f5881615f1c565b9050919050565b600081905092915050565b6000615f768385615f5f565b9350615f83838584614344565b82840190509392505050565b6000615f9c828486615f6a565b91508190509392505050565b600061016082019050615fbe600083018e614d25565b615fcb602083018d614be6565b615fd8604083018c61413f565b615fe5606083018b614d25565b615ff2608083018a61583e565b615fff60a083018961413f565b61600c60c083018861413f565b61601960e083018761413f565b616027610100830186614be6565b616035610120830185614be6565b61604361014083018461413f565b9c9b505050505050505050505050565b60007fff0000000000000000000000000000000000000000000000000000000000000082169050919050565b6000819050919050565b61609a61609582616053565b61607f565b82525050565b60006160ac8287616089565b6001820191506160bc8286616089565b6001820191506160cc828561540c565b6020820191506160dc828461540c565b60208201915081905095945050505050565b6000819050919050565b600061611361610e6161098461417d565b6160ee565b61417d565b9050919050565b6000616125826160f8565b9050919050565b60006161378261611a565b9050919050565b6161478161612c565b82525050565b60006060820190506161626000830186614d25565b61616f602083018561413f565b61617c604083018461613e565b949350505050565b600061618f82614135565b9150600082036161a2576161a1614f84565b5b600182039050919050565b7f4753303331000000000000000000000000000000000000000000000000000000600082015250565b60006161e3600583614e40565b91506161ee826161ad565b602082019050919050565b60006020820190508181036000830152616212816161d6565b9050919050565b7f4753303131000000000000000000000000000000000000000000000000000000600082015250565b600061624f600583614e40565b915061625a82616219565b602082019050919050565b6000602082019050818103600083015261627e81616242565b9050919050565b7f4753303132000000000000000000000000000000000000000000000000000000600082015250565b60006162bb600583614e40565b91506162c682616285565b602082019050919050565b600060208201905081810360008301526162ea816162ae565b9050919050565b7f4753323030000000000000000000000000000000000000000000000000000000600082015250565b6000616327600583614e40565b9150616332826162f1565b602082019050919050565b600060208201905081810360008301526163568161631a565b9050919050565b7f4753343030000000000000000000000000000000000000000000000000000000600082015250565b6000616393600583614e40565b915061639e8261635d565b602082019050919050565b600060208201905081810360008301526163c281616386565b9050919050565b7f4753313030000000000000000000000000000000000000000000000000000000600082015250565b60006163ff600583614e40565b915061640a826163c9565b602082019050919050565b6000602082019050818103600083015261642e816163f2565b9050919050565b7f4753303032000000000000000000000000000000000000000000000000000000600082015250565b600061646b600583614e40565b915061647682616435565b602082019050919050565b6000602082019050818103600083015261649a8161645e565b9050919050565b7f4753303030000000000000000000000000000000000000000000000000000000600082015250565b60006164d7600583614e40565b91506164e2826164a1565b602082019050919050565b60006020820190508181036000830152616506816164ca565b9050919050565b60006040820190506165226000830185614be6565b61652f602083018461413f565b939250505056fea264697066735822122082c943f3de91b238b7f7f87014d5c463469131af26db245cdac71fcbb60bd79164736f6c63430008130033",
  "linkReferences": {},
  "deployedLinkReferences": {}
}