{
  "address": "0x2bdCC0de6bE1f7D2ee689a0342D76F52E8EFABa3",
  "abi": [
    {
      "inputs": [
        {
          "internalType": "bytes",
          "name": "_data",
          "type": "bytes"
        },
        {
          "internalType": "uint256",
          "name": "_index",
          "type": "uint256"
        }
      ],
      "name": "ReadBytes32OutOfBounds",
      "type": "error"
    },
    {
      "anonymous": false,
      "inputs": [
        {
          "indexed": false,
          "internalType": "bytes32",
          "name": "_key",
          "type": "bytes32"
        }
      ],
      "name": "AddOpenIDAudience",
      "type": "event"
    },
    {
      "anonymous": false,
      "inputs": [
        {
          "indexed": false,
          "internalType": "bytes32",
          "name": "_key",
          "type": "bytes32"
        }
      ],
      "name": "DeleteOpenIDAudience",
      "type": "event"
    },
    {
      "anonymous": false,
      "inputs": [
        {
          "indexed": false,
          "internalType": "bytes32",
          "name": "_key",
          "type": "bytes32"
        }
      ],
      "name": "DeleteOpenIdPublicKey",
      "type": "event"
    },
    {
      "anonymous": false,
      "inputs": [
        {
          "indexed": true,
          "internalType": "address",
          "name": "previousOwner",
          "type": "address"
        },
        {
          "indexed": true,
          "internalType": "address",
          "name": "newOwner",
          "type": "address"
        }
      ],
      "name": "OwnershipTransferred",
      "type": "event"
    },
    {
      "anonymous": false,
      "inputs": [
        {
          "indexed": false,
          "internalType": "bytes32",
          "name": "_key",
          "type": "bytes32"
        },
        {
          "indexed": false,
          "internalType": "bytes",
          "name": "_publicKey",
          "type": "bytes"
        }
      ],
      "name": "UpdateOpenIDPublicKey",
      "type": "event"
    },
    {
      "inputs": [
        {
          "internalType": "bytes32",
          "name": "_key",
          "type": "bytes32"
        }
      ],
      "name": "addOpenIDAudience",
      "outputs": [],
      "stateMutability": "nonpayable",
      "type": "function"
    },
    {
      "inputs": [
        {
          "internalType": "bytes32[]",
          "name": "_keys",
          "type": "bytes32[]"
        },
        {
          "internalType": "bytes[]",
          "name": "_publicKeys",
          "type": "bytes[]"
        }
      ],
      "name": "batchUpdateOpenIDPublicKey",
      "outputs": [],
      "stateMutability": "nonpayable",
      "type": "function"
    },
    {
      "inputs": [
        {
          "internalType": "bytes32",
          "name": "_key",
          "type": "bytes32"
        }
      ],
      "name": "deleteOpenIDAudience",
      "outputs": [],
      "stateMutability": "nonpayable",
      "type": "function"
    },
    {
      "inputs": [
        {
          "internalType": "bytes32",
          "name": "_key",
          "type": "bytes32"
        }
      ],
      "name": "deleteOpenIDPublicKey",
      "outputs": [],
      "stateMutability": "nonpayable",
      "type": "function"
    },
    {
      "inputs": [],
      "name": "getGuardianVerifierInfo",
      "outputs": [
        {
          "internalType": "bytes",
          "name": "metadata",
          "type": "bytes"
        }
      ],
      "stateMutability": "view",
      "type": "function"
    },
    {
      "inputs": [
        {
          "internalType": "bytes32",
          "name": "_key",
          "type": "bytes32"
        }
      ],
      "name": "getOpenIDPublicKey",
      "outputs": [
        {
          "internalType": "bytes",
          "name": "publicKey",
          "type": "bytes"
        }
      ],
      "stateMutability": "view",
      "type": "function"
    },
    {
      "inputs": [
        {
          "internalType": "bytes32",
          "name": "_key",
          "type": "bytes32"
        }
      ],
      "name": "isAudienceValid",
      "outputs": [
        {
          "internalType": "bool",
          "name": "isValid",
          "type": "bool"
        }
      ],
      "stateMutability": "view",
      "type": "function"
    },
    {
      "inputs": [
        {
          "internalType": "bytes32",
          "name": "hash",
          "type": "bytes32"
        },
        {
          "internalType": "bytes",
          "name": "signer",
          "type": "bytes"
        },
        {
          "internalType": "bytes",
          "name": "signature",
          "type": "bytes"
        }
      ],
      "name": "isValidPermission",
      "outputs": [
        {
          "internalType": "bool",
          "name": "",
          "type": "bool"
        }
      ],
      "stateMutability": "view",
      "type": "function"
    },
    {
      "inputs": [
        {
          "internalType": "bytes32",
          "name": "hash",
          "type": "bytes32"
        },
        {
          "internalType": "bytes[]",
          "name": "signers",
          "type": "bytes[]"
        },
        {
          "internalType": "bytes[]",
          "name": "signatures",
          "type": "bytes[]"
        }
      ],
      "name": "isValidPermissions",
      "outputs": [
        {
          "internalType": "bool",
          "name": "",
          "type": "bool"
        }
      ],
      "stateMutability": "view",
      "type": "function"
    },
    {
      "inputs": [
        {
          "internalType": "bytes",
          "name": "signer",
          "type": "bytes"
        }
      ],
      "name": "isValidSigner",
      "outputs": [
        {
          "internalType": "bool",
          "name": "",
          "type": "bool"
        }
      ],
      "stateMutability": "pure",
      "type": "function"
    },
    {
      "inputs": [
        {
          "internalType": "bytes[]",
          "name": "signers",
          "type": "bytes[]"
        }
      ],
      "name": "isValidSigners",
      "outputs": [
        {
          "internalType": "bool",
          "name": "",
          "type": "bool"
        }
      ],
      "stateMutability": "pure",
      "type": "function"
    },
    {
      "inputs": [],
      "name": "owner",
      "outputs": [
        {
          "internalType": "address",
          "name": "",
          "type": "address"
        }
      ],
      "stateMutability": "view",
      "type": "function"
    },
    {
      "inputs": [],
      "name": "renounceOwnership",
      "outputs": [],
      "stateMutability": "nonpayable",
      "type": "function"
    },
    {
      "inputs": [
        {
          "internalType": "address",
          "name": "newOwner",
          "type": "address"
        }
      ],
      "name": "transferOwnership",
      "outputs": [],
      "stateMutability": "nonpayable",
      "type": "function"
    },
    {
      "inputs": [
        {
          "internalType": "bytes32",
          "name": "_key",
          "type": "bytes32"
        },
        {
          "internalType": "bytes",
          "name": "_publicKey",
          "type": "bytes"
        }
      ],
      "name": "updateOpenIDPublicKey",
      "outputs": [],
      "stateMutability": "nonpayable",
      "type": "function"
    },
    {
      "inputs": [
        {
          "internalType": "uint256",
          "name": "_index",
          "type": "uint256"
        },
        {
          "internalType": "bytes",
          "name": "_data",
          "type": "bytes"
        }
      ],
      "name": "validateIDToken",
      "outputs": [
        {
          "internalType": "bool",
          "name": "succ",
          "type": "bool"
        },
        {
          "internalType": "uint256",
          "name": "index",
          "type": "uint256"
        },
        {
          "internalType": "bytes32",
          "name": "issHash",
          "type": "bytes32"
        },
        {
          "internalType": "bytes32",
          "name": "subHash",
          "type": "bytes32"
        },
        {
          "internalType": "bytes32",
          "name": "nonceHash",
          "type": "bytes32"
        }
      ],
      "stateMutability": "view",
      "type": "function"
    }
  ],
  "transactionHash": "0xc96f1467d5f38b11496a6faf124f5d155878c17d22a9734910cb673cc2883ad8",
  "args": [],
  "numDeployments": 1,
  "solcInputHash": "116b69c9a0be847a27c8485dfde19a9d",
  "bytecode": "0x60806040523480156200001157600080fd5b5062000032620000266200003860201b60201c565b6200004060201b60201c565b62000104565b600033905090565b60008060009054906101000a900473ffffffffffffffffffffffffffffffffffffffff169050816000806101000a81548173ffffffffffffffffffffffffffffffffffffffff021916908373ffffffffffffffffffffffffffffffffffffffff1602179055508173ffffffffffffffffffffffffffffffffffffffff168173ffffffffffffffffffffffffffffffffffffffff167f8be0079c531659141344cd1fd0a4f28419497f9722a3daafe3b4186f6b6457e060405160405180910390a35050565b614ecd80620001146000396000f3fe608060405234801561001057600080fd5b50600436106101005760003560e01c806389c18fb011610097578063f2fde38b11610066578063f2fde38b146102af578063f80f8937146102cb578063f8a1d6a1146102e7578063f9da50511461031757610100565b806389c18fb0146102155780638da5cb5b14610245578063b785453414610263578063f22b68db1461029357610100565b80635419c5b2116100d35780635419c5b21461018b57806370043ea0146101bf578063710a5b3c146101ef578063715018a61461020b57610100565b8063295f3f741461010557806337517b79146101235780633d0e4178146101535780633ed83b641461016f575b600080fd5b61010d610347565b60405161011a9190612f94565b60405180910390f35b61013d600480360381019061013891906130ff565b61034c565b60405161014a9190613163565b60405180910390f35b61016d600480360381019061016891906131b4565b61036a565b005b61018960048036038101906101849190613241565b6103cf565b005b6101a560048036038101906101a091906132d7565b61043a565b6040516101b6959493929190613355565b60405180910390f35b6101d960048036038101906101d49190613489565b610923565b6040516101e69190613163565b60405180910390f35b6102096004803603810190610204919061357e565b61098a565b005b610213610ab0565b005b61022f600480360381019061022a91906135ff565b610ac4565b60405161023c9190613163565b60405180910390f35b61024d610ca7565b60405161025a91906136d5565b60405180910390f35b61027d600480360381019061027891906131b4565b610cd0565b60405161028a9190612f94565b60405180910390f35b6102ad60048036038101906102a891906131b4565b610d75565b005b6102c960048036038101906102c4919061371c565b610dd6565b005b6102e560048036038101906102e091906131b4565b610e59565b005b61030160048036038101906102fc91906131b4565b610ec7565b60405161030e9190613163565b60405180910390f35b610331600480360381019061032c9190613749565b610ef1565b60405161033e9190613163565b60405180910390f35b606090565b600060208251036103605760019050610365565b600090505b919050565b610372610fd3565b6002600082815260200190815260200160002060006101000a81549060ff02191690557f5a5c485156cdc63d427984d2c9b81bd8ae5d817ded95016818c43120c93fbd6d816040516103c491906137de565b60405180910390a150565b6103d7610fd3565b81816001600086815260200190815260200160002091826103f9929190613a10565b507f09c7228183e89663fa47ccbf317d3ac5e228a62848b5c29017eb05cb1a7224bc83838360405161042d93929190613b0d565b60405180910390a1505050565b60008060008060003660003660003660008d6004600b61045a9190613b6e565b6104649190613bb0565b9950600061047d8b8f8f6110519290919263ffffffff16565b809c5081925050508d8d8c908363ffffffff168e61049b9190613bb0565b926104a893929190613bee565b965096508063ffffffff168b6104be9190613bb0565b9a506104d58b8f8f6110519290919263ffffffff16565b809c5081925050508d8d8c908363ffffffff168e6104f39190613bb0565b9261050093929190613bee565b945094508063ffffffff168b6105169190613bb0565b9a5061052d8b8f8f6110519290919263ffffffff16565b809c5081925050508d8d8c908363ffffffff168e61054b9190613bb0565b9261055893929190613bee565b925092508063ffffffff168b61056e9190613bb0565b9a50506105af6040518060400160405280600681526020017f4865616465720000000000000000000000000000000000000000000000000000815250611073565b6105fc86868080601f016020809104026020016040519081016040528093929190818152602001838380828437600081840152601f19601f8201169050808301925050505050505061110c565b61063a6040518060400160405280600781526020017f7061796c6f616400000000000000000000000000000000000000000000000000815250611073565b61068784848080601f016020809104026020016040519081016040528093929190818152602001838380828437600081840152601f19601f8201169050808301925050505050505061110c565b6106c56040518060400160405280600981526020017f7369676e61747572650000000000000000000000000000000000000000000000815250611073565b61071282828080601f016020809104026020016040519081016040528093929190818152602001838380828437600081840152601f19601f8201169050808301925050505050505061110c565b60606107238f8f8f8a8a8a8a6111a5565b809250819b5050506107388f8f8f888861133d565b6108c5600261078a89898080601f016020809104026020016040519081016040528093929190818152602001838380828437600081840152601f19601f82011690508083019250505050505050611670565b6107d788888080601f016020809104026020016040519081016040528093929190818152602001838380828437600081840152601f19601f82011690508083019250505050505050611670565b6040516020016107e8929190613cbc565b6040516020818303038152906040526040516108049190613d27565b602060405180830381855afa158015610821573d6000803e3d6000fd5b5050506040513d601f19601f820116820180604052508101906108449190613d53565b826040518060400160405280600381526020017f010001000000000000000000000000000000000000000000000000000000000081525086868080601f016020809104026020016040519081016040528093929190818152602001838380828437600081840152601f19601f82011690508083019250505050505050611aa2565b9b506108d48f8f8f8888611af1565b6040516108e2929190613da5565b604051809103902097506108f98f8f8f8888611c08565b604051610907929190613da5565b6040518091039020985050505050505050939792965093509350565b600080600090505b825181101561097f57600061095984838151811061094c5761094b613dbe565b5b602002602001015161034c565b90508061096b57600092505050610985565b50808061097790613ded565b91505061092b565b50600190505b919050565b610992610fd3565b60008484905090508282905081146109df576040517f08c379a00000000000000000000000000000000000000000000000000000000081526004016109d690613eb8565b60405180910390fd5b60005b81811015610aa85760008686838181106109ff576109fe613dbe565b5b905060200201359050366000868685818110610a1e57610a1d613dbe565b5b9050602002810190610a309190613ee7565b915091508181600160008681526020019081526020016000209182610a56929190613a10565b507f09c7228183e89663fa47ccbf317d3ac5e228a62848b5c29017eb05cb1a7224bc838383604051610a8a93929190613b0d565b60405180910390a15050508080610aa090613ded565b9150506109e2565b505050505050565b610ab8610fd3565b610ac26000611edb565b565b6000806000806000610ad86000888861043a565b94509450945050935083610b21576040517f08c379a0000000000000000000000000000000000000000000000000000000008152600401610b1890613f96565b60405180910390fd5b610b5f6040518060400160405280601581526020017f557365722076616c69646174696f6e2073746172740000000000000000000000815250611073565b610b75610b708b60001c6020611f9f565b61110c565b610b7e816121db565b610b878a6121db565b80610b968b60001c6020611f9f565b8051906020012014610bdd576040517f08c379a0000000000000000000000000000000000000000000000000000000008152600401610bd490614002565b60405180910390fd5b60008383604051602001610bf2929190614043565b604051602081830303815290604052805190602001209050610c168a8a6000612274565b8114610c57576040517f08c379a0000000000000000000000000000000000000000000000000000000008152600401610c4e906140bb565b60405180910390fd5b610c956040518060400160405280601381526020017f557365722076616c69646174696f6e20656e6400000000000000000000000000815250611073565b60019550505050505095945050505050565b60008060009054906101000a900473ffffffffffffffffffffffffffffffffffffffff16905090565b6060600160008381526020019081526020016000208054610cf090613833565b80601f0160208091040260200160405190810160405280929190818152602001828054610d1c90613833565b8015610d695780601f10610d3e57610100808354040283529160200191610d69565b820191906000526020600020905b815481529060010190602001808311610d4c57829003601f168201915b50505050509050919050565b610d7d610fd3565b600160008281526020019081526020016000206000610d9c9190612e9d565b7f2dcad5593eade66ba317c839f2c7cd4b40bf9348055df767870cc43eb955e99f81604051610dcb91906137de565b60405180910390a150565b610dde610fd3565b600073ffffffffffffffffffffffffffffffffffffffff168173ffffffffffffffffffffffffffffffffffffffff1603610e4d576040517f08c379a0000000000000000000000000000000000000000000000000000000008152600401610e449061414d565b60405180910390fd5b610e5681611edb565b50565b610e61610fd3565b60016002600083815260200190815260200160002060006101000a81548160ff0219169083151502179055507fac3cfe69fe75d1ba90e2d1259e5fc2aded0b228ca8b387e0985454d2a58d5ef481604051610ebc91906137de565b60405180910390a150565b60006002600083815260200190815260200160002060009054906101000a900460ff169050919050565b6000828290508585905014610f3b576040517f08c379a0000000000000000000000000000000000000000000000000000000008152600401610f32906141b9565b60405180910390fd5b60005b85859050811015610fc4576000610f9e88888885818110610f6257610f61613dbe565b5b9050602002810190610f749190613ee7565b888887818110610f8757610f86613dbe565b5b9050602002810190610f999190613ee7565b610ac4565b905080610fb057600092505050610fca565b508080610fbc90613ded565b915050610f3e565b50600190505b95945050505050565b610fdb612283565b73ffffffffffffffffffffffffffffffffffffffff16610ff9610ca7565b73ffffffffffffffffffffffffffffffffffffffff161461104f576040517f08c379a000000000000000000000000000000000000000000000000000000000815260040161104690614225565b60405180910390fd5b565b6000808483013563ffffffff8160e01c16925060048401915050935093915050565b61110981604051602401611087919061427e565b6040516020818303038152906040527f41304fac000000000000000000000000000000000000000000000000000000007bffffffffffffffffffffffffffffffffffffffffffffffffffffffff19166020820180517bffffffffffffffffffffffffffffffffffffffffffffffffffffffff838183161783525050505061228b565b50565b6111a2816040516024016111209190612f94565b6040516020818303038152906040527f0be77f56000000000000000000000000000000000000000000000000000000007bffffffffffffffffffffffffffffffffffffffffffffffffffffffff19166020820180517bffffffffffffffffffffffffffffffffffffffffffffffffffffffff838183161783525050505061228b565b50565b600060603660006111b98b8b8b89896122a5565b9150915081816040516111cd929190613da5565b604051809103902093503660006111e78d8d8d8b8b612579565b915091506112208484848460405160200161120594939291906142a0565b60405160208183030381529060405280519060200120610ec7565b61125f576040517f08c379a00000000000000000000000000000000000000000000000000000000081526004016112569061433a565b60405180910390fd5b600061126e8e8e8e8e8e61284d565b8080601f016020809104026020016040519081016040528093929190818152602001838380828437600081840152601f19601f8201169050808301925050505050505090506112e68585836040516020016112cb9392919061435a565b60405160208183030381529060405280519060200120610cd0565b9550600086511161132c576040517f08c379a0000000000000000000000000000000000000000000000000000000008152600401611323906143f2565b60405180910390fd5b505050505097509795505050505050565b366000806113808860046009600a81111561135b5761135a614412565b5b6113659190613b6e565b61136f9190613bb0565b88886110519290919263ffffffff16565b50809150507f22696174223a000000000000000000000000000000000000000000000000000085856006846113b59190614451565b63ffffffff16908463ffffffff16926113d093929190613bee565b906113db9190614489565b1461141b576040517f08c379a000000000000000000000000000000000000000000000000000000000815260040161141290614534565b60405180910390fd5b84848263ffffffff1690600a846114329190614554565b63ffffffff169261144593929190613bee565b92509250503660008061148c8a6004600a8081111561146757611466614412565b5b6114719190613b6e565b61147b9190613bb0565b8a8a6110519290919263ffffffff16565b50809150507f22657870223a000000000000000000000000000000000000000000000000000087876006846114c19190614451565b63ffffffff16908463ffffffff16926114dc93929190613bee565b906114e79190614489565b14611527576040517f08c379a000000000000000000000000000000000000000000000000000000000815260040161151e906145d8565b60405180910390fd5b86868263ffffffff1690600a8461153e9190614554565b63ffffffff169261155193929190613bee565b9250925050600061156142612b21565b90506115a16040518060400160405280600381526020017f4e6f770000000000000000000000000000000000000000000000000000000000815250611073565b6115aa816121db565b6115b342612b98565b6115c88585906115c39190614489565b6121db565b8282906115d59190614489565b8110611616576040517f08c379a000000000000000000000000000000000000000000000000000000000815260040161160d9061466a565b60405180910390fd5b8484906116239190614489565b8111611664576040517f08c379a000000000000000000000000000000000000000000000000000000000815260040161165b906146fc565b60405180910390fd5b50505050505050505050565b60606000829050600060038251611687919061474b565b90506000600382600361169a919061477c565b6116a4919061474b565b60046003600286516116b69190613bb0565b6116c091906147b0565b6116ca9190613b6e565b6116d4919061477c565b905060008167ffffffffffffffff8111156116f2576116f1612fd4565b5b6040519080825280601f01601f1916602001820160405280156117245781602001600182028036833780820191505090505b5090506000805b855160038361173a9190613bb0565b11611912576117cb86838151811061175557611754613dbe565b5b602001015160f81c60f81b60f81c60ff16876001856117749190613bb0565b8151811061178557611784613dbe565b5b602001015160f81c60f81b60f81c60ff16886002866117a49190613bb0565b815181106117b5576117b4613dbe565b5b602001015160f81c60f81b60f81c60ff16612c31565b8685815181106117de576117dd613dbe565b5b60200101876001876117f09190613bb0565b8151811061180157611800613dbe565b5b60200101886002886118139190613bb0565b8151811061182457611823613dbe565b5b60200101896003896118369190613bb0565b8151811061184757611846613dbe565b5b60200101847effffffffffffffffffffffffffffffffffffffffffffffffffffffffffffff191660001a9053847effffffffffffffffffffffffffffffffffffffffffffffffffffffffffffff191660001a9053847effffffffffffffffffffffffffffffffffffffffffffffffffffffffffffff191660001a9053847effffffffffffffffffffffffffffffffffffffffffffffffffffffffffffff191660001a9053505050506004816118fc9190613bb0565b905060038261190b9190613bb0565b915061172b565b60008514611a945760008686885161192a919061477c565b8151811061193b5761193a613dbe565b5b602001015160f81c60f81b60f81c9050600060028703611986578760018951611964919061477c565b8151811061197557611974613dbe565b5b602001015160f81c60f81b60f81c90505b600080600061199d8560ff168560ff166000612c31565b50925092509250828887815181106119b8576119b7613dbe565b5b60200101907effffffffffffffffffffffffffffffffffffffffffffffffffffffffffffff1916908160001a90535081886001886119f69190613bb0565b81518110611a0757611a06613dbe565b5b60200101907effffffffffffffffffffffffffffffffffffffffffffffffffffffffffffff1916908160001a90535060028a03611a8e578088600288611a4d9190613bb0565b81518110611a5e57611a5d613dbe565b5b60200101907effffffffffffffffffffffffffffffffffffffffffffffffffffffffffffff1916908160001a9053505b50505050505b829650505050505050919050565b6000806060611ab2848688612d62565b8092508193505050818015611ae55750611ae260208251611ad3919061477c565b82612e0290919063ffffffff16565b87145b92505050949350505050565b36600080611b348860046008600a811115611b0f57611b0e614412565b5b611b199190613b6e565b611b239190613bb0565b88886110519290919263ffffffff16565b50809150507f226e6f6e6365223a2200000000000000000000000000000000000000000000008585600984611b699190614451565b63ffffffff16908463ffffffff1692611b8493929190613bee565b90611b8f9190614489565b14611bcf576040517f08c379a0000000000000000000000000000000000000000000000000000000008152600401611bc69061482d565b60405180910390fd5b84848263ffffffff1690604284611be69190614554565b63ffffffff1692611bf993929190613bee565b92509250509550959350505050565b36600080611c4a88600480600a811115611c2557611c24614412565b5b611c2f9190613b6e565b611c399190613bb0565b88886110519290919263ffffffff16565b50809150507f22737562223a220000000000000000000000000000000000000000000000000078ffffffffffffffffffffffffffffffffffffffffffffffffff19168585600784611c9b9190614451565b63ffffffff16908463ffffffff1692611cb693929190613bee565b90611cc19190614879565b78ffffffffffffffffffffffffffffffffffffffffffffffffff191614611d1d576040517f08c379a0000000000000000000000000000000000000000000000000000000008152600401611d1490614924565b60405180910390fd5b6000611d5e8960046005600a811115611d3957611d38614412565b5b611d439190613b6e565b611d4d9190613bb0565b89896110519290919263ffffffff16565b5080915050600086868363ffffffff1690600285611d7c9190614554565b63ffffffff1692611d8f93929190613bee565b90611d9a9190614970565b90507f222c0000000000000000000000000000000000000000000000000000000000007dffffffffffffffffffffffffffffffffffffffffffffffffffffffffffff1916817dffffffffffffffffffffffffffffffffffffffffffffffffffffffffffff19161480611e6d57507f227d0000000000000000000000000000000000000000000000000000000000007dffffffffffffffffffffffffffffffffffffffffffffffffffffffffffff1916817dffffffffffffffffffffffffffffffffffffffffffffffffffffffffffff1916145b611eac576040517f08c379a0000000000000000000000000000000000000000000000000000000008152600401611ea390614a1b565b60405180910390fd5b86868463ffffffff16908463ffffffff1692611eca93929190613bee565b945094505050509550959350505050565b60008060009054906101000a900473ffffffffffffffffffffffffffffffffffffffff169050816000806101000a81548173ffffffffffffffffffffffffffffffffffffffff021916908373ffffffffffffffffffffffffffffffffffffffff1602179055508173ffffffffffffffffffffffffffffffffffffffff168173ffffffffffffffffffffffffffffffffffffffff167f8be0079c531659141344cd1fd0a4f28419497f9722a3daafe3b4186f6b6457e060405160405180910390a35050565b606060006002836002611fb29190613b6e565b611fbc9190613bb0565b67ffffffffffffffff811115611fd557611fd4612fd4565b5b6040519080825280601f01601f1916602001820160405280156120075781602001600182028036833780820191505090505b5090507f30000000000000000000000000000000000000000000000000000000000000008160008151811061203f5761203e613dbe565b5b60200101907effffffffffffffffffffffffffffffffffffffffffffffffffffffffffffff1916908160001a9053507f7800000000000000000000000000000000000000000000000000000000000000816001815181106120a3576120a2613dbe565b5b60200101907effffffffffffffffffffffffffffffffffffffffffffffffffffffffffffff1916908160001a905350600060018460026120e39190613b6e565b6120ed9190613bb0565b90505b600181111561218d577f3031323334353637383961626364656600000000000000000000000000000000600f86166010811061212f5761212e613dbe565b5b1a60f81b82828151811061214657612145613dbe565b5b60200101907effffffffffffffffffffffffffffffffffffffffffffffffffffffffffffff1916908160001a905350600485901c94508061218690614a3b565b90506120f0565b50600084146121d1576040517f08c379a00000000000000000000000000000000000000000000000000000000081526004016121c890614ab0565b60405180910390fd5b8091505092915050565b612271816040516024016121ef91906137de565b6040516020818303038152906040527f27b7cf85000000000000000000000000000000000000000000000000000000007bffffffffffffffffffffffffffffffffffffffffffffffffffffffff19166020820180517bffffffffffffffffffffffffffffffffffffffffffffffffffffffff838183161783525050505061228b565b50565b60008184013590509392505050565b600033905090565b6122a28161229a612e69612e92565b63ffffffff16565b50565b366000806122e88860046000600a8111156122c3576122c2614412565b5b6122cd9190613b6e565b6122d79190613bb0565b88886110519290919263ffffffff16565b50809150507f22697373223a220000000000000000000000000000000000000000000000000078ffffffffffffffffffffffffffffffffffffffffffffffffff191685856007846123399190614451565b63ffffffff16908463ffffffff169261235493929190613bee565b9061235f9190614879565b78ffffffffffffffffffffffffffffffffffffffffffffffffff1916146123bb576040517f08c379a00000000000000000000000000000000000000000000000000000000081526004016123b290614b1c565b60405180910390fd5b60006123fc8960046001600a8111156123d7576123d6614412565b5b6123e19190613b6e565b6123eb9190613bb0565b89896110519290919263ffffffff16565b5080915050600086868363ffffffff169060028561241a9190614554565b63ffffffff169261242d93929190613bee565b906124389190614970565b90507f222c0000000000000000000000000000000000000000000000000000000000007dffffffffffffffffffffffffffffffffffffffffffffffffffffffffffff1916817dffffffffffffffffffffffffffffffffffffffffffffffffffffffffffff1916148061250b57507f227d0000000000000000000000000000000000000000000000000000000000007dffffffffffffffffffffffffffffffffffffffffffffffffffffffffffff1916817dffffffffffffffffffffffffffffffffffffffffffffffffffffffffffff1916145b61254a576040517f08c379a000000000000000000000000000000000000000000000000000000000815260040161254190614b88565b60405180910390fd5b86868463ffffffff16908463ffffffff169261256893929190613bee565b945094505050509550959350505050565b366000806125bc8860046006600a81111561259757612596614412565b5b6125a19190613b6e565b6125ab9190613bb0565b88886110519290919263ffffffff16565b50809150507f22617564223a220000000000000000000000000000000000000000000000000078ffffffffffffffffffffffffffffffffffffffffffffffffff1916858560078461260d9190614451565b63ffffffff16908463ffffffff169261262893929190613bee565b906126339190614879565b78ffffffffffffffffffffffffffffffffffffffffffffffffff19161461268f576040517f08c379a000000000000000000000000000000000000000000000000000000000815260040161268690614bf4565b60405180910390fd5b60006126d08960046007600a8111156126ab576126aa614412565b5b6126b59190613b6e565b6126bf9190613bb0565b89896110519290919263ffffffff16565b5080915050600086868363ffffffff16906002856126ee9190614554565b63ffffffff169261270193929190613bee565b9061270c9190614970565b90507f222c0000000000000000000000000000000000000000000000000000000000007dffffffffffffffffffffffffffffffffffffffffffffffffffffffffffff1916817dffffffffffffffffffffffffffffffffffffffffffffffffffffffffffff191614806127df57507f227d0000000000000000000000000000000000000000000000000000000000007dffffffffffffffffffffffffffffffffffffffffffffffffffffffffffff1916817dffffffffffffffffffffffffffffffffffffffffffffffffffffffffffff1916145b61281e576040517f08c379a000000000000000000000000000000000000000000000000000000000815260040161281590614c60565b60405180910390fd5b86868463ffffffff16908463ffffffff169261283c93929190613bee565b945094505050509550959350505050565b366000806128908860046002600a81111561286b5761286a614412565b5b6128759190613b6e565b61287f9190613bb0565b88886110519290919263ffffffff16565b50809150507f226b6964223a220000000000000000000000000000000000000000000000000078ffffffffffffffffffffffffffffffffffffffffffffffffff191685856007846128e19190614451565b63ffffffff16908463ffffffff16926128fc93929190613bee565b906129079190614879565b78ffffffffffffffffffffffffffffffffffffffffffffffffff191614612963576040517f08c379a000000000000000000000000000000000000000000000000000000000815260040161295a90614ccc565b60405180910390fd5b60006129a48960046003600a81111561297f5761297e614412565b5b6129899190613b6e565b6129939190613bb0565b89896110519290919263ffffffff16565b5080915050600086868363ffffffff16906002856129c29190614554565b63ffffffff16926129d593929190613bee565b906129e09190614970565b90507f222c0000000000000000000000000000000000000000000000000000000000007dffffffffffffffffffffffffffffffffffffffffffffffffffffffffffff1916817dffffffffffffffffffffffffffffffffffffffffffffffffffffffffffff19161480612ab357507f227d0000000000000000000000000000000000000000000000000000000000007dffffffffffffffffffffffffffffffffffffffffffffffffffffffffffff1916817dffffffffffffffffffffffffffffffffffffffffffffffffffffffffffff1916145b612af2576040517f08c379a0000000000000000000000000000000000000000000000000000000008152600401612ae990614d38565b60405180910390fd5b86868463ffffffff16908463ffffffff1692612b1093929190613bee565b945094505050509550959350505050565b60008060005b600115612b8757600882026030600a8663ffffffff1681612b4b57612b4a61471c565b5b0601901b81179050600a8463ffffffff1681612b6a57612b6961471c565b5b04935060008463ffffffff160315612b8757816001019150612b27565b60b081901b60001b92505050919050565b612c2e81604051602401612bac9190614d58565b6040516020818303038152906040527ff82c50f1000000000000000000000000000000000000000000000000000000007bffffffffffffffffffffffffffffffffffffffffffffffffffffffff19166020820180517bffffffffffffffffffffffffffffffffffffffffffffffffffffffff838183161783525050505061228b565b50565b600080600080600085600888901b60108a901b171790506000603f601283901c1690506000603f600c84901c1690506000603f600685901c1690506000603f85169050604051806060016040528060408152602001614e58604091398481518110612c9f57612c9e613dbe565b5b602001015160f81c60f81b9850604051806060016040528060408152602001614e58604091398381518110612cd757612cd6613dbe565b5b602001015160f81c60f81b9750604051806060016040528060408152602001614e58604091398281518110612d0f57612d0e613dbe565b5b602001015160f81c60f81b9650604051806060016040528060408152602001614e58604091398181518110612d4757612d46613dbe565b5b602001015160f81c60f81b9550505050505093509350935093565b600060606000855185518551888888604051602001612d8696959493929190614d94565b6040516020818303038152906040529050835167ffffffffffffffff811115612db257612db1612fd4565b5b6040519080825280601f01601f191660200182016040528015612de45781602001600182028036833780820191505090505b50915083516020830182516020840160055afa925050935093915050565b600080602083612e129190613bb0565b90508084511015612e5c5783836040517fde59ba13000000000000000000000000000000000000000000000000000000008152600401612e53929190614df8565b60405180910390fd5b8084015191505092915050565b60008151905060006a636f6e736f6c652e6c6f679050602083016000808483855afa5050505050565b612edd819050919050565b508054612ea990613833565b6000825580601f10612ebb5750612eda565b601f016020900490600052602060002090810190612ed99190612ee7565b5b50565b612ee5614e28565b565b5b80821115612f00576000816000905550600101612ee8565b5090565b600081519050919050565b600082825260208201905092915050565b60005b83811015612f3e578082015181840152602081019050612f23565b60008484015250505050565b6000601f19601f8301169050919050565b6000612f6682612f04565b612f708185612f0f565b9350612f80818560208601612f20565b612f8981612f4a565b840191505092915050565b60006020820190508181036000830152612fae8184612f5b565b905092915050565b6000604051905090565b600080fd5b600080fd5b600080fd5b600080fd5b7f4e487b7100000000000000000000000000000000000000000000000000000000600052604160045260246000fd5b61300c82612f4a565b810181811067ffffffffffffffff8211171561302b5761302a612fd4565b5b80604052505050565b600061303e612fb6565b905061304a8282613003565b919050565b600067ffffffffffffffff82111561306a57613069612fd4565b5b61307382612f4a565b9050602081019050919050565b82818337600083830152505050565b60006130a261309d8461304f565b613034565b9050828152602081018484840111156130be576130bd612fcf565b5b6130c9848285613080565b509392505050565b600082601f8301126130e6576130e5612fca565b5b81356130f684826020860161308f565b91505092915050565b60006020828403121561311557613114612fc0565b5b600082013567ffffffffffffffff81111561313357613132612fc5565b5b61313f848285016130d1565b91505092915050565b60008115159050919050565b61315d81613148565b82525050565b60006020820190506131786000830184613154565b92915050565b6000819050919050565b6131918161317e565b811461319c57600080fd5b50565b6000813590506131ae81613188565b92915050565b6000602082840312156131ca576131c9612fc0565b5b60006131d88482850161319f565b91505092915050565b600080fd5b600080fd5b60008083601f84011261320157613200612fca565b5b8235905067ffffffffffffffff81111561321e5761321d6131e1565b5b60208301915083600182028301111561323a576132396131e6565b5b9250929050565b60008060006040848603121561325a57613259612fc0565b5b60006132688682870161319f565b935050602084013567ffffffffffffffff81111561328957613288612fc5565b5b613295868287016131eb565b92509250509250925092565b6000819050919050565b6132b4816132a1565b81146132bf57600080fd5b50565b6000813590506132d1816132ab565b92915050565b6000806000604084860312156132f0576132ef612fc0565b5b60006132fe868287016132c2565b935050602084013567ffffffffffffffff81111561331f5761331e612fc5565b5b61332b868287016131eb565b92509250509250925092565b613340816132a1565b82525050565b61334f8161317e565b82525050565b600060a08201905061336a6000830188613154565b6133776020830187613337565b6133846040830186613346565b6133916060830185613346565b61339e6080830184613346565b9695505050505050565b600067ffffffffffffffff8211156133c3576133c2612fd4565b5b602082029050602081019050919050565b60006133e76133e2846133a8565b613034565b9050808382526020820190506020840283018581111561340a576134096131e6565b5b835b8181101561345157803567ffffffffffffffff81111561342f5761342e612fca565b5b80860161343c89826130d1565b8552602085019450505060208101905061340c565b5050509392505050565b600082601f8301126134705761346f612fca565b5b81356134808482602086016133d4565b91505092915050565b60006020828403121561349f5761349e612fc0565b5b600082013567ffffffffffffffff8111156134bd576134bc612fc5565b5b6134c98482850161345b565b91505092915050565b60008083601f8401126134e8576134e7612fca565b5b8235905067ffffffffffffffff811115613505576135046131e1565b5b602083019150836020820283011115613521576135206131e6565b5b9250929050565b60008083601f84011261353e5761353d612fca565b5b8235905067ffffffffffffffff81111561355b5761355a6131e1565b5b602083019150836020820283011115613577576135766131e6565b5b9250929050565b6000806000806040858703121561359857613597612fc0565b5b600085013567ffffffffffffffff8111156135b6576135b5612fc5565b5b6135c2878288016134d2565b9450945050602085013567ffffffffffffffff8111156135e5576135e4612fc5565b5b6135f187828801613528565b925092505092959194509250565b60008060008060006060868803121561361b5761361a612fc0565b5b60006136298882890161319f565b955050602086013567ffffffffffffffff81111561364a57613649612fc5565b5b613656888289016131eb565b9450945050604086013567ffffffffffffffff81111561367957613678612fc5565b5b613685888289016131eb565b92509250509295509295909350565b600073ffffffffffffffffffffffffffffffffffffffff82169050919050565b60006136bf82613694565b9050919050565b6136cf816136b4565b82525050565b60006020820190506136ea60008301846136c6565b92915050565b6136f9816136b4565b811461370457600080fd5b50565b600081359050613716816136f0565b92915050565b60006020828403121561373257613731612fc0565b5b600061374084828501613707565b91505092915050565b60008060008060006060868803121561376557613764612fc0565b5b60006137738882890161319f565b955050602086013567ffffffffffffffff81111561379457613793612fc5565b5b6137a088828901613528565b9450945050604086013567ffffffffffffffff8111156137c3576137c2612fc5565b5b6137cf88828901613528565b92509250509295509295909350565b60006020820190506137f36000830184613346565b92915050565b600082905092915050565b7f4e487b7100000000000000000000000000000000000000000000000000000000600052602260045260246000fd5b6000600282049050600182168061384b57607f821691505b60208210810361385e5761385d613804565b5b50919050565b60008190508160005260206000209050919050565b60006020601f8301049050919050565b600082821b905092915050565b6000600883026138c67fffffffffffffffffffffffffffffffffffffffffffffffffffffffffffffffff82613889565b6138d08683613889565b95508019841693508086168417925050509392505050565b6000819050919050565b600061390d613908613903846132a1565b6138e8565b6132a1565b9050919050565b6000819050919050565b613927836138f2565b61393b61393382613914565b848454613896565b825550505050565b600090565b613950613943565b61395b81848461391e565b505050565b5b8181101561397f57613974600082613948565b600181019050613961565b5050565b601f8211156139c45761399581613864565b61399e84613879565b810160208510156139ad578190505b6139c16139b985613879565b830182613960565b50505b505050565b600082821c905092915050565b60006139e7600019846008026139c9565b1980831691505092915050565b6000613a0083836139d6565b9150826002028217905092915050565b613a1a83836137f9565b67ffffffffffffffff811115613a3357613a32612fd4565b5b613a3d8254613833565b613a48828285613983565b6000601f831160018114613a775760008415613a65578287013590505b613a6f85826139f4565b865550613ad7565b601f198416613a8586613864565b60005b82811015613aad57848901358255600182019150602085019450602081019050613a88565b86831015613aca5784890135613ac6601f8916826139d6565b8355505b6001600288020188555050505b50505050505050565b6000613aec8385612f0f565b9350613af9838584613080565b613b0283612f4a565b840190509392505050565b6000604082019050613b226000830186613346565b8181036020830152613b35818486613ae0565b9050949350505050565b7f4e487b7100000000000000000000000000000000000000000000000000000000600052601160045260246000fd5b6000613b79826132a1565b9150613b84836132a1565b9250828202613b92816132a1565b91508282048414831517613ba957613ba8613b3f565b5b5092915050565b6000613bbb826132a1565b9150613bc6836132a1565b9250828201905080821115613bde57613bdd613b3f565b5b92915050565b600080fd5b600080fd5b60008085851115613c0257613c01613be4565b5b83861115613c1357613c12613be9565b5b6001850283019150848603905094509492505050565b600081519050919050565b600081905092915050565b6000613c4a82613c29565b613c548185613c34565b9350613c64818560208601612f20565b80840191505092915050565b7f2e00000000000000000000000000000000000000000000000000000000000000600082015250565b6000613ca6600183613c34565b9150613cb182613c70565b600182019050919050565b6000613cc88285613c3f565b9150613cd382613c99565b9150613cdf8284613c3f565b91508190509392505050565b600081905092915050565b6000613d0182612f04565b613d0b8185613ceb565b9350613d1b818560208601612f20565b80840191505092915050565b6000613d338284613cf6565b915081905092915050565b600081519050613d4d81613188565b92915050565b600060208284031215613d6957613d68612fc0565b5b6000613d7784828501613d3e565b91505092915050565b6000613d8c8385613ceb565b9350613d99838584613080565b82840190509392505050565b6000613db2828486613d80565b91508190509392505050565b7f4e487b7100000000000000000000000000000000000000000000000000000000600052603260045260246000fd5b6000613df8826132a1565b91507fffffffffffffffffffffffffffffffffffffffffffffffffffffffffffffffff8203613e2a57613e29613b3f565b5b600182019050919050565b600082825260208201905092915050565b7f62617463685570646174654f70656e49445075626c69634b65793a20494e564160008201527f4c49445f4c454e47544800000000000000000000000000000000000000000000602082015250565b6000613ea2602a83613e35565b9150613ead82613e46565b604082019050919050565b60006020820190508181036000830152613ed181613e95565b9050919050565b600080fd5b600080fd5b600080fd5b60008083356001602003843603038112613f0457613f03613ed8565b5b80840192508235915067ffffffffffffffff821115613f2657613f25613edd565b5b602083019250600182023603831315613f4257613f41613ee2565b5b509250929050565b7f494e56414c49445f544f4b454e00000000000000000000000000000000000000600082015250565b6000613f80600d83613e35565b9150613f8b82613f4a565b602082019050919050565b60006020820190508181036000830152613faf81613f73565b9050919050565b7f494e56414c49445f4e4f4e43455f484153480000000000000000000000000000600082015250565b6000613fec601283613e35565b9150613ff782613fb6565b602082019050919050565b6000602082019050818103600083015261401b81613fdf565b9050919050565b6000819050919050565b61403d6140388261317e565b614022565b82525050565b600061404f828561402c565b60208201915061405f828461402c565b6020820191508190509392505050565b7f494e56414c49445f5349474e4552000000000000000000000000000000000000600082015250565b60006140a5600e83613e35565b91506140b08261406f565b602082019050919050565b600060208201905081810360008301526140d481614098565b9050919050565b7f4f776e61626c653a206e6577206f776e657220697320746865207a65726f206160008201527f6464726573730000000000000000000000000000000000000000000000000000602082015250565b6000614137602683613e35565b9150614142826140db565b604082019050919050565b600060208201905081810360008301526141668161412a565b9050919050565b7f696e76616c696420617267730000000000000000000000000000000000000000600082015250565b60006141a3600c83613e35565b91506141ae8261416d565b602082019050919050565b600060208201905081810360008301526141d281614196565b9050919050565b7f4f776e61626c653a2063616c6c6572206973206e6f7420746865206f776e6572600082015250565b600061420f602083613e35565b915061421a826141d9565b602082019050919050565b6000602082019050818103600083015261423e81614202565b9050919050565b600061425082613c29565b61425a8185613e35565b935061426a818560208601612f20565b61427381612f4a565b840191505092915050565b600060208201905081810360008301526142988184614245565b905092915050565b60006142ad828688613d80565b91506142ba828486613d80565b915081905095945050505050565b7f5f6765745075626c69634b6579416e64497373486173683a20494e56414c494460008201527f5f41554400000000000000000000000000000000000000000000000000000000602082015250565b6000614324602483613e35565b915061432f826142c8565b604082019050919050565b6000602082019050818103600083015261435381614317565b9050919050565b6000614367828587613d80565b91506143738284613cf6565b9150819050949350505050565b7f5f6765745075626c69634b6579416e64497373486173683a20494e56414c494460008201527f5f5055425f4b4559000000000000000000000000000000000000000000000000602082015250565b60006143dc602883613e35565b91506143e782614380565b604082019050919050565b6000602082019050818103600083015261440b816143cf565b9050919050565b7f4e487b7100000000000000000000000000000000000000000000000000000000600052602160045260246000fd5b600063ffffffff82169050919050565b600061445c82614441565b915061446783614441565b9250828203905063ffffffff81111561448357614482613b3f565b5b92915050565b600061449583836137f9565b826144a0813561317e565b925060208210156144e0576144db7fffffffffffffffffffffffffffffffffffffffffffffffffffffffffffffffff83602003600802613889565b831692505b505092915050565b7f5f76616c696461746554696d657374616d703a20494e56414c49445f49415400600082015250565b600061451e601f83613e35565b9150614529826144e8565b602082019050919050565b6000602082019050818103600083015261454d81614511565b9050919050565b600061455f82614441565b915061456a83614441565b9250828201905063ffffffff81111561458657614585613b3f565b5b92915050565b7f5f76616c696461746554696d657374616d703a20494e56414c49445f45585000600082015250565b60006145c2601f83613e35565b91506145cd8261458c565b602082019050919050565b600060208201905081810360008301526145f1816145b5565b9050919050565b7f5f76616c696461746554696d657374616d703a20494e56414c49445f54494d4560008201527f5354414d50206578700000000000000000000000000000000000000000000000602082015250565b6000614654602983613e35565b915061465f826145f8565b604082019050919050565b6000602082019050818103600083015261468381614647565b9050919050565b7f5f76616c696461746554696d657374616d703a20494e56414c49445f54494d4560008201527f5354414d50206961740000000000000000000000000000000000000000000000602082015250565b60006146e6602983613e35565b91506146f18261468a565b604082019050919050565b60006020820190508181036000830152614715816146d9565b9050919050565b7f4e487b7100000000000000000000000000000000000000000000000000000000600052601260045260246000fd5b6000614756826132a1565b9150614761836132a1565b9250826147715761477061471c565b5b828206905092915050565b6000614787826132a1565b9150614792836132a1565b92508282039050818111156147aa576147a9613b3f565b5b92915050565b60006147bb826132a1565b91506147c6836132a1565b9250826147d6576147d561471c565b5b828204905092915050565b7f5f6765744e6f6e63653a20494e56414c49445f4e4f4e43450000000000000000600082015250565b6000614817601883613e35565b9150614822826147e1565b602082019050919050565b600060208201905081810360008301526148468161480a565b9050919050565b60007fffffffffffffff0000000000000000000000000000000000000000000000000082169050919050565b600061488583836137f9565b82614890813561484d565b925060078210156148d0576148cb7fffffffffffffff0000000000000000000000000000000000000000000000000083600703600802613889565b831692505b505092915050565b7f5f6765745375623a20494e56414c49445f5355425f4c45465400000000000000600082015250565b600061490e601983613e35565b9150614919826148d8565b602082019050919050565b6000602082019050818103600083015261493d81614901565b9050919050565b60007fffff00000000000000000000000000000000000000000000000000000000000082169050919050565b600061497c83836137f9565b826149878135614944565b925060028210156149c7576149c27fffff00000000000000000000000000000000000000000000000000000000000083600203600802613889565b831692505b505092915050565b7f5f6765745375623a20494e56414c49445f5355425f5249474854000000000000600082015250565b6000614a05601a83613e35565b9150614a10826149cf565b602082019050919050565b60006020820190508181036000830152614a34816149f8565b9050919050565b6000614a46826132a1565b915060008203614a5957614a58613b3f565b5b600182039050919050565b7f537472696e67733a20686578206c656e67746820696e73756666696369656e74600082015250565b6000614a9a602083613e35565b9150614aa582614a64565b602082019050919050565b60006020820190508181036000830152614ac981614a8d565b9050919050565b7f5f6765744973733a20494e56414c49445f4953535f4c45465400000000000000600082015250565b6000614b06601983613e35565b9150614b1182614ad0565b602082019050919050565b60006020820190508181036000830152614b3581614af9565b9050919050565b7f5f6765744973733a20494e56414c49445f4953535f5249474854000000000000600082015250565b6000614b72601a83613e35565b9150614b7d82614b3c565b602082019050919050565b60006020820190508181036000830152614ba181614b65565b9050919050565b7f5f6765744175643a20494e56414c49445f4155445f4c45465400000000000000600082015250565b6000614bde601983613e35565b9150614be982614ba8565b602082019050919050565b60006020820190508181036000830152614c0d81614bd1565b9050919050565b7f5f6765744175643a20494e56414c49445f4155445f5249474854000000000000600082015250565b6000614c4a601a83613e35565b9150614c5582614c14565b602082019050919050565b60006020820190508181036000830152614c7981614c3d565b9050919050565b7f5f6765744b69643a20494e56414c49445f4b49445f4c45465400000000000000600082015250565b6000614cb6601983613e35565b9150614cc182614c80565b602082019050919050565b60006020820190508181036000830152614ce581614ca9565b9050919050565b7f5f6765744b69643a20494e56414c49445f4b49445f5249474854000000000000600082015250565b6000614d22601a83613e35565b9150614d2d82614cec565b602082019050919050565b60006020820190508181036000830152614d5181614d15565b9050919050565b6000602082019050614d6d6000830184613337565b92915050565b6000819050919050565b614d8e614d89826132a1565b614d73565b82525050565b6000614da08289614d7d565b602082019150614db08288614d7d565b602082019150614dc08287614d7d565b602082019150614dd08286613cf6565b9150614ddc8285613cf6565b9150614de88284613cf6565b9150819050979650505050505050565b60006040820190508181036000830152614e128185612f5b565b9050614e216020830184613337565b9392505050565b7f4e487b7100000000000000000000000000000000000000000000000000000000600052605160045260246000fdfe4142434445464748494a4b4c4d4e4f505152535455565758595a6162636465666768696a6b6c6d6e6f707172737475767778797a303132333435363738392d5fa264697066735822122074fd97bd735d38a52fcaeb62e17292a40483e47f1e5ba40bcec75f1c988eba6564736f6c63430008130033",
  "devdoc": {
    "kind": "dev",
    "methods": {
      "getGuardianVerifierInfo()": {
        "details": "Return supported signer key information, format, signature format, hash algorithm, etc. MAY TODO:using ERC-3668: ccip-read"
      },
      "isValidPermission(bytes32,bytes,bytes)": {
        "details": "Validate signature"
      },
      "isValidPermissions(bytes32,bytes[],bytes[])": {
        "details": "Validate signatures"
      },
      "isValidSigners(bytes[])": {
        "details": "Check if the signer key format is correct"
      },
      "owner()": {
        "details": "Returns the address of the current owner."
      },
      "renounceOwnership()": {
        "details": "Leaves the contract without owner. It will not be possible to call `onlyOwner` functions anymore. Can only be called by the current owner. NOTE: Renouncing ownership will leave the contract without an owner, thereby removing any functionality that is only available to the owner."
      },
      "transferOwnership(address)": {
        "details": "Transfers ownership of the contract to a new account (`newOwner`). Can only be called by the current owner."
      }
    },
    "version": 1
  },
  "userdoc": {
    "kind": "user",
    "methods": {},
    "version": 1
  },
  "storageLayout": {
    "storage": [
      {
        "astId": 7,
        "contract": "src/verifier/openid/OpenIDVerifier.sol:OpenIDVerifier",
        "label": "_owner",
        "offset": 0,
        "slot": "0",
        "type": "t_address"
      },
      {
        "astId": 16971,
        "contract": "src/verifier/openid/OpenIDVerifier.sol:OpenIDVerifier",
        "label": "openIDPublicKey",
        "offset": 0,
        "slot": "1",
        "type": "t_mapping(t_bytes32,t_bytes_storage)"
      },
      {
        "astId": 16901,
        "contract": "src/verifier/openid/OpenIDVerifier.sol:OpenIDVerifier",
        "label": "openIDAudience",
        "offset": 0,
        "slot": "2",
        "type": "t_mapping(t_bytes32,t_bool)"
      }
    ],
    "types": {
      "t_address": {
        "encoding": "inplace",
        "label": "address",
        "numberOfBytes": "20"
      },
      "t_bool": {
        "encoding": "inplace",
        "label": "bool",
        "numberOfBytes": "1"
      },
      "t_bytes32": {
        "encoding": "inplace",
        "label": "bytes32",
        "numberOfBytes": "32"
      },
      "t_bytes_storage": {
        "encoding": "bytes",
        "label": "bytes",
        "numberOfBytes": "32"
      },
      "t_mapping(t_bytes32,t_bool)": {
        "encoding": "mapping",
        "key": "t_bytes32",
        "label": "mapping(bytes32 => bool)",
        "numberOfBytes": "32",
        "value": "t_bool"
      },
      "t_mapping(t_bytes32,t_bytes_storage)": {
        "encoding": "mapping",
        "key": "t_bytes32",
        "label": "mapping(bytes32 => bytes)",
        "numberOfBytes": "32",
        "value": "t_bytes_storage"
      }
    }
  }
}