{
  "address": "0x82e01223d51Eb87e16A03E24687EDF0F294da6f1",
  "abi": [
    {
      "anonymous": false,
      "inputs": [
        {
          "indexed": false,
          "internalType": "address",
          "name": "account",
          "type": "address"
        }
      ],
      "name": "GuardiansUpdated",
      "type": "event"
    },
    {
      "anonymous": false,
      "inputs": [
        {
          "indexed": false,
          "internalType": "address",
          "name": "account",
          "type": "address"
        },
        {
          "indexed": false,
          "internalType": "uint256",
          "name": "nonce",
          "type": "uint256"
        }
      ],
      "name": "RecoveryCanceled",
      "type": "event"
    },
    {
      "anonymous": false,
      "inputs": [
        {
          "indexed": false,
          "internalType": "address",
          "name": "account",
          "type": "address"
        },
        {
          "indexed": false,
          "internalType": "bytes",
          "name": "newOwners",
          "type": "bytes"
        },
        {
          "indexed": false,
          "internalType": "uint256",
          "name": "nonce",
          "type": "uint256"
        }
      ],
      "name": "RecoveryExecuted",
      "type": "event"
    },
    {
      "anonymous": false,
      "inputs": [
        {
          "indexed": false,
          "internalType": "address",
          "name": "account",
          "type": "address"
        },
        {
          "indexed": false,
          "internalType": "bytes",
          "name": "newOwners",
          "type": "bytes"
        },
        {
          "indexed": false,
          "internalType": "uint256",
          "name": "nonce",
          "type": "uint256"
        },
        {
          "indexed": false,
          "internalType": "uint48",
          "name": "expireTime",
          "type": "uint48"
        }
      ],
      "name": "RecoveryStarted",
      "type": "event"
    },
    {
      "inputs": [],
      "name": "NAME",
      "outputs": [
        {
          "internalType": "string",
          "name": "",
          "type": "string"
        }
      ],
      "stateMutability": "view",
      "type": "function"
    },
    {
      "inputs": [],
      "name": "VERSION",
      "outputs": [
        {
          "internalType": "string",
          "name": "",
          "type": "string"
        }
      ],
      "stateMutability": "view",
      "type": "function"
    },
    {
      "inputs": [
        {
          "internalType": "bytes32",
          "name": "configsHash",
          "type": "bytes32"
        }
      ],
      "name": "addConfigs",
      "outputs": [],
      "stateMutability": "nonpayable",
      "type": "function"
    },
    {
      "inputs": [
        {
          "internalType": "address",
          "name": "account",
          "type": "address"
        }
      ],
      "name": "cancelRecovery",
      "outputs": [],
      "stateMutability": "nonpayable",
      "type": "function"
    },
    {
      "inputs": [
        {
          "internalType": "address",
          "name": "account",
          "type": "address"
        },
        {
          "internalType": "uint256",
          "name": "configIndex",
          "type": "uint256"
        },
        {
          "components": [
            {
              "components": [
                {
                  "internalType": "address",
                  "name": "guardianVerifier",
                  "type": "address"
                },
                {
                  "internalType": "bytes",
                  "name": "signer",
                  "type": "bytes"
                }
              ],
              "internalType": "struct Identity",
              "name": "guardian",
              "type": "tuple"
            },
            {
              "internalType": "bytes",
              "name": "signature",
              "type": "bytes"
            }
          ],
          "internalType": "struct Permission[]",
          "name": "permissions",
          "type": "tuple[]"
        }
      ],
      "name": "cancelRecoveryByGuardians",
      "outputs": [],
      "stateMutability": "nonpayable",
      "type": "function"
    },
    {
      "inputs": [],
      "name": "domainSeparator",
      "outputs": [
        {
          "internalType": "bytes32",
          "name": "",
          "type": "bytes32"
        }
      ],
      "stateMutability": "view",
      "type": "function"
    },
    {
      "inputs": [
        {
          "internalType": "address",
          "name": "account",
          "type": "address"
        },
        {
          "components": [
            {
              "internalType": "address",
              "name": "policyVerifier",
              "type": "address"
            },
            {
              "components": [
                {
                  "components": [
                    {
                      "internalType": "address",
                      "name": "guardianVerifier",
                      "type": "address"
                    },
                    {
                      "internalType": "bytes",
                      "name": "signer",
                      "type": "bytes"
                    }
                  ],
                  "internalType": "struct Identity",
                  "name": "guardian",
                  "type": "tuple"
                },
                {
                  "internalType": "uint64",
                  "name": "property",
                  "type": "uint64"
                }
              ],
              "internalType": "struct GuardianInfo[]",
              "name": "guardianInfos",
              "type": "tuple[]"
            },
            {
              "components": [
                {
                  "internalType": "uint64",
                  "name": "threshold",
                  "type": "uint64"
                },
                {
                  "internalType": "uint48",
                  "name": "lockPeriod",
                  "type": "uint48"
                }
              ],
              "internalType": "struct ThresholdConfig[]",
              "name": "thresholdConfigs",
              "type": "tuple[]"
            }
          ],
          "internalType": "struct RecoveryConfigArg[]",
          "name": "configArgs",
          "type": "tuple[]"
        }
      ],
      "name": "executeConfigsUpdate",
      "outputs": [],
      "stateMutability": "nonpayable",
      "type": "function"
    },
    {
      "inputs": [
        {
          "internalType": "address",
          "name": "account",
          "type": "address"
        }
      ],
      "name": "executeRecovery",
      "outputs": [],
      "stateMutability": "nonpayable",
      "type": "function"
    },
    {
      "inputs": [
        {
          "internalType": "address",
          "name": "account",
          "type": "address"
        }
      ],
      "name": "getRecoveryConfigs",
      "outputs": [
        {
          "components": [
            {
              "internalType": "address",
              "name": "policyVerifier",
              "type": "address"
            },
            {
              "components": [
                {
                  "components": [
                    {
                      "internalType": "address",
                      "name": "guardianVerifier",
                      "type": "address"
                    },
                    {
                      "internalType": "bytes",
                      "name": "signer",
                      "type": "bytes"
                    }
                  ],
                  "internalType": "struct Identity",
                  "name": "guardian",
                  "type": "tuple"
                },
                {
                  "internalType": "uint64",
                  "name": "property",
                  "type": "uint64"
                }
              ],
              "internalType": "struct GuardianInfo[]",
              "name": "guardianInfos",
              "type": "tuple[]"
            },
            {
              "components": [
                {
                  "internalType": "uint64",
                  "name": "threshold",
                  "type": "uint64"
                },
                {
                  "internalType": "uint48",
                  "name": "lockPeriod",
                  "type": "uint48"
                }
              ],
              "internalType": "struct ThresholdConfig[]",
              "name": "thresholdConfigs",
              "type": "tuple[]"
            }
          ],
          "internalType": "struct RecoveryConfigArg[]",
          "name": "configArgs",
          "type": "tuple[]"
        }
      ],
      "stateMutability": "view",
      "type": "function"
    },
    {
      "inputs": [
        {
          "internalType": "address",
          "name": "account",
          "type": "address"
        }
      ],
      "name": "getRecoveryNonce",
      "outputs": [
        {
          "internalType": "uint256",
          "name": "nonce",
          "type": "uint256"
        }
      ],
      "stateMutability": "view",
      "type": "function"
    },
    {
      "inputs": [
        {
          "internalType": "address",
          "name": "account",
          "type": "address"
        }
      ],
      "name": "getRecoveryStatus",
      "outputs": [
        {
          "internalType": "bool",
          "name": "isRecovering",
          "type": "bool"
        },
        {
          "internalType": "uint48",
          "name": "expiryTime",
          "type": "uint48"
        }
      ],
      "stateMutability": "view",
      "type": "function"
    },
    {
      "inputs": [
        {
          "internalType": "address",
          "name": "account",
          "type": "address"
        },
        {
          "components": [
            {
              "internalType": "address",
              "name": "guardianVerifier",
              "type": "address"
            },
            {
              "internalType": "bytes",
              "name": "signer",
              "type": "bytes"
            }
          ],
          "internalType": "struct Identity",
          "name": "guardian",
          "type": "tuple"
        }
      ],
      "name": "isGuardian",
      "outputs": [
        {
          "internalType": "bool",
          "name": "",
          "type": "bool"
        }
      ],
      "stateMutability": "view",
      "type": "function"
    },
    {
      "inputs": [
        {
          "internalType": "bytes32",
          "name": "configsHash",
          "type": "bytes32"
        }
      ],
      "name": "replaceConfigs",
      "outputs": [],
      "stateMutability": "nonpayable",
      "type": "function"
    },
    {
      "inputs": [
        {
          "internalType": "address",
          "name": "account",
          "type": "address"
        },
        {
          "internalType": "uint256",
          "name": "configIndex",
          "type": "uint256"
        },
        {
          "internalType": "bytes",
          "name": "data",
          "type": "bytes"
        },
        {
          "components": [
            {
              "components": [
                {
                  "internalType": "address",
                  "name": "guardianVerifier",
                  "type": "address"
                },
                {
                  "internalType": "bytes",
                  "name": "signer",
                  "type": "bytes"
                }
              ],
              "internalType": "struct Identity",
              "name": "guardian",
              "type": "tuple"
            },
            {
              "internalType": "bytes",
              "name": "signature",
              "type": "bytes"
            }
          ],
          "internalType": "struct Permission[]",
          "name": "permissions",
          "type": "tuple[]"
        }
      ],
      "name": "startRecovery",
      "outputs": [],
      "stateMutability": "nonpayable",
      "type": "function"
    },
    {
      "inputs": [
        {
          "internalType": "address",
          "name": "account",
          "type": "address"
        },
        {
          "internalType": "uint256",
          "name": "configIndex",
          "type": "uint256"
        },
        {
          "internalType": "bytes32",
          "name": "digest",
          "type": "bytes32"
        },
        {
          "components": [
            {
              "components": [
                {
                  "internalType": "address",
                  "name": "guardianVerifier",
                  "type": "address"
                },
                {
                  "internalType": "bytes",
                  "name": "signer",
                  "type": "bytes"
                }
              ],
              "internalType": "struct Identity",
              "name": "guardian",
              "type": "tuple"
            },
            {
              "internalType": "bytes",
              "name": "signature",
              "type": "bytes"
            }
          ],
          "internalType": "struct Permission[]",
          "name": "permissions",
          "type": "tuple[]"
        }
      ],
      "name": "verifyPermissions",
      "outputs": [
        {
          "internalType": "uint48",
          "name": "",
          "type": "uint48"
        }
      ],
      "stateMutability": "nonpayable",
      "type": "function"
    },
    {
      "inputs": [
        {
          "internalType": "address",
          "name": "",
          "type": "address"
        }
      ],
      "name": "walletRecoveryNonce",
      "outputs": [
        {
          "internalType": "uint256",
          "name": "",
          "type": "uint256"
        }
      ],
      "stateMutability": "view",
      "type": "function"
    }
  ],
  "transactionHash": "0x4ae1e86b9d37f9477121561d0e4dc3841635a33b28ca2ab4f1b1b38bcb7394c3",
  "args": [],
  "numDeployments": 1,
  "solcInputHash": "116b69c9a0be847a27c8485dfde19a9d",
  "bytecode": "0x608060405234801561001057600080fd5b50615394806100206000396000f3fe608060405234801561001057600080fd5b50600436106101005760003560e01c8063a89b531711610097578063c90db44711610066578063c90db447146102d0578063f698da25146102ec578063fe71d0711461030a578063ffa1ad741461032657610100565b8063a89b531714610224578063b055740c14610254578063b1cba5b414610284578063b5f6627a146102b457610100565b80634dbc41ef116100d35780634dbc41ef1461019e5780637b12e370146101ce578063a374a3b3146101ea578063a3f4df7e1461020657610100565b806307c73d341461010557806312cf32df14610136578063285bfd44146101665780633bc2c4a714610182575b600080fd5b61011f600480360381019061011a9190613105565b610344565b60405161012d92919061316e565b60405180910390f35b610150600480360381019061014b9190613353565b610460565b60405161015d91906133af565b60405180910390f35b610180600480360381019061017b9190613400565b61054d565b005b61019c60048036038101906101979190613105565b610698565b005b6101b860048036038101906101b391906135d1565b61098c565b6040516101c59190613654565b60405180910390f35b6101e860048036038101906101e3919061366f565b611271565b005b61020460048036038101906101ff919061370e565b61161a565b005b61020e6118a1565b60405161021b91906137fc565b60405180910390f35b61023e60048036038101906102399190613105565b6118da565b60405161024b9190613be7565b60405180910390f35b61026e60048036038101906102699190613105565b611db5565b60405161027b9190613c18565b60405180910390f35b61029e60048036038101906102999190613105565b611dcd565b6040516102ab9190613c18565b60405180910390f35b6102ce60048036038101906102c99190613400565b611e15565b005b6102ea60048036038101906102e59190613105565b611f61565b005b6102f46120c8565b6040516103019190613c42565b60405180910390f35b610324600480360381019061031f9190614092565b6121de565b005b61032e61247a565b60405161033b91906137fc565b60405180910390f35b6000806000600360008573ffffffffffffffffffffffffffffffffffffffff1673ffffffffffffffffffffffffffffffffffffffff1681526020019081526020016000206040518060600160405290816000820180546103a39061411d565b80601f01602080910402602001604051908101604052809291908181526020018280546103cf9061411d565b801561041c5780601f106103f15761010080835404028352916020019161041c565b820191906000526020600020905b8154815290600101906020018083116103ff57829003601f168201915b50505050508152602001600182015481526020016002820154815250509050600081602001511161044e576000610451565b60015b92508060200151915050915091565b600080600160008573ffffffffffffffffffffffffffffffffffffffff1673ffffffffffffffffffffffffffffffffffffffff16815260200190815260200160002090506000836040516020016104b7919061418b565b60405160208183030381529060405280519060200120905060005b828054905081101561053f576000610516838584815481106104f7576104f66141ad565b5b90600052602060002090600402016001016124b390919063ffffffff16565b9050801561052b576001945050505050610547565b5080806105379061420b565b9150506104d2565b506000925050505b92915050565b336000600360008373ffffffffffffffffffffffffffffffffffffffff1673ffffffffffffffffffffffffffffffffffffffff16815260200190815260200160002060010154146105d3576040517f08c379a00000000000000000000000000000000000000000000000000000000081526004016105ca9061429f565b60405180910390fd5b60405180606001604052806001808111156105f1576105f06142bf565b5b81526020016202a3004261060591906142ee565b815260200183815250600460003373ffffffffffffffffffffffffffffffffffffffff1673ffffffffffffffffffffffffffffffffffffffff16815260200190815260200160002060008201518160000160006101000a81548160ff02191690836001811115610678576106776142bf565b5b021790555060208201518160010155604082015181600201559050505050565b806000600360008373ffffffffffffffffffffffffffffffffffffffff1673ffffffffffffffffffffffffffffffffffffffff168152602001908152602001600020600101541161071e576040517f08c379a00000000000000000000000000000000000000000000000000000000081526004016107159061436e565b60405180910390fd5b42600360008473ffffffffffffffffffffffffffffffffffffffff1673ffffffffffffffffffffffffffffffffffffffff16815260200190815260200160002060010154106107a2576040517f08c379a0000000000000000000000000000000000000000000000000000000008152600401610799906143da565b60405180910390fd5b8173ffffffffffffffffffffffffffffffffffffffff1663468721a7836000600360008773ffffffffffffffffffffffffffffffffffffffff1673ffffffffffffffffffffffffffffffffffffffff16815260200190815260200160002060000160006040518563ffffffff1660e01b81526004016108249493929190614536565b6020604051808303816000875af1158015610843573d6000803e3d6000fd5b505050506040513d601f19601f8201168201806040525081019061086791906145ae565b507f533d62e45d0adba34cb31c77de5b3da48392b87322107b496a66a0defc4d622f82600360008573ffffffffffffffffffffffffffffffffffffffff1673ffffffffffffffffffffffffffffffffffffffff168152602001908152602001600020600001600360008673ffffffffffffffffffffffffffffffffffffffff1673ffffffffffffffffffffffffffffffffffffffff1681526020019081526020016000206002015460405161091e939291906145db565b60405180910390a1600360008373ffffffffffffffffffffffffffffffffffffffff1673ffffffffffffffffffffffffffffffffffffffff168152602001908152602001600020600080820160006109769190612e88565b6001820160009055600282016000905550505050565b600080600160008773ffffffffffffffffffffffffffffffffffffffff1673ffffffffffffffffffffffffffffffffffffffff16815260200190815260200160002085815481106109e0576109df6141ad565b5b906000526020600020906004020190508060000160009054906101000a900460ff16610a41576040517f08c379a0000000000000000000000000000000000000000000000000000000008152600401610a3890614665565b60405180910390fd5b6000835167ffffffffffffffff811115610a5e57610a5d6131ad565b5b604051908082528060200260200182016040528015610a8c5781602001602082028036833780820191505090505b509050610acd6040518060400160405280600a81526020017f436865636b2075736572000000000000000000000000000000000000000000008152506124d6565b60005b8451811015610d2c576000858281518110610aee57610aed6141ad565b5b602002602001015160000151602001515103610b9357610b4f858281518110610b1a57610b196141ad565b5b6020026020010151600001516000015187878481518110610b3e57610b3d6141ad565b5b60200260200101516020015161256f565b610b8e576040517f08c379a0000000000000000000000000000000000000000000000000000000008152600401610b85906146d1565b60405180910390fd5b610cb5565b848181518110610ba657610ba56141ad565b5b6020026020010151600001516000015173ffffffffffffffffffffffffffffffffffffffff166389c18fb087878481518110610be557610be46141ad565b5b60200260200101516000015160200151888581518110610c0857610c076141ad565b5b6020026020010151602001516040518463ffffffff1660e01b8152600401610c329392919061472a565b6020604051808303816000875af1158015610c51573d6000803e3d6000fd5b505050506040513d601f19601f82011682018060405250810190610c7591906145ae565b610cb4576040517f08c379a0000000000000000000000000000000000000000000000000000000008152600401610cab906146d1565b60405180910390fd5b5b848181518110610cc857610cc76141ad565b5b602002602001015160000151604051602001610ce4919061418b565b60405160208183030381529060405280519060200120828281518110610d0d57610d0c6141ad565b5b6020026020010181815250508080610d249061420b565b915050610ad0565b5060008073ffffffffffffffffffffffffffffffffffffffff168360000160019054906101000a900473ffffffffffffffffffffffffffffffffffffffff1673ffffffffffffffffffffffffffffffffffffffff1603610eae5760005b8251811015610ea857836002016000848381518110610dab57610daa6141ad565b5b6020026020010151815260200190815260200160002060020160009054906101000a900467ffffffffffffffff1667ffffffffffffffff1682610dee91906142ee565b91506000600182610dff91906142ee565b90505b8351811015610e9457838181518110610e1e57610e1d6141ad565b5b6020026020010151848381518110610e3957610e386141ad565b5b602002602001015103610e81576040517f08c379a0000000000000000000000000000000000000000000000000000000008152600401610e78906147bb565b60405180910390fd5b8080610e8c9061420b565b915050610e02565b508080610ea09061420b565b915050610d89565b5061115a565b6000825167ffffffffffffffff811115610ecb57610eca6131ad565b5b604051908082528060200260200182016040528015610ef95781602001602082028036833780820191505090505b50905060005b60018451610f0d91906147db565b81101561105757846002016000858381518110610f2d57610f2c6141ad565b5b6020026020010151815260200190815260200160002060020160009054906101000a900467ffffffffffffffff16828281518110610f6e57610f6d6141ad565b5b60200260200101818151610f82919061480f565b91509067ffffffffffffffff16908167ffffffffffffffff16815250506000600182610fae91906142ee565b90505b845181101561104357848181518110610fcd57610fcc6141ad565b5b6020026020010151858381518110610fe857610fe76141ad565b5b602002602001015103611030576040517f08c379a0000000000000000000000000000000000000000000000000000000008152600401611027906147bb565b60405180910390fd5b808061103b9061420b565b915050610fb1565b50808061104f9061420b565b915050610eff565b506000808560000160019054906101000a900473ffffffffffffffffffffffffffffffffffffffff1673ffffffffffffffffffffffffffffffffffffffff16638444e54589856040518363ffffffff1660e01b81526004016110ba929190614a00565b6040805180830381865afa1580156110d6573d6000803e3d6000fd5b505050506040513d601f19601f820116820180604052508101906110fa9190614a4c565b67ffffffffffffffff169150915081611148576040517f08c379a000000000000000000000000000000000000000000000000000000000815260040161113f90614ad8565b60405180910390fd5b808461115491906142ee565b93505050505b600065ffffffffffff905060005b846003018054905081101561120f5784600301818154811061118d5761118c6141ad565b5b9060005260206000200160000160009054906101000a900467ffffffffffffffff1667ffffffffffffffff1683106111fc578460030181815481106111d5576111d46141ad565b5b9060005260206000200160000160089054906101000a900465ffffffffffff16915061120f565b80806112079061420b565b915050611168565b5065ffffffffffff80168165ffffffffffff1610611262576040517f08c379a000000000000000000000000000000000000000000000000000000000815260040161125990614b44565b60405180910390fd5b80945050505050949350505050565b836000600360008373ffffffffffffffffffffffffffffffffffffffff1673ffffffffffffffffffffffffffffffffffffffff16815260200190815260200160002060010154146112f7576040517f08c379a00000000000000000000000000000000000000000000000000000000081526004016112ee9061429f565b60405180910390fd5b6000808673ffffffffffffffffffffffffffffffffffffffff1673ffffffffffffffffffffffffffffffffffffffff16815260200190815260200160002060008154809291906113469061420b565b919050555060006113556120c8565b7fc8c90f0f3e107683360009b67ae75c1b8f7d7b2196e96fdfa5a3a50edaa945f787866000808b73ffffffffffffffffffffffffffffffffffffffff1673ffffffffffffffffffffffffffffffffffffffff168152602001908152602001600020546040516020016113ca9493929190614b64565b604051602081830303815290604052805190602001206040516020016113f1929190614c28565b60405160208183030381529060405280519060200120905060006114178787848761098c565b905060008165ffffffffffff160361152c578673ffffffffffffffffffffffffffffffffffffffff1663468721a78860008860006040518563ffffffff1660e01b815260040161146a9493929190614c5f565b6020604051808303816000875af1158015611489573d6000803e3d6000fd5b505050506040513d601f19601f820116820180604052508101906114ad91906145ae565b507f533d62e45d0adba34cb31c77de5b3da48392b87322107b496a66a0defc4d622f87866000808b73ffffffffffffffffffffffffffffffffffffffff1673ffffffffffffffffffffffffffffffffffffffff1681526020019081526020016000205460405161151f93929190614cab565b60405180910390a1611611565b611534612ec8565b8581600001819052506000808973ffffffffffffffffffffffffffffffffffffffff1673ffffffffffffffffffffffffffffffffffffffff1681526020019081526020016000205481604001818152505081426115919190614ce9565b65ffffffffffff1681602001818152505080600360008a73ffffffffffffffffffffffffffffffffffffffff1673ffffffffffffffffffffffffffffffffffffffff16815260200190815260200160002060008201518160000190816115f79190614eb0565b506020820151816001015560408201518160020155905050505b50505050505050565b826000600360008373ffffffffffffffffffffffffffffffffffffffff1673ffffffffffffffffffffffffffffffffffffffff16815260200190815260200160002060010154116116a0576040517f08c379a00000000000000000000000000000000000000000000000000000000081526004016116979061436e565b60405180910390fd5b6000808573ffffffffffffffffffffffffffffffffffffffff1673ffffffffffffffffffffffffffffffffffffffff16815260200190815260200160002060008154809291906116ef9061420b565b919050555060006116fe6120c8565b7ff4e415cf1e0aa059d1af7c0475b47006d0b2b2ed73e965c695e2f930102a658c866000808973ffffffffffffffffffffffffffffffffffffffff1673ffffffffffffffffffffffffffffffffffffffff1681526020019081526020016000205460405160200161177193929190614f82565b60405160208183030381529060405280519060200120604051602001611798929190614c28565b6040516020818303038152906040528051906020012090506117bc8585838661098c565b507f81da66c7aac3ee4365918a5d70f73e846a59e8a8af01ef155e8651819049051985600360008873ffffffffffffffffffffffffffffffffffffffff1673ffffffffffffffffffffffffffffffffffffffff16815260200190815260200160002060020154604051611830929190614fb9565b60405180910390a1600360008673ffffffffffffffffffffffffffffffffffffffff1673ffffffffffffffffffffffffffffffffffffffff168152602001908152602001600020600080820160006118889190612e88565b6001820160009055600282016000905550505050505050565b6040518060400160405280600f81526020017f5265636f76657279204d6f64756c65000000000000000000000000000000000081525081565b60606000600160008473ffffffffffffffffffffffffffffffffffffffff1673ffffffffffffffffffffffffffffffffffffffff1681526020019081526020016000209050808054905067ffffffffffffffff81111561193d5761193c6131ad565b5b60405190808252806020026020018201604052801561197657816020015b611963612ee9565b81526020019060019003908161195b5790505b50915060005b8180549050811015611dae57611990612ee9565b60006119f9600160001b6119c68686815481106119b0576119af6141ad565b5b9060005260206000209060040201600101612735565b8686815481106119d9576119d86141ad565b5b90600052602060002090600402016001016127969092919063ffffffff16565b905060005b8151811015611c2157815167ffffffffffffffff811115611a2257611a216131ad565b5b604051908082528060200260200182016040528015611a5b57816020015b611a48612f20565b815260200190600190039081611a405790505b508360200181905250848481548110611a7757611a766141ad565b5b90600052602060002090600402016002016000838381518110611a9d57611a9c6141ad565b5b60200260200101518152602001908152602001600020604051806040016040529081600082016040518060400160405290816000820160009054906101000a900473ffffffffffffffffffffffffffffffffffffffff1673ffffffffffffffffffffffffffffffffffffffff1673ffffffffffffffffffffffffffffffffffffffff168152602001600182018054611b349061411d565b80601f0160208091040260200160405190810160405280929190818152602001828054611b609061411d565b8015611bad5780601f10611b8257610100808354040283529160200191611bad565b820191906000526020600020905b815481529060010190602001808311611b9057829003601f168201915b50505050508152505081526020016002820160009054906101000a900467ffffffffffffffff1667ffffffffffffffff1667ffffffffffffffff168152505083602001518281518110611c0357611c026141ad565b5b60200260200101819052508080611c199061420b565b9150506119fe565b50838381548110611c3557611c346141ad565b5b906000526020600020906004020160000160019054906101000a900473ffffffffffffffffffffffffffffffffffffffff16826000019073ffffffffffffffffffffffffffffffffffffffff16908173ffffffffffffffffffffffffffffffffffffffff1681525050838381548110611cb157611cb06141ad565b5b9060005260206000209060040201600301805480602002602001604051908101604052809291908181526020016000905b82821015611d6e578382906000526020600020016040518060400160405290816000820160009054906101000a900467ffffffffffffffff1667ffffffffffffffff1667ffffffffffffffff1681526020016000820160089054906101000a900465ffffffffffff1665ffffffffffff1665ffffffffffff168152505081526020019060010190611ce2565b50505050826040018190525081858481518110611d8e57611d8d6141ad565b5b602002602001018190525050508080611da69061420b565b91505061197c565b5050919050565b60006020528060005260406000206000915090505481565b60008060008373ffffffffffffffffffffffffffffffffffffffff1673ffffffffffffffffffffffffffffffffffffffff168152602001908152602001600020549050919050565b336000600360008373ffffffffffffffffffffffffffffffffffffffff1673ffffffffffffffffffffffffffffffffffffffff1681526020019081526020016000206001015414611e9b576040517f08c379a0000000000000000000000000000000000000000000000000000000008152600401611e929061429f565b60405180910390fd5b604051806060016040528060006001811115611eba57611eb96142bf565b5b81526020016202a30042611ece91906142ee565b815260200183815250600460003373ffffffffffffffffffffffffffffffffffffffff1673ffffffffffffffffffffffffffffffffffffffff16815260200190815260200160002060008201518160000160006101000a81548160ff02191690836001811115611f4157611f406142bf565b5b021790555060208201518160010155604082015181600201559050505050565b806000600360008373ffffffffffffffffffffffffffffffffffffffff1673ffffffffffffffffffffffffffffffffffffffff1681526020019081526020016000206001015411611fe7576040517f08c379a0000000000000000000000000000000000000000000000000000000008152600401611fde9061436e565b60405180910390fd5b7f81da66c7aac3ee4365918a5d70f73e846a59e8a8af01ef155e8651819049051982600360008573ffffffffffffffffffffffffffffffffffffffff1673ffffffffffffffffffffffffffffffffffffffff1681526020019081526020016000206002015460405161205a929190614fb9565b60405180910390a1600360008373ffffffffffffffffffffffffffffffffffffffff1673ffffffffffffffffffffffffffffffffffffffff168152602001908152602001600020600080820160006120b29190612e88565b6001820160009055600282016000905550505050565b60007f8b73c3c69bb8fe3d512ecc4cf759cc79239f7b179b0ffacaa9a75d522b39400f60001b6040518060400160405280600f81526020017f5265636f76657279204d6f64756c6500000000000000000000000000000000008152506040516020016121349190615013565b604051602081830303815290604052805190602001206040518060400160405280600581526020017f302e302e310000000000000000000000000000000000000000000000000000008152506040516020016121909190615013565b604051602081830303815290604052805190602001206121ae61286a565b306040516020016121c395949392919061507f565b60405160208183030381529060405280519060200120905090565b816000600360008373ffffffffffffffffffffffffffffffffffffffff1673ffffffffffffffffffffffffffffffffffffffff1681526020019081526020016000206001015414612264576040517f08c379a000000000000000000000000000000000000000000000000000000000815260040161225b9061429f565b60405180910390fd5b6000600460008573ffffffffffffffffffffffffffffffffffffffff1673ffffffffffffffffffffffffffffffffffffffff1681526020019081526020016000206040518060600160405290816000820160009054906101000a900460ff1660018111156122d5576122d46142bf565b5b60018111156122e7576122e66142bf565b5b81526020016001820154815260200160028201548152505090508060200151421015612348576040517f08c379a000000000000000000000000000000000000000000000000000000000815260040161233f9061511e565b60405180910390fd5b80604001518360405160200161235e9190613be7565b60405160208183030381529060405280519060200120146123b4576040517f08c379a00000000000000000000000000000000000000000000000000000000081526004016123ab9061518a565b60405180910390fd5b600060018111156123c8576123c76142bf565b5b816000015160018111156123df576123de6142bf565b5b0361243057600160008573ffffffffffffffffffffffffffffffffffffffff1673ffffffffffffffffffffffffffffffffffffffff168152602001908152602001600020600061242f9190612f4a565b5b60005b83518110156124735761246085858381518110612453576124526141ad565b5b6020026020010151612877565b808061246b9061420b565b915050612433565b5050505050565b6040518060400160405280600581526020017f302e302e3100000000000000000000000000000000000000000000000000000081525081565b60008060001b836000848152602001908152602001600020541415905092915050565b61256c816040516024016124ea91906137fc565b6040516020818303038152906040527f41304fac000000000000000000000000000000000000000000000000000000007bffffffffffffffffffffffffffffffffffffffffffffffffffffffff19166020820180517bffffffffffffffffffffffffffffffffffffffffffffffffffffffff8381831617835250505050612b5f565b50565b600080600061257e8585612b79565b9150915060006004811115612596576125956142bf565b5b8160048111156125a9576125a86142bf565b5b1480156125e157508573ffffffffffffffffffffffffffffffffffffffff168273ffffffffffffffffffffffffffffffffffffffff16145b156125f15760019250505061272e565b6000808773ffffffffffffffffffffffffffffffffffffffff16631626ba7e60e01b88886040516024016126269291906151aa565b604051602081830303815290604052907bffffffffffffffffffffffffffffffffffffffffffffffffffffffff19166020820180517bffffffffffffffffffffffffffffffffffffffffffffffffffffffff83818316178352505050506040516126909190615216565b600060405180830381855afa9150503d80600081146126cb576040519150601f19603f3d011682016040523d82523d6000602084013e6126d0565b606091505b50915091508180156126e3575060208151145b80156127275750631626ba7e60e01b7bffffffffffffffffffffffffffffffffffffffffffffffffffffffff1916818060200190518101906127259190615242565b145b9450505050505b9392505050565b600080600090506000836000600160001b81526020019081526020016000205490505b600160001b60001c8160001c111561278c578360008281526020019081526020016000205490508180600101925050612758565b8192505050919050565b606060008267ffffffffffffffff8111156127b4576127b36131ad565b5b6040519080825280602002602001820160405280156127e25781602001602082028036833780820191505090505b5090506000808660008781526020019081526020016000205490505b600160001b60001c8160001c11801561281657508482105b1561285d578083838151811061282f5761282e6141ad565b5b60200260200101818152505086600082815260200190815260200160002054905081806001019250506127fe565b8293505050509392505050565b6000804690508091505090565b6000600160008473ffffffffffffffffffffffffffffffffffffffff1673ffffffffffffffffffffffffffffffffffffffff168152602001908152602001600020600181600181540180825580915050039060005260206000209060040201905081600001518160000160016101000a81548173ffffffffffffffffffffffffffffffffffffffff021916908373ffffffffffffffffffffffffffffffffffffffff16021790555060005b8260400151518110156129e657816003018360400151828151811061294a576129496141ad565b5b60200260200101519080600181540180825580915050600190039060005260206000200160009091909190915060008201518160000160006101000a81548167ffffffffffffffff021916908367ffffffffffffffff16021790555060208201518160000160086101000a81548165ffffffffffff021916908365ffffffffffff160217905550505080806129de9061420b565b915050612922565b5060005b826020015151811015612b5957600083602001518281518110612a1057612a0f6141ad565b5b602002602001015160000151604051602001612a2c919061418b565b60405160208183030381529060405280519060200120905060018360000160006101000a81548160ff021916908315150217905550612a778184600101612bfa90919063ffffffff16565b83602001518281518110612a8e57612a8d6141ad565b5b602002602001015183600201600083815260200190815260200160002060008201518160000160008201518160000160006101000a81548173ffffffffffffffffffffffffffffffffffffffff021916908373ffffffffffffffffffffffffffffffffffffffff1602179055506020820151816001019081612b109190614eb0565b50505060208201518160020160006101000a81548167ffffffffffffffff021916908367ffffffffffffffff160217905550905050508080612b519061420b565b9150506129ea565b50505050565b612b7681612b6e612ce9612d12565b63ffffffff16565b50565b6000806041835103612bba5760008060006020860151925060408601519150606086015160001a9050612bae87828585612d1d565b94509450505050612bf3565b6040835103612bea576000806020850151915060408501519050612bdf868383612e29565b935093505050612bf3565b60006002915091505b9250929050565b6000801b8260008381526020019081526020016000205414612c51576040517f08c379a0000000000000000000000000000000000000000000000000000000008152600401612c48906152bb565b60405180910390fd5b6000826000600160001b81526020019081526020016000205490506000801b8103612cb15781836000600160001b815260200190815260200160002081905550600160001b83600084815260200190815260200160002081905550612ce4565b81836000600160001b81526020019081526020016000208190555080836000848152602001908152602001600020819055505b505050565b60008151905060006a636f6e736f6c652e6c6f679050602083016000808483855afa5050505050565b612f6e819050919050565b6000807f7fffffffffffffffffffffffffffffff5d576e7357a4501ddfe92f46681b20a08360001c1115612d58576000600391509150612e20565b601b8560ff1614158015612d705750601c8560ff1614155b15612d82576000600491509150612e20565b600060018787878760405160008152602001604052604051612da794939291906152ea565b6020604051602081039080840390855afa158015612dc9573d6000803e3d6000fd5b505050602060405103519050600073ffffffffffffffffffffffffffffffffffffffff168173ffffffffffffffffffffffffffffffffffffffff1603612e1757600060019250925050612e20565b80600092509250505b94509492505050565b60008060007f7fffffffffffffffffffffffffffffffffffffffffffffffffffffffffffffff60001b841690506000601b60ff8660001c901c612e6c91906142ee565b9050612e7a87828885612d1d565b935093505050935093915050565b508054612e949061411d565b6000825580601f10612ea65750612ec5565b601f016020900490600052602060002090810190612ec49190612f78565b5b50565b60405180606001604052806060815260200160008152602001600081525090565b6040518060600160405280600073ffffffffffffffffffffffffffffffffffffffff16815260200160608152602001606081525090565b6040518060400160405280612f33612f95565b8152602001600067ffffffffffffffff1681525090565b5080546000825560040290600052602060002090810190612f6b9190612fc5565b50565b612f7661532f565b565b5b80821115612f91576000816000905550600101612f79565b5090565b6040518060400160405280600073ffffffffffffffffffffffffffffffffffffffff168152602001606081525090565b5b8082111561302357600080820160006101000a81549060ff02191690556000820160016101000a81549073ffffffffffffffffffffffffffffffffffffffff021916905560038201600061301a9190613027565b50600401612fc6565b5090565b50805460008255906000526020600020908101906130459190613048565b50565b5b8082111561308f57600080820160006101000a81549067ffffffffffffffff02191690556000820160086101000a81549065ffffffffffff021916905550600101613049565b5090565b6000604051905090565b600080fd5b600080fd5b600073ffffffffffffffffffffffffffffffffffffffff82169050919050565b60006130d2826130a7565b9050919050565b6130e2816130c7565b81146130ed57600080fd5b50565b6000813590506130ff816130d9565b92915050565b60006020828403121561311b5761311a61309d565b5b6000613129848285016130f0565b91505092915050565b60008115159050919050565b61314781613132565b82525050565b600065ffffffffffff82169050919050565b6131688161314d565b82525050565b6000604082019050613183600083018561313e565b613190602083018461315f565b9392505050565b600080fd5b6000601f19601f8301169050919050565b7f4e487b7100000000000000000000000000000000000000000000000000000000600052604160045260246000fd5b6131e58261319c565b810181811067ffffffffffffffff82111715613204576132036131ad565b5b80604052505050565b6000613217613093565b905061322382826131dc565b919050565b600080fd5b600080fd5b600080fd5b600067ffffffffffffffff821115613252576132516131ad565b5b61325b8261319c565b9050602081019050919050565b82818337600083830152505050565b600061328a61328584613237565b61320d565b9050828152602081018484840111156132a6576132a5613232565b5b6132b1848285613268565b509392505050565b600082601f8301126132ce576132cd61322d565b5b81356132de848260208601613277565b91505092915050565b6000604082840312156132fd576132fc613197565b5b613307604061320d565b90506000613317848285016130f0565b600083015250602082013567ffffffffffffffff81111561333b5761333a613228565b5b613347848285016132b9565b60208301525092915050565b6000806040838503121561336a5761336961309d565b5b6000613378858286016130f0565b925050602083013567ffffffffffffffff811115613399576133986130a2565b5b6133a5858286016132e7565b9150509250929050565b60006020820190506133c4600083018461313e565b92915050565b6000819050919050565b6133dd816133ca565b81146133e857600080fd5b50565b6000813590506133fa816133d4565b92915050565b6000602082840312156134165761341561309d565b5b6000613424848285016133eb565b91505092915050565b6000819050919050565b6134408161342d565b811461344b57600080fd5b50565b60008135905061345d81613437565b92915050565b600067ffffffffffffffff82111561347e5761347d6131ad565b5b602082029050602081019050919050565b600080fd5b6000604082840312156134aa576134a9613197565b5b6134b4604061320d565b9050600082013567ffffffffffffffff8111156134d4576134d3613228565b5b6134e0848285016132e7565b600083015250602082013567ffffffffffffffff81111561350457613503613228565b5b613510848285016132b9565b60208301525092915050565b600061352f61352a84613463565b61320d565b905080838252602082019050602084028301858111156135525761355161348f565b5b835b8181101561359957803567ffffffffffffffff8111156135775761357661322d565b5b8086016135848982613494565b85526020850194505050602081019050613554565b5050509392505050565b600082601f8301126135b8576135b761322d565b5b81356135c884826020860161351c565b91505092915050565b600080600080608085870312156135eb576135ea61309d565b5b60006135f9878288016130f0565b945050602061360a8782880161344e565b935050604061361b878288016133eb565b925050606085013567ffffffffffffffff81111561363c5761363b6130a2565b5b613648878288016135a3565b91505092959194509250565b6000602082019050613669600083018461315f565b92915050565b600080600080608085870312156136895761368861309d565b5b6000613697878288016130f0565b94505060206136a88782880161344e565b935050604085013567ffffffffffffffff8111156136c9576136c86130a2565b5b6136d5878288016132b9565b925050606085013567ffffffffffffffff8111156136f6576136f56130a2565b5b613702878288016135a3565b91505092959194509250565b6000806000606084860312156137275761372661309d565b5b6000613735868287016130f0565b93505060206137468682870161344e565b925050604084013567ffffffffffffffff811115613767576137666130a2565b5b613773868287016135a3565b9150509250925092565b600081519050919050565b600082825260208201905092915050565b60005b838110156137b757808201518184015260208101905061379c565b60008484015250505050565b60006137ce8261377d565b6137d88185613788565b93506137e8818560208601613799565b6137f18161319c565b840191505092915050565b6000602082019050818103600083015261381681846137c3565b905092915050565b600081519050919050565b600082825260208201905092915050565b6000819050602082019050919050565b613853816130c7565b82525050565b600081519050919050565b600082825260208201905092915050565b6000819050602082019050919050565b600081519050919050565b600082825260208201905092915050565b60006138ac82613885565b6138b68185613890565b93506138c6818560208601613799565b6138cf8161319c565b840191505092915050565b60006040830160008301516138f2600086018261384a565b506020830151848203602086015261390a82826138a1565b9150508091505092915050565b600067ffffffffffffffff82169050919050565b61393481613917565b82525050565b6000604083016000830151848203600086015261395782826138da565b915050602083015161396c602086018261392b565b508091505092915050565b6000613983838361393a565b905092915050565b6000602082019050919050565b60006139a382613859565b6139ad8185613864565b9350836020820285016139bf85613875565b8060005b858110156139fb57848403895281516139dc8582613977565b94506139e78361398b565b925060208a019950506001810190506139c3565b50829750879550505050505092915050565b600081519050919050565b600082825260208201905092915050565b6000819050602082019050919050565b613a428161314d565b82525050565b604082016000820151613a5e600085018261392b565b506020820151613a716020850182613a39565b50505050565b6000613a838383613a48565b60408301905092915050565b6000602082019050919050565b6000613aa782613a0d565b613ab18185613a18565b9350613abc83613a29565b8060005b83811015613aed578151613ad48882613a77565b9750613adf83613a8f565b925050600181019050613ac0565b5085935050505092915050565b6000606083016000830151613b12600086018261384a565b5060208301518482036020860152613b2a8282613998565b91505060408301518482036040860152613b448282613a9c565b9150508091505092915050565b6000613b5d8383613afa565b905092915050565b6000602082019050919050565b6000613b7d8261381e565b613b878185613829565b935083602082028501613b998561383a565b8060005b85811015613bd55784840389528151613bb68582613b51565b9450613bc183613b65565b925060208a01995050600181019050613b9d565b50829750879550505050505092915050565b60006020820190508181036000830152613c018184613b72565b905092915050565b613c128161342d565b82525050565b6000602082019050613c2d6000830184613c09565b92915050565b613c3c816133ca565b82525050565b6000602082019050613c576000830184613c33565b92915050565b600067ffffffffffffffff821115613c7857613c776131ad565b5b602082029050602081019050919050565b600067ffffffffffffffff821115613ca457613ca36131ad565b5b602082029050602081019050919050565b613cbe81613917565b8114613cc957600080fd5b50565b600081359050613cdb81613cb5565b92915050565b600060408284031215613cf757613cf6613197565b5b613d01604061320d565b9050600082013567ffffffffffffffff811115613d2157613d20613228565b5b613d2d848285016132e7565b6000830152506020613d4184828501613ccc565b60208301525092915050565b6000613d60613d5b84613c89565b61320d565b90508083825260208201905060208402830185811115613d8357613d8261348f565b5b835b81811015613dca57803567ffffffffffffffff811115613da857613da761322d565b5b808601613db58982613ce1565b85526020850194505050602081019050613d85565b5050509392505050565b600082601f830112613de957613de861322d565b5b8135613df9848260208601613d4d565b91505092915050565b600067ffffffffffffffff821115613e1d57613e1c6131ad565b5b602082029050602081019050919050565b613e378161314d565b8114613e4257600080fd5b50565b600081359050613e5481613e2e565b92915050565b600060408284031215613e7057613e6f613197565b5b613e7a604061320d565b90506000613e8a84828501613ccc565b6000830152506020613e9e84828501613e45565b60208301525092915050565b6000613ebd613eb884613e02565b61320d565b90508083825260208201905060408402830185811115613ee057613edf61348f565b5b835b81811015613f095780613ef58882613e5a565b845260208401935050604081019050613ee2565b5050509392505050565b600082601f830112613f2857613f2761322d565b5b8135613f38848260208601613eaa565b91505092915050565b600060608284031215613f5757613f56613197565b5b613f61606061320d565b90506000613f71848285016130f0565b600083015250602082013567ffffffffffffffff811115613f9557613f94613228565b5b613fa184828501613dd4565b602083015250604082013567ffffffffffffffff811115613fc557613fc4613228565b5b613fd184828501613f13565b60408301525092915050565b6000613ff0613feb84613c5d565b61320d565b905080838252602082019050602084028301858111156140135761401261348f565b5b835b8181101561405a57803567ffffffffffffffff8111156140385761403761322d565b5b8086016140458982613f41565b85526020850194505050602081019050614015565b5050509392505050565b600082601f8301126140795761407861322d565b5b8135614089848260208601613fdd565b91505092915050565b600080604083850312156140a9576140a861309d565b5b60006140b7858286016130f0565b925050602083013567ffffffffffffffff8111156140d8576140d76130a2565b5b6140e485828601614064565b9150509250929050565b7f4e487b7100000000000000000000000000000000000000000000000000000000600052602260045260246000fd5b6000600282049050600182168061413557607f821691505b602082108103614148576141476140ee565b5b50919050565b6000604083016000830151614166600086018261384a565b506020830151848203602086015261417e82826138a1565b9150508091505092915050565b600060208201905081810360008301526141a5818461414e565b905092915050565b7f4e487b7100000000000000000000000000000000000000000000000000000000600052603260045260246000fd5b7f4e487b7100000000000000000000000000000000000000000000000000000000600052601160045260246000fd5b60006142168261342d565b91507fffffffffffffffffffffffffffffffffffffffffffffffffffffffffffffffff8203614248576142476141dc565b5b600182019050919050565b7f6f6e676f696e67207265636f7665727900000000000000000000000000000000600082015250565b6000614289601083613788565b915061429482614253565b602082019050919050565b600060208201905081810360008301526142b88161427c565b9050919050565b7f4e487b7100000000000000000000000000000000000000000000000000000000600052602160045260246000fd5b60006142f98261342d565b91506143048361342d565b925082820190508082111561431c5761431b6141dc565b5b92915050565b7f6e6f206f6e676f696e67207265636f7665727900000000000000000000000000600082015250565b6000614358601383613788565b915061436382614322565b602082019050919050565b600060208201905081810360008301526143878161434b565b9050919050565b7f6c6f636b696e6700000000000000000000000000000000000000000000000000600082015250565b60006143c4600783613788565b91506143cf8261438e565b602082019050919050565b600060208201905081810360008301526143f3816143b7565b9050919050565b614403816130c7565b82525050565b6000819050919050565b6000819050919050565b600061443861443361442e84614409565b614413565b61342d565b9050919050565b6144488161441d565b82525050565b600082825260208201905092915050565b60008190508160005260206000209050919050565b600081546144818161411d565b61448b818661444e565b945060018216600081146144a657600181146144bc576144ef565b60ff1983168652811515602002860193506144ef565b6144c58561445f565b60005b838110156144e7578154818901526001820191506020810190506144c8565b808801955050505b50505092915050565b600060ff82169050919050565b600061452061451b61451684614409565b614413565b6144f8565b9050919050565b61453081614505565b82525050565b600060808201905061454b60008301876143fa565b614558602083018661443f565b818103604083015261456a8185614474565b90506145796060830184614527565b95945050505050565b61458b81613132565b811461459657600080fd5b50565b6000815190506145a881614582565b92915050565b6000602082840312156145c4576145c361309d565b5b60006145d284828501614599565b91505092915050565b60006060820190506145f060008301866143fa565b81810360208301526146028185614474565b90506146116040830184613c09565b949350505050565b7f756e656e61626c656420706f6c69637900000000000000000000000000000000600082015250565b600061464f601083613788565b915061465a82614619565b602082019050919050565b6000602082019050818103600083015261467e81614642565b9050919050565b7f696e76616c6964207369676e6174757265000000000000000000000000000000600082015250565b60006146bb601183613788565b91506146c682614685565b602082019050919050565b600060208201905081810360008301526146ea816146ae565b9050919050565b60006146fc82613885565b614706818561444e565b9350614716818560208601613799565b61471f8161319c565b840191505092915050565b600060608201905061473f6000830186613c33565b818103602083015261475181856146f1565b9050818103604083015261476581846146f1565b9050949350505050565b7f6475706c69636174656420677572616469616e00000000000000000000000000600082015250565b60006147a5601383613788565b91506147b08261476f565b602082019050919050565b600060208201905081810360008301526147d481614798565b9050919050565b60006147e68261342d565b91506147f18361342d565b9250828203905081811115614809576148086141dc565b5b92915050565b600061481a82613917565b915061482583613917565b9250828201905067ffffffffffffffff811115614845576148446141dc565b5b92915050565b600081519050919050565b600082825260208201905092915050565b6000819050602082019050919050565b6000604083016000830151848203600086015261489482826138da565b915050602083015184820360208601526148ae82826138a1565b9150508091505092915050565b60006148c78383614877565b905092915050565b6000602082019050919050565b60006148e78261484b565b6148f18185614856565b93508360208202850161490385614867565b8060005b8581101561493f578484038952815161492085826148bb565b945061492b836148cf565b925060208a01995050600181019050614907565b50829750879550505050505092915050565b600081519050919050565b600082825260208201905092915050565b6000819050602082019050919050565b6000614989838361392b565b60208301905092915050565b6000602082019050919050565b60006149ad82614951565b6149b7818561495c565b93506149c28361496d565b8060005b838110156149f35781516149da888261497d565b97506149e583614995565b9250506001810190506149c6565b5085935050505092915050565b60006040820190508181036000830152614a1a81856148dc565b90508181036020830152614a2e81846149a2565b90509392505050565b600081519050614a4681613cb5565b92915050565b60008060408385031215614a6357614a6261309d565b5b6000614a7185828601614599565b9250506020614a8285828601614a37565b9150509250929050565b7f6661696c6564207065726d697373696f6e730000000000000000000000000000600082015250565b6000614ac2601283613788565b9150614acd82614a8c565b602082019050919050565b60006020820190508181036000830152614af181614ab5565b9050919050565b7f7468726573686f6c6420756e6d61746368656400000000000000000000000000600082015250565b6000614b2e601383613788565b9150614b3982614af8565b602082019050919050565b60006020820190508181036000830152614b5d81614b21565b9050919050565b6000608082019050614b796000830187613c33565b614b8660208301866143fa565b8181036040830152614b9881856146f1565b9050614ba76060830184613c09565b95945050505050565b600081905092915050565b7f1901000000000000000000000000000000000000000000000000000000000000600082015250565b6000614bf1600283614bb0565b9150614bfc82614bbb565b600282019050919050565b6000819050919050565b614c22614c1d826133ca565b614c07565b82525050565b6000614c3382614be4565b9150614c3f8285614c11565b602082019150614c4f8284614c11565b6020820191508190509392505050565b6000608082019050614c7460008301876143fa565b614c81602083018661443f565b8181036040830152614c9381856146f1565b9050614ca26060830184614527565b95945050505050565b6000606082019050614cc060008301866143fa565b8181036020830152614cd281856146f1565b9050614ce16040830184613c09565b949350505050565b6000614cf48261314d565b9150614cff8361314d565b9250828201905065ffffffffffff811115614d1d57614d1c6141dc565b5b92915050565b60006020601f8301049050919050565b600082821b905092915050565b600060088302614d707fffffffffffffffffffffffffffffffffffffffffffffffffffffffffffffffff82614d33565b614d7a8683614d33565b95508019841693508086168417925050509392505050565b6000614dad614da8614da38461342d565b614413565b61342d565b9050919050565b6000819050919050565b614dc783614d92565b614ddb614dd382614db4565b848454614d40565b825550505050565b600090565b614df0614de3565b614dfb818484614dbe565b505050565b5b81811015614e1f57614e14600082614de8565b600181019050614e01565b5050565b601f821115614e6457614e358161445f565b614e3e84614d23565b81016020851015614e4d578190505b614e61614e5985614d23565b830182614e00565b50505b505050565b600082821c905092915050565b6000614e8760001984600802614e69565b1980831691505092915050565b6000614ea08383614e76565b9150826002028217905092915050565b614eb982613885565b67ffffffffffffffff811115614ed257614ed16131ad565b5b614edc825461411d565b614ee7828285614e23565b600060209050601f831160018114614f1a5760008415614f08578287015190505b614f128582614e94565b865550614f7a565b601f198416614f288661445f565b60005b82811015614f5057848901518255600182019150602085019450602081019050614f2b565b86831015614f6d5784890151614f69601f891682614e76565b8355505b6001600288020188555050505b505050505050565b6000606082019050614f976000830186613c33565b614fa460208301856143fa565b614fb16040830184613c09565b949350505050565b6000604082019050614fce60008301856143fa565b614fdb6020830184613c09565b9392505050565b6000614fed8261377d565b614ff78185614bb0565b9350615007818560208601613799565b80840191505092915050565b600061501f8284614fe2565b915081905092915050565b600061504561504061503b846130a7565b614413565b6130a7565b9050919050565b60006150578261502a565b9050919050565b60006150698261504c565b9050919050565b6150798161505e565b82525050565b600060a0820190506150946000830188613c33565b6150a16020830187613c33565b6150ae6040830186613c33565b6150bb6060830185613c09565b6150c86080830184615070565b9695505050505050565b7f496e76616c69642074696d650000000000000000000000000000000000000000600082015250565b6000615108600c83613788565b9150615113826150d2565b602082019050919050565b60006020820190508181036000830152615137816150fb565b9050919050565b7f6861736820756e6d617463686564000000000000000000000000000000000000600082015250565b6000615174600e83613788565b915061517f8261513e565b602082019050919050565b600060208201905081810360008301526151a381615167565b9050919050565b60006040820190506151bf6000830185613c33565b81810360208301526151d181846146f1565b90509392505050565b600081905092915050565b60006151f082613885565b6151fa81856151da565b935061520a818560208601613799565b80840191505092915050565b600061522282846151e5565b915081905092915050565b60008151905061523c816133d4565b92915050565b6000602082840312156152585761525761309d565b5b60006152668482850161522d565b91505092915050565b7f484153485f414c52454144595f45584953545300000000000000000000000000600082015250565b60006152a5601383613788565b91506152b08261526f565b602082019050919050565b600060208201905081810360008301526152d481615298565b9050919050565b6152e4816144f8565b82525050565b60006080820190506152ff6000830187613c33565b61530c60208301866152db565b6153196040830185613c33565b6153266060830184613c33565b95945050505050565b7f4e487b7100000000000000000000000000000000000000000000000000000000600052605160045260246000fdfea2646970667358221220f418ff69bfcae7d9e69d67afc3e687ca79f4d88a3acefd0527c0ac36ce5f421764736f6c63430008130033",
  "devdoc": {
    "events": {
      "GuardiansUpdated(address)": {
        "details": "Events for updating guardians, starting for recovery, executing recovery, and canceling recovery"
      }
    },
    "kind": "dev",
    "methods": {
      "domainSeparator()": {
        "returns": {
          "_0": "the bytes32 domainSeparator for EIP-712 signature"
        }
      },
      "executeRecovery(address)": {
        "details": "Execute recovery temporary state -> ownerKey rotation"
      },
      "isGuardian(address,(address,bytes))": {
        "details": "Get wallet recovery info, recovery config, check if an identity is a guardian, get the nonce of social recovery, and get the recovery status of the wallet"
      }
    },
    "stateVariables": {
      "NAME": {
        "details": "Return the domain separator name and version for signatures Also return the domainSeparator for EIP-712 signature"
      }
    },
    "version": 1
  },
  "userdoc": {
    "kind": "user",
    "methods": {
      "domainSeparator()": {
        "notice": "returns the domainSeparator for EIP-712 signature"
      }
    },
    "version": 1
  },
  "storageLayout": {
    "storage": [
      {
        "astId": 12234,
        "contract": "src/RecoveryModule.sol:RecoveryModule",
        "label": "walletRecoveryNonce",
        "offset": 0,
        "slot": "0",
        "type": "t_mapping(t_address,t_uint256)"
      },
      {
        "astId": 12240,
        "contract": "src/RecoveryModule.sol:RecoveryModule",
        "label": "walletConfigs",
        "offset": 0,
        "slot": "1",
        "type": "t_mapping(t_address,t_array(t_struct(RecoveryConfig)13432_storage)dyn_storage)"
      },
      {
        "astId": 12246,
        "contract": "src/RecoveryModule.sol:RecoveryModule",
        "label": "approvedRecords",
        "offset": 0,
        "slot": "2",
        "type": "t_mapping(t_address,t_mapping(t_bytes32,t_uint256))"
      },
      {
        "astId": 12251,
        "contract": "src/RecoveryModule.sol:RecoveryModule",
        "label": "recoveryEntries",
        "offset": 0,
        "slot": "3",
        "type": "t_mapping(t_address,t_struct(RecoveryEntry)12181_storage)"
      },
      {
        "astId": 12256,
        "contract": "src/RecoveryModule.sol:RecoveryModule",
        "label": "pendingConfigs",
        "offset": 0,
        "slot": "4",
        "type": "t_mapping(t_address,t_struct(PendingConfig)13414_storage)"
      }
    ],
    "types": {
      "t_address": {
        "encoding": "inplace",
        "label": "address",
        "numberOfBytes": "20"
      },
      "t_array(t_struct(RecoveryConfig)13432_storage)dyn_storage": {
        "base": "t_struct(RecoveryConfig)13432_storage",
        "encoding": "dynamic_array",
        "label": "struct RecoveryConfig[]",
        "numberOfBytes": "32"
      },
      "t_array(t_struct(ThresholdConfig)13392_storage)dyn_storage": {
        "base": "t_struct(ThresholdConfig)13392_storage",
        "encoding": "dynamic_array",
        "label": "struct ThresholdConfig[]",
        "numberOfBytes": "32"
      },
      "t_bool": {
        "encoding": "inplace",
        "label": "bool",
        "numberOfBytes": "1"
      },
      "t_bytes32": {
        "encoding": "inplace",
        "label": "bytes32",
        "numberOfBytes": "32"
      },
      "t_bytes_storage": {
        "encoding": "bytes",
        "label": "bytes",
        "numberOfBytes": "32"
      },
      "t_enum(UpdateType)13406": {
        "encoding": "inplace",
        "label": "enum UpdateType",
        "numberOfBytes": "1"
      },
      "t_mapping(t_address,t_array(t_struct(RecoveryConfig)13432_storage)dyn_storage)": {
        "encoding": "mapping",
        "key": "t_address",
        "label": "mapping(address => struct RecoveryConfig[])",
        "numberOfBytes": "32",
        "value": "t_array(t_struct(RecoveryConfig)13432_storage)dyn_storage"
      },
      "t_mapping(t_address,t_mapping(t_bytes32,t_uint256))": {
        "encoding": "mapping",
        "key": "t_address",
        "label": "mapping(address => mapping(bytes32 => uint256))",
        "numberOfBytes": "32",
        "value": "t_mapping(t_bytes32,t_uint256)"
      },
      "t_mapping(t_address,t_struct(PendingConfig)13414_storage)": {
        "encoding": "mapping",
        "key": "t_address",
        "label": "mapping(address => struct PendingConfig)",
        "numberOfBytes": "32",
        "value": "t_struct(PendingConfig)13414_storage"
      },
      "t_mapping(t_address,t_struct(RecoveryEntry)12181_storage)": {
        "encoding": "mapping",
        "key": "t_address",
        "label": "mapping(address => struct RecoveryModule.RecoveryEntry)",
        "numberOfBytes": "32",
        "value": "t_struct(RecoveryEntry)12181_storage"
      },
      "t_mapping(t_address,t_uint256)": {
        "encoding": "mapping",
        "key": "t_address",
        "label": "mapping(address => uint256)",
        "numberOfBytes": "32",
        "value": "t_uint256"
      },
      "t_mapping(t_bytes32,t_bytes32)": {
        "encoding": "mapping",
        "key": "t_bytes32",
        "label": "mapping(bytes32 => bytes32)",
        "numberOfBytes": "32",
        "value": "t_bytes32"
      },
      "t_mapping(t_bytes32,t_struct(GuardianInfo)13387_storage)": {
        "encoding": "mapping",
        "key": "t_bytes32",
        "label": "mapping(bytes32 => struct GuardianInfo)",
        "numberOfBytes": "32",
        "value": "t_struct(GuardianInfo)13387_storage"
      },
      "t_mapping(t_bytes32,t_uint256)": {
        "encoding": "mapping",
        "key": "t_bytes32",
        "label": "mapping(bytes32 => uint256)",
        "numberOfBytes": "32",
        "value": "t_uint256"
      },
      "t_struct(GuardianInfo)13387_storage": {
        "encoding": "inplace",
        "label": "struct GuardianInfo",
        "members": [
          {
            "astId": 13384,
            "contract": "src/RecoveryModule.sol:RecoveryModule",
            "label": "guardian",
            "offset": 0,
            "slot": "0",
            "type": "t_struct(Identity)13381_storage"
          },
          {
            "astId": 13386,
            "contract": "src/RecoveryModule.sol:RecoveryModule",
            "label": "property",
            "offset": 0,
            "slot": "2",
            "type": "t_uint64"
          }
        ],
        "numberOfBytes": "96"
      },
      "t_struct(Identity)13381_storage": {
        "encoding": "inplace",
        "label": "struct Identity",
        "members": [
          {
            "astId": 13378,
            "contract": "src/RecoveryModule.sol:RecoveryModule",
            "label": "guardianVerifier",
            "offset": 0,
            "slot": "0",
            "type": "t_address"
          },
          {
            "astId": 13380,
            "contract": "src/RecoveryModule.sol:RecoveryModule",
            "label": "signer",
            "offset": 0,
            "slot": "1",
            "type": "t_bytes_storage"
          }
        ],
        "numberOfBytes": "64"
      },
      "t_struct(PendingConfig)13414_storage": {
        "encoding": "inplace",
        "label": "struct PendingConfig",
        "members": [
          {
            "astId": 13409,
            "contract": "src/RecoveryModule.sol:RecoveryModule",
            "label": "updateType",
            "offset": 0,
            "slot": "0",
            "type": "t_enum(UpdateType)13406"
          },
          {
            "astId": 13411,
            "contract": "src/RecoveryModule.sol:RecoveryModule",
            "label": "pendingUntil",
            "offset": 0,
            "slot": "1",
            "type": "t_uint256"
          },
          {
            "astId": 13413,
            "contract": "src/RecoveryModule.sol:RecoveryModule",
            "label": "configsHash",
            "offset": 0,
            "slot": "2",
            "type": "t_bytes32"
          }
        ],
        "numberOfBytes": "96"
      },
      "t_struct(RecoveryConfig)13432_storage": {
        "encoding": "inplace",
        "label": "struct RecoveryConfig",
        "members": [
          {
            "astId": 13416,
            "contract": "src/RecoveryModule.sol:RecoveryModule",
            "label": "enabled",
            "offset": 0,
            "slot": "0",
            "type": "t_bool"
          },
          {
            "astId": 13418,
            "contract": "src/RecoveryModule.sol:RecoveryModule",
            "label": "policyVerifier",
            "offset": 1,
            "slot": "0",
            "type": "t_address"
          },
          {
            "astId": 13422,
            "contract": "src/RecoveryModule.sol:RecoveryModule",
            "label": "identityHashs",
            "offset": 0,
            "slot": "1",
            "type": "t_mapping(t_bytes32,t_bytes32)"
          },
          {
            "astId": 13427,
            "contract": "src/RecoveryModule.sol:RecoveryModule",
            "label": "guardianInfos",
            "offset": 0,
            "slot": "2",
            "type": "t_mapping(t_bytes32,t_struct(GuardianInfo)13387_storage)"
          },
          {
            "astId": 13431,
            "contract": "src/RecoveryModule.sol:RecoveryModule",
            "label": "thresholdConfigs",
            "offset": 0,
            "slot": "3",
            "type": "t_array(t_struct(ThresholdConfig)13392_storage)dyn_storage"
          }
        ],
        "numberOfBytes": "128"
      },
      "t_struct(RecoveryEntry)12181_storage": {
        "encoding": "inplace",
        "label": "struct RecoveryModule.RecoveryEntry",
        "members": [
          {
            "astId": 12176,
            "contract": "src/RecoveryModule.sol:RecoveryModule",
            "label": "data",
            "offset": 0,
            "slot": "0",
            "type": "t_bytes_storage"
          },
          {
            "astId": 12178,
            "contract": "src/RecoveryModule.sol:RecoveryModule",
            "label": "executeAfter",
            "offset": 0,
            "slot": "1",
            "type": "t_uint256"
          },
          {
            "astId": 12180,
            "contract": "src/RecoveryModule.sol:RecoveryModule",
            "label": "nonce",
            "offset": 0,
            "slot": "2",
            "type": "t_uint256"
          }
        ],
        "numberOfBytes": "96"
      },
      "t_struct(ThresholdConfig)13392_storage": {
        "encoding": "inplace",
        "label": "struct ThresholdConfig",
        "members": [
          {
            "astId": 13389,
            "contract": "src/RecoveryModule.sol:RecoveryModule",
            "label": "threshold",
            "offset": 0,
            "slot": "0",
            "type": "t_uint64"
          },
          {
            "astId": 13391,
            "contract": "src/RecoveryModule.sol:RecoveryModule",
            "label": "lockPeriod",
            "offset": 8,
            "slot": "0",
            "type": "t_uint48"
          }
        ],
        "numberOfBytes": "32"
      },
      "t_uint256": {
        "encoding": "inplace",
        "label": "uint256",
        "numberOfBytes": "32"
      },
      "t_uint48": {
        "encoding": "inplace",
        "label": "uint48",
        "numberOfBytes": "6"
      },
      "t_uint64": {
        "encoding": "inplace",
        "label": "uint64",
        "numberOfBytes": "8"
      }
    }
  }
}