{"@safe-global/safe-contracts/contracts/Safe.sol":{"Safe":{"abi":[{"inputs":[],"stateMutability":"nonpayable","type":"constructor"},{"anonymous":false,"inputs":[{"indexed":true,"internalType":"address","name":"owner","type":"address"}],"name":"AddedOwner","type":"event"},{"anonymous":false,"inputs":[{"indexed":true,"internalType":"bytes32","name":"approvedHash","type":"bytes32"},{"indexed":true,"internalType":"address","name":"owner","type":"address"}],"name":"ApproveHash","type":"event"},{"anonymous":false,"inputs":[{"indexed":true,"internalType":"address","name":"handler","type":"address"}],"name":"ChangedFallbackHandler","type":"event"},{"anonymous":false,"inputs":[{"indexed":true,"internalType":"address","name":"guard","type":"address"}],"name":"ChangedGuard","type":"event"},{"anonymous":false,"inputs":[{"indexed":false,"internalType":"uint256","name":"threshold","type":"uint256"}],"name":"ChangedThreshold","type":"event"},{"anonymous":false,"inputs":[{"indexed":true,"internalType":"address","name":"module","type":"address"}],"name":"DisabledModule","type":"event"},{"anonymous":false,"inputs":[{"indexed":true,"internalType":"address","name":"module","type":"address"}],"name":"EnabledModule","type":"event"},{"anonymous":false,"inputs":[{"indexed":true,"internalType":"bytes32","name":"txHash","type":"bytes32"},{"indexed":false,"internalType":"uint256","name":"payment","type":"uint256"}],"name":"ExecutionFailure","type":"event"},{"anonymous":false,"inputs":[{"indexed":true,"internalType":"address","name":"module","type":"address"}],"name":"ExecutionFromModuleFailure","type":"event"},{"anonymous":false,"inputs":[{"indexed":true,"internalType":"address","name":"module","type":"address"}],"name":"ExecutionFromModuleSuccess","type":"event"},{"anonymous":false,"inputs":[{"indexed":true,"internalType":"bytes32","name":"txHash","type":"bytes32"},{"indexed":false,"internalType":"uint256","name":"payment","type":"uint256"}],"name":"ExecutionSuccess","type":"event"},{"anonymous":false,"inputs":[{"indexed":true,"internalType":"address","name":"owner","type":"address"}],"name":"RemovedOwner","type":"event"},{"anonymous":false,"inputs":[{"indexed":true,"internalType":"address","name":"sender","type":"address"},{"indexed":false,"internalType":"uint256","name":"value","type":"uint256"}],"name":"SafeReceived","type":"event"},{"anonymous":false,"inputs":[{"indexed":true,"internalType":"address","name":"initiator","type":"address"},{"indexed":false,"internalType":"address[]","name":"owners","type":"address[]"},{"indexed":false,"internalType":"uint256","name":"threshold","type":"uint256"},{"indexed":false,"internalType":"address","name":"initializer","type":"address"},{"indexed":false,"internalType":"address","name":"fallbackHandler","type":"address"}],"name":"SafeSetup","type":"event"},{"anonymous":false,"inputs":[{"indexed":true,"internalType":"bytes32","name":"msgHash","type":"bytes32"}],"name":"SignMsg","type":"event"},{"stateMutability":"nonpayable","type":"fallback"},{"inputs":[],"name":"VERSION","outputs":[{"internalType":"string","name":"","type":"string"}],"stateMutability":"view","type":"function"},{"inputs":[{"internalType":"address","name":"owner","type":"address"},{"internalType":"uint256","name":"_threshold","type":"uint256"}],"name":"addOwnerWithThreshold","outputs":[],"stateMutability":"nonpayable","type":"function"},{"inputs":[{"internalType":"bytes32","name":"hashToApprove","type":"bytes32"}],"name":"approveHash","outputs":[],"stateMutability":"nonpayable","type":"function"},{"inputs":[{"internalType":"address","name":"","type":"address"},{"internalType":"bytes32","name":"","type":"bytes32"}],"name":"approvedHashes","outputs":[{"internalType":"uint256","name":"","type":"uint256"}],"stateMutability":"view","type":"function"},{"inputs":[{"internalType":"uint256","name":"_threshold","type":"uint256"}],"name":"changeThreshold","outputs":[],"stateMutability":"nonpayable","type":"function"},{"inputs":[{"internalType":"bytes32","name":"dataHash","type":"bytes32"},{"internalType":"bytes","name":"data","type":"bytes"},{"internalType":"bytes","name":"signatures","type":"bytes"},{"internalType":"uint256","name":"requiredSignatures","type":"uint256"}],"name":"checkNSignatures","outputs":[],"stateMutability":"view","type":"function"},{"inputs":[{"internalType":"bytes32","name":"dataHash","type":"bytes32"},{"internalType":"bytes","name":"data","type":"bytes"},{"internalType":"bytes","name":"signatures","type":"bytes"}],"name":"checkSignatures","outputs":[],"stateMutability":"view","type":"function"},{"inputs":[{"internalType":"address","name":"prevModule","type":"address"},{"internalType":"address","name":"module","type":"address"}],"name":"disableModule","outputs":[],"stateMutability":"nonpayable","type":"function"},{"inputs":[],"name":"domainSeparator","outputs":[{"internalType":"bytes32","name":"","type":"bytes32"}],"stateMutability":"view","type":"function"},{"inputs":[{"internalType":"address","name":"module","type":"address"}],"name":"enableModule","outputs":[],"stateMutability":"nonpayable","type":"function"},{"inputs":[{"internalType":"address","name":"to","type":"address"},{"internalType":"uint256","name":"value","type":"uint256"},{"internalType":"bytes","name":"data","type":"bytes"},{"internalType":"enum Enum.Operation","name":"operation","type":"uint8"},{"internalType":"uint256","name":"safeTxGas","type":"uint256"},{"internalType":"uint256","name":"baseGas","type":"uint256"},{"internalType":"uint256","name":"gasPrice","type":"uint256"},{"internalType":"address","name":"gasToken","type":"address"},{"internalType":"address","name":"refundReceiver","type":"address"},{"internalType":"uint256","name":"_nonce","type":"uint256"}],"name":"encodeTransactionData","outputs":[{"internalType":"bytes","name":"","type":"bytes"}],"stateMutability":"view","type":"function"},{"inputs":[{"internalType":"address","name":"to","type":"address"},{"internalType":"uint256","name":"value","type":"uint256"},{"internalType":"bytes","name":"data","type":"bytes"},{"internalType":"enum Enum.Operation","name":"operation","type":"uint8"},{"internalType":"uint256","name":"safeTxGas","type":"uint256"},{"internalType":"uint256","name":"baseGas","type":"uint256"},{"internalType":"uint256","name":"gasPrice","type":"uint256"},{"internalType":"address","name":"gasToken","type":"address"},{"internalType":"address payable","name":"refundReceiver","type":"address"},{"internalType":"bytes","name":"signatures","type":"bytes"}],"name":"execTransaction","outputs":[{"internalType":"bool","name":"success","type":"bool"}],"stateMutability":"payable","type":"function"},{"inputs":[{"internalType":"address","name":"to","type":"address"},{"internalType":"uint256","name":"value","type":"uint256"},{"internalType":"bytes","name":"data","type":"bytes"},{"internalType":"enum Enum.Operation","name":"operation","type":"uint8"}],"name":"execTransactionFromModule","outputs":[{"internalType":"bool","name":"success","type":"bool"}],"stateMutability":"nonpayable","type":"function"},{"inputs":[{"internalType":"address","name":"to","type":"address"},{"internalType":"uint256","name":"value","type":"uint256"},{"internalType":"bytes","name":"data","type":"bytes"},{"internalType":"enum Enum.Operation","name":"operation","type":"uint8"}],"name":"execTransactionFromModuleReturnData","outputs":[{"internalType":"bool","name":"success","type":"bool"},{"internalType":"bytes","name":"returnData","type":"bytes"}],"stateMutability":"nonpayable","type":"function"},{"inputs":[],"name":"getChainId","outputs":[{"internalType":"uint256","name":"","type":"uint256"}],"stateMutability":"view","type":"function"},{"inputs":[{"internalType":"address","name":"start","type":"address"},{"internalType":"uint256","name":"pageSize","type":"uint256"}],"name":"getModulesPaginated","outputs":[{"internalType":"address[]","name":"array","type":"address[]"},{"internalType":"address","name":"next","type":"address"}],"stateMutability":"view","type":"function"},{"inputs":[],"name":"getOwners","outputs":[{"internalType":"address[]","name":"","type":"address[]"}],"stateMutability":"view","type":"function"},{"inputs":[{"internalType":"uint256","name":"offset","type":"uint256"},{"internalType":"uint256","name":"length","type":"uint256"}],"name":"getStorageAt","outputs":[{"internalType":"bytes","name":"","type":"bytes"}],"stateMutability":"view","type":"function"},{"inputs":[],"name":"getThreshold","outputs":[{"internalType":"uint256","name":"","type":"uint256"}],"stateMutability":"view","type":"function"},{"inputs":[{"internalType":"address","name":"to","type":"address"},{"internalType":"uint256","name":"value","type":"uint256"},{"internalType":"bytes","name":"data","type":"bytes"},{"internalType":"enum Enum.Operation","name":"operation","type":"uint8"},{"internalType":"uint256","name":"safeTxGas","type":"uint256"},{"internalType":"uint256","name":"baseGas","type":"uint256"},{"internalType":"uint256","name":"gasPrice","type":"uint256"},{"internalType":"address","name":"gasToken","type":"address"},{"internalType":"address","name":"refundReceiver","type":"address"},{"internalType":"uint256","name":"_nonce","type":"uint256"}],"name":"getTransactionHash","outputs":[{"internalType":"bytes32","name":"","type":"bytes32"}],"stateMutability":"view","type":"function"},{"inputs":[{"internalType":"address","name":"module","type":"address"}],"name":"isModuleEnabled","outputs":[{"internalType":"bool","name":"","type":"bool"}],"stateMutability":"view","type":"function"},{"inputs":[{"internalType":"address","name":"owner","type":"address"}],"name":"isOwner","outputs":[{"internalType":"bool","name":"","type":"bool"}],"stateMutability":"view","type":"function"},{"inputs":[],"name":"nonce","outputs":[{"internalType":"uint256","name":"","type":"uint256"}],"stateMutability":"view","type":"function"},{"inputs":[{"internalType":"address","name":"prevOwner","type":"address"},{"internalType":"address","name":"owner","type":"address"},{"internalType":"uint256","name":"_threshold","type":"uint256"}],"name":"removeOwner","outputs":[],"stateMutability":"nonpayable","type":"function"},{"inputs":[{"internalType":"address","name":"handler","type":"address"}],"name":"setFallbackHandler","outputs":[],"stateMutability":"nonpayable","type":"function"},{"inputs":[{"internalType":"address","name":"guard","type":"address"}],"name":"setGuard","outputs":[],"stateMutability":"nonpayable","type":"function"},{"inputs":[{"internalType":"address[]","name":"_owners","type":"address[]"},{"internalType":"uint256","name":"_threshold","type":"uint256"},{"internalType":"address","name":"to","type":"address"},{"internalType":"bytes","name":"data","type":"bytes"},{"internalType":"address","name":"fallbackHandler","type":"address"},{"internalType":"address","name":"paymentToken","type":"address"},{"internalType":"uint256","name":"payment","type":"uint256"},{"internalType":"address payable","name":"paymentReceiver","type":"address"}],"name":"setup","outputs":[],"stateMutability":"nonpayable","type":"function"},{"inputs":[{"internalType":"bytes32","name":"","type":"bytes32"}],"name":"signedMessages","outputs":[{"internalType":"uint256","name":"","type":"uint256"}],"stateMutability":"view","type":"function"},{"inputs":[{"internalType":"address","name":"targetContract","type":"address"},{"internalType":"bytes","name":"calldataPayload","type":"bytes"}],"name":"simulateAndRevert","outputs":[],"stateMutability":"nonpayable","type":"function"},{"inputs":[{"internalType":"address","name":"prevOwner","type":"address"},{"internalType":"address","name":"oldOwner","type":"address"},{"internalType":"address","name":"newOwner","type":"address"}],"name":"swapOwner","outputs":[],"stateMutability":"nonpayable","type":"function"},{"stateMutability":"payable","type":"receive"}],"devdoc":{"author":"Stefan George - @Georgi87Richard Meissner - @rmeissner","details":"Most important concepts:      - Threshold: Number of required confirmations for a Safe transaction.      - Owners: List of addresses that control the Safe. They are the only ones that can add/remove owners, change the threshold and        approve transactions. Managed in `OwnerManager`.      - Transaction Hash: Hash of a transaction is calculated using the EIP-712 typed structured data hashing scheme.      - Nonce: Each transaction should have a different nonce to prevent replay attacks.      - Signature: A valid signature of an owner of the Safe for a transaction hash.      - Guard: Guard is a contract that can execute pre- and post- transaction checks. Managed in `GuardManager`.      - Modules: Modules are contracts that can be used to extend the write functionality of a Safe. Managed in `ModuleManager`.      - Fallback: Fallback handler is a contract that can provide additional read-only functional for Safe. Managed in `FallbackManager`.      Note: This version of the implementation contract doesn't emit events for the sake of gas efficiency and therefore requires a tracing node for indexing/      For the events-based implementation see `SafeL2.sol`.","kind":"dev","methods":{"addOwnerWithThreshold(address,uint256)":{"details":"This can only be done via a Safe transaction.","params":{"_threshold":"New threshold.","owner":"New owner address."}},"approveHash(bytes32)":{"details":"This can be used with a pre-approved hash transaction signature.      IMPORTANT: The approved hash stays approved forever. There's no revocation mechanism, so it behaves similarly to ECDSA signatures","params":{"hashToApprove":"The hash to mark as approved for signatures that are verified by this contract."}},"changeThreshold(uint256)":{"details":"This can only be done via a Safe transaction.","params":{"_threshold":"New threshold."}},"checkNSignatures(bytes32,bytes,bytes,uint256)":{"details":"Since the EIP-1271 does an external call, be mindful of reentrancy attacks.","params":{"data":"That should be signed (this is passed to an external validator contract)","dataHash":"Hash of the data (could be either a message hash or transaction hash)","requiredSignatures":"Amount of required valid signatures.","signatures":"Signature data that should be verified.                   Can be packed ECDSA signature ({bytes32 r}{bytes32 s}{uint8 v}), contract signature (EIP-1271) or approved hash."}},"checkSignatures(bytes32,bytes,bytes)":{"params":{"data":"That should be signed (this is passed to an external validator contract)","dataHash":"Hash of the data (could be either a message hash or transaction hash)","signatures":"Signature data that should be verified.                   Can be packed ECDSA signature ({bytes32 r}{bytes32 s}{uint8 v}), contract signature (EIP-1271) or approved hash."}},"disableModule(address,address)":{"details":"This can only be done via a Safe transaction.","params":{"module":"Module to be removed.","prevModule":"Previous module in the modules linked list."}},"domainSeparator()":{"details":"Returns the domain separator for this contract, as defined in the EIP-712 standard.","returns":{"_0":"bytes32 The domain separator hash."}},"enableModule(address)":{"details":"This can only be done via a Safe transaction.","params":{"module":"Module to be whitelisted."}},"encodeTransactionData(address,uint256,bytes,uint8,uint256,uint256,uint256,address,address,uint256)":{"params":{"_nonce":"Transaction nonce.","baseGas":"Gas costs for that are independent of the transaction execution(e.g. base transaction fee, signature check, payment of the refund)","data":"Data payload.","gasPrice":"Maximum gas price that should be used for this transaction.","gasToken":"Token address (or 0 if ETH) that is used for the payment.","operation":"Operation type.","refundReceiver":"Address of receiver of gas payment (or 0 if tx.origin).","safeTxGas":"Gas that should be used for the safe transaction.","to":"Destination address.","value":"Ether value."},"returns":{"_0":"Transaction hash bytes."}},"execTransaction(address,uint256,bytes,uint8,uint256,uint256,uint256,address,address,bytes)":{"details":"The fees are always transferred, even if the user transaction fails.      This method doesn't perform any sanity check of the transaction, such as:      - if the contract at `to` address has code or not      - if the `gasToken` is a contract or not      It is the responsibility of the caller to perform such checks.","params":{"baseGas":"Gas costs that are independent of the transaction execution(e.g. base transaction fee, signature check, payment of the refund)","data":"Data payload of Safe transaction.","gasPrice":"Gas price that should be used for the payment calculation.","gasToken":"Token address (or 0 if ETH) that is used for the payment.","operation":"Operation type of Safe transaction.","refundReceiver":"Address of receiver of gas payment (or 0 if tx.origin).","safeTxGas":"Gas that should be used for the Safe transaction.","signatures":"Signature data that should be verified.                   Can be packed ECDSA signature ({bytes32 r}{bytes32 s}{uint8 v}), contract signature (EIP-1271) or approved hash.","to":"Destination address of Safe transaction.","value":"Ether value of Safe transaction."},"returns":{"success":"Boolean indicating transaction's success."}},"execTransactionFromModule(address,uint256,bytes,uint8)":{"details":"Function is virtual to allow overriding for L2 singleton to emit an event for indexing.","params":{"data":"Data payload of module transaction.","operation":"Operation type of module transaction.","to":"Destination address of module transaction.","value":"Ether value of module transaction."},"returns":{"success":"Boolean flag indicating if the call succeeded."}},"execTransactionFromModuleReturnData(address,uint256,bytes,uint8)":{"params":{"data":"Data payload of module transaction.","operation":"Operation type of module transaction.","to":"Destination address of module transaction.","value":"Ether value of module transaction."},"returns":{"returnData":"Data returned by the call.","success":"Boolean flag indicating if the call succeeded."}},"getChainId()":{"returns":{"_0":"The ID of the current chain as a uint256."}},"getModulesPaginated(address,uint256)":{"params":{"pageSize":"Maximum number of modules that should be returned. Has to be > 0","start":"Start of the page. Has to be a module or start pointer (0x1 address)"},"returns":{"array":"Array of modules.","next":"Start of the next page."}},"getOwners()":{"returns":{"_0":"Array of Safe owners."}},"getStorageAt(uint256,uint256)":{"params":{"length":"- the number of words (32 bytes) of data to read","offset":"- the offset in the current contract's storage in words to start reading from"},"returns":{"_0":"the bytes that were read."}},"getThreshold()":{"returns":{"_0":"Threshold number."}},"getTransactionHash(address,uint256,bytes,uint8,uint256,uint256,uint256,address,address,uint256)":{"params":{"_nonce":"Transaction nonce.","baseGas":"Gas costs for data used to trigger the safe transaction.","data":"Data payload.","gasPrice":"Maximum gas price that should be used for this transaction.","gasToken":"Token address (or 0 if ETH) that is used for the payment.","operation":"Operation type.","refundReceiver":"Address of receiver of gas payment (or 0 if tx.origin).","safeTxGas":"Fas that should be used for the safe transaction.","to":"Destination address.","value":"Ether value."},"returns":{"_0":"Transaction hash."}},"isModuleEnabled(address)":{"returns":{"_0":"True if the module is enabled"}},"isOwner(address)":{"returns":{"_0":"Boolean if owner is an owner of the Safe."}},"removeOwner(address,address,uint256)":{"details":"This can only be done via a Safe transaction.","params":{"_threshold":"New threshold.","owner":"Owner address to be removed.","prevOwner":"Owner that pointed to the owner to be removed in the linked list"}},"setFallbackHandler(address)":{"details":"Only fallback calls without value and with data will be forwarded.      This can only be done via a Safe transaction.      Cannot be set to the Safe itself.","params":{"handler":"contract to handle fallback calls."}},"setGuard(address)":{"details":"Set a guard that checks transactions before execution      This can only be done via a Safe transaction.      ⚠️ IMPORTANT: Since a guard has full power to block Safe transaction execution,        a broken guard can cause a denial of service for the Safe. Make sure to carefully        audit the guard code and design recovery mechanisms.","params":{"guard":"The address of the guard to be used or the 0 address to disable the guard"}},"setup(address[],uint256,address,bytes,address,address,uint256,address)":{"details":"This method can only be called once.      If a proxy was created without setting up, anyone can call setup and claim the proxy.","params":{"_owners":"List of Safe owners.","_threshold":"Number of required confirmations for a Safe transaction.","data":"Data payload for optional delegate call.","fallbackHandler":"Handler for fallback calls to this contract","payment":"Value that should be paid","paymentReceiver":"Address that should receive the payment (or 0 if tx.origin)","paymentToken":"Token that should be used for the payment (0 is ETH)","to":"Contract address for optional delegate call."}},"simulateAndRevert(address,bytes)":{"details":"Performs a delegatecall on a targetContract in the context of self. Internally reverts execution to avoid side effects (making it static). This method reverts with data equal to `abi.encode(bool(success), bytes(response))`. Specifically, the `returndata` after a call to this method will be: `success:bool || response.length:uint256 || response:bytes`.","params":{"calldataPayload":"Calldata that should be sent to the target contract (encoded method name and arguments).","targetContract":"Address of the contract containing the code to execute."}},"swapOwner(address,address,address)":{"details":"This can only be done via a Safe transaction.","params":{"newOwner":"New owner address.","oldOwner":"Owner address to be replaced.","prevOwner":"Owner that pointed to the owner to be replaced in the linked list"}}},"title":"Safe - A multisignature wallet with support for confirmations using signed messages based on EIP-712.","version":1},"evm":{"bytecode":{"linkReferences":{},"object":"608060405234801561001057600080fd5b50600160048190555061656c80620000296000396000f3fe6080604052600436106101d15760003560e01c8063affed0e0116100f7578063e19a9dd911610095578063f08a032311610064578063f08a032314610796578063f698da25146107bf578063f8dc5dd9146107ea578063ffa1ad741461081357610226565b8063e19a9dd9146106dc578063e318b52b14610705578063e75235b81461072e578063e86637db1461075957610226565b8063cc2f8452116100d1578063cc2f84521461060f578063d4d9bdcd1461064d578063d8d11f7814610676578063e009cfde146106b357610226565b8063affed0e014610592578063b4faba09146105bd578063b63e800d146105e657610226565b80635624b25b1161016f5780636a7612021161013e5780636a761202146104d15780637d83297414610501578063934f3a111461053e578063a0e67e2b1461056757610226565b80635624b25b146104055780635ae6bd3714610442578063610b59251461047f578063694e80c3146104a857610226565b80632f54bf6e116101ab5780632f54bf6e146103225780633408e4701461035f578063468721a71461038a5780635229073f146103c757610226565b80630d582f131461029357806312fb68e0146102bc5780632d9ad53d146102e557610226565b36610226573373ffffffffffffffffffffffffffffffffffffffff167f3d0ce9bfc3ed7d6862dbb28b2dea94561fe714a1b4d019aa8af39730d1ad7c3d3460405161021c919061414e565b60405180910390a2005b34801561023257600080fd5b5060007f6c9a6c4a39284e37ed1cf53d337577d14212a4870fb976a4366c693b939918d560001b905080548061026757600080f35b36600080373360601b365260008060143601600080855af13d6000803e8061028e573d6000fd5b3d6000f35b34801561029f57600080fd5b506102ba60048036038101906102b59190614207565b61083e565b005b3480156102c857600080fd5b506102e360048036038101906102de91906143c3565b610bc4565b005b3480156102f157600080fd5b5061030c60048036038101906103079190614462565b611203565b60405161031991906144aa565b60405180910390f35b34801561032e57600080fd5b5061034960048036038101906103449190614462565b6112d5565b60405161035691906144aa565b60405180910390f35b34801561036b57600080fd5b506103746113a7565b604051610381919061414e565b60405180910390f35b34801561039657600080fd5b506103b160048036038101906103ac91906144ea565b6113b4565b6040516103be91906144aa565b60405180910390f35b3480156103d357600080fd5b506103ee60048036038101906103e991906144ea565b611587565b6040516103fc9291906145ec565b60405180910390f35b34801561041157600080fd5b5061042c6004803603810190610427919061461c565b6115bd565b604051610439919061465c565b60405180910390f35b34801561044e57600080fd5b506104696004803603810190610464919061467e565b611655565b604051610476919061414e565b60405180910390f35b34801561048b57600080fd5b506104a660048036038101906104a19190614462565b61166d565b005b3480156104b457600080fd5b506104cf60048036038101906104ca91906146ab565b61198f565b005b6104eb60048036038101906104e69190614776565b611a63565b6040516104f891906144aa565b60405180910390f35b34801561050d57600080fd5b5061052860048036038101906105239190614892565b611e22565b604051610535919061414e565b60405180910390f35b34801561054a57600080fd5b50610565600480360381019061056091906148d2565b611e47565b005b34801561057357600080fd5b5061057c611ea3565b6040516105899190614a1b565b60405180910390f35b34801561059e57600080fd5b506105a761205b565b6040516105b4919061414e565b60405180910390f35b3480156105c957600080fd5b506105e460048036038101906105df9190614a3d565b612061565b005b3480156105f257600080fd5b5061060d60048036038101906106089190614aef565b612083565b005b34801561061b57600080fd5b5061063660048036038101906106319190614207565b6121d6565b604051610644929190614bf5565b60405180910390f35b34801561065957600080fd5b50610674600480360381019061066f919061467e565b6124f2565b005b34801561068257600080fd5b5061069d60048036038101906106989190614c25565b61265d565b6040516106aa9190614d34565b60405180910390f35b3480156106bf57600080fd5b506106da60048036038101906106d59190614d4f565b61268a565b005b3480156106e857600080fd5b5061070360048036038101906106fe9190614462565b6129ab565b005b34801561071157600080fd5b5061072c60048036038101906107279190614d8f565b612b33565b005b34801561073a57600080fd5b506107436130c5565b604051610750919061414e565b60405180910390f35b34801561076557600080fd5b50610780600480360381019061077b9190614c25565b6130cf565b60405161078d919061465c565b60405180910390f35b3480156107a257600080fd5b506107bd60048036038101906107b89190614462565b613191565b005b3480156107cb57600080fd5b506107d46131e8565b6040516107e19190614d34565b60405180910390f35b3480156107f657600080fd5b50610811600480360381019061080c9190614de2565b613244565b005b34801561081f57600080fd5b506108286135e2565b6040516108359190614e8a565b60405180910390f35b61084661361b565b600073ffffffffffffffffffffffffffffffffffffffff168273ffffffffffffffffffffffffffffffffffffffff16141580156108b05750600173ffffffffffffffffffffffffffffffffffffffff168273ffffffffffffffffffffffffffffffffffffffff1614155b80156108e857503073ffffffffffffffffffffffffffffffffffffffff168273ffffffffffffffffffffffffffffffffffffffff1614155b610927576040517f08c379a000000000000000000000000000000000000000000000000000000000815260040161091e90614ef8565b60405180910390fd5b600073ffffffffffffffffffffffffffffffffffffffff16600260008473ffffffffffffffffffffffffffffffffffffffff1673ffffffffffffffffffffffffffffffffffffffff16815260200190815260200160002060009054906101000a900473ffffffffffffffffffffffffffffffffffffffff1673ffffffffffffffffffffffffffffffffffffffff16146109f5576040517f08c379a00000000000000000000000000000000000000000000000000000000081526004016109ec90614f64565b60405180910390fd5b60026000600173ffffffffffffffffffffffffffffffffffffffff1673ffffffffffffffffffffffffffffffffffffffff16815260200190815260200160002060009054906101000a900473ffffffffffffffffffffffffffffffffffffffff16600260008473ffffffffffffffffffffffffffffffffffffffff1673ffffffffffffffffffffffffffffffffffffffff16815260200190815260200160002060006101000a81548173ffffffffffffffffffffffffffffffffffffffff021916908373ffffffffffffffffffffffffffffffffffffffff1602179055508160026000600173ffffffffffffffffffffffffffffffffffffffff1673ffffffffffffffffffffffffffffffffffffffff16815260200190815260200160002060006101000a81548173ffffffffffffffffffffffffffffffffffffffff021916908373ffffffffffffffffffffffffffffffffffffffff16021790555060036000815480929190610b6590614fb3565b91905055508173ffffffffffffffffffffffffffffffffffffffff167f9465fa0c962cc76958e6373a993326400c1c94f8be2fe3a952adfa7f60b2ea2660405160405180910390a28060045414610bc057610bbf8161198f565b5b5050565b610bd860418261368b90919063ffffffff16565b82511015610c1b576040517f08c379a0000000000000000000000000000000000000000000000000000000008152600401610c1290615047565b60405180910390fd5b6000808060008060005b868110156111f757610c3788826136cf565b80945081955082965050505060008460ff1603610eda5789898051906020012014610c97576040517f08c379a0000000000000000000000000000000000000000000000000000000008152600401610c8e906150b3565b60405180910390fd5b8260001c9450610cb160418861368b90919063ffffffff16565b8260001c1015610cf6576040517f08c379a0000000000000000000000000000000000000000000000000000000008152600401610ced9061511f565b60405180910390fd5b8751610d0f60208460001c6136fe90919063ffffffff16565b1115610d50576040517f08c379a0000000000000000000000000000000000000000000000000000000008152600401610d479061518b565b60405180910390fd5b60006020838a01015190508851610d8682610d7860208760001c6136fe90919063ffffffff16565b6136fe90919063ffffffff16565b1115610dc7576040517f08c379a0000000000000000000000000000000000000000000000000000000008152600401610dbe906151f7565b60405180910390fd5b60606020848b010190506320c13b0b60e01b7bffffffffffffffffffffffffffffffffffffffffffffffffffffffff19168773ffffffffffffffffffffffffffffffffffffffff166320c13b0b8d846040518363ffffffff1660e01b8152600401610e33929190615217565b602060405180830381865afa158015610e50573d6000803e3d6000fd5b505050506040513d601f19601f82011682018060405250810190610e7491906152a6565b7bffffffffffffffffffffffffffffffffffffffffffffffffffffffff191614610ed3576040517f08c379a0000000000000000000000000000000000000000000000000000000008152600401610eca9061531f565b60405180910390fd5b50506110a2565b60018460ff1603610fba578260001c94508473ffffffffffffffffffffffffffffffffffffffff163373ffffffffffffffffffffffffffffffffffffffff161480610f7657506000600860008773ffffffffffffffffffffffffffffffffffffffff1673ffffffffffffffffffffffffffffffffffffffff16815260200190815260200160002060008c81526020019081526020016000205414155b610fb5576040517f08c379a0000000000000000000000000000000000000000000000000000000008152600401610fac9061538b565b60405180910390fd5b6110a1565b601e8460ff16111561104e5760018a604051602001610fd99190615423565b60405160208183030381529060405280519060200120600486610ffc9190615456565b85856040516000815260200160405260405161101b949392919061549a565b6020604051602081039080840390855afa15801561103d573d6000803e3d6000fd5b5050506020604051035194506110a0565b60018a85858560405160008152602001604052604051611071949392919061549a565b6020604051602081039080840390855afa158015611093573d6000803e3d6000fd5b5050506020604051035194505b5b5b8573ffffffffffffffffffffffffffffffffffffffff168573ffffffffffffffffffffffffffffffffffffffff161180156111695750600073ffffffffffffffffffffffffffffffffffffffff16600260008773ffffffffffffffffffffffffffffffffffffffff1673ffffffffffffffffffffffffffffffffffffffff16815260200190815260200160002060009054906101000a900473ffffffffffffffffffffffffffffffffffffffff1673ffffffffffffffffffffffffffffffffffffffff1614155b80156111a25750600173ffffffffffffffffffffffffffffffffffffffff168573ffffffffffffffffffffffffffffffffffffffff1614155b6111e1576040517f08c379a00000000000000000000000000000000000000000000000000000000081526004016111d89061552b565b60405180910390fd5b84955080806111ef90614fb3565b915050610c25565b50505050505050505050565b60008173ffffffffffffffffffffffffffffffffffffffff16600173ffffffffffffffffffffffffffffffffffffffff16141580156112ce5750600073ffffffffffffffffffffffffffffffffffffffff16600160008473ffffffffffffffffffffffffffffffffffffffff1673ffffffffffffffffffffffffffffffffffffffff16815260200190815260200160002060009054906101000a900473ffffffffffffffffffffffffffffffffffffffff1673ffffffffffffffffffffffffffffffffffffffff1614155b9050919050565b6000600173ffffffffffffffffffffffffffffffffffffffff168273ffffffffffffffffffffffffffffffffffffffff16141580156113a05750600073ffffffffffffffffffffffffffffffffffffffff16600260008473ffffffffffffffffffffffffffffffffffffffff1673ffffffffffffffffffffffffffffffffffffffff16815260200190815260200160002060009054906101000a900473ffffffffffffffffffffffffffffffffffffffff1673ffffffffffffffffffffffffffffffffffffffff1614155b9050919050565b6000804690508091505090565b6000600173ffffffffffffffffffffffffffffffffffffffff163373ffffffffffffffffffffffffffffffffffffffff161415801561147f5750600073ffffffffffffffffffffffffffffffffffffffff16600160003373ffffffffffffffffffffffffffffffffffffffff1673ffffffffffffffffffffffffffffffffffffffff16815260200190815260200160002060009054906101000a900473ffffffffffffffffffffffffffffffffffffffff1673ffffffffffffffffffffffffffffffffffffffff1614155b6114be576040517f08c379a00000000000000000000000000000000000000000000000000000000081526004016114b590615597565b60405180910390fd5b6114eb858585857fffffffffffffffffffffffffffffffffffffffffffffffffffffffffffffffff613726565b9050801561153b573373ffffffffffffffffffffffffffffffffffffffff167f6895c13664aa4f67288b25d7a21d7aaa34916e355fb9b6fae0a139a9085becb860405160405180910390a261157f565b3373ffffffffffffffffffffffffffffffffffffffff167facd2c8702804128fdb0db2bb49f6d127dd0181c13fd45dbfe16de0930e2bd37560405160405180910390a25b949350505050565b60006060611597868686866113b4565b915060405160203d0181016040523d81523d6000602083013e8091505094509492505050565b606060006020836115ce91906155b7565b67ffffffffffffffff8111156115e7576115e6614298565b5b6040519080825280601f01601f1916602001820160405280156116195781602001600182028036833780820191505090505b50905060005b8381101561164a5780850154806020830260208501015250808061164290614fb3565b91505061161f565b508091505092915050565b60076020528060005260406000206000915090505481565b61167561361b565b600073ffffffffffffffffffffffffffffffffffffffff168173ffffffffffffffffffffffffffffffffffffffff16141580156116df5750600173ffffffffffffffffffffffffffffffffffffffff168173ffffffffffffffffffffffffffffffffffffffff1614155b61171e576040517f08c379a000000000000000000000000000000000000000000000000000000000815260040161171590615645565b60405180910390fd5b600073ffffffffffffffffffffffffffffffffffffffff16600160008373ffffffffffffffffffffffffffffffffffffffff1673ffffffffffffffffffffffffffffffffffffffff16815260200190815260200160002060009054906101000a900473ffffffffffffffffffffffffffffffffffffffff1673ffffffffffffffffffffffffffffffffffffffff16146117ec576040517f08c379a00000000000000000000000000000000000000000000000000000000081526004016117e3906156b1565b60405180910390fd5b60016000600173ffffffffffffffffffffffffffffffffffffffff1673ffffffffffffffffffffffffffffffffffffffff16815260200190815260200160002060009054906101000a900473ffffffffffffffffffffffffffffffffffffffff16600160008373ffffffffffffffffffffffffffffffffffffffff1673ffffffffffffffffffffffffffffffffffffffff16815260200190815260200160002060006101000a81548173ffffffffffffffffffffffffffffffffffffffff021916908373ffffffffffffffffffffffffffffffffffffffff1602179055508060016000600173ffffffffffffffffffffffffffffffffffffffff1673ffffffffffffffffffffffffffffffffffffffff16815260200190815260200160002060006101000a81548173ffffffffffffffffffffffffffffffffffffffff021916908373ffffffffffffffffffffffffffffffffffffffff1602179055508073ffffffffffffffffffffffffffffffffffffffff167fecdf3a3effea5783a3c4c2140e677577666428d44ed9d474a0b3a4c9943f844060405160405180910390a250565b61199761361b565b6003548111156119dc576040517f08c379a00000000000000000000000000000000000000000000000000000000081526004016119d39061571d565b60405180910390fd5b6001811015611a20576040517f08c379a0000000000000000000000000000000000000000000000000000000008152600401611a1790615789565b60405180910390fd5b806004819055507f610f7ff2b304ae8903c3de74c60c6ab1f7d6226b3f52c5161905bb5ad4039c93600454604051611a58919061414e565b60405180910390a150565b6000806000611a7d8e8e8e8e8e8e8e8e8e8e6005546130cf565b905060056000815480929190611a9290614fb3565b919050555080805190602001209150611aac828286611e47565b506000611ab761377f565b9050600073ffffffffffffffffffffffffffffffffffffffff168173ffffffffffffffffffffffffffffffffffffffff1614611b6f578073ffffffffffffffffffffffffffffffffffffffff166375f0bb528f8f8f8f8f8f8f8f8f8f8f336040518d63ffffffff1660e01b8152600401611b3c9c9b9a9998979695949392919061585c565b600060405180830381600087803b158015611b5657600080fd5b505af1158015611b6a573d6000803e3d6000fd5b505050505b6101f4611baa6109c48b611b839190615917565b603f60408d611b9291906155b7565b611b9c919061597a565b6137b090919063ffffffff16565b611bb49190615917565b5a1015611bf6576040517f08c379a0000000000000000000000000000000000000000000000000000000008152600401611bed906159f7565b60405180910390fd5b60005a9050611c688f8f8f8f8080601f016020809104026020016040519081016040528093929190818152602001838380828437600081840152601f19601f820116905080830192505050505050508e60008d14611c54578e611c63565b6109c45a611c629190615a17565b5b613726565b9350611c7d5a826137ca90919063ffffffff16565b90508380611c8c575060008a14155b80611c98575060008814155b611cd7576040517f08c379a0000000000000000000000000000000000000000000000000000000008152600401611cce90615a97565b60405180910390fd5b600080891115611cf157611cee828b8b8b8b6137f3565b90505b8415611d3457837f442e715f626346e8c54381002da614f62bee8d27386535b2521ec8540898556e82604051611d27919061414e565b60405180910390a2611d6d565b837f23428b18acfb3ea64b08dc0c1d296ea9c09702c09083ca5272e64d115b687d2382604051611d64919061414e565b60405180910390a25b5050600073ffffffffffffffffffffffffffffffffffffffff168173ffffffffffffffffffffffffffffffffffffffff1614611e11578073ffffffffffffffffffffffffffffffffffffffff16639327136883856040518363ffffffff1660e01b8152600401611dde929190615ab7565b600060405180830381600087803b158015611df857600080fd5b505af1158015611e0c573d6000803e3d6000fd5b505050505b50509b9a5050505050505050505050565b6008602052816000526040600020602052806000526040600020600091509150505481565b6000600454905060008111611e91576040517f08c379a0000000000000000000000000000000000000000000000000000000008152600401611e8890615b2c565b60405180910390fd5b611e9d84848484610bc4565b50505050565b6060600060035467ffffffffffffffff811115611ec357611ec2614298565b5b604051908082528060200260200182016040528015611ef15781602001602082028036833780820191505090505b50905060008060026000600173ffffffffffffffffffffffffffffffffffffffff1673ffffffffffffffffffffffffffffffffffffffff16815260200190815260200160002060009054906101000a900473ffffffffffffffffffffffffffffffffffffffff1690505b600173ffffffffffffffffffffffffffffffffffffffff168173ffffffffffffffffffffffffffffffffffffffff16146120525780838381518110611fa357611fa2615b4c565b5b602002602001019073ffffffffffffffffffffffffffffffffffffffff16908173ffffffffffffffffffffffffffffffffffffffff1681525050600260008273ffffffffffffffffffffffffffffffffffffffff1673ffffffffffffffffffffffffffffffffffffffff16815260200190815260200160002060009054906101000a900473ffffffffffffffffffffffffffffffffffffffff169050818061204a90614fb3565b925050611f5b565b82935050505090565b60055481565b600080825160208401855af4806000523d6020523d600060403e60403d016000fd5b6120ce8a8a80806020026020016040519081016040528093929190818152602001838360200280828437600081840152601f19601f8201169050808301925050505050505089613992565b600073ffffffffffffffffffffffffffffffffffffffff168473ffffffffffffffffffffffffffffffffffffffff161461210c5761210b84613da0565b5b61215a8787878080601f016020809104026020016040519081016040528093929190818152602001838380828437600081840152601f19601f82011690508083019250505050505050613e3d565b600082111561217457612172826000600186856137f3565b505b3373ffffffffffffffffffffffffffffffffffffffff167f141df868a6331af528e38c83b7aa03edc19be66e37ae67f9285bf4f8e3c6a1a88b8b8b8b896040516121c2959493929190615c06565b60405180910390a250505050505050505050565b60606000600173ffffffffffffffffffffffffffffffffffffffff168473ffffffffffffffffffffffffffffffffffffffff16148061221a575061221984611203565b5b612259576040517f08c379a000000000000000000000000000000000000000000000000000000000815260040161225090615ca0565b60405180910390fd5b6000831161229c576040517f08c379a000000000000000000000000000000000000000000000000000000000815260040161229390615d0c565b60405180910390fd5b8267ffffffffffffffff8111156122b6576122b5614298565b5b6040519080825280602002602001820160405280156122e45781602001602082028036833780820191505090505b5091506000600160008673ffffffffffffffffffffffffffffffffffffffff1673ffffffffffffffffffffffffffffffffffffffff16815260200190815260200160002060009054906101000a900473ffffffffffffffffffffffffffffffffffffffff1691505b600073ffffffffffffffffffffffffffffffffffffffff168273ffffffffffffffffffffffffffffffffffffffff16141580156123b65750600173ffffffffffffffffffffffffffffffffffffffff168273ffffffffffffffffffffffffffffffffffffffff1614155b80156123c157508381105b1561248957818382815181106123da576123d9615b4c565b5b602002602001019073ffffffffffffffffffffffffffffffffffffffff16908173ffffffffffffffffffffffffffffffffffffffff1681525050600160008373ffffffffffffffffffffffffffffffffffffffff1673ffffffffffffffffffffffffffffffffffffffff16815260200190815260200160002060009054906101000a900473ffffffffffffffffffffffffffffffffffffffff169150808061248190614fb3565b91505061234c565b600173ffffffffffffffffffffffffffffffffffffffff168273ffffffffffffffffffffffffffffffffffffffff16146124e757826001826124cb9190615a17565b815181106124dc576124db615b4c565b5b602002602001015191505b808352509250929050565b600073ffffffffffffffffffffffffffffffffffffffff16600260003373ffffffffffffffffffffffffffffffffffffffff1673ffffffffffffffffffffffffffffffffffffffff16815260200190815260200160002060009054906101000a900473ffffffffffffffffffffffffffffffffffffffff1673ffffffffffffffffffffffffffffffffffffffff16036125c0576040517f08c379a00000000000000000000000000000000000000000000000000000000081526004016125b790615d78565b60405180910390fd5b6001600860003373ffffffffffffffffffffffffffffffffffffffff1673ffffffffffffffffffffffffffffffffffffffff1681526020019081526020016000206000838152602001908152602001600020819055503373ffffffffffffffffffffffffffffffffffffffff16817ff2a0eb156472d1440255b0d7c1e19cc07115d1051fe605b0dce69acfec884d9c60405160405180910390a350565b60006126728c8c8c8c8c8c8c8c8c8c8c6130cf565b8051906020012090509b9a5050505050505050505050565b61269261361b565b600073ffffffffffffffffffffffffffffffffffffffff168173ffffffffffffffffffffffffffffffffffffffff16141580156126fc5750600173ffffffffffffffffffffffffffffffffffffffff168173ffffffffffffffffffffffffffffffffffffffff1614155b61273b576040517f08c379a000000000000000000000000000000000000000000000000000000000815260040161273290615645565b60405180910390fd5b8073ffffffffffffffffffffffffffffffffffffffff16600160008473ffffffffffffffffffffffffffffffffffffffff1673ffffffffffffffffffffffffffffffffffffffff16815260200190815260200160002060009054906101000a900473ffffffffffffffffffffffffffffffffffffffff1673ffffffffffffffffffffffffffffffffffffffff1614612808576040517f08c379a00000000000000000000000000000000000000000000000000000000081526004016127ff90615de4565b60405180910390fd5b600160008273ffffffffffffffffffffffffffffffffffffffff1673ffffffffffffffffffffffffffffffffffffffff16815260200190815260200160002060009054906101000a900473ffffffffffffffffffffffffffffffffffffffff16600160008473ffffffffffffffffffffffffffffffffffffffff1673ffffffffffffffffffffffffffffffffffffffff16815260200190815260200160002060006101000a81548173ffffffffffffffffffffffffffffffffffffffff021916908373ffffffffffffffffffffffffffffffffffffffff1602179055506000600160008373ffffffffffffffffffffffffffffffffffffffff1673ffffffffffffffffffffffffffffffffffffffff16815260200190815260200160002060006101000a81548173ffffffffffffffffffffffffffffffffffffffff021916908373ffffffffffffffffffffffffffffffffffffffff1602179055508073ffffffffffffffffffffffffffffffffffffffff167faab4fa2b463f581b2b32cb3b7e3b704b9ce37cc209b5fb4d77e593ace405427660405160405180910390a25050565b6129b361361b565b600073ffffffffffffffffffffffffffffffffffffffff168173ffffffffffffffffffffffffffffffffffffffff1614612ac1578073ffffffffffffffffffffffffffffffffffffffff166301ffc9a77fe6d7a83a000000000000000000000000000000000000000000000000000000006040518263ffffffff1660e01b8152600401612a409190615e13565b602060405180830381865afa158015612a5d573d6000803e3d6000fd5b505050506040513d601f19601f82011682018060405250810190612a819190615e5a565b612ac0576040517f08c379a0000000000000000000000000000000000000000000000000000000008152600401612ab790615ed3565b60405180910390fd5b5b60007f4a204f620c8c5ccdca3fd54d003badd85ba500436a431f0cbda4f558c93c34c860001b90508181558173ffffffffffffffffffffffffffffffffffffffff167f1151116914515bc0891ff9047a6cb32cf902546f83066499bcf8ba33d2353fa260405160405180910390a25050565b612b3b61361b565b600073ffffffffffffffffffffffffffffffffffffffff168173ffffffffffffffffffffffffffffffffffffffff1614158015612ba55750600173ffffffffffffffffffffffffffffffffffffffff168173ffffffffffffffffffffffffffffffffffffffff1614155b8015612bdd57503073ffffffffffffffffffffffffffffffffffffffff168173ffffffffffffffffffffffffffffffffffffffff1614155b612c1c576040517f08c379a0000000000000000000000000000000000000000000000000000000008152600401612c1390614ef8565b60405180910390fd5b600073ffffffffffffffffffffffffffffffffffffffff16600260008373ffffffffffffffffffffffffffffffffffffffff1673ffffffffffffffffffffffffffffffffffffffff16815260200190815260200160002060009054906101000a900473ffffffffffffffffffffffffffffffffffffffff1673ffffffffffffffffffffffffffffffffffffffff1614612cea576040517f08c379a0000000000000000000000000000000000000000000000000000000008152600401612ce190614f64565b60405180910390fd5b600073ffffffffffffffffffffffffffffffffffffffff168273ffffffffffffffffffffffffffffffffffffffff1614158015612d545750600173ffffffffffffffffffffffffffffffffffffffff168273ffffffffffffffffffffffffffffffffffffffff1614155b612d93576040517f08c379a0000000000000000000000000000000000000000000000000000000008152600401612d8a90614ef8565b60405180910390fd5b8173ffffffffffffffffffffffffffffffffffffffff16600260008573ffffffffffffffffffffffffffffffffffffffff1673ffffffffffffffffffffffffffffffffffffffff16815260200190815260200160002060009054906101000a900473ffffffffffffffffffffffffffffffffffffffff1673ffffffffffffffffffffffffffffffffffffffff1614612e60576040517f08c379a0000000000000000000000000000000000000000000000000000000008152600401612e5790615f3f565b60405180910390fd5b600260008373ffffffffffffffffffffffffffffffffffffffff1673ffffffffffffffffffffffffffffffffffffffff16815260200190815260200160002060009054906101000a900473ffffffffffffffffffffffffffffffffffffffff16600260008373ffffffffffffffffffffffffffffffffffffffff1673ffffffffffffffffffffffffffffffffffffffff16815260200190815260200160002060006101000a81548173ffffffffffffffffffffffffffffffffffffffff021916908373ffffffffffffffffffffffffffffffffffffffff16021790555080600260008573ffffffffffffffffffffffffffffffffffffffff1673ffffffffffffffffffffffffffffffffffffffff16815260200190815260200160002060006101000a81548173ffffffffffffffffffffffffffffffffffffffff021916908373ffffffffffffffffffffffffffffffffffffffff1602179055506000600260008473ffffffffffffffffffffffffffffffffffffffff1673ffffffffffffffffffffffffffffffffffffffff16815260200190815260200160002060006101000a81548173ffffffffffffffffffffffffffffffffffffffff021916908373ffffffffffffffffffffffffffffffffffffffff1602179055508173ffffffffffffffffffffffffffffffffffffffff167ff8d49fc529812e9a7c5c50e69c20f0dccc0db8fa95c98bc58cc9a4f1c1299eaf60405160405180910390a28073ffffffffffffffffffffffffffffffffffffffff167f9465fa0c962cc76958e6373a993326400c1c94f8be2fe3a952adfa7f60b2ea2660405160405180910390a2505050565b6000600454905090565b606060007fbb8310d486368db6bd6f849402fdd73ad53d316b5a4b2644ad6efe0f941286d860001b8d8d8d8d604051613109929190615f8f565b60405180910390208c8c8c8c8c8c8c6040516020016131329b9a99989796959493929190615fa8565b604051602081830303815290604052805190602001209050601960f81b600160f81b61315c6131e8565b8360405160200161317094939291906160a0565b6040516020818303038152906040529150509b9a5050505050505050505050565b61319961361b565b6131a281613da0565b8073ffffffffffffffffffffffffffffffffffffffff167f5ac6c46c93c8d0e53714ba3b53db3e7c046da994313d7ed0d192028bc7c228b060405160405180910390a250565b60007f47e79534a245952e8b16893a336b85a3d9ea9fa8c573f3d803afb92a7946921860001b6132166113a7565b306040516020016132299392919061614d565b60405160208183030381529060405280519060200120905090565b61324c61361b565b80600160035461325c9190615a17565b101561329d576040517f08c379a00000000000000000000000000000000000000000000000000000000081526004016132949061571d565b60405180910390fd5b600073ffffffffffffffffffffffffffffffffffffffff168273ffffffffffffffffffffffffffffffffffffffff16141580156133075750600173ffffffffffffffffffffffffffffffffffffffff168273ffffffffffffffffffffffffffffffffffffffff1614155b613346576040517f08c379a000000000000000000000000000000000000000000000000000000000815260040161333d90614ef8565b60405180910390fd5b8173ffffffffffffffffffffffffffffffffffffffff16600260008573ffffffffffffffffffffffffffffffffffffffff1673ffffffffffffffffffffffffffffffffffffffff16815260200190815260200160002060009054906101000a900473ffffffffffffffffffffffffffffffffffffffff1673ffffffffffffffffffffffffffffffffffffffff1614613413576040517f08c379a000000000000000000000000000000000000000000000000000000000815260040161340a90615f3f565b60405180910390fd5b600260008373ffffffffffffffffffffffffffffffffffffffff1673ffffffffffffffffffffffffffffffffffffffff16815260200190815260200160002060009054906101000a900473ffffffffffffffffffffffffffffffffffffffff16600260008573ffffffffffffffffffffffffffffffffffffffff1673ffffffffffffffffffffffffffffffffffffffff16815260200190815260200160002060006101000a81548173ffffffffffffffffffffffffffffffffffffffff021916908373ffffffffffffffffffffffffffffffffffffffff1602179055506000600260008473ffffffffffffffffffffffffffffffffffffffff1673ffffffffffffffffffffffffffffffffffffffff16815260200190815260200160002060006101000a81548173ffffffffffffffffffffffffffffffffffffffff021916908373ffffffffffffffffffffffffffffffffffffffff1602179055506003600081548092919061358290616184565b91905055508173ffffffffffffffffffffffffffffffffffffffff167ff8d49fc529812e9a7c5c50e69c20f0dccc0db8fa95c98bc58cc9a4f1c1299eaf60405160405180910390a280600454146135dd576135dc8161198f565b5b505050565b6040518060400160405280600581526020017f312e342e3100000000000000000000000000000000000000000000000000000081525081565b3073ffffffffffffffffffffffffffffffffffffffff163373ffffffffffffffffffffffffffffffffffffffff1614613689576040517f08c379a0000000000000000000000000000000000000000000000000000000008152600401613680906161f9565b60405180910390fd5b565b600080830361369d57600090506136c9565b600082846136ab91906155b7565b90508284826136ba919061597a565b146136c457600080fd5b809150505b92915050565b60008060008360410260208101860151925060408101860151915060ff60418201870151169350509250925092565b600080828461370d9190615917565b90508381101561371c57600080fd5b8091505092915050565b600060018081111561373b5761373a6157d6565b5b83600181111561374e5761374d6157d6565b5b03613766576000808551602087018986f49050613776565b600080855160208701888a87f190505b95945050505050565b6000807f4a204f620c8c5ccdca3fd54d003badd85ba500436a431f0cbda4f558c93c34c860001b9050805491505090565b6000818310156137c057816137c2565b825b905092915050565b6000828211156137d957600080fd5b600082846137e79190615a17565b90508091505092915050565b600080600073ffffffffffffffffffffffffffffffffffffffff168373ffffffffffffffffffffffffffffffffffffffff16146138305782613832565b325b9050600073ffffffffffffffffffffffffffffffffffffffff168473ffffffffffffffffffffffffffffffffffffffff16036139165761389b3a8610613878573a61387a565b855b61388d888a6136fe90919063ffffffff16565b61368b90919063ffffffff16565b91508073ffffffffffffffffffffffffffffffffffffffff166108fc839081150290604051600060405180830381858888f19350505050613911576040517f08c379a000000000000000000000000000000000000000000000000000000000815260040161390890616265565b60405180910390fd5b613988565b61393b8561392d888a6136fe90919063ffffffff16565b61368b90919063ffffffff16565b915061394884828461407a565b613987576040517f08c379a000000000000000000000000000000000000000000000000000000000815260040161397e906162d1565b60405180910390fd5b5b5095945050505050565b6000600454146139d7576040517f08c379a00000000000000000000000000000000000000000000000000000000081526004016139ce9061633d565b60405180910390fd5b8151811115613a1b576040517f08c379a0000000000000000000000000000000000000000000000000000000008152600401613a129061571d565b60405180910390fd5b6001811015613a5f576040517f08c379a0000000000000000000000000000000000000000000000000000000008152600401613a5690615789565b60405180910390fd5b60006001905060005b8351811015613d0c576000848281518110613a8657613a85615b4c565b5b60200260200101519050600073ffffffffffffffffffffffffffffffffffffffff168173ffffffffffffffffffffffffffffffffffffffff1614158015613afa5750600173ffffffffffffffffffffffffffffffffffffffff168173ffffffffffffffffffffffffffffffffffffffff1614155b8015613b3257503073ffffffffffffffffffffffffffffffffffffffff168173ffffffffffffffffffffffffffffffffffffffff1614155b8015613b6a57508073ffffffffffffffffffffffffffffffffffffffff168373ffffffffffffffffffffffffffffffffffffffff1614155b613ba9576040517f08c379a0000000000000000000000000000000000000000000000000000000008152600401613ba090614ef8565b60405180910390fd5b600073ffffffffffffffffffffffffffffffffffffffff16600260008373ffffffffffffffffffffffffffffffffffffffff1673ffffffffffffffffffffffffffffffffffffffff16815260200190815260200160002060009054906101000a900473ffffffffffffffffffffffffffffffffffffffff1673ffffffffffffffffffffffffffffffffffffffff1614613c77576040517f08c379a0000000000000000000000000000000000000000000000000000000008152600401613c6e90614f64565b60405180910390fd5b80600260008573ffffffffffffffffffffffffffffffffffffffff1673ffffffffffffffffffffffffffffffffffffffff16815260200190815260200160002060006101000a81548173ffffffffffffffffffffffffffffffffffffffff021916908373ffffffffffffffffffffffffffffffffffffffff160217905550809250508080613d0490614fb3565b915050613a68565b506001600260008373ffffffffffffffffffffffffffffffffffffffff1673ffffffffffffffffffffffffffffffffffffffff16815260200190815260200160002060006101000a81548173ffffffffffffffffffffffffffffffffffffffff021916908373ffffffffffffffffffffffffffffffffffffffff160217905550825160038190555081600481905550505050565b3073ffffffffffffffffffffffffffffffffffffffff168173ffffffffffffffffffffffffffffffffffffffff1603613e0e576040517f08c379a0000000000000000000000000000000000000000000000000000000008152600401613e05906163a9565b60405180910390fd5b60007f6c9a6c4a39284e37ed1cf53d337577d14212a4870fb976a4366c693b939918d560001b90508181555050565b600073ffffffffffffffffffffffffffffffffffffffff1660016000600173ffffffffffffffffffffffffffffffffffffffff1673ffffffffffffffffffffffffffffffffffffffff16815260200190815260200160002060009054906101000a900473ffffffffffffffffffffffffffffffffffffffff1673ffffffffffffffffffffffffffffffffffffffff1614613f0c576040517f08c379a0000000000000000000000000000000000000000000000000000000008152600401613f0390616415565b60405180910390fd5b6001806000600173ffffffffffffffffffffffffffffffffffffffff1673ffffffffffffffffffffffffffffffffffffffff16815260200190815260200160002060006101000a81548173ffffffffffffffffffffffffffffffffffffffff021916908373ffffffffffffffffffffffffffffffffffffffff160217905550600073ffffffffffffffffffffffffffffffffffffffff168273ffffffffffffffffffffffffffffffffffffffff161461407657613fc882614122565b614007576040517f08c379a0000000000000000000000000000000000000000000000000000000008152600401613ffe90616481565b60405180910390fd5b6140368260008360017fffffffffffffffffffffffffffffffffffffffffffffffffffffffffffffffff613726565b614075576040517f08c379a000000000000000000000000000000000000000000000000000000000815260040161406c906164ed565b60405180910390fd5b5b5050565b60008063a9059cbb848460405160240161409592919061650d565b6040516020818303038152906040529060e01b6020820180517bffffffffffffffffffffffffffffffffffffffffffffffffffffffff83818316178352505050509050602060008251602084016000896127105a03f13d60008114614105576020811461410d5760009350614118565b819350614118565b600051158215171593505b5050509392505050565b600080823b905060008111915050919050565b6000819050919050565b61414881614135565b82525050565b6000602082019050614163600083018461413f565b92915050565b6000604051905090565b600080fd5b600080fd5b600073ffffffffffffffffffffffffffffffffffffffff82169050919050565b60006141a88261417d565b9050919050565b6141b88161419d565b81146141c357600080fd5b50565b6000813590506141d5816141af565b92915050565b6141e481614135565b81146141ef57600080fd5b50565b600081359050614201816141db565b92915050565b6000806040838503121561421e5761421d614173565b5b600061422c858286016141c6565b925050602061423d858286016141f2565b9150509250929050565b6000819050919050565b61425a81614247565b811461426557600080fd5b50565b60008135905061427781614251565b92915050565b600080fd5b600080fd5b6000601f19601f8301169050919050565b7f4e487b7100000000000000000000000000000000000000000000000000000000600052604160045260246000fd5b6142d082614287565b810181811067ffffffffffffffff821117156142ef576142ee614298565b5b80604052505050565b6000614302614169565b905061430e82826142c7565b919050565b600067ffffffffffffffff82111561432e5761432d614298565b5b61433782614287565b9050602081019050919050565b82818337600083830152505050565b600061436661436184614313565b6142f8565b90508281526020810184848401111561438257614381614282565b5b61438d848285614344565b509392505050565b600082601f8301126143aa576143a961427d565b5b81356143ba848260208601614353565b91505092915050565b600080600080608085870312156143dd576143dc614173565b5b60006143eb87828801614268565b945050602085013567ffffffffffffffff81111561440c5761440b614178565b5b61441887828801614395565b935050604085013567ffffffffffffffff81111561443957614438614178565b5b61444587828801614395565b9250506060614456878288016141f2565b91505092959194509250565b60006020828403121561447857614477614173565b5b6000614486848285016141c6565b91505092915050565b60008115159050919050565b6144a48161448f565b82525050565b60006020820190506144bf600083018461449b565b92915050565b600281106144d257600080fd5b50565b6000813590506144e4816144c5565b92915050565b6000806000806080858703121561450457614503614173565b5b6000614512878288016141c6565b9450506020614523878288016141f2565b935050604085013567ffffffffffffffff81111561454457614543614178565b5b61455087828801614395565b9250506060614561878288016144d5565b91505092959194509250565b600081519050919050565b600082825260208201905092915050565b60005b838110156145a757808201518184015260208101905061458c565b60008484015250505050565b60006145be8261456d565b6145c88185614578565b93506145d8818560208601614589565b6145e181614287565b840191505092915050565b6000604082019050614601600083018561449b565b818103602083015261461381846145b3565b90509392505050565b6000806040838503121561463357614632614173565b5b6000614641858286016141f2565b9250506020614652858286016141f2565b9150509250929050565b6000602082019050818103600083015261467681846145b3565b905092915050565b60006020828403121561469457614693614173565b5b60006146a284828501614268565b91505092915050565b6000602082840312156146c1576146c0614173565b5b60006146cf848285016141f2565b91505092915050565b600080fd5b600080fd5b60008083601f8401126146f8576146f761427d565b5b8235905067ffffffffffffffff811115614715576147146146d8565b5b602083019150836001820283011115614731576147306146dd565b5b9250929050565b60006147438261417d565b9050919050565b61475381614738565b811461475e57600080fd5b50565b6000813590506147708161474a565b92915050565b60008060008060008060008060008060006101408c8e03121561479c5761479b614173565b5b60006147aa8e828f016141c6565b9b505060206147bb8e828f016141f2565b9a505060408c013567ffffffffffffffff8111156147dc576147db614178565b5b6147e88e828f016146e2565b995099505060606147fb8e828f016144d5565b975050608061480c8e828f016141f2565b96505060a061481d8e828f016141f2565b95505060c061482e8e828f016141f2565b94505060e061483f8e828f016141c6565b9350506101006148518e828f01614761565b9250506101208c013567ffffffffffffffff81111561487357614872614178565b5b61487f8e828f01614395565b9150509295989b509295989b9093969950565b600080604083850312156148a9576148a8614173565b5b60006148b7858286016141c6565b92505060206148c885828601614268565b9150509250929050565b6000806000606084860312156148eb576148ea614173565b5b60006148f986828701614268565b935050602084013567ffffffffffffffff81111561491a57614919614178565b5b61492686828701614395565b925050604084013567ffffffffffffffff81111561494757614946614178565b5b61495386828701614395565b9150509250925092565b600081519050919050565b600082825260208201905092915050565b6000819050602082019050919050565b6149928161419d565b82525050565b60006149a48383614989565b60208301905092915050565b6000602082019050919050565b60006149c88261495d565b6149d28185614968565b93506149dd83614979565b8060005b83811015614a0e5781516149f58882614998565b9750614a00836149b0565b9250506001810190506149e1565b5085935050505092915050565b60006020820190508181036000830152614a3581846149bd565b905092915050565b60008060408385031215614a5457614a53614173565b5b6000614a62858286016141c6565b925050602083013567ffffffffffffffff811115614a8357614a82614178565b5b614a8f85828601614395565b9150509250929050565b60008083601f840112614aaf57614aae61427d565b5b8235905067ffffffffffffffff811115614acc57614acb6146d8565b5b602083019150836020820283011115614ae857614ae76146dd565b5b9250929050565b6000806000806000806000806000806101008b8d031215614b1357614b12614173565b5b60008b013567ffffffffffffffff811115614b3157614b30614178565b5b614b3d8d828e01614a99565b9a509a50506020614b508d828e016141f2565b9850506040614b618d828e016141c6565b97505060608b013567ffffffffffffffff811115614b8257614b81614178565b5b614b8e8d828e016146e2565b96509650506080614ba18d828e016141c6565b94505060a0614bb28d828e016141c6565b93505060c0614bc38d828e016141f2565b92505060e0614bd48d828e01614761565b9150509295989b9194979a5092959850565b614bef8161419d565b82525050565b60006040820190508181036000830152614c0f81856149bd565b9050614c1e6020830184614be6565b9392505050565b60008060008060008060008060008060006101408c8e031215614c4b57614c4a614173565b5b6000614c598e828f016141c6565b9b50506020614c6a8e828f016141f2565b9a505060408c013567ffffffffffffffff811115614c8b57614c8a614178565b5b614c978e828f016146e2565b99509950506060614caa8e828f016144d5565b9750506080614cbb8e828f016141f2565b96505060a0614ccc8e828f016141f2565b95505060c0614cdd8e828f016141f2565b94505060e0614cee8e828f016141c6565b935050610100614d008e828f016141c6565b925050610120614d128e828f016141f2565b9150509295989b509295989b9093969950565b614d2e81614247565b82525050565b6000602082019050614d496000830184614d25565b92915050565b60008060408385031215614d6657614d65614173565b5b6000614d74858286016141c6565b9250506020614d85858286016141c6565b9150509250929050565b600080600060608486031215614da857614da7614173565b5b6000614db6868287016141c6565b9350506020614dc7868287016141c6565b9250506040614dd8868287016141c6565b9150509250925092565b600080600060608486031215614dfb57614dfa614173565b5b6000614e09868287016141c6565b9350506020614e1a868287016141c6565b9250506040614e2b868287016141f2565b9150509250925092565b600081519050919050565b600082825260208201905092915050565b6000614e5c82614e35565b614e668185614e40565b9350614e76818560208601614589565b614e7f81614287565b840191505092915050565b60006020820190508181036000830152614ea48184614e51565b905092915050565b7f4753323033000000000000000000000000000000000000000000000000000000600082015250565b6000614ee2600583614e40565b9150614eed82614eac565b602082019050919050565b60006020820190508181036000830152614f1181614ed5565b9050919050565b7f4753323034000000000000000000000000000000000000000000000000000000600082015250565b6000614f4e600583614e40565b9150614f5982614f18565b602082019050919050565b60006020820190508181036000830152614f7d81614f41565b9050919050565b7f4e487b7100000000000000000000000000000000000000000000000000000000600052601160045260246000fd5b6000614fbe82614135565b91507fffffffffffffffffffffffffffffffffffffffffffffffffffffffffffffffff8203614ff057614fef614f84565b5b600182019050919050565b7f4753303230000000000000000000000000000000000000000000000000000000600082015250565b6000615031600583614e40565b915061503c82614ffb565b602082019050919050565b6000602082019050818103600083015261506081615024565b9050919050565b7f4753303237000000000000000000000000000000000000000000000000000000600082015250565b600061509d600583614e40565b91506150a882615067565b602082019050919050565b600060208201905081810360008301526150cc81615090565b9050919050565b7f4753303231000000000000000000000000000000000000000000000000000000600082015250565b6000615109600583614e40565b9150615114826150d3565b602082019050919050565b60006020820190508181036000830152615138816150fc565b9050919050565b7f4753303232000000000000000000000000000000000000000000000000000000600082015250565b6000615175600583614e40565b91506151808261513f565b602082019050919050565b600060208201905081810360008301526151a481615168565b9050919050565b7f4753303233000000000000000000000000000000000000000000000000000000600082015250565b60006151e1600583614e40565b91506151ec826151ab565b602082019050919050565b60006020820190508181036000830152615210816151d4565b9050919050565b6000604082019050818103600083015261523181856145b3565b9050818103602083015261524581846145b3565b90509392505050565b60007fffffffff0000000000000000000000000000000000000000000000000000000082169050919050565b6152838161524e565b811461528e57600080fd5b50565b6000815190506152a08161527a565b92915050565b6000602082840312156152bc576152bb614173565b5b60006152ca84828501615291565b91505092915050565b7f4753303234000000000000000000000000000000000000000000000000000000600082015250565b6000615309600583614e40565b9150615314826152d3565b602082019050919050565b60006020820190508181036000830152615338816152fc565b9050919050565b7f4753303235000000000000000000000000000000000000000000000000000000600082015250565b6000615375600583614e40565b91506153808261533f565b602082019050919050565b600060208201905081810360008301526153a481615368565b9050919050565b600081905092915050565b7f19457468657265756d205369676e6564204d6573736167653a0a333200000000600082015250565b60006153ec601c836153ab565b91506153f7826153b6565b601c82019050919050565b6000819050919050565b61541d61541882614247565b615402565b82525050565b600061542e826153df565b915061543a828461540c565b60208201915081905092915050565b600060ff82169050919050565b600061546182615449565b915061546c83615449565b9250828203905060ff81111561548557615484614f84565b5b92915050565b61549481615449565b82525050565b60006080820190506154af6000830187614d25565b6154bc602083018661548b565b6154c96040830185614d25565b6154d66060830184614d25565b95945050505050565b7f4753303236000000000000000000000000000000000000000000000000000000600082015250565b6000615515600583614e40565b9150615520826154df565b602082019050919050565b6000602082019050818103600083015261554481615508565b9050919050565b7f4753313034000000000000000000000000000000000000000000000000000000600082015250565b6000615581600583614e40565b915061558c8261554b565b602082019050919050565b600060208201905081810360008301526155b081615574565b9050919050565b60006155c282614135565b91506155cd83614135565b92508282026155db81614135565b915082820484148315176155f2576155f1614f84565b5b5092915050565b7f4753313031000000000000000000000000000000000000000000000000000000600082015250565b600061562f600583614e40565b915061563a826155f9565b602082019050919050565b6000602082019050818103600083015261565e81615622565b9050919050565b7f4753313032000000000000000000000000000000000000000000000000000000600082015250565b600061569b600583614e40565b91506156a682615665565b602082019050919050565b600060208201905081810360008301526156ca8161568e565b9050919050565b7f4753323031000000000000000000000000000000000000000000000000000000600082015250565b6000615707600583614e40565b9150615712826156d1565b602082019050919050565b60006020820190508181036000830152615736816156fa565b9050919050565b7f4753323032000000000000000000000000000000000000000000000000000000600082015250565b6000615773600583614e40565b915061577e8261573d565b602082019050919050565b600060208201905081810360008301526157a281615766565b9050919050565b60006157b58385614578565b93506157c2838584614344565b6157cb83614287565b840190509392505050565b7f4e487b7100000000000000000000000000000000000000000000000000000000600052602160045260246000fd5b60028110615816576158156157d6565b5b50565b600081905061582782615805565b919050565b600061583782615819565b9050919050565b6158478161582c565b82525050565b61585681614738565b82525050565b600061016082019050615872600083018f614be6565b61587f602083018e61413f565b8181036040830152615892818c8e6157a9565b90506158a1606083018b61583e565b6158ae608083018a61413f565b6158bb60a083018961413f565b6158c860c083018861413f565b6158d560e0830187614be6565b6158e361010083018661584d565b8181036101208301526158f681856145b3565b9050615906610140830184614be6565b9d9c50505050505050505050505050565b600061592282614135565b915061592d83614135565b925082820190508082111561594557615944614f84565b5b92915050565b7f4e487b7100000000000000000000000000000000000000000000000000000000600052601260045260246000fd5b600061598582614135565b915061599083614135565b9250826159a05761599f61594b565b5b828204905092915050565b7f4753303130000000000000000000000000000000000000000000000000000000600082015250565b60006159e1600583614e40565b91506159ec826159ab565b602082019050919050565b60006020820190508181036000830152615a10816159d4565b9050919050565b6000615a2282614135565b9150615a2d83614135565b9250828203905081811115615a4557615a44614f84565b5b92915050565b7f4753303133000000000000000000000000000000000000000000000000000000600082015250565b6000615a81600583614e40565b9150615a8c82615a4b565b602082019050919050565b60006020820190508181036000830152615ab081615a74565b9050919050565b6000604082019050615acc6000830185614d25565b615ad9602083018461449b565b9392505050565b7f4753303031000000000000000000000000000000000000000000000000000000600082015250565b6000615b16600583614e40565b9150615b2182615ae0565b602082019050919050565b60006020820190508181036000830152615b4581615b09565b9050919050565b7f4e487b7100000000000000000000000000000000000000000000000000000000600052603260045260246000fd5b6000819050919050565b6000615b9460208401846141c6565b905092915050565b6000602082019050919050565b6000615bb58385614968565b9350615bc082615b7b565b8060005b85811015615bf957615bd68284615b85565b615be08882614998565b9750615beb83615b9c565b925050600181019050615bc4565b5085925050509392505050565b60006080820190508181036000830152615c21818789615ba9565b9050615c30602083018661413f565b615c3d6040830185614be6565b615c4a6060830184614be6565b9695505050505050565b7f4753313035000000000000000000000000000000000000000000000000000000600082015250565b6000615c8a600583614e40565b9150615c9582615c54565b602082019050919050565b60006020820190508181036000830152615cb981615c7d565b9050919050565b7f4753313036000000000000000000000000000000000000000000000000000000600082015250565b6000615cf6600583614e40565b9150615d0182615cc0565b602082019050919050565b60006020820190508181036000830152615d2581615ce9565b9050919050565b7f4753303330000000000000000000000000000000000000000000000000000000600082015250565b6000615d62600583614e40565b9150615d6d82615d2c565b602082019050919050565b60006020820190508181036000830152615d9181615d55565b9050919050565b7f4753313033000000000000000000000000000000000000000000000000000000600082015250565b6000615dce600583614e40565b9150615dd982615d98565b602082019050919050565b60006020820190508181036000830152615dfd81615dc1565b9050919050565b615e0d8161524e565b82525050565b6000602082019050615e286000830184615e04565b92915050565b615e378161448f565b8114615e4257600080fd5b50565b600081519050615e5481615e2e565b92915050565b600060208284031215615e7057615e6f614173565b5b6000615e7e84828501615e45565b91505092915050565b7f4753333030000000000000000000000000000000000000000000000000000000600082015250565b6000615ebd600583614e40565b9150615ec882615e87565b602082019050919050565b60006020820190508181036000830152615eec81615eb0565b9050919050565b7f4753323035000000000000000000000000000000000000000000000000000000600082015250565b6000615f29600583614e40565b9150615f3482615ef3565b602082019050919050565b60006020820190508181036000830152615f5881615f1c565b9050919050565b600081905092915050565b6000615f768385615f5f565b9350615f83838584614344565b82840190509392505050565b6000615f9c828486615f6a565b91508190509392505050565b600061016082019050615fbe600083018e614d25565b615fcb602083018d614be6565b615fd8604083018c61413f565b615fe5606083018b614d25565b615ff2608083018a61583e565b615fff60a083018961413f565b61600c60c083018861413f565b61601960e083018761413f565b616027610100830186614be6565b616035610120830185614be6565b61604361014083018461413f565b9c9b505050505050505050505050565b60007fff0000000000000000000000000000000000000000000000000000000000000082169050919050565b6000819050919050565b61609a61609582616053565b61607f565b82525050565b60006160ac8287616089565b6001820191506160bc8286616089565b6001820191506160cc828561540c565b6020820191506160dc828461540c565b60208201915081905095945050505050565b6000819050919050565b600061611361610e6161098461417d565b6160ee565b61417d565b9050919050565b6000616125826160f8565b9050919050565b60006161378261611a565b9050919050565b6161478161612c565b82525050565b60006060820190506161626000830186614d25565b61616f602083018561413f565b61617c604083018461613e565b949350505050565b600061618f82614135565b9150600082036161a2576161a1614f84565b5b600182039050919050565b7f4753303331000000000000000000000000000000000000000000000000000000600082015250565b60006161e3600583614e40565b91506161ee826161ad565b602082019050919050565b60006020820190508181036000830152616212816161d6565b9050919050565b7f4753303131000000000000000000000000000000000000000000000000000000600082015250565b600061624f600583614e40565b915061625a82616219565b602082019050919050565b6000602082019050818103600083015261627e81616242565b9050919050565b7f4753303132000000000000000000000000000000000000000000000000000000600082015250565b60006162bb600583614e40565b91506162c682616285565b602082019050919050565b600060208201905081810360008301526162ea816162ae565b9050919050565b7f4753323030000000000000000000000000000000000000000000000000000000600082015250565b6000616327600583614e40565b9150616332826162f1565b602082019050919050565b600060208201905081810360008301526163568161631a565b9050919050565b7f4753343030000000000000000000000000000000000000000000000000000000600082015250565b6000616393600583614e40565b915061639e8261635d565b602082019050919050565b600060208201905081810360008301526163c281616386565b9050919050565b7f4753313030000000000000000000000000000000000000000000000000000000600082015250565b60006163ff600583614e40565b915061640a826163c9565b602082019050919050565b6000602082019050818103600083015261642e816163f2565b9050919050565b7f4753303032000000000000000000000000000000000000000000000000000000600082015250565b600061646b600583614e40565b915061647682616435565b602082019050919050565b6000602082019050818103600083015261649a8161645e565b9050919050565b7f4753303030000000000000000000000000000000000000000000000000000000600082015250565b60006164d7600583614e40565b91506164e2826164a1565b602082019050919050565b60006020820190508181036000830152616506816164ca565b9050919050565b60006040820190506165226000830185614be6565b61652f602083018461413f565b939250505056fea26469706673582212206d9920bbc32b93cff878eacbedeaa9daeb4564dff9e35f385d4ad834f4c346d364736f6c63430008130033","opcodes":"PUSH1 0x80 PUSH1 0x40 MSTORE CALLVALUE DUP1 ISZERO PUSH2 0x10 JUMPI PUSH1 0x0 DUP1 REVERT JUMPDEST POP PUSH1 0x1 PUSH1 0x4 DUP2 SWAP1 SSTORE POP PUSH2 0x656C DUP1 PUSH3 0x29 PUSH1 0x0 CODECOPY PUSH1 0x0 RETURN INVALID PUSH1 0x80 PUSH1 0x40 MSTORE PUSH1 0x4 CALLDATASIZE LT PUSH2 0x1D1 JUMPI PUSH1 0x0 CALLDATALOAD PUSH1 0xE0 SHR DUP1 PUSH4 0xAFFED0E0 GT PUSH2 0xF7 JUMPI DUP1 PUSH4 0xE19A9DD9 GT PUSH2 0x95 JUMPI DUP1 PUSH4 0xF08A0323 GT PUSH2 0x64 JUMPI DUP1 PUSH4 0xF08A0323 EQ PUSH2 0x796 JUMPI DUP1 PUSH4 0xF698DA25 EQ PUSH2 0x7BF JUMPI DUP1 PUSH4 0xF8DC5DD9 EQ PUSH2 0x7EA JUMPI DUP1 PUSH4 0xFFA1AD74 EQ PUSH2 0x813 JUMPI PUSH2 0x226 JUMP JUMPDEST DUP1 PUSH4 0xE19A9DD9 EQ PUSH2 0x6DC JUMPI DUP1 PUSH4 0xE318B52B EQ PUSH2 0x705 JUMPI DUP1 PUSH4 0xE75235B8 EQ PUSH2 0x72E JUMPI DUP1 PUSH4 0xE86637DB EQ PUSH2 0x759 JUMPI PUSH2 0x226 JUMP JUMPDEST DUP1 PUSH4 0xCC2F8452 GT PUSH2 0xD1 JUMPI DUP1 PUSH4 0xCC2F8452 EQ PUSH2 0x60F JUMPI DUP1 PUSH4 0xD4D9BDCD EQ PUSH2 0x64D JUMPI DUP1 PUSH4 0xD8D11F78 EQ PUSH2 0x676 JUMPI DUP1 PUSH4 0xE009CFDE EQ PUSH2 0x6B3 JUMPI PUSH2 0x226 JUMP JUMPDEST DUP1 PUSH4 0xAFFED0E0 EQ PUSH2 0x592 JUMPI DUP1 PUSH4 0xB4FABA09 EQ PUSH2 0x5BD JUMPI DUP1 PUSH4 0xB63E800D EQ PUSH2 0x5E6 JUMPI PUSH2 0x226 JUMP JUMPDEST DUP1 PUSH4 0x5624B25B GT PUSH2 0x16F JUMPI DUP1 PUSH4 0x6A761202 GT PUSH2 0x13E JUMPI DUP1 PUSH4 0x6A761202 EQ PUSH2 0x4D1 JUMPI DUP1 PUSH4 0x7D832974 EQ PUSH2 0x501 JUMPI DUP1 PUSH4 0x934F3A11 EQ PUSH2 0x53E JUMPI DUP1 PUSH4 0xA0E67E2B EQ PUSH2 0x567 JUMPI PUSH2 0x226 JUMP JUMPDEST DUP1 PUSH4 0x5624B25B EQ PUSH2 0x405 JUMPI DUP1 PUSH4 0x5AE6BD37 EQ PUSH2 0x442 JUMPI DUP1 PUSH4 0x610B5925 EQ PUSH2 0x47F JUMPI DUP1 PUSH4 0x694E80C3 EQ PUSH2 0x4A8 JUMPI PUSH2 0x226 JUMP JUMPDEST DUP1 PUSH4 0x2F54BF6E GT PUSH2 0x1AB JUMPI DUP1 PUSH4 0x2F54BF6E EQ PUSH2 0x322 JUMPI DUP1 PUSH4 0x3408E470 EQ PUSH2 0x35F JUMPI DUP1 PUSH4 0x468721A7 EQ PUSH2 0x38A JUMPI DUP1 PUSH4 0x5229073F EQ PUSH2 0x3C7 JUMPI PUSH2 0x226 JUMP JUMPDEST DUP1 PUSH4 0xD582F13 EQ PUSH2 0x293 JUMPI DUP1 PUSH4 0x12FB68E0 EQ PUSH2 0x2BC JUMPI DUP1 PUSH4 0x2D9AD53D EQ PUSH2 0x2E5 JUMPI PUSH2 0x226 JUMP JUMPDEST CALLDATASIZE PUSH2 0x226 JUMPI CALLER PUSH20 0xFFFFFFFFFFFFFFFFFFFFFFFFFFFFFFFFFFFFFFFF AND PUSH32 0x3D0CE9BFC3ED7D6862DBB28B2DEA94561FE714A1B4D019AA8AF39730D1AD7C3D CALLVALUE PUSH1 0x40 MLOAD PUSH2 0x21C SWAP2 SWAP1 PUSH2 0x414E JUMP JUMPDEST PUSH1 0x40 MLOAD DUP1 SWAP2 SUB SWAP1 LOG2 STOP JUMPDEST CALLVALUE DUP1 ISZERO PUSH2 0x232 JUMPI PUSH1 0x0 DUP1 REVERT JUMPDEST POP PUSH1 0x0 PUSH32 0x6C9A6C4A39284E37ED1CF53D337577D14212A4870FB976A4366C693B939918D5 PUSH1 0x0 SHL SWAP1 POP DUP1 SLOAD DUP1 PUSH2 0x267 JUMPI PUSH1 0x0 DUP1 RETURN JUMPDEST CALLDATASIZE PUSH1 0x0 DUP1 CALLDATACOPY CALLER PUSH1 0x60 SHL CALLDATASIZE MSTORE PUSH1 0x0 DUP1 PUSH1 0x14 CALLDATASIZE ADD PUSH1 0x0 DUP1 DUP6 GAS CALL RETURNDATASIZE PUSH1 0x0 DUP1 RETURNDATACOPY DUP1 PUSH2 0x28E JUMPI RETURNDATASIZE PUSH1 0x0 REVERT JUMPDEST RETURNDATASIZE PUSH1 0x0 RETURN JUMPDEST CALLVALUE DUP1 ISZERO PUSH2 0x29F JUMPI PUSH1 0x0 DUP1 REVERT JUMPDEST POP PUSH2 0x2BA PUSH1 0x4 DUP1 CALLDATASIZE SUB DUP2 ADD SWAP1 PUSH2 0x2B5 SWAP2 SWAP1 PUSH2 0x4207 JUMP JUMPDEST PUSH2 0x83E JUMP JUMPDEST STOP JUMPDEST CALLVALUE DUP1 ISZERO PUSH2 0x2C8 JUMPI PUSH1 0x0 DUP1 REVERT JUMPDEST POP PUSH2 0x2E3 PUSH1 0x4 DUP1 CALLDATASIZE SUB DUP2 ADD SWAP1 PUSH2 0x2DE SWAP2 SWAP1 PUSH2 0x43C3 JUMP JUMPDEST PUSH2 0xBC4 JUMP JUMPDEST STOP JUMPDEST CALLVALUE DUP1 ISZERO PUSH2 0x2F1 JUMPI PUSH1 0x0 DUP1 REVERT JUMPDEST POP PUSH2 0x30C PUSH1 0x4 DUP1 CALLDATASIZE SUB DUP2 ADD SWAP1 PUSH2 0x307 SWAP2 SWAP1 PUSH2 0x4462 JUMP JUMPDEST PUSH2 0x1203 JUMP JUMPDEST PUSH1 0x40 MLOAD PUSH2 0x319 SWAP2 SWAP1 PUSH2 0x44AA JUMP JUMPDEST PUSH1 0x40 MLOAD DUP1 SWAP2 SUB SWAP1 RETURN JUMPDEST CALLVALUE DUP1 ISZERO PUSH2 0x32E JUMPI PUSH1 0x0 DUP1 REVERT JUMPDEST POP PUSH2 0x349 PUSH1 0x4 DUP1 CALLDATASIZE SUB DUP2 ADD SWAP1 PUSH2 0x344 SWAP2 SWAP1 PUSH2 0x4462 JUMP JUMPDEST PUSH2 0x12D5 JUMP JUMPDEST PUSH1 0x40 MLOAD PUSH2 0x356 SWAP2 SWAP1 PUSH2 0x44AA JUMP JUMPDEST PUSH1 0x40 MLOAD DUP1 SWAP2 SUB SWAP1 RETURN JUMPDEST CALLVALUE DUP1 ISZERO PUSH2 0x36B JUMPI PUSH1 0x0 DUP1 REVERT JUMPDEST POP PUSH2 0x374 PUSH2 0x13A7 JUMP JUMPDEST PUSH1 0x40 MLOAD PUSH2 0x381 SWAP2 SWAP1 PUSH2 0x414E JUMP JUMPDEST PUSH1 0x40 MLOAD DUP1 SWAP2 SUB SWAP1 RETURN JUMPDEST CALLVALUE DUP1 ISZERO PUSH2 0x396 JUMPI PUSH1 0x0 DUP1 REVERT JUMPDEST POP PUSH2 0x3B1 PUSH1 0x4 DUP1 CALLDATASIZE SUB DUP2 ADD SWAP1 PUSH2 0x3AC SWAP2 SWAP1 PUSH2 0x44EA JUMP JUMPDEST PUSH2 0x13B4 JUMP JUMPDEST PUSH1 0x40 MLOAD PUSH2 0x3BE SWAP2 SWAP1 PUSH2 0x44AA JUMP JUMPDEST PUSH1 0x40 MLOAD DUP1 SWAP2 SUB SWAP1 RETURN JUMPDEST CALLVALUE DUP1 ISZERO PUSH2 0x3D3 JUMPI PUSH1 0x0 DUP1 REVERT JUMPDEST POP PUSH2 0x3EE PUSH1 0x4 DUP1 CALLDATASIZE SUB DUP2 ADD SWAP1 PUSH2 0x3E9 SWAP2 SWAP1 PUSH2 0x44EA JUMP JUMPDEST PUSH2 0x1587 JUMP JUMPDEST PUSH1 0x40 MLOAD PUSH2 0x3FC SWAP3 SWAP2 SWAP1 PUSH2 0x45EC JUMP JUMPDEST PUSH1 0x40 MLOAD DUP1 SWAP2 SUB SWAP1 RETURN JUMPDEST CALLVALUE DUP1 ISZERO PUSH2 0x411 JUMPI PUSH1 0x0 DUP1 REVERT JUMPDEST POP PUSH2 0x42C PUSH1 0x4 DUP1 CALLDATASIZE SUB DUP2 ADD SWAP1 PUSH2 0x427 SWAP2 SWAP1 PUSH2 0x461C JUMP JUMPDEST PUSH2 0x15BD JUMP JUMPDEST PUSH1 0x40 MLOAD PUSH2 0x439 SWAP2 SWAP1 PUSH2 0x465C JUMP JUMPDEST PUSH1 0x40 MLOAD DUP1 SWAP2 SUB SWAP1 RETURN JUMPDEST CALLVALUE DUP1 ISZERO PUSH2 0x44E JUMPI PUSH1 0x0 DUP1 REVERT JUMPDEST POP PUSH2 0x469 PUSH1 0x4 DUP1 CALLDATASIZE SUB DUP2 ADD SWAP1 PUSH2 0x464 SWAP2 SWAP1 PUSH2 0x467E JUMP JUMPDEST PUSH2 0x1655 JUMP JUMPDEST PUSH1 0x40 MLOAD PUSH2 0x476 SWAP2 SWAP1 PUSH2 0x414E JUMP JUMPDEST PUSH1 0x40 MLOAD DUP1 SWAP2 SUB SWAP1 RETURN JUMPDEST CALLVALUE DUP1 ISZERO PUSH2 0x48B JUMPI PUSH1 0x0 DUP1 REVERT JUMPDEST POP PUSH2 0x4A6 PUSH1 0x4 DUP1 CALLDATASIZE SUB DUP2 ADD SWAP1 PUSH2 0x4A1 SWAP2 SWAP1 PUSH2 0x4462 JUMP JUMPDEST PUSH2 0x166D JUMP JUMPDEST STOP JUMPDEST CALLVALUE DUP1 ISZERO PUSH2 0x4B4 JUMPI PUSH1 0x0 DUP1 REVERT JUMPDEST POP PUSH2 0x4CF PUSH1 0x4 DUP1 CALLDATASIZE SUB DUP2 ADD SWAP1 PUSH2 0x4CA SWAP2 SWAP1 PUSH2 0x46AB JUMP JUMPDEST PUSH2 0x198F JUMP JUMPDEST STOP JUMPDEST PUSH2 0x4EB PUSH1 0x4 DUP1 CALLDATASIZE SUB DUP2 ADD SWAP1 PUSH2 0x4E6 SWAP2 SWAP1 PUSH2 0x4776 JUMP JUMPDEST PUSH2 0x1A63 JUMP JUMPDEST PUSH1 0x40 MLOAD PUSH2 0x4F8 SWAP2 SWAP1 PUSH2 0x44AA JUMP JUMPDEST PUSH1 0x40 MLOAD DUP1 SWAP2 SUB SWAP1 RETURN JUMPDEST CALLVALUE DUP1 ISZERO PUSH2 0x50D JUMPI PUSH1 0x0 DUP1 REVERT JUMPDEST POP PUSH2 0x528 PUSH1 0x4 DUP1 CALLDATASIZE SUB DUP2 ADD SWAP1 PUSH2 0x523 SWAP2 SWAP1 PUSH2 0x4892 JUMP JUMPDEST PUSH2 0x1E22 JUMP JUMPDEST PUSH1 0x40 MLOAD PUSH2 0x535 SWAP2 SWAP1 PUSH2 0x414E JUMP JUMPDEST PUSH1 0x40 MLOAD DUP1 SWAP2 SUB SWAP1 RETURN JUMPDEST CALLVALUE DUP1 ISZERO PUSH2 0x54A JUMPI PUSH1 0x0 DUP1 REVERT JUMPDEST POP PUSH2 0x565 PUSH1 0x4 DUP1 CALLDATASIZE SUB DUP2 ADD SWAP1 PUSH2 0x560 SWAP2 SWAP1 PUSH2 0x48D2 JUMP JUMPDEST PUSH2 0x1E47 JUMP JUMPDEST STOP JUMPDEST CALLVALUE DUP1 ISZERO PUSH2 0x573 JUMPI PUSH1 0x0 DUP1 REVERT JUMPDEST POP PUSH2 0x57C PUSH2 0x1EA3 JUMP JUMPDEST PUSH1 0x40 MLOAD PUSH2 0x589 SWAP2 SWAP1 PUSH2 0x4A1B JUMP JUMPDEST PUSH1 0x40 MLOAD DUP1 SWAP2 SUB SWAP1 RETURN JUMPDEST CALLVALUE DUP1 ISZERO PUSH2 0x59E JUMPI PUSH1 0x0 DUP1 REVERT JUMPDEST POP PUSH2 0x5A7 PUSH2 0x205B JUMP JUMPDEST PUSH1 0x40 MLOAD PUSH2 0x5B4 SWAP2 SWAP1 PUSH2 0x414E JUMP JUMPDEST PUSH1 0x40 MLOAD DUP1 SWAP2 SUB SWAP1 RETURN JUMPDEST CALLVALUE DUP1 ISZERO PUSH2 0x5C9 JUMPI PUSH1 0x0 DUP1 REVERT JUMPDEST POP PUSH2 0x5E4 PUSH1 0x4 DUP1 CALLDATASIZE SUB DUP2 ADD SWAP1 PUSH2 0x5DF SWAP2 SWAP1 PUSH2 0x4A3D JUMP JUMPDEST PUSH2 0x2061 JUMP JUMPDEST STOP JUMPDEST CALLVALUE DUP1 ISZERO PUSH2 0x5F2 JUMPI PUSH1 0x0 DUP1 REVERT JUMPDEST POP PUSH2 0x60D PUSH1 0x4 DUP1 CALLDATASIZE SUB DUP2 ADD SWAP1 PUSH2 0x608 SWAP2 SWAP1 PUSH2 0x4AEF JUMP JUMPDEST PUSH2 0x2083 JUMP JUMPDEST STOP JUMPDEST CALLVALUE DUP1 ISZERO PUSH2 0x61B JUMPI PUSH1 0x0 DUP1 REVERT JUMPDEST POP PUSH2 0x636 PUSH1 0x4 DUP1 CALLDATASIZE SUB DUP2 ADD SWAP1 PUSH2 0x631 SWAP2 SWAP1 PUSH2 0x4207 JUMP JUMPDEST PUSH2 0x21D6 JUMP JUMPDEST PUSH1 0x40 MLOAD PUSH2 0x644 SWAP3 SWAP2 SWAP1 PUSH2 0x4BF5 JUMP JUMPDEST PUSH1 0x40 MLOAD DUP1 SWAP2 SUB SWAP1 RETURN JUMPDEST CALLVALUE DUP1 ISZERO PUSH2 0x659 JUMPI PUSH1 0x0 DUP1 REVERT JUMPDEST POP PUSH2 0x674 PUSH1 0x4 DUP1 CALLDATASIZE SUB DUP2 ADD SWAP1 PUSH2 0x66F SWAP2 SWAP1 PUSH2 0x467E JUMP JUMPDEST PUSH2 0x24F2 JUMP JUMPDEST STOP JUMPDEST CALLVALUE DUP1 ISZERO PUSH2 0x682 JUMPI PUSH1 0x0 DUP1 REVERT JUMPDEST POP PUSH2 0x69D PUSH1 0x4 DUP1 CALLDATASIZE SUB DUP2 ADD SWAP1 PUSH2 0x698 SWAP2 SWAP1 PUSH2 0x4C25 JUMP JUMPDEST PUSH2 0x265D JUMP JUMPDEST PUSH1 0x40 MLOAD PUSH2 0x6AA SWAP2 SWAP1 PUSH2 0x4D34 JUMP JUMPDEST PUSH1 0x40 MLOAD DUP1 SWAP2 SUB SWAP1 RETURN JUMPDEST CALLVALUE DUP1 ISZERO PUSH2 0x6BF JUMPI PUSH1 0x0 DUP1 REVERT JUMPDEST POP PUSH2 0x6DA PUSH1 0x4 DUP1 CALLDATASIZE SUB DUP2 ADD SWAP1 PUSH2 0x6D5 SWAP2 SWAP1 PUSH2 0x4D4F JUMP JUMPDEST PUSH2 0x268A JUMP JUMPDEST STOP JUMPDEST CALLVALUE DUP1 ISZERO PUSH2 0x6E8 JUMPI PUSH1 0x0 DUP1 REVERT JUMPDEST POP PUSH2 0x703 PUSH1 0x4 DUP1 CALLDATASIZE SUB DUP2 ADD SWAP1 PUSH2 0x6FE SWAP2 SWAP1 PUSH2 0x4462 JUMP JUMPDEST PUSH2 0x29AB JUMP JUMPDEST STOP JUMPDEST CALLVALUE DUP1 ISZERO PUSH2 0x711 JUMPI PUSH1 0x0 DUP1 REVERT JUMPDEST POP PUSH2 0x72C PUSH1 0x4 DUP1 CALLDATASIZE SUB DUP2 ADD SWAP1 PUSH2 0x727 SWAP2 SWAP1 PUSH2 0x4D8F JUMP JUMPDEST PUSH2 0x2B33 JUMP JUMPDEST STOP JUMPDEST CALLVALUE DUP1 ISZERO PUSH2 0x73A JUMPI PUSH1 0x0 DUP1 REVERT JUMPDEST POP PUSH2 0x743 PUSH2 0x30C5 JUMP JUMPDEST PUSH1 0x40 MLOAD PUSH2 0x750 SWAP2 SWAP1 PUSH2 0x414E JUMP JUMPDEST PUSH1 0x40 MLOAD DUP1 SWAP2 SUB SWAP1 RETURN JUMPDEST CALLVALUE DUP1 ISZERO PUSH2 0x765 JUMPI PUSH1 0x0 DUP1 REVERT JUMPDEST POP PUSH2 0x780 PUSH1 0x4 DUP1 CALLDATASIZE SUB DUP2 ADD SWAP1 PUSH2 0x77B SWAP2 SWAP1 PUSH2 0x4C25 JUMP JUMPDEST PUSH2 0x30CF JUMP JUMPDEST PUSH1 0x40 MLOAD PUSH2 0x78D SWAP2 SWAP1 PUSH2 0x465C JUMP JUMPDEST PUSH1 0x40 MLOAD DUP1 SWAP2 SUB SWAP1 RETURN JUMPDEST CALLVALUE DUP1 ISZERO PUSH2 0x7A2 JUMPI PUSH1 0x0 DUP1 REVERT JUMPDEST POP PUSH2 0x7BD PUSH1 0x4 DUP1 CALLDATASIZE SUB DUP2 ADD SWAP1 PUSH2 0x7B8 SWAP2 SWAP1 PUSH2 0x4462 JUMP JUMPDEST PUSH2 0x3191 JUMP JUMPDEST STOP JUMPDEST CALLVALUE DUP1 ISZERO PUSH2 0x7CB JUMPI PUSH1 0x0 DUP1 REVERT JUMPDEST POP PUSH2 0x7D4 PUSH2 0x31E8 JUMP JUMPDEST PUSH1 0x40 MLOAD PUSH2 0x7E1 SWAP2 SWAP1 PUSH2 0x4D34 JUMP JUMPDEST PUSH1 0x40 MLOAD DUP1 SWAP2 SUB SWAP1 RETURN JUMPDEST CALLVALUE DUP1 ISZERO PUSH2 0x7F6 JUMPI PUSH1 0x0 DUP1 REVERT JUMPDEST POP PUSH2 0x811 PUSH1 0x4 DUP1 CALLDATASIZE SUB DUP2 ADD SWAP1 PUSH2 0x80C SWAP2 SWAP1 PUSH2 0x4DE2 JUMP JUMPDEST PUSH2 0x3244 JUMP JUMPDEST STOP JUMPDEST CALLVALUE DUP1 ISZERO PUSH2 0x81F JUMPI PUSH1 0x0 DUP1 REVERT JUMPDEST POP PUSH2 0x828 PUSH2 0x35E2 JUMP JUMPDEST PUSH1 0x40 MLOAD PUSH2 0x835 SWAP2 SWAP1 PUSH2 0x4E8A JUMP JUMPDEST PUSH1 0x40 MLOAD DUP1 SWAP2 SUB SWAP1 RETURN JUMPDEST PUSH2 0x846 PUSH2 0x361B JUMP JUMPDEST PUSH1 0x0 PUSH20 0xFFFFFFFFFFFFFFFFFFFFFFFFFFFFFFFFFFFFFFFF AND DUP3 PUSH20 0xFFFFFFFFFFFFFFFFFFFFFFFFFFFFFFFFFFFFFFFF AND EQ ISZERO DUP1 ISZERO PUSH2 0x8B0 JUMPI POP PUSH1 0x1 PUSH20 0xFFFFFFFFFFFFFFFFFFFFFFFFFFFFFFFFFFFFFFFF AND DUP3 PUSH20 0xFFFFFFFFFFFFFFFFFFFFFFFFFFFFFFFFFFFFFFFF AND EQ ISZERO JUMPDEST DUP1 ISZERO PUSH2 0x8E8 JUMPI POP ADDRESS PUSH20 0xFFFFFFFFFFFFFFFFFFFFFFFFFFFFFFFFFFFFFFFF AND DUP3 PUSH20 0xFFFFFFFFFFFFFFFFFFFFFFFFFFFFFFFFFFFFFFFF AND EQ ISZERO JUMPDEST PUSH2 0x927 JUMPI PUSH1 0x40 MLOAD PUSH32 0x8C379A000000000000000000000000000000000000000000000000000000000 DUP2 MSTORE PUSH1 0x4 ADD PUSH2 0x91E SWAP1 PUSH2 0x4EF8 JUMP JUMPDEST PUSH1 0x40 MLOAD DUP1 SWAP2 SUB SWAP1 REVERT JUMPDEST PUSH1 0x0 PUSH20 0xFFFFFFFFFFFFFFFFFFFFFFFFFFFFFFFFFFFFFFFF AND PUSH1 0x2 PUSH1 0x0 DUP5 PUSH20 0xFFFFFFFFFFFFFFFFFFFFFFFFFFFFFFFFFFFFFFFF AND PUSH20 0xFFFFFFFFFFFFFFFFFFFFFFFFFFFFFFFFFFFFFFFF AND DUP2 MSTORE PUSH1 0x20 ADD SWAP1 DUP2 MSTORE PUSH1 0x20 ADD PUSH1 0x0 KECCAK256 PUSH1 0x0 SWAP1 SLOAD SWAP1 PUSH2 0x100 EXP SWAP1 DIV PUSH20 0xFFFFFFFFFFFFFFFFFFFFFFFFFFFFFFFFFFFFFFFF AND PUSH20 0xFFFFFFFFFFFFFFFFFFFFFFFFFFFFFFFFFFFFFFFF AND EQ PUSH2 0x9F5 JUMPI PUSH1 0x40 MLOAD PUSH32 0x8C379A000000000000000000000000000000000000000000000000000000000 DUP2 MSTORE PUSH1 0x4 ADD PUSH2 0x9EC SWAP1 PUSH2 0x4F64 JUMP JUMPDEST PUSH1 0x40 MLOAD DUP1 SWAP2 SUB SWAP1 REVERT JUMPDEST PUSH1 0x2 PUSH1 0x0 PUSH1 0x1 PUSH20 0xFFFFFFFFFFFFFFFFFFFFFFFFFFFFFFFFFFFFFFFF AND PUSH20 0xFFFFFFFFFFFFFFFFFFFFFFFFFFFFFFFFFFFFFFFF AND DUP2 MSTORE PUSH1 0x20 ADD SWAP1 DUP2 MSTORE PUSH1 0x20 ADD PUSH1 0x0 KECCAK256 PUSH1 0x0 SWAP1 SLOAD SWAP1 PUSH2 0x100 EXP SWAP1 DIV PUSH20 0xFFFFFFFFFFFFFFFFFFFFFFFFFFFFFFFFFFFFFFFF AND PUSH1 0x2 PUSH1 0x0 DUP5 PUSH20 0xFFFFFFFFFFFFFFFFFFFFFFFFFFFFFFFFFFFFFFFF AND PUSH20 0xFFFFFFFFFFFFFFFFFFFFFFFFFFFFFFFFFFFFFFFF AND DUP2 MSTORE PUSH1 0x20 ADD SWAP1 DUP2 MSTORE PUSH1 0x20 ADD PUSH1 0x0 KECCAK256 PUSH1 0x0 PUSH2 0x100 EXP DUP2 SLOAD DUP2 PUSH20 0xFFFFFFFFFFFFFFFFFFFFFFFFFFFFFFFFFFFFFFFF MUL NOT AND SWAP1 DUP4 PUSH20 0xFFFFFFFFFFFFFFFFFFFFFFFFFFFFFFFFFFFFFFFF AND MUL OR SWAP1 SSTORE POP DUP2 PUSH1 0x2 PUSH1 0x0 PUSH1 0x1 PUSH20 0xFFFFFFFFFFFFFFFFFFFFFFFFFFFFFFFFFFFFFFFF AND PUSH20 0xFFFFFFFFFFFFFFFFFFFFFFFFFFFFFFFFFFFFFFFF AND DUP2 MSTORE PUSH1 0x20 ADD SWAP1 DUP2 MSTORE PUSH1 0x20 ADD PUSH1 0x0 KECCAK256 PUSH1 0x0 PUSH2 0x100 EXP DUP2 SLOAD DUP2 PUSH20 0xFFFFFFFFFFFFFFFFFFFFFFFFFFFFFFFFFFFFFFFF MUL NOT AND SWAP1 DUP4 PUSH20 0xFFFFFFFFFFFFFFFFFFFFFFFFFFFFFFFFFFFFFFFF AND MUL OR SWAP1 SSTORE POP PUSH1 0x3 PUSH1 0x0 DUP2 SLOAD DUP1 SWAP3 SWAP2 SWAP1 PUSH2 0xB65 SWAP1 PUSH2 0x4FB3 JUMP JUMPDEST SWAP2 SWAP1 POP SSTORE POP DUP2 PUSH20 0xFFFFFFFFFFFFFFFFFFFFFFFFFFFFFFFFFFFFFFFF AND PUSH32 0x9465FA0C962CC76958E6373A993326400C1C94F8BE2FE3A952ADFA7F60B2EA26 PUSH1 0x40 MLOAD PUSH1 0x40 MLOAD DUP1 SWAP2 SUB SWAP1 LOG2 DUP1 PUSH1 0x4 SLOAD EQ PUSH2 0xBC0 JUMPI PUSH2 0xBBF DUP2 PUSH2 0x198F JUMP JUMPDEST JUMPDEST POP POP JUMP JUMPDEST PUSH2 0xBD8 PUSH1 0x41 DUP3 PUSH2 0x368B SWAP1 SWAP2 SWAP1 PUSH4 0xFFFFFFFF AND JUMP JUMPDEST DUP3 MLOAD LT ISZERO PUSH2 0xC1B JUMPI PUSH1 0x40 MLOAD PUSH32 0x8C379A000000000000000000000000000000000000000000000000000000000 DUP2 MSTORE PUSH1 0x4 ADD PUSH2 0xC12 SWAP1 PUSH2 0x5047 JUMP JUMPDEST PUSH1 0x40 MLOAD DUP1 SWAP2 SUB SWAP1 REVERT JUMPDEST PUSH1 0x0 DUP1 DUP1 PUSH1 0x0 DUP1 PUSH1 0x0 JUMPDEST DUP7 DUP2 LT ISZERO PUSH2 0x11F7 JUMPI PUSH2 0xC37 DUP9 DUP3 PUSH2 0x36CF JUMP JUMPDEST DUP1 SWAP5 POP DUP2 SWAP6 POP DUP3 SWAP7 POP POP POP POP PUSH1 0x0 DUP5 PUSH1 0xFF AND SUB PUSH2 0xEDA JUMPI DUP10 DUP10 DUP1 MLOAD SWAP1 PUSH1 0x20 ADD KECCAK256 EQ PUSH2 0xC97 JUMPI PUSH1 0x40 MLOAD PUSH32 0x8C379A000000000000000000000000000000000000000000000000000000000 DUP2 MSTORE PUSH1 0x4 ADD PUSH2 0xC8E SWAP1 PUSH2 0x50B3 JUMP JUMPDEST PUSH1 0x40 MLOAD DUP1 SWAP2 SUB SWAP1 REVERT JUMPDEST DUP3 PUSH1 0x0 SHR SWAP5 POP PUSH2 0xCB1 PUSH1 0x41 DUP9 PUSH2 0x368B SWAP1 SWAP2 SWAP1 PUSH4 0xFFFFFFFF AND JUMP JUMPDEST DUP3 PUSH1 0x0 SHR LT ISZERO PUSH2 0xCF6 JUMPI PUSH1 0x40 MLOAD PUSH32 0x8C379A000000000000000000000000000000000000000000000000000000000 DUP2 MSTORE PUSH1 0x4 ADD PUSH2 0xCED SWAP1 PUSH2 0x511F JUMP JUMPDEST PUSH1 0x40 MLOAD DUP1 SWAP2 SUB SWAP1 REVERT JUMPDEST DUP8 MLOAD PUSH2 0xD0F PUSH1 0x20 DUP5 PUSH1 0x0 SHR PUSH2 0x36FE SWAP1 SWAP2 SWAP1 PUSH4 0xFFFFFFFF AND JUMP JUMPDEST GT ISZERO PUSH2 0xD50 JUMPI PUSH1 0x40 MLOAD PUSH32 0x8C379A000000000000000000000000000000000000000000000000000000000 DUP2 MSTORE PUSH1 0x4 ADD PUSH2 0xD47 SWAP1 PUSH2 0x518B JUMP JUMPDEST PUSH1 0x40 MLOAD DUP1 SWAP2 SUB SWAP1 REVERT JUMPDEST PUSH1 0x0 PUSH1 0x20 DUP4 DUP11 ADD ADD MLOAD SWAP1 POP DUP9 MLOAD PUSH2 0xD86 DUP3 PUSH2 0xD78 PUSH1 0x20 DUP8 PUSH1 0x0 SHR PUSH2 0x36FE SWAP1 SWAP2 SWAP1 PUSH4 0xFFFFFFFF AND JUMP JUMPDEST PUSH2 0x36FE SWAP1 SWAP2 SWAP1 PUSH4 0xFFFFFFFF AND JUMP JUMPDEST GT ISZERO PUSH2 0xDC7 JUMPI PUSH1 0x40 MLOAD PUSH32 0x8C379A000000000000000000000000000000000000000000000000000000000 DUP2 MSTORE PUSH1 0x4 ADD PUSH2 0xDBE SWAP1 PUSH2 0x51F7 JUMP JUMPDEST PUSH1 0x40 MLOAD DUP1 SWAP2 SUB SWAP1 REVERT JUMPDEST PUSH1 0x60 PUSH1 0x20 DUP5 DUP12 ADD ADD SWAP1 POP PUSH4 0x20C13B0B PUSH1 0xE0 SHL PUSH28 0xFFFFFFFFFFFFFFFFFFFFFFFFFFFFFFFFFFFFFFFFFFFFFFFFFFFFFFFF NOT AND DUP8 PUSH20 0xFFFFFFFFFFFFFFFFFFFFFFFFFFFFFFFFFFFFFFFF AND PUSH4 0x20C13B0B DUP14 DUP5 PUSH1 0x40 MLOAD DUP4 PUSH4 0xFFFFFFFF AND PUSH1 0xE0 SHL DUP2 MSTORE PUSH1 0x4 ADD PUSH2 0xE33 SWAP3 SWAP2 SWAP1 PUSH2 0x5217 JUMP JUMPDEST PUSH1 0x20 PUSH1 0x40 MLOAD DUP1 DUP4 SUB DUP2 DUP7 GAS STATICCALL ISZERO DUP1 ISZERO PUSH2 0xE50 JUMPI RETURNDATASIZE PUSH1 0x0 DUP1 RETURNDATACOPY RETURNDATASIZE PUSH1 0x0 REVERT JUMPDEST POP POP POP POP PUSH1 0x40 MLOAD RETURNDATASIZE PUSH1 0x1F NOT PUSH1 0x1F DUP3 ADD AND DUP3 ADD DUP1 PUSH1 0x40 MSTORE POP DUP2 ADD SWAP1 PUSH2 0xE74 SWAP2 SWAP1 PUSH2 0x52A6 JUMP JUMPDEST PUSH28 0xFFFFFFFFFFFFFFFFFFFFFFFFFFFFFFFFFFFFFFFFFFFFFFFFFFFFFFFF NOT AND EQ PUSH2 0xED3 JUMPI PUSH1 0x40 MLOAD PUSH32 0x8C379A000000000000000000000000000000000000000000000000000000000 DUP2 MSTORE PUSH1 0x4 ADD PUSH2 0xECA SWAP1 PUSH2 0x531F JUMP JUMPDEST PUSH1 0x40 MLOAD DUP1 SWAP2 SUB SWAP1 REVERT JUMPDEST POP POP PUSH2 0x10A2 JUMP JUMPDEST PUSH1 0x1 DUP5 PUSH1 0xFF AND SUB PUSH2 0xFBA JUMPI DUP3 PUSH1 0x0 SHR SWAP5 POP DUP5 PUSH20 0xFFFFFFFFFFFFFFFFFFFFFFFFFFFFFFFFFFFFFFFF AND CALLER PUSH20 0xFFFFFFFFFFFFFFFFFFFFFFFFFFFFFFFFFFFFFFFF AND EQ DUP1 PUSH2 0xF76 JUMPI POP PUSH1 0x0 PUSH1 0x8 PUSH1 0x0 DUP8 PUSH20 0xFFFFFFFFFFFFFFFFFFFFFFFFFFFFFFFFFFFFFFFF AND PUSH20 0xFFFFFFFFFFFFFFFFFFFFFFFFFFFFFFFFFFFFFFFF AND DUP2 MSTORE PUSH1 0x20 ADD SWAP1 DUP2 MSTORE PUSH1 0x20 ADD PUSH1 0x0 KECCAK256 PUSH1 0x0 DUP13 DUP2 MSTORE PUSH1 0x20 ADD SWAP1 DUP2 MSTORE PUSH1 0x20 ADD PUSH1 0x0 KECCAK256 SLOAD EQ ISZERO JUMPDEST PUSH2 0xFB5 JUMPI PUSH1 0x40 MLOAD PUSH32 0x8C379A000000000000000000000000000000000000000000000000000000000 DUP2 MSTORE PUSH1 0x4 ADD PUSH2 0xFAC SWAP1 PUSH2 0x538B JUMP JUMPDEST PUSH1 0x40 MLOAD DUP1 SWAP2 SUB SWAP1 REVERT JUMPDEST PUSH2 0x10A1 JUMP JUMPDEST PUSH1 0x1E DUP5 PUSH1 0xFF AND GT ISZERO PUSH2 0x104E JUMPI PUSH1 0x1 DUP11 PUSH1 0x40 MLOAD PUSH1 0x20 ADD PUSH2 0xFD9 SWAP2 SWAP1 PUSH2 0x5423 JUMP JUMPDEST PUSH1 0x40 MLOAD PUSH1 0x20 DUP2 DUP4 SUB SUB DUP2 MSTORE SWAP1 PUSH1 0x40 MSTORE DUP1 MLOAD SWAP1 PUSH1 0x20 ADD KECCAK256 PUSH1 0x4 DUP7 PUSH2 0xFFC SWAP2 SWAP1 PUSH2 0x5456 JUMP JUMPDEST DUP6 DUP6 PUSH1 0x40 MLOAD PUSH1 0x0 DUP2 MSTORE PUSH1 0x20 ADD PUSH1 0x40 MSTORE PUSH1 0x40 MLOAD PUSH2 0x101B SWAP5 SWAP4 SWAP3 SWAP2 SWAP1 PUSH2 0x549A JUMP JUMPDEST PUSH1 0x20 PUSH1 0x40 MLOAD PUSH1 0x20 DUP2 SUB SWAP1 DUP1 DUP5 SUB SWAP1 DUP6 GAS STATICCALL ISZERO DUP1 ISZERO PUSH2 0x103D JUMPI RETURNDATASIZE PUSH1 0x0 DUP1 RETURNDATACOPY RETURNDATASIZE PUSH1 0x0 REVERT JUMPDEST POP POP POP PUSH1 0x20 PUSH1 0x40 MLOAD SUB MLOAD SWAP5 POP PUSH2 0x10A0 JUMP JUMPDEST PUSH1 0x1 DUP11 DUP6 DUP6 DUP6 PUSH1 0x40 MLOAD PUSH1 0x0 DUP2 MSTORE PUSH1 0x20 ADD PUSH1 0x40 MSTORE PUSH1 0x40 MLOAD PUSH2 0x1071 SWAP5 SWAP4 SWAP3 SWAP2 SWAP1 PUSH2 0x549A JUMP JUMPDEST PUSH1 0x20 PUSH1 0x40 MLOAD PUSH1 0x20 DUP2 SUB SWAP1 DUP1 DUP5 SUB SWAP1 DUP6 GAS STATICCALL ISZERO DUP1 ISZERO PUSH2 0x1093 JUMPI RETURNDATASIZE PUSH1 0x0 DUP1 RETURNDATACOPY RETURNDATASIZE PUSH1 0x0 REVERT JUMPDEST POP POP POP PUSH1 0x20 PUSH1 0x40 MLOAD SUB MLOAD SWAP5 POP JUMPDEST JUMPDEST JUMPDEST DUP6 PUSH20 0xFFFFFFFFFFFFFFFFFFFFFFFFFFFFFFFFFFFFFFFF AND DUP6 PUSH20 0xFFFFFFFFFFFFFFFFFFFFFFFFFFFFFFFFFFFFFFFF AND GT DUP1 ISZERO PUSH2 0x1169 JUMPI POP PUSH1 0x0 PUSH20 0xFFFFFFFFFFFFFFFFFFFFFFFFFFFFFFFFFFFFFFFF AND PUSH1 0x2 PUSH1 0x0 DUP8 PUSH20 0xFFFFFFFFFFFFFFFFFFFFFFFFFFFFFFFFFFFFFFFF AND PUSH20 0xFFFFFFFFFFFFFFFFFFFFFFFFFFFFFFFFFFFFFFFF AND DUP2 MSTORE PUSH1 0x20 ADD SWAP1 DUP2 MSTORE PUSH1 0x20 ADD PUSH1 0x0 KECCAK256 PUSH1 0x0 SWAP1 SLOAD SWAP1 PUSH2 0x100 EXP SWAP1 DIV PUSH20 0xFFFFFFFFFFFFFFFFFFFFFFFFFFFFFFFFFFFFFFFF AND PUSH20 0xFFFFFFFFFFFFFFFFFFFFFFFFFFFFFFFFFFFFFFFF AND EQ ISZERO JUMPDEST DUP1 ISZERO PUSH2 0x11A2 JUMPI POP PUSH1 0x1 PUSH20 0xFFFFFFFFFFFFFFFFFFFFFFFFFFFFFFFFFFFFFFFF AND DUP6 PUSH20 0xFFFFFFFFFFFFFFFFFFFFFFFFFFFFFFFFFFFFFFFF AND EQ ISZERO JUMPDEST PUSH2 0x11E1 JUMPI PUSH1 0x40 MLOAD PUSH32 0x8C379A000000000000000000000000000000000000000000000000000000000 DUP2 MSTORE PUSH1 0x4 ADD PUSH2 0x11D8 SWAP1 PUSH2 0x552B JUMP JUMPDEST PUSH1 0x40 MLOAD DUP1 SWAP2 SUB SWAP1 REVERT JUMPDEST DUP5 SWAP6 POP DUP1 DUP1 PUSH2 0x11EF SWAP1 PUSH2 0x4FB3 JUMP JUMPDEST SWAP2 POP POP PUSH2 0xC25 JUMP JUMPDEST POP POP POP POP POP POP POP POP POP POP JUMP JUMPDEST PUSH1 0x0 DUP2 PUSH20 0xFFFFFFFFFFFFFFFFFFFFFFFFFFFFFFFFFFFFFFFF AND PUSH1 0x1 PUSH20 0xFFFFFFFFFFFFFFFFFFFFFFFFFFFFFFFFFFFFFFFF AND EQ ISZERO DUP1 ISZERO PUSH2 0x12CE JUMPI POP PUSH1 0x0 PUSH20 0xFFFFFFFFFFFFFFFFFFFFFFFFFFFFFFFFFFFFFFFF AND PUSH1 0x1 PUSH1 0x0 DUP5 PUSH20 0xFFFFFFFFFFFFFFFFFFFFFFFFFFFFFFFFFFFFFFFF AND PUSH20 0xFFFFFFFFFFFFFFFFFFFFFFFFFFFFFFFFFFFFFFFF AND DUP2 MSTORE PUSH1 0x20 ADD SWAP1 DUP2 MSTORE PUSH1 0x20 ADD PUSH1 0x0 KECCAK256 PUSH1 0x0 SWAP1 SLOAD SWAP1 PUSH2 0x100 EXP SWAP1 DIV PUSH20 0xFFFFFFFFFFFFFFFFFFFFFFFFFFFFFFFFFFFFFFFF AND PUSH20 0xFFFFFFFFFFFFFFFFFFFFFFFFFFFFFFFFFFFFFFFF AND EQ ISZERO JUMPDEST SWAP1 POP SWAP2 SWAP1 POP JUMP JUMPDEST PUSH1 0x0 PUSH1 0x1 PUSH20 0xFFFFFFFFFFFFFFFFFFFFFFFFFFFFFFFFFFFFFFFF AND DUP3 PUSH20 0xFFFFFFFFFFFFFFFFFFFFFFFFFFFFFFFFFFFFFFFF AND EQ ISZERO DUP1 ISZERO PUSH2 0x13A0 JUMPI POP PUSH1 0x0 PUSH20 0xFFFFFFFFFFFFFFFFFFFFFFFFFFFFFFFFFFFFFFFF AND PUSH1 0x2 PUSH1 0x0 DUP5 PUSH20 0xFFFFFFFFFFFFFFFFFFFFFFFFFFFFFFFFFFFFFFFF AND PUSH20 0xFFFFFFFFFFFFFFFFFFFFFFFFFFFFFFFFFFFFFFFF AND DUP2 MSTORE PUSH1 0x20 ADD SWAP1 DUP2 MSTORE PUSH1 0x20 ADD PUSH1 0x0 KECCAK256 PUSH1 0x0 SWAP1 SLOAD SWAP1 PUSH2 0x100 EXP SWAP1 DIV PUSH20 0xFFFFFFFFFFFFFFFFFFFFFFFFFFFFFFFFFFFFFFFF AND PUSH20 0xFFFFFFFFFFFFFFFFFFFFFFFFFFFFFFFFFFFFFFFF AND EQ ISZERO JUMPDEST SWAP1 POP SWAP2 SWAP1 POP JUMP JUMPDEST PUSH1 0x0 DUP1 CHAINID SWAP1 POP DUP1 SWAP2 POP POP SWAP1 JUMP JUMPDEST PUSH1 0x0 PUSH1 0x1 PUSH20 0xFFFFFFFFFFFFFFFFFFFFFFFFFFFFFFFFFFFFFFFF AND CALLER PUSH20 0xFFFFFFFFFFFFFFFFFFFFFFFFFFFFFFFFFFFFFFFF AND EQ ISZERO DUP1 ISZERO PUSH2 0x147F JUMPI POP PUSH1 0x0 PUSH20 0xFFFFFFFFFFFFFFFFFFFFFFFFFFFFFFFFFFFFFFFF AND PUSH1 0x1 PUSH1 0x0 CALLER PUSH20 0xFFFFFFFFFFFFFFFFFFFFFFFFFFFFFFFFFFFFFFFF AND PUSH20 0xFFFFFFFFFFFFFFFFFFFFFFFFFFFFFFFFFFFFFFFF AND DUP2 MSTORE PUSH1 0x20 ADD SWAP1 DUP2 MSTORE PUSH1 0x20 ADD PUSH1 0x0 KECCAK256 PUSH1 0x0 SWAP1 SLOAD SWAP1 PUSH2 0x100 EXP SWAP1 DIV PUSH20 0xFFFFFFFFFFFFFFFFFFFFFFFFFFFFFFFFFFFFFFFF AND PUSH20 0xFFFFFFFFFFFFFFFFFFFFFFFFFFFFFFFFFFFFFFFF AND EQ ISZERO JUMPDEST PUSH2 0x14BE JUMPI PUSH1 0x40 MLOAD PUSH32 0x8C379A000000000000000000000000000000000000000000000000000000000 DUP2 MSTORE PUSH1 0x4 ADD PUSH2 0x14B5 SWAP1 PUSH2 0x5597 JUMP JUMPDEST PUSH1 0x40 MLOAD DUP1 SWAP2 SUB SWAP1 REVERT JUMPDEST PUSH2 0x14EB DUP6 DUP6 DUP6 DUP6 PUSH32 0xFFFFFFFFFFFFFFFFFFFFFFFFFFFFFFFFFFFFFFFFFFFFFFFFFFFFFFFFFFFFFFFF PUSH2 0x3726 JUMP JUMPDEST SWAP1 POP DUP1 ISZERO PUSH2 0x153B JUMPI CALLER PUSH20 0xFFFFFFFFFFFFFFFFFFFFFFFFFFFFFFFFFFFFFFFF AND PUSH32 0x6895C13664AA4F67288B25D7A21D7AAA34916E355FB9B6FAE0A139A9085BECB8 PUSH1 0x40 MLOAD PUSH1 0x40 MLOAD DUP1 SWAP2 SUB SWAP1 LOG2 PUSH2 0x157F JUMP JUMPDEST CALLER PUSH20 0xFFFFFFFFFFFFFFFFFFFFFFFFFFFFFFFFFFFFFFFF AND PUSH32 0xACD2C8702804128FDB0DB2BB49F6D127DD0181C13FD45DBFE16DE0930E2BD375 PUSH1 0x40 MLOAD PUSH1 0x40 MLOAD DUP1 SWAP2 SUB SWAP1 LOG2 JUMPDEST SWAP5 SWAP4 POP POP POP POP JUMP JUMPDEST PUSH1 0x0 PUSH1 0x60 PUSH2 0x1597 DUP7 DUP7 DUP7 DUP7 PUSH2 0x13B4 JUMP JUMPDEST SWAP2 POP PUSH1 0x40 MLOAD PUSH1 0x20 RETURNDATASIZE ADD DUP2 ADD PUSH1 0x40 MSTORE RETURNDATASIZE DUP2 MSTORE RETURNDATASIZE PUSH1 0x0 PUSH1 0x20 DUP4 ADD RETURNDATACOPY DUP1 SWAP2 POP POP SWAP5 POP SWAP5 SWAP3 POP POP POP JUMP JUMPDEST PUSH1 0x60 PUSH1 0x0 PUSH1 0x20 DUP4 PUSH2 0x15CE SWAP2 SWAP1 PUSH2 0x55B7 JUMP JUMPDEST PUSH8 0xFFFFFFFFFFFFFFFF DUP2 GT ISZERO PUSH2 0x15E7 JUMPI PUSH2 0x15E6 PUSH2 0x4298 JUMP JUMPDEST JUMPDEST PUSH1 0x40 MLOAD SWAP1 DUP1 DUP3 MSTORE DUP1 PUSH1 0x1F ADD PUSH1 0x1F NOT AND PUSH1 0x20 ADD DUP3 ADD PUSH1 0x40 MSTORE DUP1 ISZERO PUSH2 0x1619 JUMPI DUP2 PUSH1 0x20 ADD PUSH1 0x1 DUP3 MUL DUP1 CALLDATASIZE DUP4 CALLDATACOPY DUP1 DUP3 ADD SWAP2 POP POP SWAP1 POP JUMPDEST POP SWAP1 POP PUSH1 0x0 JUMPDEST DUP4 DUP2 LT ISZERO PUSH2 0x164A JUMPI DUP1 DUP6 ADD SLOAD DUP1 PUSH1 0x20 DUP4 MUL PUSH1 0x20 DUP6 ADD ADD MSTORE POP DUP1 DUP1 PUSH2 0x1642 SWAP1 PUSH2 0x4FB3 JUMP JUMPDEST SWAP2 POP POP PUSH2 0x161F JUMP JUMPDEST POP DUP1 SWAP2 POP POP SWAP3 SWAP2 POP POP JUMP JUMPDEST PUSH1 0x7 PUSH1 0x20 MSTORE DUP1 PUSH1 0x0 MSTORE PUSH1 0x40 PUSH1 0x0 KECCAK256 PUSH1 0x0 SWAP2 POP SWAP1 POP SLOAD DUP2 JUMP JUMPDEST PUSH2 0x1675 PUSH2 0x361B JUMP JUMPDEST PUSH1 0x0 PUSH20 0xFFFFFFFFFFFFFFFFFFFFFFFFFFFFFFFFFFFFFFFF AND DUP2 PUSH20 0xFFFFFFFFFFFFFFFFFFFFFFFFFFFFFFFFFFFFFFFF AND EQ ISZERO DUP1 ISZERO PUSH2 0x16DF JUMPI POP PUSH1 0x1 PUSH20 0xFFFFFFFFFFFFFFFFFFFFFFFFFFFFFFFFFFFFFFFF AND DUP2 PUSH20 0xFFFFFFFFFFFFFFFFFFFFFFFFFFFFFFFFFFFFFFFF AND EQ ISZERO JUMPDEST PUSH2 0x171E JUMPI PUSH1 0x40 MLOAD PUSH32 0x8C379A000000000000000000000000000000000000000000000000000000000 DUP2 MSTORE PUSH1 0x4 ADD PUSH2 0x1715 SWAP1 PUSH2 0x5645 JUMP JUMPDEST PUSH1 0x40 MLOAD DUP1 SWAP2 SUB SWAP1 REVERT JUMPDEST PUSH1 0x0 PUSH20 0xFFFFFFFFFFFFFFFFFFFFFFFFFFFFFFFFFFFFFFFF AND PUSH1 0x1 PUSH1 0x0 DUP4 PUSH20 0xFFFFFFFFFFFFFFFFFFFFFFFFFFFFFFFFFFFFFFFF AND PUSH20 0xFFFFFFFFFFFFFFFFFFFFFFFFFFFFFFFFFFFFFFFF AND DUP2 MSTORE PUSH1 0x20 ADD SWAP1 DUP2 MSTORE PUSH1 0x20 ADD PUSH1 0x0 KECCAK256 PUSH1 0x0 SWAP1 SLOAD SWAP1 PUSH2 0x100 EXP SWAP1 DIV PUSH20 0xFFFFFFFFFFFFFFFFFFFFFFFFFFFFFFFFFFFFFFFF AND PUSH20 0xFFFFFFFFFFFFFFFFFFFFFFFFFFFFFFFFFFFFFFFF AND EQ PUSH2 0x17EC JUMPI PUSH1 0x40 MLOAD PUSH32 0x8C379A000000000000000000000000000000000000000000000000000000000 DUP2 MSTORE PUSH1 0x4 ADD PUSH2 0x17E3 SWAP1 PUSH2 0x56B1 JUMP JUMPDEST PUSH1 0x40 MLOAD DUP1 SWAP2 SUB SWAP1 REVERT JUMPDEST PUSH1 0x1 PUSH1 0x0 PUSH1 0x1 PUSH20 0xFFFFFFFFFFFFFFFFFFFFFFFFFFFFFFFFFFFFFFFF AND PUSH20 0xFFFFFFFFFFFFFFFFFFFFFFFFFFFFFFFFFFFFFFFF AND DUP2 MSTORE PUSH1 0x20 ADD SWAP1 DUP2 MSTORE PUSH1 0x20 ADD PUSH1 0x0 KECCAK256 PUSH1 0x0 SWAP1 SLOAD SWAP1 PUSH2 0x100 EXP SWAP1 DIV PUSH20 0xFFFFFFFFFFFFFFFFFFFFFFFFFFFFFFFFFFFFFFFF AND PUSH1 0x1 PUSH1 0x0 DUP4 PUSH20 0xFFFFFFFFFFFFFFFFFFFFFFFFFFFFFFFFFFFFFFFF AND PUSH20 0xFFFFFFFFFFFFFFFFFFFFFFFFFFFFFFFFFFFFFFFF AND DUP2 MSTORE PUSH1 0x20 ADD SWAP1 DUP2 MSTORE PUSH1 0x20 ADD PUSH1 0x0 KECCAK256 PUSH1 0x0 PUSH2 0x100 EXP DUP2 SLOAD DUP2 PUSH20 0xFFFFFFFFFFFFFFFFFFFFFFFFFFFFFFFFFFFFFFFF MUL NOT AND SWAP1 DUP4 PUSH20 0xFFFFFFFFFFFFFFFFFFFFFFFFFFFFFFFFFFFFFFFF AND MUL OR SWAP1 SSTORE POP DUP1 PUSH1 0x1 PUSH1 0x0 PUSH1 0x1 PUSH20 0xFFFFFFFFFFFFFFFFFFFFFFFFFFFFFFFFFFFFFFFF AND PUSH20 0xFFFFFFFFFFFFFFFFFFFFFFFFFFFFFFFFFFFFFFFF AND DUP2 MSTORE PUSH1 0x20 ADD SWAP1 DUP2 MSTORE PUSH1 0x20 ADD PUSH1 0x0 KECCAK256 PUSH1 0x0 PUSH2 0x100 EXP DUP2 SLOAD DUP2 PUSH20 0xFFFFFFFFFFFFFFFFFFFFFFFFFFFFFFFFFFFFFFFF MUL NOT AND SWAP1 DUP4 PUSH20 0xFFFFFFFFFFFFFFFFFFFFFFFFFFFFFFFFFFFFFFFF AND MUL OR SWAP1 SSTORE POP DUP1 PUSH20 0xFFFFFFFFFFFFFFFFFFFFFFFFFFFFFFFFFFFFFFFF AND PUSH32 0xECDF3A3EFFEA5783A3C4C2140E677577666428D44ED9D474A0B3A4C9943F8440 PUSH1 0x40 MLOAD PUSH1 0x40 MLOAD DUP1 SWAP2 SUB SWAP1 LOG2 POP JUMP JUMPDEST PUSH2 0x1997 PUSH2 0x361B JUMP JUMPDEST PUSH1 0x3 SLOAD DUP2 GT ISZERO PUSH2 0x19DC JUMPI PUSH1 0x40 MLOAD PUSH32 0x8C379A000000000000000000000000000000000000000000000000000000000 DUP2 MSTORE PUSH1 0x4 ADD PUSH2 0x19D3 SWAP1 PUSH2 0x571D JUMP JUMPDEST PUSH1 0x40 MLOAD DUP1 SWAP2 SUB SWAP1 REVERT JUMPDEST PUSH1 0x1 DUP2 LT ISZERO PUSH2 0x1A20 JUMPI PUSH1 0x40 MLOAD PUSH32 0x8C379A000000000000000000000000000000000000000000000000000000000 DUP2 MSTORE PUSH1 0x4 ADD PUSH2 0x1A17 SWAP1 PUSH2 0x5789 JUMP JUMPDEST PUSH1 0x40 MLOAD DUP1 SWAP2 SUB SWAP1 REVERT JUMPDEST DUP1 PUSH1 0x4 DUP2 SWAP1 SSTORE POP PUSH32 0x610F7FF2B304AE8903C3DE74C60C6AB1F7D6226B3F52C5161905BB5AD4039C93 PUSH1 0x4 SLOAD PUSH1 0x40 MLOAD PUSH2 0x1A58 SWAP2 SWAP1 PUSH2 0x414E JUMP JUMPDEST PUSH1 0x40 MLOAD DUP1 SWAP2 SUB SWAP1 LOG1 POP JUMP JUMPDEST PUSH1 0x0 DUP1 PUSH1 0x0 PUSH2 0x1A7D DUP15 DUP15 DUP15 DUP15 DUP15 DUP15 DUP15 DUP15 DUP15 DUP15 PUSH1 0x5 SLOAD PUSH2 0x30CF JUMP JUMPDEST SWAP1 POP PUSH1 0x5 PUSH1 0x0 DUP2 SLOAD DUP1 SWAP3 SWAP2 SWAP1 PUSH2 0x1A92 SWAP1 PUSH2 0x4FB3 JUMP JUMPDEST SWAP2 SWAP1 POP SSTORE POP DUP1 DUP1 MLOAD SWAP1 PUSH1 0x20 ADD KECCAK256 SWAP2 POP PUSH2 0x1AAC DUP3 DUP3 DUP7 PUSH2 0x1E47 JUMP JUMPDEST POP PUSH1 0x0 PUSH2 0x1AB7 PUSH2 0x377F JUMP JUMPDEST SWAP1 POP PUSH1 0x0 PUSH20 0xFFFFFFFFFFFFFFFFFFFFFFFFFFFFFFFFFFFFFFFF AND DUP2 PUSH20 0xFFFFFFFFFFFFFFFFFFFFFFFFFFFFFFFFFFFFFFFF AND EQ PUSH2 0x1B6F JUMPI DUP1 PUSH20 0xFFFFFFFFFFFFFFFFFFFFFFFFFFFFFFFFFFFFFFFF AND PUSH4 0x75F0BB52 DUP16 DUP16 DUP16 DUP16 DUP16 DUP16 DUP16 DUP16 DUP16 DUP16 DUP16 CALLER PUSH1 0x40 MLOAD DUP14 PUSH4 0xFFFFFFFF AND PUSH1 0xE0 SHL DUP2 MSTORE PUSH1 0x4 ADD PUSH2 0x1B3C SWAP13 SWAP12 SWAP11 SWAP10 SWAP9 SWAP8 SWAP7 SWAP6 SWAP5 SWAP4 SWAP3 SWAP2 SWAP1 PUSH2 0x585C JUMP JUMPDEST PUSH1 0x0 PUSH1 0x40 MLOAD DUP1 DUP4 SUB DUP2 PUSH1 0x0 DUP8 DUP1 EXTCODESIZE ISZERO DUP1 ISZERO PUSH2 0x1B56 JUMPI PUSH1 0x0 DUP1 REVERT JUMPDEST POP GAS CALL ISZERO DUP1 ISZERO PUSH2 0x1B6A JUMPI RETURNDATASIZE PUSH1 0x0 DUP1 RETURNDATACOPY RETURNDATASIZE PUSH1 0x0 REVERT JUMPDEST POP POP POP POP JUMPDEST PUSH2 0x1F4 PUSH2 0x1BAA PUSH2 0x9C4 DUP12 PUSH2 0x1B83 SWAP2 SWAP1 PUSH2 0x5917 JUMP JUMPDEST PUSH1 0x3F PUSH1 0x40 DUP14 PUSH2 0x1B92 SWAP2 SWAP1 PUSH2 0x55B7 JUMP JUMPDEST PUSH2 0x1B9C SWAP2 SWAP1 PUSH2 0x597A JUMP JUMPDEST PUSH2 0x37B0 SWAP1 SWAP2 SWAP1 PUSH4 0xFFFFFFFF AND JUMP JUMPDEST PUSH2 0x1BB4 SWAP2 SWAP1 PUSH2 0x5917 JUMP JUMPDEST GAS LT ISZERO PUSH2 0x1BF6 JUMPI PUSH1 0x40 MLOAD PUSH32 0x8C379A000000000000000000000000000000000000000000000000000000000 DUP2 MSTORE PUSH1 0x4 ADD PUSH2 0x1BED SWAP1 PUSH2 0x59F7 JUMP JUMPDEST PUSH1 0x40 MLOAD DUP1 SWAP2 SUB SWAP1 REVERT JUMPDEST PUSH1 0x0 GAS SWAP1 POP PUSH2 0x1C68 DUP16 DUP16 DUP16 DUP16 DUP1 DUP1 PUSH1 0x1F ADD PUSH1 0x20 DUP1 SWAP2 DIV MUL PUSH1 0x20 ADD PUSH1 0x40 MLOAD SWAP1 DUP2 ADD PUSH1 0x40 MSTORE DUP1 SWAP4 SWAP3 SWAP2 SWAP1 DUP2 DUP2 MSTORE PUSH1 0x20 ADD DUP4 DUP4 DUP1 DUP3 DUP5 CALLDATACOPY PUSH1 0x0 DUP2 DUP5 ADD MSTORE PUSH1 0x1F NOT PUSH1 0x1F DUP3 ADD AND SWAP1 POP DUP1 DUP4 ADD SWAP3 POP POP POP POP POP POP POP DUP15 PUSH1 0x0 DUP14 EQ PUSH2 0x1C54 JUMPI DUP15 PUSH2 0x1C63 JUMP JUMPDEST PUSH2 0x9C4 GAS PUSH2 0x1C62 SWAP2 SWAP1 PUSH2 0x5A17 JUMP JUMPDEST JUMPDEST PUSH2 0x3726 JUMP JUMPDEST SWAP4 POP PUSH2 0x1C7D GAS DUP3 PUSH2 0x37CA SWAP1 SWAP2 SWAP1 PUSH4 0xFFFFFFFF AND JUMP JUMPDEST SWAP1 POP DUP4 DUP1 PUSH2 0x1C8C JUMPI POP PUSH1 0x0 DUP11 EQ ISZERO JUMPDEST DUP1 PUSH2 0x1C98 JUMPI POP PUSH1 0x0 DUP9 EQ ISZERO JUMPDEST PUSH2 0x1CD7 JUMPI PUSH1 0x40 MLOAD PUSH32 0x8C379A000000000000000000000000000000000000000000000000000000000 DUP2 MSTORE PUSH1 0x4 ADD PUSH2 0x1CCE SWAP1 PUSH2 0x5A97 JUMP JUMPDEST PUSH1 0x40 MLOAD DUP1 SWAP2 SUB SWAP1 REVERT JUMPDEST PUSH1 0x0 DUP1 DUP10 GT ISZERO PUSH2 0x1CF1 JUMPI PUSH2 0x1CEE DUP3 DUP12 DUP12 DUP12 DUP12 PUSH2 0x37F3 JUMP JUMPDEST SWAP1 POP JUMPDEST DUP5 ISZERO PUSH2 0x1D34 JUMPI DUP4 PUSH32 0x442E715F626346E8C54381002DA614F62BEE8D27386535B2521EC8540898556E DUP3 PUSH1 0x40 MLOAD PUSH2 0x1D27 SWAP2 SWAP1 PUSH2 0x414E JUMP JUMPDEST PUSH1 0x40 MLOAD DUP1 SWAP2 SUB SWAP1 LOG2 PUSH2 0x1D6D JUMP JUMPDEST DUP4 PUSH32 0x23428B18ACFB3EA64B08DC0C1D296EA9C09702C09083CA5272E64D115B687D23 DUP3 PUSH1 0x40 MLOAD PUSH2 0x1D64 SWAP2 SWAP1 PUSH2 0x414E JUMP JUMPDEST PUSH1 0x40 MLOAD DUP1 SWAP2 SUB SWAP1 LOG2 JUMPDEST POP POP PUSH1 0x0 PUSH20 0xFFFFFFFFFFFFFFFFFFFFFFFFFFFFFFFFFFFFFFFF AND DUP2 PUSH20 0xFFFFFFFFFFFFFFFFFFFFFFFFFFFFFFFFFFFFFFFF AND EQ PUSH2 0x1E11 JUMPI DUP1 PUSH20 0xFFFFFFFFFFFFFFFFFFFFFFFFFFFFFFFFFFFFFFFF AND PUSH4 0x93271368 DUP4 DUP6 PUSH1 0x40 MLOAD DUP4 PUSH4 0xFFFFFFFF AND PUSH1 0xE0 SHL DUP2 MSTORE PUSH1 0x4 ADD PUSH2 0x1DDE SWAP3 SWAP2 SWAP1 PUSH2 0x5AB7 JUMP JUMPDEST PUSH1 0x0 PUSH1 0x40 MLOAD DUP1 DUP4 SUB DUP2 PUSH1 0x0 DUP8 DUP1 EXTCODESIZE ISZERO DUP1 ISZERO PUSH2 0x1DF8 JUMPI PUSH1 0x0 DUP1 REVERT JUMPDEST POP GAS CALL ISZERO DUP1 ISZERO PUSH2 0x1E0C JUMPI RETURNDATASIZE PUSH1 0x0 DUP1 RETURNDATACOPY RETURNDATASIZE PUSH1 0x0 REVERT JUMPDEST POP POP POP POP JUMPDEST POP POP SWAP12 SWAP11 POP POP POP POP POP POP POP POP POP POP POP JUMP JUMPDEST PUSH1 0x8 PUSH1 0x20 MSTORE DUP2 PUSH1 0x0 MSTORE PUSH1 0x40 PUSH1 0x0 KECCAK256 PUSH1 0x20 MSTORE DUP1 PUSH1 0x0 MSTORE PUSH1 0x40 PUSH1 0x0 KECCAK256 PUSH1 0x0 SWAP2 POP SWAP2 POP POP SLOAD DUP2 JUMP JUMPDEST PUSH1 0x0 PUSH1 0x4 SLOAD SWAP1 POP PUSH1 0x0 DUP2 GT PUSH2 0x1E91 JUMPI PUSH1 0x40 MLOAD PUSH32 0x8C379A000000000000000000000000000000000000000000000000000000000 DUP2 MSTORE PUSH1 0x4 ADD PUSH2 0x1E88 SWAP1 PUSH2 0x5B2C JUMP JUMPDEST PUSH1 0x40 MLOAD DUP1 SWAP2 SUB SWAP1 REVERT JUMPDEST PUSH2 0x1E9D DUP5 DUP5 DUP5 DUP5 PUSH2 0xBC4 JUMP JUMPDEST POP POP POP POP JUMP JUMPDEST PUSH1 0x60 PUSH1 0x0 PUSH1 0x3 SLOAD PUSH8 0xFFFFFFFFFFFFFFFF DUP2 GT ISZERO PUSH2 0x1EC3 JUMPI PUSH2 0x1EC2 PUSH2 0x4298 JUMP JUMPDEST JUMPDEST PUSH1 0x40 MLOAD SWAP1 DUP1 DUP3 MSTORE DUP1 PUSH1 0x20 MUL PUSH1 0x20 ADD DUP3 ADD PUSH1 0x40 MSTORE DUP1 ISZERO PUSH2 0x1EF1 JUMPI DUP2 PUSH1 0x20 ADD PUSH1 0x20 DUP3 MUL DUP1 CALLDATASIZE DUP4 CALLDATACOPY DUP1 DUP3 ADD SWAP2 POP POP SWAP1 POP JUMPDEST POP SWAP1 POP PUSH1 0x0 DUP1 PUSH1 0x2 PUSH1 0x0 PUSH1 0x1 PUSH20 0xFFFFFFFFFFFFFFFFFFFFFFFFFFFFFFFFFFFFFFFF AND PUSH20 0xFFFFFFFFFFFFFFFFFFFFFFFFFFFFFFFFFFFFFFFF AND DUP2 MSTORE PUSH1 0x20 ADD SWAP1 DUP2 MSTORE PUSH1 0x20 ADD PUSH1 0x0 KECCAK256 PUSH1 0x0 SWAP1 SLOAD SWAP1 PUSH2 0x100 EXP SWAP1 DIV PUSH20 0xFFFFFFFFFFFFFFFFFFFFFFFFFFFFFFFFFFFFFFFF AND SWAP1 POP JUMPDEST PUSH1 0x1 PUSH20 0xFFFFFFFFFFFFFFFFFFFFFFFFFFFFFFFFFFFFFFFF AND DUP2 PUSH20 0xFFFFFFFFFFFFFFFFFFFFFFFFFFFFFFFFFFFFFFFF AND EQ PUSH2 0x2052 JUMPI DUP1 DUP4 DUP4 DUP2 MLOAD DUP2 LT PUSH2 0x1FA3 JUMPI PUSH2 0x1FA2 PUSH2 0x5B4C JUMP JUMPDEST JUMPDEST PUSH1 0x20 MUL PUSH1 0x20 ADD ADD SWAP1 PUSH20 0xFFFFFFFFFFFFFFFFFFFFFFFFFFFFFFFFFFFFFFFF AND SWAP1 DUP2 PUSH20 0xFFFFFFFFFFFFFFFFFFFFFFFFFFFFFFFFFFFFFFFF AND DUP2 MSTORE POP POP PUSH1 0x2 PUSH1 0x0 DUP3 PUSH20 0xFFFFFFFFFFFFFFFFFFFFFFFFFFFFFFFFFFFFFFFF AND PUSH20 0xFFFFFFFFFFFFFFFFFFFFFFFFFFFFFFFFFFFFFFFF AND DUP2 MSTORE PUSH1 0x20 ADD SWAP1 DUP2 MSTORE PUSH1 0x20 ADD PUSH1 0x0 KECCAK256 PUSH1 0x0 SWAP1 SLOAD SWAP1 PUSH2 0x100 EXP SWAP1 DIV PUSH20 0xFFFFFFFFFFFFFFFFFFFFFFFFFFFFFFFFFFFFFFFF AND SWAP1 POP DUP2 DUP1 PUSH2 0x204A SWAP1 PUSH2 0x4FB3 JUMP JUMPDEST SWAP3 POP POP PUSH2 0x1F5B JUMP JUMPDEST DUP3 SWAP4 POP POP POP POP SWAP1 JUMP JUMPDEST PUSH1 0x5 SLOAD DUP2 JUMP JUMPDEST PUSH1 0x0 DUP1 DUP3 MLOAD PUSH1 0x20 DUP5 ADD DUP6 GAS DELEGATECALL DUP1 PUSH1 0x0 MSTORE RETURNDATASIZE PUSH1 0x20 MSTORE RETURNDATASIZE PUSH1 0x0 PUSH1 0x40 RETURNDATACOPY PUSH1 0x40 RETURNDATASIZE ADD PUSH1 0x0 REVERT JUMPDEST PUSH2 0x20CE DUP11 DUP11 DUP1 DUP1 PUSH1 0x20 MUL PUSH1 0x20 ADD PUSH1 0x40 MLOAD SWAP1 DUP2 ADD PUSH1 0x40 MSTORE DUP1 SWAP4 SWAP3 SWAP2 SWAP1 DUP2 DUP2 MSTORE PUSH1 0x20 ADD DUP4 DUP4 PUSH1 0x20 MUL DUP1 DUP3 DUP5 CALLDATACOPY PUSH1 0x0 DUP2 DUP5 ADD MSTORE PUSH1 0x1F NOT PUSH1 0x1F DUP3 ADD AND SWAP1 POP DUP1 DUP4 ADD SWAP3 POP POP POP POP POP POP POP DUP10 PUSH2 0x3992 JUMP JUMPDEST PUSH1 0x0 PUSH20 0xFFFFFFFFFFFFFFFFFFFFFFFFFFFFFFFFFFFFFFFF AND DUP5 PUSH20 0xFFFFFFFFFFFFFFFFFFFFFFFFFFFFFFFFFFFFFFFF AND EQ PUSH2 0x210C JUMPI PUSH2 0x210B DUP5 PUSH2 0x3DA0 JUMP JUMPDEST JUMPDEST PUSH2 0x215A DUP8 DUP8 DUP8 DUP1 DUP1 PUSH1 0x1F ADD PUSH1 0x20 DUP1 SWAP2 DIV MUL PUSH1 0x20 ADD PUSH1 0x40 MLOAD SWAP1 DUP2 ADD PUSH1 0x40 MSTORE DUP1 SWAP4 SWAP3 SWAP2 SWAP1 DUP2 DUP2 MSTORE PUSH1 0x20 ADD DUP4 DUP4 DUP1 DUP3 DUP5 CALLDATACOPY PUSH1 0x0 DUP2 DUP5 ADD MSTORE PUSH1 0x1F NOT PUSH1 0x1F DUP3 ADD AND SWAP1 POP DUP1 DUP4 ADD SWAP3 POP POP POP POP POP POP POP PUSH2 0x3E3D JUMP JUMPDEST PUSH1 0x0 DUP3 GT ISZERO PUSH2 0x2174 JUMPI PUSH2 0x2172 DUP3 PUSH1 0x0 PUSH1 0x1 DUP7 DUP6 PUSH2 0x37F3 JUMP JUMPDEST POP JUMPDEST CALLER PUSH20 0xFFFFFFFFFFFFFFFFFFFFFFFFFFFFFFFFFFFFFFFF AND PUSH32 0x141DF868A6331AF528E38C83B7AA03EDC19BE66E37AE67F9285BF4F8E3C6A1A8 DUP12 DUP12 DUP12 DUP12 DUP10 PUSH1 0x40 MLOAD PUSH2 0x21C2 SWAP6 SWAP5 SWAP4 SWAP3 SWAP2 SWAP1 PUSH2 0x5C06 JUMP JUMPDEST PUSH1 0x40 MLOAD DUP1 SWAP2 SUB SWAP1 LOG2 POP POP POP POP POP POP POP POP POP POP JUMP JUMPDEST PUSH1 0x60 PUSH1 0x0 PUSH1 0x1 PUSH20 0xFFFFFFFFFFFFFFFFFFFFFFFFFFFFFFFFFFFFFFFF AND DUP5 PUSH20 0xFFFFFFFFFFFFFFFFFFFFFFFFFFFFFFFFFFFFFFFF AND EQ DUP1 PUSH2 0x221A JUMPI POP PUSH2 0x2219 DUP5 PUSH2 0x1203 JUMP JUMPDEST JUMPDEST PUSH2 0x2259 JUMPI PUSH1 0x40 MLOAD PUSH32 0x8C379A000000000000000000000000000000000000000000000000000000000 DUP2 MSTORE PUSH1 0x4 ADD PUSH2 0x2250 SWAP1 PUSH2 0x5CA0 JUMP JUMPDEST PUSH1 0x40 MLOAD DUP1 SWAP2 SUB SWAP1 REVERT JUMPDEST PUSH1 0x0 DUP4 GT PUSH2 0x229C JUMPI PUSH1 0x40 MLOAD PUSH32 0x8C379A000000000000000000000000000000000000000000000000000000000 DUP2 MSTORE PUSH1 0x4 ADD PUSH2 0x2293 SWAP1 PUSH2 0x5D0C JUMP JUMPDEST PUSH1 0x40 MLOAD DUP1 SWAP2 SUB SWAP1 REVERT JUMPDEST DUP3 PUSH8 0xFFFFFFFFFFFFFFFF DUP2 GT ISZERO PUSH2 0x22B6 JUMPI PUSH2 0x22B5 PUSH2 0x4298 JUMP JUMPDEST JUMPDEST PUSH1 0x40 MLOAD SWAP1 DUP1 DUP3 MSTORE DUP1 PUSH1 0x20 MUL PUSH1 0x20 ADD DUP3 ADD PUSH1 0x40 MSTORE DUP1 ISZERO PUSH2 0x22E4 JUMPI DUP2 PUSH1 0x20 ADD PUSH1 0x20 DUP3 MUL DUP1 CALLDATASIZE DUP4 CALLDATACOPY DUP1 DUP3 ADD SWAP2 POP POP SWAP1 POP JUMPDEST POP SWAP2 POP PUSH1 0x0 PUSH1 0x1 PUSH1 0x0 DUP7 PUSH20 0xFFFFFFFFFFFFFFFFFFFFFFFFFFFFFFFFFFFFFFFF AND PUSH20 0xFFFFFFFFFFFFFFFFFFFFFFFFFFFFFFFFFFFFFFFF AND DUP2 MSTORE PUSH1 0x20 ADD SWAP1 DUP2 MSTORE PUSH1 0x20 ADD PUSH1 0x0 KECCAK256 PUSH1 0x0 SWAP1 SLOAD SWAP1 PUSH2 0x100 EXP SWAP1 DIV PUSH20 0xFFFFFFFFFFFFFFFFFFFFFFFFFFFFFFFFFFFFFFFF AND SWAP2 POP JUMPDEST PUSH1 0x0 PUSH20 0xFFFFFFFFFFFFFFFFFFFFFFFFFFFFFFFFFFFFFFFF AND DUP3 PUSH20 0xFFFFFFFFFFFFFFFFFFFFFFFFFFFFFFFFFFFFFFFF AND EQ ISZERO DUP1 ISZERO PUSH2 0x23B6 JUMPI POP PUSH1 0x1 PUSH20 0xFFFFFFFFFFFFFFFFFFFFFFFFFFFFFFFFFFFFFFFF AND DUP3 PUSH20 0xFFFFFFFFFFFFFFFFFFFFFFFFFFFFFFFFFFFFFFFF AND EQ ISZERO JUMPDEST DUP1 ISZERO PUSH2 0x23C1 JUMPI POP DUP4 DUP2 LT JUMPDEST ISZERO PUSH2 0x2489 JUMPI DUP2 DUP4 DUP3 DUP2 MLOAD DUP2 LT PUSH2 0x23DA JUMPI PUSH2 0x23D9 PUSH2 0x5B4C JUMP JUMPDEST JUMPDEST PUSH1 0x20 MUL PUSH1 0x20 ADD ADD SWAP1 PUSH20 0xFFFFFFFFFFFFFFFFFFFFFFFFFFFFFFFFFFFFFFFF AND SWAP1 DUP2 PUSH20 0xFFFFFFFFFFFFFFFFFFFFFFFFFFFFFFFFFFFFFFFF AND DUP2 MSTORE POP POP PUSH1 0x1 PUSH1 0x0 DUP4 PUSH20 0xFFFFFFFFFFFFFFFFFFFFFFFFFFFFFFFFFFFFFFFF AND PUSH20 0xFFFFFFFFFFFFFFFFFFFFFFFFFFFFFFFFFFFFFFFF AND DUP2 MSTORE PUSH1 0x20 ADD SWAP1 DUP2 MSTORE PUSH1 0x20 ADD PUSH1 0x0 KECCAK256 PUSH1 0x0 SWAP1 SLOAD SWAP1 PUSH2 0x100 EXP SWAP1 DIV PUSH20 0xFFFFFFFFFFFFFFFFFFFFFFFFFFFFFFFFFFFFFFFF AND SWAP2 POP DUP1 DUP1 PUSH2 0x2481 SWAP1 PUSH2 0x4FB3 JUMP JUMPDEST SWAP2 POP POP PUSH2 0x234C JUMP JUMPDEST PUSH1 0x1 PUSH20 0xFFFFFFFFFFFFFFFFFFFFFFFFFFFFFFFFFFFFFFFF AND DUP3 PUSH20 0xFFFFFFFFFFFFFFFFFFFFFFFFFFFFFFFFFFFFFFFF AND EQ PUSH2 0x24E7 JUMPI DUP3 PUSH1 0x1 DUP3 PUSH2 0x24CB SWAP2 SWAP1 PUSH2 0x5A17 JUMP JUMPDEST DUP2 MLOAD DUP2 LT PUSH2 0x24DC JUMPI PUSH2 0x24DB PUSH2 0x5B4C JUMP JUMPDEST JUMPDEST PUSH1 0x20 MUL PUSH1 0x20 ADD ADD MLOAD SWAP2 POP JUMPDEST DUP1 DUP4 MSTORE POP SWAP3 POP SWAP3 SWAP1 POP JUMP JUMPDEST PUSH1 0x0 PUSH20 0xFFFFFFFFFFFFFFFFFFFFFFFFFFFFFFFFFFFFFFFF AND PUSH1 0x2 PUSH1 0x0 CALLER PUSH20 0xFFFFFFFFFFFFFFFFFFFFFFFFFFFFFFFFFFFFFFFF AND PUSH20 0xFFFFFFFFFFFFFFFFFFFFFFFFFFFFFFFFFFFFFFFF AND DUP2 MSTORE PUSH1 0x20 ADD SWAP1 DUP2 MSTORE PUSH1 0x20 ADD PUSH1 0x0 KECCAK256 PUSH1 0x0 SWAP1 SLOAD SWAP1 PUSH2 0x100 EXP SWAP1 DIV PUSH20 0xFFFFFFFFFFFFFFFFFFFFFFFFFFFFFFFFFFFFFFFF AND PUSH20 0xFFFFFFFFFFFFFFFFFFFFFFFFFFFFFFFFFFFFFFFF AND SUB PUSH2 0x25C0 JUMPI PUSH1 0x40 MLOAD PUSH32 0x8C379A000000000000000000000000000000000000000000000000000000000 DUP2 MSTORE PUSH1 0x4 ADD PUSH2 0x25B7 SWAP1 PUSH2 0x5D78 JUMP JUMPDEST PUSH1 0x40 MLOAD DUP1 SWAP2 SUB SWAP1 REVERT JUMPDEST PUSH1 0x1 PUSH1 0x8 PUSH1 0x0 CALLER PUSH20 0xFFFFFFFFFFFFFFFFFFFFFFFFFFFFFFFFFFFFFFFF AND PUSH20 0xFFFFFFFFFFFFFFFFFFFFFFFFFFFFFFFFFFFFFFFF AND DUP2 MSTORE PUSH1 0x20 ADD SWAP1 DUP2 MSTORE PUSH1 0x20 ADD PUSH1 0x0 KECCAK256 PUSH1 0x0 DUP4 DUP2 MSTORE PUSH1 0x20 ADD SWAP1 DUP2 MSTORE PUSH1 0x20 ADD PUSH1 0x0 KECCAK256 DUP2 SWAP1 SSTORE POP CALLER PUSH20 0xFFFFFFFFFFFFFFFFFFFFFFFFFFFFFFFFFFFFFFFF AND DUP2 PUSH32 0xF2A0EB156472D1440255B0D7C1E19CC07115D1051FE605B0DCE69ACFEC884D9C PUSH1 0x40 MLOAD PUSH1 0x40 MLOAD DUP1 SWAP2 SUB SWAP1 LOG3 POP JUMP JUMPDEST PUSH1 0x0 PUSH2 0x2672 DUP13 DUP13 DUP13 DUP13 DUP13 DUP13 DUP13 DUP13 DUP13 DUP13 DUP13 PUSH2 0x30CF JUMP JUMPDEST DUP1 MLOAD SWAP1 PUSH1 0x20 ADD KECCAK256 SWAP1 POP SWAP12 SWAP11 POP POP POP POP POP POP POP POP POP POP POP JUMP JUMPDEST PUSH2 0x2692 PUSH2 0x361B JUMP JUMPDEST PUSH1 0x0 PUSH20 0xFFFFFFFFFFFFFFFFFFFFFFFFFFFFFFFFFFFFFFFF AND DUP2 PUSH20 0xFFFFFFFFFFFFFFFFFFFFFFFFFFFFFFFFFFFFFFFF AND EQ ISZERO DUP1 ISZERO PUSH2 0x26FC JUMPI POP PUSH1 0x1 PUSH20 0xFFFFFFFFFFFFFFFFFFFFFFFFFFFFFFFFFFFFFFFF AND DUP2 PUSH20 0xFFFFFFFFFFFFFFFFFFFFFFFFFFFFFFFFFFFFFFFF AND EQ ISZERO JUMPDEST PUSH2 0x273B JUMPI PUSH1 0x40 MLOAD PUSH32 0x8C379A000000000000000000000000000000000000000000000000000000000 DUP2 MSTORE PUSH1 0x4 ADD PUSH2 0x2732 SWAP1 PUSH2 0x5645 JUMP JUMPDEST PUSH1 0x40 MLOAD DUP1 SWAP2 SUB SWAP1 REVERT JUMPDEST DUP1 PUSH20 0xFFFFFFFFFFFFFFFFFFFFFFFFFFFFFFFFFFFFFFFF AND PUSH1 0x1 PUSH1 0x0 DUP5 PUSH20 0xFFFFFFFFFFFFFFFFFFFFFFFFFFFFFFFFFFFFFFFF AND PUSH20 0xFFFFFFFFFFFFFFFFFFFFFFFFFFFFFFFFFFFFFFFF AND DUP2 MSTORE PUSH1 0x20 ADD SWAP1 DUP2 MSTORE PUSH1 0x20 ADD PUSH1 0x0 KECCAK256 PUSH1 0x0 SWAP1 SLOAD SWAP1 PUSH2 0x100 EXP SWAP1 DIV PUSH20 0xFFFFFFFFFFFFFFFFFFFFFFFFFFFFFFFFFFFFFFFF AND PUSH20 0xFFFFFFFFFFFFFFFFFFFFFFFFFFFFFFFFFFFFFFFF AND EQ PUSH2 0x2808 JUMPI PUSH1 0x40 MLOAD PUSH32 0x8C379A000000000000000000000000000000000000000000000000000000000 DUP2 MSTORE PUSH1 0x4 ADD PUSH2 0x27FF SWAP1 PUSH2 0x5DE4 JUMP JUMPDEST PUSH1 0x40 MLOAD DUP1 SWAP2 SUB SWAP1 REVERT JUMPDEST PUSH1 0x1 PUSH1 0x0 DUP3 PUSH20 0xFFFFFFFFFFFFFFFFFFFFFFFFFFFFFFFFFFFFFFFF AND PUSH20 0xFFFFFFFFFFFFFFFFFFFFFFFFFFFFFFFFFFFFFFFF AND DUP2 MSTORE PUSH1 0x20 ADD SWAP1 DUP2 MSTORE PUSH1 0x20 ADD PUSH1 0x0 KECCAK256 PUSH1 0x0 SWAP1 SLOAD SWAP1 PUSH2 0x100 EXP SWAP1 DIV PUSH20 0xFFFFFFFFFFFFFFFFFFFFFFFFFFFFFFFFFFFFFFFF AND PUSH1 0x1 PUSH1 0x0 DUP5 PUSH20 0xFFFFFFFFFFFFFFFFFFFFFFFFFFFFFFFFFFFFFFFF AND PUSH20 0xFFFFFFFFFFFFFFFFFFFFFFFFFFFFFFFFFFFFFFFF AND DUP2 MSTORE PUSH1 0x20 ADD SWAP1 DUP2 MSTORE PUSH1 0x20 ADD PUSH1 0x0 KECCAK256 PUSH1 0x0 PUSH2 0x100 EXP DUP2 SLOAD DUP2 PUSH20 0xFFFFFFFFFFFFFFFFFFFFFFFFFFFFFFFFFFFFFFFF MUL NOT AND SWAP1 DUP4 PUSH20 0xFFFFFFFFFFFFFFFFFFFFFFFFFFFFFFFFFFFFFFFF AND MUL OR SWAP1 SSTORE POP PUSH1 0x0 PUSH1 0x1 PUSH1 0x0 DUP4 PUSH20 0xFFFFFFFFFFFFFFFFFFFFFFFFFFFFFFFFFFFFFFFF AND PUSH20 0xFFFFFFFFFFFFFFFFFFFFFFFFFFFFFFFFFFFFFFFF AND DUP2 MSTORE PUSH1 0x20 ADD SWAP1 DUP2 MSTORE PUSH1 0x20 ADD PUSH1 0x0 KECCAK256 PUSH1 0x0 PUSH2 0x100 EXP DUP2 SLOAD DUP2 PUSH20 0xFFFFFFFFFFFFFFFFFFFFFFFFFFFFFFFFFFFFFFFF MUL NOT AND SWAP1 DUP4 PUSH20 0xFFFFFFFFFFFFFFFFFFFFFFFFFFFFFFFFFFFFFFFF AND MUL OR SWAP1 SSTORE POP DUP1 PUSH20 0xFFFFFFFFFFFFFFFFFFFFFFFFFFFFFFFFFFFFFFFF AND PUSH32 0xAAB4FA2B463F581B2B32CB3B7E3B704B9CE37CC209B5FB4D77E593ACE4054276 PUSH1 0x40 MLOAD PUSH1 0x40 MLOAD DUP1 SWAP2 SUB SWAP1 LOG2 POP POP JUMP JUMPDEST PUSH2 0x29B3 PUSH2 0x361B JUMP JUMPDEST PUSH1 0x0 PUSH20 0xFFFFFFFFFFFFFFFFFFFFFFFFFFFFFFFFFFFFFFFF AND DUP2 PUSH20 0xFFFFFFFFFFFFFFFFFFFFFFFFFFFFFFFFFFFFFFFF AND EQ PUSH2 0x2AC1 JUMPI DUP1 PUSH20 0xFFFFFFFFFFFFFFFFFFFFFFFFFFFFFFFFFFFFFFFF AND PUSH4 0x1FFC9A7 PUSH32 0xE6D7A83A00000000000000000000000000000000000000000000000000000000 PUSH1 0x40 MLOAD DUP3 PUSH4 0xFFFFFFFF AND PUSH1 0xE0 SHL DUP2 MSTORE PUSH1 0x4 ADD PUSH2 0x2A40 SWAP2 SWAP1 PUSH2 0x5E13 JUMP JUMPDEST PUSH1 0x20 PUSH1 0x40 MLOAD DUP1 DUP4 SUB DUP2 DUP7 GAS STATICCALL ISZERO DUP1 ISZERO PUSH2 0x2A5D JUMPI RETURNDATASIZE PUSH1 0x0 DUP1 RETURNDATACOPY RETURNDATASIZE PUSH1 0x0 REVERT JUMPDEST POP POP POP POP PUSH1 0x40 MLOAD RETURNDATASIZE PUSH1 0x1F NOT PUSH1 0x1F DUP3 ADD AND DUP3 ADD DUP1 PUSH1 0x40 MSTORE POP DUP2 ADD SWAP1 PUSH2 0x2A81 SWAP2 SWAP1 PUSH2 0x5E5A JUMP JUMPDEST PUSH2 0x2AC0 JUMPI PUSH1 0x40 MLOAD PUSH32 0x8C379A000000000000000000000000000000000000000000000000000000000 DUP2 MSTORE PUSH1 0x4 ADD PUSH2 0x2AB7 SWAP1 PUSH2 0x5ED3 JUMP JUMPDEST PUSH1 0x40 MLOAD DUP1 SWAP2 SUB SWAP1 REVERT JUMPDEST JUMPDEST PUSH1 0x0 PUSH32 0x4A204F620C8C5CCDCA3FD54D003BADD85BA500436A431F0CBDA4F558C93C34C8 PUSH1 0x0 SHL SWAP1 POP DUP2 DUP2 SSTORE DUP2 PUSH20 0xFFFFFFFFFFFFFFFFFFFFFFFFFFFFFFFFFFFFFFFF AND PUSH32 0x1151116914515BC0891FF9047A6CB32CF902546F83066499BCF8BA33D2353FA2 PUSH1 0x40 MLOAD PUSH1 0x40 MLOAD DUP1 SWAP2 SUB SWAP1 LOG2 POP POP JUMP JUMPDEST PUSH2 0x2B3B PUSH2 0x361B JUMP JUMPDEST PUSH1 0x0 PUSH20 0xFFFFFFFFFFFFFFFFFFFFFFFFFFFFFFFFFFFFFFFF AND DUP2 PUSH20 0xFFFFFFFFFFFFFFFFFFFFFFFFFFFFFFFFFFFFFFFF AND EQ ISZERO DUP1 ISZERO PUSH2 0x2BA5 JUMPI POP PUSH1 0x1 PUSH20 0xFFFFFFFFFFFFFFFFFFFFFFFFFFFFFFFFFFFFFFFF AND DUP2 PUSH20 0xFFFFFFFFFFFFFFFFFFFFFFFFFFFFFFFFFFFFFFFF AND EQ ISZERO JUMPDEST DUP1 ISZERO PUSH2 0x2BDD JUMPI POP ADDRESS PUSH20 0xFFFFFFFFFFFFFFFFFFFFFFFFFFFFFFFFFFFFFFFF AND DUP2 PUSH20 0xFFFFFFFFFFFFFFFFFFFFFFFFFFFFFFFFFFFFFFFF AND EQ ISZERO JUMPDEST PUSH2 0x2C1C JUMPI PUSH1 0x40 MLOAD PUSH32 0x8C379A000000000000000000000000000000000000000000000000000000000 DUP2 MSTORE PUSH1 0x4 ADD PUSH2 0x2C13 SWAP1 PUSH2 0x4EF8 JUMP JUMPDEST PUSH1 0x40 MLOAD DUP1 SWAP2 SUB SWAP1 REVERT JUMPDEST PUSH1 0x0 PUSH20 0xFFFFFFFFFFFFFFFFFFFFFFFFFFFFFFFFFFFFFFFF AND PUSH1 0x2 PUSH1 0x0 DUP4 PUSH20 0xFFFFFFFFFFFFFFFFFFFFFFFFFFFFFFFFFFFFFFFF AND PUSH20 0xFFFFFFFFFFFFFFFFFFFFFFFFFFFFFFFFFFFFFFFF AND DUP2 MSTORE PUSH1 0x20 ADD SWAP1 DUP2 MSTORE PUSH1 0x20 ADD PUSH1 0x0 KECCAK256 PUSH1 0x0 SWAP1 SLOAD SWAP1 PUSH2 0x100 EXP SWAP1 DIV PUSH20 0xFFFFFFFFFFFFFFFFFFFFFFFFFFFFFFFFFFFFFFFF AND PUSH20 0xFFFFFFFFFFFFFFFFFFFFFFFFFFFFFFFFFFFFFFFF AND EQ PUSH2 0x2CEA JUMPI PUSH1 0x40 MLOAD PUSH32 0x8C379A000000000000000000000000000000000000000000000000000000000 DUP2 MSTORE PUSH1 0x4 ADD PUSH2 0x2CE1 SWAP1 PUSH2 0x4F64 JUMP JUMPDEST PUSH1 0x40 MLOAD DUP1 SWAP2 SUB SWAP1 REVERT JUMPDEST PUSH1 0x0 PUSH20 0xFFFFFFFFFFFFFFFFFFFFFFFFFFFFFFFFFFFFFFFF AND DUP3 PUSH20 0xFFFFFFFFFFFFFFFFFFFFFFFFFFFFFFFFFFFFFFFF AND EQ ISZERO DUP1 ISZERO PUSH2 0x2D54 JUMPI POP PUSH1 0x1 PUSH20 0xFFFFFFFFFFFFFFFFFFFFFFFFFFFFFFFFFFFFFFFF AND DUP3 PUSH20 0xFFFFFFFFFFFFFFFFFFFFFFFFFFFFFFFFFFFFFFFF AND EQ ISZERO JUMPDEST PUSH2 0x2D93 JUMPI PUSH1 0x40 MLOAD PUSH32 0x8C379A000000000000000000000000000000000000000000000000000000000 DUP2 MSTORE PUSH1 0x4 ADD PUSH2 0x2D8A SWAP1 PUSH2 0x4EF8 JUMP JUMPDEST PUSH1 0x40 MLOAD DUP1 SWAP2 SUB SWAP1 REVERT JUMPDEST DUP2 PUSH20 0xFFFFFFFFFFFFFFFFFFFFFFFFFFFFFFFFFFFFFFFF AND PUSH1 0x2 PUSH1 0x0 DUP6 PUSH20 0xFFFFFFFFFFFFFFFFFFFFFFFFFFFFFFFFFFFFFFFF AND PUSH20 0xFFFFFFFFFFFFFFFFFFFFFFFFFFFFFFFFFFFFFFFF AND DUP2 MSTORE PUSH1 0x20 ADD SWAP1 DUP2 MSTORE PUSH1 0x20 ADD PUSH1 0x0 KECCAK256 PUSH1 0x0 SWAP1 SLOAD SWAP1 PUSH2 0x100 EXP SWAP1 DIV PUSH20 0xFFFFFFFFFFFFFFFFFFFFFFFFFFFFFFFFFFFFFFFF AND PUSH20 0xFFFFFFFFFFFFFFFFFFFFFFFFFFFFFFFFFFFFFFFF AND EQ PUSH2 0x2E60 JUMPI PUSH1 0x40 MLOAD PUSH32 0x8C379A000000000000000000000000000000000000000000000000000000000 DUP2 MSTORE PUSH1 0x4 ADD PUSH2 0x2E57 SWAP1 PUSH2 0x5F3F JUMP JUMPDEST PUSH1 0x40 MLOAD DUP1 SWAP2 SUB SWAP1 REVERT JUMPDEST PUSH1 0x2 PUSH1 0x0 DUP4 PUSH20 0xFFFFFFFFFFFFFFFFFFFFFFFFFFFFFFFFFFFFFFFF AND PUSH20 0xFFFFFFFFFFFFFFFFFFFFFFFFFFFFFFFFFFFFFFFF AND DUP2 MSTORE PUSH1 0x20 ADD SWAP1 DUP2 MSTORE PUSH1 0x20 ADD PUSH1 0x0 KECCAK256 PUSH1 0x0 SWAP1 SLOAD SWAP1 PUSH2 0x100 EXP SWAP1 DIV PUSH20 0xFFFFFFFFFFFFFFFFFFFFFFFFFFFFFFFFFFFFFFFF AND PUSH1 0x2 PUSH1 0x0 DUP4 PUSH20 0xFFFFFFFFFFFFFFFFFFFFFFFFFFFFFFFFFFFFFFFF AND PUSH20 0xFFFFFFFFFFFFFFFFFFFFFFFFFFFFFFFFFFFFFFFF AND DUP2 MSTORE PUSH1 0x20 ADD SWAP1 DUP2 MSTORE PUSH1 0x20 ADD PUSH1 0x0 KECCAK256 PUSH1 0x0 PUSH2 0x100 EXP DUP2 SLOAD DUP2 PUSH20 0xFFFFFFFFFFFFFFFFFFFFFFFFFFFFFFFFFFFFFFFF MUL NOT AND SWAP1 DUP4 PUSH20 0xFFFFFFFFFFFFFFFFFFFFFFFFFFFFFFFFFFFFFFFF AND MUL OR SWAP1 SSTORE POP DUP1 PUSH1 0x2 PUSH1 0x0 DUP6 PUSH20 0xFFFFFFFFFFFFFFFFFFFFFFFFFFFFFFFFFFFFFFFF AND PUSH20 0xFFFFFFFFFFFFFFFFFFFFFFFFFFFFFFFFFFFFFFFF AND DUP2 MSTORE PUSH1 0x20 ADD SWAP1 DUP2 MSTORE PUSH1 0x20 ADD PUSH1 0x0 KECCAK256 PUSH1 0x0 PUSH2 0x100 EXP DUP2 SLOAD DUP2 PUSH20 0xFFFFFFFFFFFFFFFFFFFFFFFFFFFFFFFFFFFFFFFF MUL NOT AND SWAP1 DUP4 PUSH20 0xFFFFFFFFFFFFFFFFFFFFFFFFFFFFFFFFFFFFFFFF AND MUL OR SWAP1 SSTORE POP PUSH1 0x0 PUSH1 0x2 PUSH1 0x0 DUP5 PUSH20 0xFFFFFFFFFFFFFFFFFFFFFFFFFFFFFFFFFFFFFFFF AND PUSH20 0xFFFFFFFFFFFFFFFFFFFFFFFFFFFFFFFFFFFFFFFF AND DUP2 MSTORE PUSH1 0x20 ADD SWAP1 DUP2 MSTORE PUSH1 0x20 ADD PUSH1 0x0 KECCAK256 PUSH1 0x0 PUSH2 0x100 EXP DUP2 SLOAD DUP2 PUSH20 0xFFFFFFFFFFFFFFFFFFFFFFFFFFFFFFFFFFFFFFFF MUL NOT AND SWAP1 DUP4 PUSH20 0xFFFFFFFFFFFFFFFFFFFFFFFFFFFFFFFFFFFFFFFF AND MUL OR SWAP1 SSTORE POP DUP2 PUSH20 0xFFFFFFFFFFFFFFFFFFFFFFFFFFFFFFFFFFFFFFFF AND PUSH32 0xF8D49FC529812E9A7C5C50E69C20F0DCCC0DB8FA95C98BC58CC9A4F1C1299EAF PUSH1 0x40 MLOAD PUSH1 0x40 MLOAD DUP1 SWAP2 SUB SWAP1 LOG2 DUP1 PUSH20 0xFFFFFFFFFFFFFFFFFFFFFFFFFFFFFFFFFFFFFFFF AND PUSH32 0x9465FA0C962CC76958E6373A993326400C1C94F8BE2FE3A952ADFA7F60B2EA26 PUSH1 0x40 MLOAD PUSH1 0x40 MLOAD DUP1 SWAP2 SUB SWAP1 LOG2 POP POP POP JUMP JUMPDEST PUSH1 0x0 PUSH1 0x4 SLOAD SWAP1 POP SWAP1 JUMP JUMPDEST PUSH1 0x60 PUSH1 0x0 PUSH32 0xBB8310D486368DB6BD6F849402FDD73AD53D316B5A4B2644AD6EFE0F941286D8 PUSH1 0x0 SHL DUP14 DUP14 DUP14 DUP14 PUSH1 0x40 MLOAD PUSH2 0x3109 SWAP3 SWAP2 SWAP1 PUSH2 0x5F8F JUMP JUMPDEST PUSH1 0x40 MLOAD DUP1 SWAP2 SUB SWAP1 KECCAK256 DUP13 DUP13 DUP13 DUP13 DUP13 DUP13 DUP13 PUSH1 0x40 MLOAD PUSH1 0x20 ADD PUSH2 0x3132 SWAP12 SWAP11 SWAP10 SWAP9 SWAP8 SWAP7 SWAP6 SWAP5 SWAP4 SWAP3 SWAP2 SWAP1 PUSH2 0x5FA8 JUMP JUMPDEST PUSH1 0x40 MLOAD PUSH1 0x20 DUP2 DUP4 SUB SUB DUP2 MSTORE SWAP1 PUSH1 0x40 MSTORE DUP1 MLOAD SWAP1 PUSH1 0x20 ADD KECCAK256 SWAP1 POP PUSH1 0x19 PUSH1 0xF8 SHL PUSH1 0x1 PUSH1 0xF8 SHL PUSH2 0x315C PUSH2 0x31E8 JUMP JUMPDEST DUP4 PUSH1 0x40 MLOAD PUSH1 0x20 ADD PUSH2 0x3170 SWAP5 SWAP4 SWAP3 SWAP2 SWAP1 PUSH2 0x60A0 JUMP JUMPDEST PUSH1 0x40 MLOAD PUSH1 0x20 DUP2 DUP4 SUB SUB DUP2 MSTORE SWAP1 PUSH1 0x40 MSTORE SWAP2 POP POP SWAP12 SWAP11 POP POP POP POP POP POP POP POP POP POP POP JUMP JUMPDEST PUSH2 0x3199 PUSH2 0x361B JUMP JUMPDEST PUSH2 0x31A2 DUP2 PUSH2 0x3DA0 JUMP JUMPDEST DUP1 PUSH20 0xFFFFFFFFFFFFFFFFFFFFFFFFFFFFFFFFFFFFFFFF AND PUSH32 0x5AC6C46C93C8D0E53714BA3B53DB3E7C046DA994313D7ED0D192028BC7C228B0 PUSH1 0x40 MLOAD PUSH1 0x40 MLOAD DUP1 SWAP2 SUB SWAP1 LOG2 POP JUMP JUMPDEST PUSH1 0x0 PUSH32 0x47E79534A245952E8B16893A336B85A3D9EA9FA8C573F3D803AFB92A79469218 PUSH1 0x0 SHL PUSH2 0x3216 PUSH2 0x13A7 JUMP JUMPDEST ADDRESS PUSH1 0x40 MLOAD PUSH1 0x20 ADD PUSH2 0x3229 SWAP4 SWAP3 SWAP2 SWAP1 PUSH2 0x614D JUMP JUMPDEST PUSH1 0x40 MLOAD PUSH1 0x20 DUP2 DUP4 SUB SUB DUP2 MSTORE SWAP1 PUSH1 0x40 MSTORE DUP1 MLOAD SWAP1 PUSH1 0x20 ADD KECCAK256 SWAP1 POP SWAP1 JUMP JUMPDEST PUSH2 0x324C PUSH2 0x361B JUMP JUMPDEST DUP1 PUSH1 0x1 PUSH1 0x3 SLOAD PUSH2 0x325C SWAP2 SWAP1 PUSH2 0x5A17 JUMP JUMPDEST LT ISZERO PUSH2 0x329D JUMPI PUSH1 0x40 MLOAD PUSH32 0x8C379A000000000000000000000000000000000000000000000000000000000 DUP2 MSTORE PUSH1 0x4 ADD PUSH2 0x3294 SWAP1 PUSH2 0x571D JUMP JUMPDEST PUSH1 0x40 MLOAD DUP1 SWAP2 SUB SWAP1 REVERT JUMPDEST PUSH1 0x0 PUSH20 0xFFFFFFFFFFFFFFFFFFFFFFFFFFFFFFFFFFFFFFFF AND DUP3 PUSH20 0xFFFFFFFFFFFFFFFFFFFFFFFFFFFFFFFFFFFFFFFF AND EQ ISZERO DUP1 ISZERO PUSH2 0x3307 JUMPI POP PUSH1 0x1 PUSH20 0xFFFFFFFFFFFFFFFFFFFFFFFFFFFFFFFFFFFFFFFF AND DUP3 PUSH20 0xFFFFFFFFFFFFFFFFFFFFFFFFFFFFFFFFFFFFFFFF AND EQ ISZERO JUMPDEST PUSH2 0x3346 JUMPI PUSH1 0x40 MLOAD PUSH32 0x8C379A000000000000000000000000000000000000000000000000000000000 DUP2 MSTORE PUSH1 0x4 ADD PUSH2 0x333D SWAP1 PUSH2 0x4EF8 JUMP JUMPDEST PUSH1 0x40 MLOAD DUP1 SWAP2 SUB SWAP1 REVERT JUMPDEST DUP2 PUSH20 0xFFFFFFFFFFFFFFFFFFFFFFFFFFFFFFFFFFFFFFFF AND PUSH1 0x2 PUSH1 0x0 DUP6 PUSH20 0xFFFFFFFFFFFFFFFFFFFFFFFFFFFFFFFFFFFFFFFF AND PUSH20 0xFFFFFFFFFFFFFFFFFFFFFFFFFFFFFFFFFFFFFFFF AND DUP2 MSTORE PUSH1 0x20 ADD SWAP1 DUP2 MSTORE PUSH1 0x20 ADD PUSH1 0x0 KECCAK256 PUSH1 0x0 SWAP1 SLOAD SWAP1 PUSH2 0x100 EXP SWAP1 DIV PUSH20 0xFFFFFFFFFFFFFFFFFFFFFFFFFFFFFFFFFFFFFFFF AND PUSH20 0xFFFFFFFFFFFFFFFFFFFFFFFFFFFFFFFFFFFFFFFF AND EQ PUSH2 0x3413 JUMPI PUSH1 0x40 MLOAD PUSH32 0x8C379A000000000000000000000000000000000000000000000000000000000 DUP2 MSTORE PUSH1 0x4 ADD PUSH2 0x340A SWAP1 PUSH2 0x5F3F JUMP JUMPDEST PUSH1 0x40 MLOAD DUP1 SWAP2 SUB SWAP1 REVERT JUMPDEST PUSH1 0x2 PUSH1 0x0 DUP4 PUSH20 0xFFFFFFFFFFFFFFFFFFFFFFFFFFFFFFFFFFFFFFFF AND PUSH20 0xFFFFFFFFFFFFFFFFFFFFFFFFFFFFFFFFFFFFFFFF AND DUP2 MSTORE PUSH1 0x20 ADD SWAP1 DUP2 MSTORE PUSH1 0x20 ADD PUSH1 0x0 KECCAK256 PUSH1 0x0 SWAP1 SLOAD SWAP1 PUSH2 0x100 EXP SWAP1 DIV PUSH20 0xFFFFFFFFFFFFFFFFFFFFFFFFFFFFFFFFFFFFFFFF AND PUSH1 0x2 PUSH1 0x0 DUP6 PUSH20 0xFFFFFFFFFFFFFFFFFFFFFFFFFFFFFFFFFFFFFFFF AND PUSH20 0xFFFFFFFFFFFFFFFFFFFFFFFFFFFFFFFFFFFFFFFF AND DUP2 MSTORE PUSH1 0x20 ADD SWAP1 DUP2 MSTORE PUSH1 0x20 ADD PUSH1 0x0 KECCAK256 PUSH1 0x0 PUSH2 0x100 EXP DUP2 SLOAD DUP2 PUSH20 0xFFFFFFFFFFFFFFFFFFFFFFFFFFFFFFFFFFFFFFFF MUL NOT AND SWAP1 DUP4 PUSH20 0xFFFFFFFFFFFFFFFFFFFFFFFFFFFFFFFFFFFFFFFF AND MUL OR SWAP1 SSTORE POP PUSH1 0x0 PUSH1 0x2 PUSH1 0x0 DUP5 PUSH20 0xFFFFFFFFFFFFFFFFFFFFFFFFFFFFFFFFFFFFFFFF AND PUSH20 0xFFFFFFFFFFFFFFFFFFFFFFFFFFFFFFFFFFFFFFFF AND DUP2 MSTORE PUSH1 0x20 ADD SWAP1 DUP2 MSTORE PUSH1 0x20 ADD PUSH1 0x0 KECCAK256 PUSH1 0x0 PUSH2 0x100 EXP DUP2 SLOAD DUP2 PUSH20 0xFFFFFFFFFFFFFFFFFFFFFFFFFFFFFFFFFFFFFFFF MUL NOT AND SWAP1 DUP4 PUSH20 0xFFFFFFFFFFFFFFFFFFFFFFFFFFFFFFFFFFFFFFFF AND MUL OR SWAP1 SSTORE POP PUSH1 0x3 PUSH1 0x0 DUP2 SLOAD DUP1 SWAP3 SWAP2 SWAP1 PUSH2 0x3582 SWAP1 PUSH2 0x6184 JUMP JUMPDEST SWAP2 SWAP1 POP SSTORE POP DUP2 PUSH20 0xFFFFFFFFFFFFFFFFFFFFFFFFFFFFFFFFFFFFFFFF AND PUSH32 0xF8D49FC529812E9A7C5C50E69C20F0DCCC0DB8FA95C98BC58CC9A4F1C1299EAF PUSH1 0x40 MLOAD PUSH1 0x40 MLOAD DUP1 SWAP2 SUB SWAP1 LOG2 DUP1 PUSH1 0x4 SLOAD EQ PUSH2 0x35DD JUMPI PUSH2 0x35DC DUP2 PUSH2 0x198F JUMP JUMPDEST JUMPDEST POP POP POP JUMP JUMPDEST PUSH1 0x40 MLOAD DUP1 PUSH1 0x40 ADD PUSH1 0x40 MSTORE DUP1 PUSH1 0x5 DUP2 MSTORE PUSH1 0x20 ADD PUSH32 0x312E342E31000000000000000000000000000000000000000000000000000000 DUP2 MSTORE POP DUP2 JUMP JUMPDEST ADDRESS PUSH20 0xFFFFFFFFFFFFFFFFFFFFFFFFFFFFFFFFFFFFFFFF AND CALLER PUSH20 0xFFFFFFFFFFFFFFFFFFFFFFFFFFFFFFFFFFFFFFFF AND EQ PUSH2 0x3689 JUMPI PUSH1 0x40 MLOAD PUSH32 0x8C379A000000000000000000000000000000000000000000000000000000000 DUP2 MSTORE PUSH1 0x4 ADD PUSH2 0x3680 SWAP1 PUSH2 0x61F9 JUMP JUMPDEST PUSH1 0x40 MLOAD DUP1 SWAP2 SUB SWAP1 REVERT JUMPDEST JUMP JUMPDEST PUSH1 0x0 DUP1 DUP4 SUB PUSH2 0x369D JUMPI PUSH1 0x0 SWAP1 POP PUSH2 0x36C9 JUMP JUMPDEST PUSH1 0x0 DUP3 DUP5 PUSH2 0x36AB SWAP2 SWAP1 PUSH2 0x55B7 JUMP JUMPDEST SWAP1 POP DUP3 DUP5 DUP3 PUSH2 0x36BA SWAP2 SWAP1 PUSH2 0x597A JUMP JUMPDEST EQ PUSH2 0x36C4 JUMPI PUSH1 0x0 DUP1 REVERT JUMPDEST DUP1 SWAP2 POP POP JUMPDEST SWAP3 SWAP2 POP POP JUMP JUMPDEST PUSH1 0x0 DUP1 PUSH1 0x0 DUP4 PUSH1 0x41 MUL PUSH1 0x20 DUP2 ADD DUP7 ADD MLOAD SWAP3 POP PUSH1 0x40 DUP2 ADD DUP7 ADD MLOAD SWAP2 POP PUSH1 0xFF PUSH1 0x41 DUP3 ADD DUP8 ADD MLOAD AND SWAP4 POP POP SWAP3 POP SWAP3 POP SWAP3 JUMP JUMPDEST PUSH1 0x0 DUP1 DUP3 DUP5 PUSH2 0x370D SWAP2 SWAP1 PUSH2 0x5917 JUMP JUMPDEST SWAP1 POP DUP4 DUP2 LT ISZERO PUSH2 0x371C JUMPI PUSH1 0x0 DUP1 REVERT JUMPDEST DUP1 SWAP2 POP POP SWAP3 SWAP2 POP POP JUMP JUMPDEST PUSH1 0x0 PUSH1 0x1 DUP1 DUP2 GT ISZERO PUSH2 0x373B JUMPI PUSH2 0x373A PUSH2 0x57D6 JUMP JUMPDEST JUMPDEST DUP4 PUSH1 0x1 DUP2 GT ISZERO PUSH2 0x374E JUMPI PUSH2 0x374D PUSH2 0x57D6 JUMP JUMPDEST JUMPDEST SUB PUSH2 0x3766 JUMPI PUSH1 0x0 DUP1 DUP6 MLOAD PUSH1 0x20 DUP8 ADD DUP10 DUP7 DELEGATECALL SWAP1 POP PUSH2 0x3776 JUMP JUMPDEST PUSH1 0x0 DUP1 DUP6 MLOAD PUSH1 0x20 DUP8 ADD DUP9 DUP11 DUP8 CALL SWAP1 POP JUMPDEST SWAP6 SWAP5 POP POP POP POP POP JUMP JUMPDEST PUSH1 0x0 DUP1 PUSH32 0x4A204F620C8C5CCDCA3FD54D003BADD85BA500436A431F0CBDA4F558C93C34C8 PUSH1 0x0 SHL SWAP1 POP DUP1 SLOAD SWAP2 POP POP SWAP1 JUMP JUMPDEST PUSH1 0x0 DUP2 DUP4 LT ISZERO PUSH2 0x37C0 JUMPI DUP2 PUSH2 0x37C2 JUMP JUMPDEST DUP3 JUMPDEST SWAP1 POP SWAP3 SWAP2 POP POP JUMP JUMPDEST PUSH1 0x0 DUP3 DUP3 GT ISZERO PUSH2 0x37D9 JUMPI PUSH1 0x0 DUP1 REVERT JUMPDEST PUSH1 0x0 DUP3 DUP5 PUSH2 0x37E7 SWAP2 SWAP1 PUSH2 0x5A17 JUMP JUMPDEST SWAP1 POP DUP1 SWAP2 POP POP SWAP3 SWAP2 POP POP JUMP JUMPDEST PUSH1 0x0 DUP1 PUSH1 0x0 PUSH20 0xFFFFFFFFFFFFFFFFFFFFFFFFFFFFFFFFFFFFFFFF AND DUP4 PUSH20 0xFFFFFFFFFFFFFFFFFFFFFFFFFFFFFFFFFFFFFFFF AND EQ PUSH2 0x3830 JUMPI DUP3 PUSH2 0x3832 JUMP JUMPDEST ORIGIN JUMPDEST SWAP1 POP PUSH1 0x0 PUSH20 0xFFFFFFFFFFFFFFFFFFFFFFFFFFFFFFFFFFFFFFFF AND DUP5 PUSH20 0xFFFFFFFFFFFFFFFFFFFFFFFFFFFFFFFFFFFFFFFF AND SUB PUSH2 0x3916 JUMPI PUSH2 0x389B GASPRICE DUP7 LT PUSH2 0x3878 JUMPI GASPRICE PUSH2 0x387A JUMP JUMPDEST DUP6 JUMPDEST PUSH2 0x388D DUP9 DUP11 PUSH2 0x36FE SWAP1 SWAP2 SWAP1 PUSH4 0xFFFFFFFF AND JUMP JUMPDEST PUSH2 0x368B SWAP1 SWAP2 SWAP1 PUSH4 0xFFFFFFFF AND JUMP JUMPDEST SWAP2 POP DUP1 PUSH20 0xFFFFFFFFFFFFFFFFFFFFFFFFFFFFFFFFFFFFFFFF AND PUSH2 0x8FC DUP4 SWAP1 DUP2 ISZERO MUL SWAP1 PUSH1 0x40 MLOAD PUSH1 0x0 PUSH1 0x40 MLOAD DUP1 DUP4 SUB DUP2 DUP6 DUP9 DUP9 CALL SWAP4 POP POP POP POP PUSH2 0x3911 JUMPI PUSH1 0x40 MLOAD PUSH32 0x8C379A000000000000000000000000000000000000000000000000000000000 DUP2 MSTORE PUSH1 0x4 ADD PUSH2 0x3908 SWAP1 PUSH2 0x6265 JUMP JUMPDEST PUSH1 0x40 MLOAD DUP1 SWAP2 SUB SWAP1 REVERT JUMPDEST PUSH2 0x3988 JUMP JUMPDEST PUSH2 0x393B DUP6 PUSH2 0x392D DUP9 DUP11 PUSH2 0x36FE SWAP1 SWAP2 SWAP1 PUSH4 0xFFFFFFFF AND JUMP JUMPDEST PUSH2 0x368B SWAP1 SWAP2 SWAP1 PUSH4 0xFFFFFFFF AND JUMP JUMPDEST SWAP2 POP PUSH2 0x3948 DUP5 DUP3 DUP5 PUSH2 0x407A JUMP JUMPDEST PUSH2 0x3987 JUMPI PUSH1 0x40 MLOAD PUSH32 0x8C379A000000000000000000000000000000000000000000000000000000000 DUP2 MSTORE PUSH1 0x4 ADD PUSH2 0x397E SWAP1 PUSH2 0x62D1 JUMP JUMPDEST PUSH1 0x40 MLOAD DUP1 SWAP2 SUB SWAP1 REVERT JUMPDEST JUMPDEST POP SWAP6 SWAP5 POP POP POP POP POP JUMP JUMPDEST PUSH1 0x0 PUSH1 0x4 SLOAD EQ PUSH2 0x39D7 JUMPI PUSH1 0x40 MLOAD PUSH32 0x8C379A000000000000000000000000000000000000000000000000000000000 DUP2 MSTORE PUSH1 0x4 ADD PUSH2 0x39CE SWAP1 PUSH2 0x633D JUMP JUMPDEST PUSH1 0x40 MLOAD DUP1 SWAP2 SUB SWAP1 REVERT JUMPDEST DUP2 MLOAD DUP2 GT ISZERO PUSH2 0x3A1B JUMPI PUSH1 0x40 MLOAD PUSH32 0x8C379A000000000000000000000000000000000000000000000000000000000 DUP2 MSTORE PUSH1 0x4 ADD PUSH2 0x3A12 SWAP1 PUSH2 0x571D JUMP JUMPDEST PUSH1 0x40 MLOAD DUP1 SWAP2 SUB SWAP1 REVERT JUMPDEST PUSH1 0x1 DUP2 LT ISZERO PUSH2 0x3A5F JUMPI PUSH1 0x40 MLOAD PUSH32 0x8C379A000000000000000000000000000000000000000000000000000000000 DUP2 MSTORE PUSH1 0x4 ADD PUSH2 0x3A56 SWAP1 PUSH2 0x5789 JUMP JUMPDEST PUSH1 0x40 MLOAD DUP1 SWAP2 SUB SWAP1 REVERT JUMPDEST PUSH1 0x0 PUSH1 0x1 SWAP1 POP PUSH1 0x0 JUMPDEST DUP4 MLOAD DUP2 LT ISZERO PUSH2 0x3D0C JUMPI PUSH1 0x0 DUP5 DUP3 DUP2 MLOAD DUP2 LT PUSH2 0x3A86 JUMPI PUSH2 0x3A85 PUSH2 0x5B4C JUMP JUMPDEST JUMPDEST PUSH1 0x20 MUL PUSH1 0x20 ADD ADD MLOAD SWAP1 POP PUSH1 0x0 PUSH20 0xFFFFFFFFFFFFFFFFFFFFFFFFFFFFFFFFFFFFFFFF AND DUP2 PUSH20 0xFFFFFFFFFFFFFFFFFFFFFFFFFFFFFFFFFFFFFFFF AND EQ ISZERO DUP1 ISZERO PUSH2 0x3AFA JUMPI POP PUSH1 0x1 PUSH20 0xFFFFFFFFFFFFFFFFFFFFFFFFFFFFFFFFFFFFFFFF AND DUP2 PUSH20 0xFFFFFFFFFFFFFFFFFFFFFFFFFFFFFFFFFFFFFFFF AND EQ ISZERO JUMPDEST DUP1 ISZERO PUSH2 0x3B32 JUMPI POP ADDRESS PUSH20 0xFFFFFFFFFFFFFFFFFFFFFFFFFFFFFFFFFFFFFFFF AND DUP2 PUSH20 0xFFFFFFFFFFFFFFFFFFFFFFFFFFFFFFFFFFFFFFFF AND EQ ISZERO JUMPDEST DUP1 ISZERO PUSH2 0x3B6A JUMPI POP DUP1 PUSH20 0xFFFFFFFFFFFFFFFFFFFFFFFFFFFFFFFFFFFFFFFF AND DUP4 PUSH20 0xFFFFFFFFFFFFFFFFFFFFFFFFFFFFFFFFFFFFFFFF AND EQ ISZERO JUMPDEST PUSH2 0x3BA9 JUMPI PUSH1 0x40 MLOAD PUSH32 0x8C379A000000000000000000000000000000000000000000000000000000000 DUP2 MSTORE PUSH1 0x4 ADD PUSH2 0x3BA0 SWAP1 PUSH2 0x4EF8 JUMP JUMPDEST PUSH1 0x40 MLOAD DUP1 SWAP2 SUB SWAP1 REVERT JUMPDEST PUSH1 0x0 PUSH20 0xFFFFFFFFFFFFFFFFFFFFFFFFFFFFFFFFFFFFFFFF AND PUSH1 0x2 PUSH1 0x0 DUP4 PUSH20 0xFFFFFFFFFFFFFFFFFFFFFFFFFFFFFFFFFFFFFFFF AND PUSH20 0xFFFFFFFFFFFFFFFFFFFFFFFFFFFFFFFFFFFFFFFF AND DUP2 MSTORE PUSH1 0x20 ADD SWAP1 DUP2 MSTORE PUSH1 0x20 ADD PUSH1 0x0 KECCAK256 PUSH1 0x0 SWAP1 SLOAD SWAP1 PUSH2 0x100 EXP SWAP1 DIV PUSH20 0xFFFFFFFFFFFFFFFFFFFFFFFFFFFFFFFFFFFFFFFF AND PUSH20 0xFFFFFFFFFFFFFFFFFFFFFFFFFFFFFFFFFFFFFFFF AND EQ PUSH2 0x3C77 JUMPI PUSH1 0x40 MLOAD PUSH32 0x8C379A000000000000000000000000000000000000000000000000000000000 DUP2 MSTORE PUSH1 0x4 ADD PUSH2 0x3C6E SWAP1 PUSH2 0x4F64 JUMP JUMPDEST PUSH1 0x40 MLOAD DUP1 SWAP2 SUB SWAP1 REVERT JUMPDEST DUP1 PUSH1 0x2 PUSH1 0x0 DUP6 PUSH20 0xFFFFFFFFFFFFFFFFFFFFFFFFFFFFFFFFFFFFFFFF AND PUSH20 0xFFFFFFFFFFFFFFFFFFFFFFFFFFFFFFFFFFFFFFFF AND DUP2 MSTORE PUSH1 0x20 ADD SWAP1 DUP2 MSTORE PUSH1 0x20 ADD PUSH1 0x0 KECCAK256 PUSH1 0x0 PUSH2 0x100 EXP DUP2 SLOAD DUP2 PUSH20 0xFFFFFFFFFFFFFFFFFFFFFFFFFFFFFFFFFFFFFFFF MUL NOT AND SWAP1 DUP4 PUSH20 0xFFFFFFFFFFFFFFFFFFFFFFFFFFFFFFFFFFFFFFFF AND MUL OR SWAP1 SSTORE POP DUP1 SWAP3 POP POP DUP1 DUP1 PUSH2 0x3D04 SWAP1 PUSH2 0x4FB3 JUMP JUMPDEST SWAP2 POP POP PUSH2 0x3A68 JUMP JUMPDEST POP PUSH1 0x1 PUSH1 0x2 PUSH1 0x0 DUP4 PUSH20 0xFFFFFFFFFFFFFFFFFFFFFFFFFFFFFFFFFFFFFFFF AND PUSH20 0xFFFFFFFFFFFFFFFFFFFFFFFFFFFFFFFFFFFFFFFF AND DUP2 MSTORE PUSH1 0x20 ADD SWAP1 DUP2 MSTORE PUSH1 0x20 ADD PUSH1 0x0 KECCAK256 PUSH1 0x0 PUSH2 0x100 EXP DUP2 SLOAD DUP2 PUSH20 0xFFFFFFFFFFFFFFFFFFFFFFFFFFFFFFFFFFFFFFFF MUL NOT AND SWAP1 DUP4 PUSH20 0xFFFFFFFFFFFFFFFFFFFFFFFFFFFFFFFFFFFFFFFF AND MUL OR SWAP1 SSTORE POP DUP3 MLOAD PUSH1 0x3 DUP2 SWAP1 SSTORE POP DUP2 PUSH1 0x4 DUP2 SWAP1 SSTORE POP POP POP POP JUMP JUMPDEST ADDRESS PUSH20 0xFFFFFFFFFFFFFFFFFFFFFFFFFFFFFFFFFFFFFFFF AND DUP2 PUSH20 0xFFFFFFFFFFFFFFFFFFFFFFFFFFFFFFFFFFFFFFFF AND SUB PUSH2 0x3E0E JUMPI PUSH1 0x40 MLOAD PUSH32 0x8C379A000000000000000000000000000000000000000000000000000000000 DUP2 MSTORE PUSH1 0x4 ADD PUSH2 0x3E05 SWAP1 PUSH2 0x63A9 JUMP JUMPDEST PUSH1 0x40 MLOAD DUP1 SWAP2 SUB SWAP1 REVERT JUMPDEST PUSH1 0x0 PUSH32 0x6C9A6C4A39284E37ED1CF53D337577D14212A4870FB976A4366C693B939918D5 PUSH1 0x0 SHL SWAP1 POP DUP2 DUP2 SSTORE POP POP JUMP JUMPDEST PUSH1 0x0 PUSH20 0xFFFFFFFFFFFFFFFFFFFFFFFFFFFFFFFFFFFFFFFF AND PUSH1 0x1 PUSH1 0x0 PUSH1 0x1 PUSH20 0xFFFFFFFFFFFFFFFFFFFFFFFFFFFFFFFFFFFFFFFF AND PUSH20 0xFFFFFFFFFFFFFFFFFFFFFFFFFFFFFFFFFFFFFFFF AND DUP2 MSTORE PUSH1 0x20 ADD SWAP1 DUP2 MSTORE PUSH1 0x20 ADD PUSH1 0x0 KECCAK256 PUSH1 0x0 SWAP1 SLOAD SWAP1 PUSH2 0x100 EXP SWAP1 DIV PUSH20 0xFFFFFFFFFFFFFFFFFFFFFFFFFFFFFFFFFFFFFFFF AND PUSH20 0xFFFFFFFFFFFFFFFFFFFFFFFFFFFFFFFFFFFFFFFF AND EQ PUSH2 0x3F0C JUMPI PUSH1 0x40 MLOAD PUSH32 0x8C379A000000000000000000000000000000000000000000000000000000000 DUP2 MSTORE PUSH1 0x4 ADD PUSH2 0x3F03 SWAP1 PUSH2 0x6415 JUMP JUMPDEST PUSH1 0x40 MLOAD DUP1 SWAP2 SUB SWAP1 REVERT JUMPDEST PUSH1 0x1 DUP1 PUSH1 0x0 PUSH1 0x1 PUSH20 0xFFFFFFFFFFFFFFFFFFFFFFFFFFFFFFFFFFFFFFFF AND PUSH20 0xFFFFFFFFFFFFFFFFFFFFFFFFFFFFFFFFFFFFFFFF AND DUP2 MSTORE PUSH1 0x20 ADD SWAP1 DUP2 MSTORE PUSH1 0x20 ADD PUSH1 0x0 KECCAK256 PUSH1 0x0 PUSH2 0x100 EXP DUP2 SLOAD DUP2 PUSH20 0xFFFFFFFFFFFFFFFFFFFFFFFFFFFFFFFFFFFFFFFF MUL NOT AND SWAP1 DUP4 PUSH20 0xFFFFFFFFFFFFFFFFFFFFFFFFFFFFFFFFFFFFFFFF AND MUL OR SWAP1 SSTORE POP PUSH1 0x0 PUSH20 0xFFFFFFFFFFFFFFFFFFFFFFFFFFFFFFFFFFFFFFFF AND DUP3 PUSH20 0xFFFFFFFFFFFFFFFFFFFFFFFFFFFFFFFFFFFFFFFF AND EQ PUSH2 0x4076 JUMPI PUSH2 0x3FC8 DUP3 PUSH2 0x4122 JUMP JUMPDEST PUSH2 0x4007 JUMPI PUSH1 0x40 MLOAD PUSH32 0x8C379A000000000000000000000000000000000000000000000000000000000 DUP2 MSTORE PUSH1 0x4 ADD PUSH2 0x3FFE SWAP1 PUSH2 0x6481 JUMP JUMPDEST PUSH1 0x40 MLOAD DUP1 SWAP2 SUB SWAP1 REVERT JUMPDEST PUSH2 0x4036 DUP3 PUSH1 0x0 DUP4 PUSH1 0x1 PUSH32 0xFFFFFFFFFFFFFFFFFFFFFFFFFFFFFFFFFFFFFFFFFFFFFFFFFFFFFFFFFFFFFFFF PUSH2 0x3726 JUMP JUMPDEST PUSH2 0x4075 JUMPI PUSH1 0x40 MLOAD PUSH32 0x8C379A000000000000000000000000000000000000000000000000000000000 DUP2 MSTORE PUSH1 0x4 ADD PUSH2 0x406C SWAP1 PUSH2 0x64ED JUMP JUMPDEST PUSH1 0x40 MLOAD DUP1 SWAP2 SUB SWAP1 REVERT JUMPDEST JUMPDEST POP POP JUMP JUMPDEST PUSH1 0x0 DUP1 PUSH4 0xA9059CBB DUP5 DUP5 PUSH1 0x40 MLOAD PUSH1 0x24 ADD PUSH2 0x4095 SWAP3 SWAP2 SWAP1 PUSH2 0x650D JUMP JUMPDEST PUSH1 0x40 MLOAD PUSH1 0x20 DUP2 DUP4 SUB SUB DUP2 MSTORE SWAP1 PUSH1 0x40 MSTORE SWAP1 PUSH1 0xE0 SHL PUSH1 0x20 DUP3 ADD DUP1 MLOAD PUSH28 0xFFFFFFFFFFFFFFFFFFFFFFFFFFFFFFFFFFFFFFFFFFFFFFFFFFFFFFFF DUP4 DUP2 DUP4 AND OR DUP4 MSTORE POP POP POP POP SWAP1 POP PUSH1 0x20 PUSH1 0x0 DUP3 MLOAD PUSH1 0x20 DUP5 ADD PUSH1 0x0 DUP10 PUSH2 0x2710 GAS SUB CALL RETURNDATASIZE PUSH1 0x0 DUP2 EQ PUSH2 0x4105 JUMPI PUSH1 0x20 DUP2 EQ PUSH2 0x410D JUMPI PUSH1 0x0 SWAP4 POP PUSH2 0x4118 JUMP JUMPDEST DUP2 SWAP4 POP PUSH2 0x4118 JUMP JUMPDEST PUSH1 0x0 MLOAD ISZERO DUP3 ISZERO OR ISZERO SWAP4 POP JUMPDEST POP POP POP SWAP4 SWAP3 POP POP POP JUMP JUMPDEST PUSH1 0x0 DUP1 DUP3 EXTCODESIZE SWAP1 POP PUSH1 0x0 DUP2 GT SWAP2 POP POP SWAP2 SWAP1 POP JUMP JUMPDEST PUSH1 0x0 DUP2 SWAP1 POP SWAP2 SWAP1 POP JUMP JUMPDEST PUSH2 0x4148 DUP2 PUSH2 0x4135 JUMP JUMPDEST DUP3 MSTORE POP POP JUMP JUMPDEST PUSH1 0x0 PUSH1 0x20 DUP3 ADD SWAP1 POP PUSH2 0x4163 PUSH1 0x0 DUP4 ADD DUP5 PUSH2 0x413F JUMP JUMPDEST SWAP3 SWAP2 POP POP JUMP JUMPDEST PUSH1 0x0 PUSH1 0x40 MLOAD SWAP1 POP SWAP1 JUMP JUMPDEST PUSH1 0x0 DUP1 REVERT JUMPDEST PUSH1 0x0 DUP1 REVERT JUMPDEST PUSH1 0x0 PUSH20 0xFFFFFFFFFFFFFFFFFFFFFFFFFFFFFFFFFFFFFFFF DUP3 AND SWAP1 POP SWAP2 SWAP1 POP JUMP JUMPDEST PUSH1 0x0 PUSH2 0x41A8 DUP3 PUSH2 0x417D JUMP JUMPDEST SWAP1 POP SWAP2 SWAP1 POP JUMP JUMPDEST PUSH2 0x41B8 DUP2 PUSH2 0x419D JUMP JUMPDEST DUP2 EQ PUSH2 0x41C3 JUMPI PUSH1 0x0 DUP1 REVERT JUMPDEST POP JUMP JUMPDEST PUSH1 0x0 DUP2 CALLDATALOAD SWAP1 POP PUSH2 0x41D5 DUP2 PUSH2 0x41AF JUMP JUMPDEST SWAP3 SWAP2 POP POP JUMP JUMPDEST PUSH2 0x41E4 DUP2 PUSH2 0x4135 JUMP JUMPDEST DUP2 EQ PUSH2 0x41EF JUMPI PUSH1 0x0 DUP1 REVERT JUMPDEST POP JUMP JUMPDEST PUSH1 0x0 DUP2 CALLDATALOAD SWAP1 POP PUSH2 0x4201 DUP2 PUSH2 0x41DB JUMP JUMPDEST SWAP3 SWAP2 POP POP JUMP JUMPDEST PUSH1 0x0 DUP1 PUSH1 0x40 DUP4 DUP6 SUB SLT ISZERO PUSH2 0x421E JUMPI PUSH2 0x421D PUSH2 0x4173 JUMP JUMPDEST JUMPDEST PUSH1 0x0 PUSH2 0x422C DUP6 DUP3 DUP7 ADD PUSH2 0x41C6 JUMP JUMPDEST SWAP3 POP POP PUSH1 0x20 PUSH2 0x423D DUP6 DUP3 DUP7 ADD PUSH2 0x41F2 JUMP JUMPDEST SWAP2 POP POP SWAP3 POP SWAP3 SWAP1 POP JUMP JUMPDEST PUSH1 0x0 DUP2 SWAP1 POP SWAP2 SWAP1 POP JUMP JUMPDEST PUSH2 0x425A DUP2 PUSH2 0x4247 JUMP JUMPDEST DUP2 EQ PUSH2 0x4265 JUMPI PUSH1 0x0 DUP1 REVERT JUMPDEST POP JUMP JUMPDEST PUSH1 0x0 DUP2 CALLDATALOAD SWAP1 POP PUSH2 0x4277 DUP2 PUSH2 0x4251 JUMP JUMPDEST SWAP3 SWAP2 POP POP JUMP JUMPDEST PUSH1 0x0 DUP1 REVERT JUMPDEST PUSH1 0x0 DUP1 REVERT JUMPDEST PUSH1 0x0 PUSH1 0x1F NOT PUSH1 0x1F DUP4 ADD AND SWAP1 POP SWAP2 SWAP1 POP JUMP JUMPDEST PUSH32 0x4E487B7100000000000000000000000000000000000000000000000000000000 PUSH1 0x0 MSTORE PUSH1 0x41 PUSH1 0x4 MSTORE PUSH1 0x24 PUSH1 0x0 REVERT JUMPDEST PUSH2 0x42D0 DUP3 PUSH2 0x4287 JUMP JUMPDEST DUP2 ADD DUP2 DUP2 LT PUSH8 0xFFFFFFFFFFFFFFFF DUP3 GT OR ISZERO PUSH2 0x42EF JUMPI PUSH2 0x42EE PUSH2 0x4298 JUMP JUMPDEST JUMPDEST DUP1 PUSH1 0x40 MSTORE POP POP POP JUMP JUMPDEST PUSH1 0x0 PUSH2 0x4302 PUSH2 0x4169 JUMP JUMPDEST SWAP1 POP PUSH2 0x430E DUP3 DUP3 PUSH2 0x42C7 JUMP JUMPDEST SWAP2 SWAP1 POP JUMP JUMPDEST PUSH1 0x0 PUSH8 0xFFFFFFFFFFFFFFFF DUP3 GT ISZERO PUSH2 0x432E JUMPI PUSH2 0x432D PUSH2 0x4298 JUMP JUMPDEST JUMPDEST PUSH2 0x4337 DUP3 PUSH2 0x4287 JUMP JUMPDEST SWAP1 POP PUSH1 0x20 DUP2 ADD SWAP1 POP SWAP2 SWAP1 POP JUMP JUMPDEST DUP3 DUP2 DUP4 CALLDATACOPY PUSH1 0x0 DUP4 DUP4 ADD MSTORE POP POP POP JUMP JUMPDEST PUSH1 0x0 PUSH2 0x4366 PUSH2 0x4361 DUP5 PUSH2 0x4313 JUMP JUMPDEST PUSH2 0x42F8 JUMP JUMPDEST SWAP1 POP DUP3 DUP2 MSTORE PUSH1 0x20 DUP2 ADD DUP5 DUP5 DUP5 ADD GT ISZERO PUSH2 0x4382 JUMPI PUSH2 0x4381 PUSH2 0x4282 JUMP JUMPDEST JUMPDEST PUSH2 0x438D DUP5 DUP3 DUP6 PUSH2 0x4344 JUMP JUMPDEST POP SWAP4 SWAP3 POP POP POP JUMP JUMPDEST PUSH1 0x0 DUP3 PUSH1 0x1F DUP4 ADD SLT PUSH2 0x43AA JUMPI PUSH2 0x43A9 PUSH2 0x427D JUMP JUMPDEST JUMPDEST DUP2 CALLDATALOAD PUSH2 0x43BA DUP5 DUP3 PUSH1 0x20 DUP7 ADD PUSH2 0x4353 JUMP JUMPDEST SWAP2 POP POP SWAP3 SWAP2 POP POP JUMP JUMPDEST PUSH1 0x0 DUP1 PUSH1 0x0 DUP1 PUSH1 0x80 DUP6 DUP8 SUB SLT ISZERO PUSH2 0x43DD JUMPI PUSH2 0x43DC PUSH2 0x4173 JUMP JUMPDEST JUMPDEST PUSH1 0x0 PUSH2 0x43EB DUP8 DUP3 DUP9 ADD PUSH2 0x4268 JUMP JUMPDEST SWAP5 POP POP PUSH1 0x20 DUP6 ADD CALLDATALOAD PUSH8 0xFFFFFFFFFFFFFFFF DUP2 GT ISZERO PUSH2 0x440C JUMPI PUSH2 0x440B PUSH2 0x4178 JUMP JUMPDEST JUMPDEST PUSH2 0x4418 DUP8 DUP3 DUP9 ADD PUSH2 0x4395 JUMP JUMPDEST SWAP4 POP POP PUSH1 0x40 DUP6 ADD CALLDATALOAD PUSH8 0xFFFFFFFFFFFFFFFF DUP2 GT ISZERO PUSH2 0x4439 JUMPI PUSH2 0x4438 PUSH2 0x4178 JUMP JUMPDEST JUMPDEST PUSH2 0x4445 DUP8 DUP3 DUP9 ADD PUSH2 0x4395 JUMP JUMPDEST SWAP3 POP POP PUSH1 0x60 PUSH2 0x4456 DUP8 DUP3 DUP9 ADD PUSH2 0x41F2 JUMP JUMPDEST SWAP2 POP POP SWAP3 SWAP6 SWAP2 SWAP5 POP SWAP3 POP JUMP JUMPDEST PUSH1 0x0 PUSH1 0x20 DUP3 DUP5 SUB SLT ISZERO PUSH2 0x4478 JUMPI PUSH2 0x4477 PUSH2 0x4173 JUMP JUMPDEST JUMPDEST PUSH1 0x0 PUSH2 0x4486 DUP5 DUP3 DUP6 ADD PUSH2 0x41C6 JUMP JUMPDEST SWAP2 POP POP SWAP3 SWAP2 POP POP JUMP JUMPDEST PUSH1 0x0 DUP2 ISZERO ISZERO SWAP1 POP SWAP2 SWAP1 POP JUMP JUMPDEST PUSH2 0x44A4 DUP2 PUSH2 0x448F JUMP JUMPDEST DUP3 MSTORE POP POP JUMP JUMPDEST PUSH1 0x0 PUSH1 0x20 DUP3 ADD SWAP1 POP PUSH2 0x44BF PUSH1 0x0 DUP4 ADD DUP5 PUSH2 0x449B JUMP JUMPDEST SWAP3 SWAP2 POP POP JUMP JUMPDEST PUSH1 0x2 DUP2 LT PUSH2 0x44D2 JUMPI PUSH1 0x0 DUP1 REVERT JUMPDEST POP JUMP JUMPDEST PUSH1 0x0 DUP2 CALLDATALOAD SWAP1 POP PUSH2 0x44E4 DUP2 PUSH2 0x44C5 JUMP JUMPDEST SWAP3 SWAP2 POP POP JUMP JUMPDEST PUSH1 0x0 DUP1 PUSH1 0x0 DUP1 PUSH1 0x80 DUP6 DUP8 SUB SLT ISZERO PUSH2 0x4504 JUMPI PUSH2 0x4503 PUSH2 0x4173 JUMP JUMPDEST JUMPDEST PUSH1 0x0 PUSH2 0x4512 DUP8 DUP3 DUP9 ADD PUSH2 0x41C6 JUMP JUMPDEST SWAP5 POP POP PUSH1 0x20 PUSH2 0x4523 DUP8 DUP3 DUP9 ADD PUSH2 0x41F2 JUMP JUMPDEST SWAP4 POP POP PUSH1 0x40 DUP6 ADD CALLDATALOAD PUSH8 0xFFFFFFFFFFFFFFFF DUP2 GT ISZERO PUSH2 0x4544 JUMPI PUSH2 0x4543 PUSH2 0x4178 JUMP JUMPDEST JUMPDEST PUSH2 0x4550 DUP8 DUP3 DUP9 ADD PUSH2 0x4395 JUMP JUMPDEST SWAP3 POP POP PUSH1 0x60 PUSH2 0x4561 DUP8 DUP3 DUP9 ADD PUSH2 0x44D5 JUMP JUMPDEST SWAP2 POP POP SWAP3 SWAP6 SWAP2 SWAP5 POP SWAP3 POP JUMP JUMPDEST PUSH1 0x0 DUP2 MLOAD SWAP1 POP SWAP2 SWAP1 POP JUMP JUMPDEST PUSH1 0x0 DUP3 DUP3 MSTORE PUSH1 0x20 DUP3 ADD SWAP1 POP SWAP3 SWAP2 POP POP JUMP JUMPDEST PUSH1 0x0 JUMPDEST DUP4 DUP2 LT ISZERO PUSH2 0x45A7 JUMPI DUP1 DUP3 ADD MLOAD DUP2 DUP5 ADD MSTORE PUSH1 0x20 DUP2 ADD SWAP1 POP PUSH2 0x458C JUMP JUMPDEST PUSH1 0x0 DUP5 DUP5 ADD MSTORE POP POP POP POP JUMP JUMPDEST PUSH1 0x0 PUSH2 0x45BE DUP3 PUSH2 0x456D JUMP JUMPDEST PUSH2 0x45C8 DUP2 DUP6 PUSH2 0x4578 JUMP JUMPDEST SWAP4 POP PUSH2 0x45D8 DUP2 DUP6 PUSH1 0x20 DUP7 ADD PUSH2 0x4589 JUMP JUMPDEST PUSH2 0x45E1 DUP2 PUSH2 0x4287 JUMP JUMPDEST DUP5 ADD SWAP2 POP POP SWAP3 SWAP2 POP POP JUMP JUMPDEST PUSH1 0x0 PUSH1 0x40 DUP3 ADD SWAP1 POP PUSH2 0x4601 PUSH1 0x0 DUP4 ADD DUP6 PUSH2 0x449B JUMP JUMPDEST DUP2 DUP2 SUB PUSH1 0x20 DUP4 ADD MSTORE PUSH2 0x4613 DUP2 DUP5 PUSH2 0x45B3 JUMP JUMPDEST SWAP1 POP SWAP4 SWAP3 POP POP POP JUMP JUMPDEST PUSH1 0x0 DUP1 PUSH1 0x40 DUP4 DUP6 SUB SLT ISZERO PUSH2 0x4633 JUMPI PUSH2 0x4632 PUSH2 0x4173 JUMP JUMPDEST JUMPDEST PUSH1 0x0 PUSH2 0x4641 DUP6 DUP3 DUP7 ADD PUSH2 0x41F2 JUMP JUMPDEST SWAP3 POP POP PUSH1 0x20 PUSH2 0x4652 DUP6 DUP3 DUP7 ADD PUSH2 0x41F2 JUMP JUMPDEST SWAP2 POP POP SWAP3 POP SWAP3 SWAP1 POP JUMP JUMPDEST PUSH1 0x0 PUSH1 0x20 DUP3 ADD SWAP1 POP DUP2 DUP2 SUB PUSH1 0x0 DUP4 ADD MSTORE PUSH2 0x4676 DUP2 DUP5 PUSH2 0x45B3 JUMP JUMPDEST SWAP1 POP SWAP3 SWAP2 POP POP JUMP JUMPDEST PUSH1 0x0 PUSH1 0x20 DUP3 DUP5 SUB SLT ISZERO PUSH2 0x4694 JUMPI PUSH2 0x4693 PUSH2 0x4173 JUMP JUMPDEST JUMPDEST PUSH1 0x0 PUSH2 0x46A2 DUP5 DUP3 DUP6 ADD PUSH2 0x4268 JUMP JUMPDEST SWAP2 POP POP SWAP3 SWAP2 POP POP JUMP JUMPDEST PUSH1 0x0 PUSH1 0x20 DUP3 DUP5 SUB SLT ISZERO PUSH2 0x46C1 JUMPI PUSH2 0x46C0 PUSH2 0x4173 JUMP JUMPDEST JUMPDEST PUSH1 0x0 PUSH2 0x46CF DUP5 DUP3 DUP6 ADD PUSH2 0x41F2 JUMP JUMPDEST SWAP2 POP POP SWAP3 SWAP2 POP POP JUMP JUMPDEST PUSH1 0x0 DUP1 REVERT JUMPDEST PUSH1 0x0 DUP1 REVERT JUMPDEST PUSH1 0x0 DUP1 DUP4 PUSH1 0x1F DUP5 ADD SLT PUSH2 0x46F8 JUMPI PUSH2 0x46F7 PUSH2 0x427D JUMP JUMPDEST JUMPDEST DUP3 CALLDATALOAD SWAP1 POP PUSH8 0xFFFFFFFFFFFFFFFF DUP2 GT ISZERO PUSH2 0x4715 JUMPI PUSH2 0x4714 PUSH2 0x46D8 JUMP JUMPDEST JUMPDEST PUSH1 0x20 DUP4 ADD SWAP2 POP DUP4 PUSH1 0x1 DUP3 MUL DUP4 ADD GT ISZERO PUSH2 0x4731 JUMPI PUSH2 0x4730 PUSH2 0x46DD JUMP JUMPDEST JUMPDEST SWAP3 POP SWAP3 SWAP1 POP JUMP JUMPDEST PUSH1 0x0 PUSH2 0x4743 DUP3 PUSH2 0x417D JUMP JUMPDEST SWAP1 POP SWAP2 SWAP1 POP JUMP JUMPDEST PUSH2 0x4753 DUP2 PUSH2 0x4738 JUMP JUMPDEST DUP2 EQ PUSH2 0x475E JUMPI PUSH1 0x0 DUP1 REVERT JUMPDEST POP JUMP JUMPDEST PUSH1 0x0 DUP2 CALLDATALOAD SWAP1 POP PUSH2 0x4770 DUP2 PUSH2 0x474A JUMP JUMPDEST SWAP3 SWAP2 POP POP JUMP JUMPDEST PUSH1 0x0 DUP1 PUSH1 0x0 DUP1 PUSH1 0x0 DUP1 PUSH1 0x0 DUP1 PUSH1 0x0 DUP1 PUSH1 0x0 PUSH2 0x140 DUP13 DUP15 SUB SLT ISZERO PUSH2 0x479C JUMPI PUSH2 0x479B PUSH2 0x4173 JUMP JUMPDEST JUMPDEST PUSH1 0x0 PUSH2 0x47AA DUP15 DUP3 DUP16 ADD PUSH2 0x41C6 JUMP JUMPDEST SWAP12 POP POP PUSH1 0x20 PUSH2 0x47BB DUP15 DUP3 DUP16 ADD PUSH2 0x41F2 JUMP JUMPDEST SWAP11 POP POP PUSH1 0x40 DUP13 ADD CALLDATALOAD PUSH8 0xFFFFFFFFFFFFFFFF DUP2 GT ISZERO PUSH2 0x47DC JUMPI PUSH2 0x47DB PUSH2 0x4178 JUMP JUMPDEST JUMPDEST PUSH2 0x47E8 DUP15 DUP3 DUP16 ADD PUSH2 0x46E2 JUMP JUMPDEST SWAP10 POP SWAP10 POP POP PUSH1 0x60 PUSH2 0x47FB DUP15 DUP3 DUP16 ADD PUSH2 0x44D5 JUMP JUMPDEST SWAP8 POP POP PUSH1 0x80 PUSH2 0x480C DUP15 DUP3 DUP16 ADD PUSH2 0x41F2 JUMP JUMPDEST SWAP7 POP POP PUSH1 0xA0 PUSH2 0x481D DUP15 DUP3 DUP16 ADD PUSH2 0x41F2 JUMP JUMPDEST SWAP6 POP POP PUSH1 0xC0 PUSH2 0x482E DUP15 DUP3 DUP16 ADD PUSH2 0x41F2 JUMP JUMPDEST SWAP5 POP POP PUSH1 0xE0 PUSH2 0x483F DUP15 DUP3 DUP16 ADD PUSH2 0x41C6 JUMP JUMPDEST SWAP4 POP POP PUSH2 0x100 PUSH2 0x4851 DUP15 DUP3 DUP16 ADD PUSH2 0x4761 JUMP JUMPDEST SWAP3 POP POP PUSH2 0x120 DUP13 ADD CALLDATALOAD PUSH8 0xFFFFFFFFFFFFFFFF DUP2 GT ISZERO PUSH2 0x4873 JUMPI PUSH2 0x4872 PUSH2 0x4178 JUMP JUMPDEST JUMPDEST PUSH2 0x487F DUP15 DUP3 DUP16 ADD PUSH2 0x4395 JUMP JUMPDEST SWAP2 POP POP SWAP3 SWAP6 SWAP9 SWAP12 POP SWAP3 SWAP6 SWAP9 SWAP12 SWAP1 SWAP4 SWAP7 SWAP10 POP JUMP JUMPDEST PUSH1 0x0 DUP1 PUSH1 0x40 DUP4 DUP6 SUB SLT ISZERO PUSH2 0x48A9 JUMPI PUSH2 0x48A8 PUSH2 0x4173 JUMP JUMPDEST JUMPDEST PUSH1 0x0 PUSH2 0x48B7 DUP6 DUP3 DUP7 ADD PUSH2 0x41C6 JUMP JUMPDEST SWAP3 POP POP PUSH1 0x20 PUSH2 0x48C8 DUP6 DUP3 DUP7 ADD PUSH2 0x4268 JUMP JUMPDEST SWAP2 POP POP SWAP3 POP SWAP3 SWAP1 POP JUMP JUMPDEST PUSH1 0x0 DUP1 PUSH1 0x0 PUSH1 0x60 DUP5 DUP7 SUB SLT ISZERO PUSH2 0x48EB JUMPI PUSH2 0x48EA PUSH2 0x4173 JUMP JUMPDEST JUMPDEST PUSH1 0x0 PUSH2 0x48F9 DUP7 DUP3 DUP8 ADD PUSH2 0x4268 JUMP JUMPDEST SWAP4 POP POP PUSH1 0x20 DUP5 ADD CALLDATALOAD PUSH8 0xFFFFFFFFFFFFFFFF DUP2 GT ISZERO PUSH2 0x491A JUMPI PUSH2 0x4919 PUSH2 0x4178 JUMP JUMPDEST JUMPDEST PUSH2 0x4926 DUP7 DUP3 DUP8 ADD PUSH2 0x4395 JUMP JUMPDEST SWAP3 POP POP PUSH1 0x40 DUP5 ADD CALLDATALOAD PUSH8 0xFFFFFFFFFFFFFFFF DUP2 GT ISZERO PUSH2 0x4947 JUMPI PUSH2 0x4946 PUSH2 0x4178 JUMP JUMPDEST JUMPDEST PUSH2 0x4953 DUP7 DUP3 DUP8 ADD PUSH2 0x4395 JUMP JUMPDEST SWAP2 POP POP SWAP3 POP SWAP3 POP SWAP3 JUMP JUMPDEST PUSH1 0x0 DUP2 MLOAD SWAP1 POP SWAP2 SWAP1 POP JUMP JUMPDEST PUSH1 0x0 DUP3 DUP3 MSTORE PUSH1 0x20 DUP3 ADD SWAP1 POP SWAP3 SWAP2 POP POP JUMP JUMPDEST PUSH1 0x0 DUP2 SWAP1 POP PUSH1 0x20 DUP3 ADD SWAP1 POP SWAP2 SWAP1 POP JUMP JUMPDEST PUSH2 0x4992 DUP2 PUSH2 0x419D JUMP JUMPDEST DUP3 MSTORE POP POP JUMP JUMPDEST PUSH1 0x0 PUSH2 0x49A4 DUP4 DUP4 PUSH2 0x4989 JUMP JUMPDEST PUSH1 0x20 DUP4 ADD SWAP1 POP SWAP3 SWAP2 POP POP JUMP JUMPDEST PUSH1 0x0 PUSH1 0x20 DUP3 ADD SWAP1 POP SWAP2 SWAP1 POP JUMP JUMPDEST PUSH1 0x0 PUSH2 0x49C8 DUP3 PUSH2 0x495D JUMP JUMPDEST PUSH2 0x49D2 DUP2 DUP6 PUSH2 0x4968 JUMP JUMPDEST SWAP4 POP PUSH2 0x49DD DUP4 PUSH2 0x4979 JUMP JUMPDEST DUP1 PUSH1 0x0 JUMPDEST DUP4 DUP2 LT ISZERO PUSH2 0x4A0E JUMPI DUP2 MLOAD PUSH2 0x49F5 DUP9 DUP3 PUSH2 0x4998 JUMP JUMPDEST SWAP8 POP PUSH2 0x4A00 DUP4 PUSH2 0x49B0 JUMP JUMPDEST SWAP3 POP POP PUSH1 0x1 DUP2 ADD SWAP1 POP PUSH2 0x49E1 JUMP JUMPDEST POP DUP6 SWAP4 POP POP POP POP SWAP3 SWAP2 POP POP JUMP JUMPDEST PUSH1 0x0 PUSH1 0x20 DUP3 ADD SWAP1 POP DUP2 DUP2 SUB PUSH1 0x0 DUP4 ADD MSTORE PUSH2 0x4A35 DUP2 DUP5 PUSH2 0x49BD JUMP JUMPDEST SWAP1 POP SWAP3 SWAP2 POP POP JUMP JUMPDEST PUSH1 0x0 DUP1 PUSH1 0x40 DUP4 DUP6 SUB SLT ISZERO PUSH2 0x4A54 JUMPI PUSH2 0x4A53 PUSH2 0x4173 JUMP JUMPDEST JUMPDEST PUSH1 0x0 PUSH2 0x4A62 DUP6 DUP3 DUP7 ADD PUSH2 0x41C6 JUMP JUMPDEST SWAP3 POP POP PUSH1 0x20 DUP4 ADD CALLDATALOAD PUSH8 0xFFFFFFFFFFFFFFFF DUP2 GT ISZERO PUSH2 0x4A83 JUMPI PUSH2 0x4A82 PUSH2 0x4178 JUMP JUMPDEST JUMPDEST PUSH2 0x4A8F DUP6 DUP3 DUP7 ADD PUSH2 0x4395 JUMP JUMPDEST SWAP2 POP POP SWAP3 POP SWAP3 SWAP1 POP JUMP JUMPDEST PUSH1 0x0 DUP1 DUP4 PUSH1 0x1F DUP5 ADD SLT PUSH2 0x4AAF JUMPI PUSH2 0x4AAE PUSH2 0x427D JUMP JUMPDEST JUMPDEST DUP3 CALLDATALOAD SWAP1 POP PUSH8 0xFFFFFFFFFFFFFFFF DUP2 GT ISZERO PUSH2 0x4ACC JUMPI PUSH2 0x4ACB PUSH2 0x46D8 JUMP JUMPDEST JUMPDEST PUSH1 0x20 DUP4 ADD SWAP2 POP DUP4 PUSH1 0x20 DUP3 MUL DUP4 ADD GT ISZERO PUSH2 0x4AE8 JUMPI PUSH2 0x4AE7 PUSH2 0x46DD JUMP JUMPDEST JUMPDEST SWAP3 POP SWAP3 SWAP1 POP JUMP JUMPDEST PUSH1 0x0 DUP1 PUSH1 0x0 DUP1 PUSH1 0x0 DUP1 PUSH1 0x0 DUP1 PUSH1 0x0 DUP1 PUSH2 0x100 DUP12 DUP14 SUB SLT ISZERO PUSH2 0x4B13 JUMPI PUSH2 0x4B12 PUSH2 0x4173 JUMP JUMPDEST JUMPDEST PUSH1 0x0 DUP12 ADD CALLDATALOAD PUSH8 0xFFFFFFFFFFFFFFFF DUP2 GT ISZERO PUSH2 0x4B31 JUMPI PUSH2 0x4B30 PUSH2 0x4178 JUMP JUMPDEST JUMPDEST PUSH2 0x4B3D DUP14 DUP3 DUP15 ADD PUSH2 0x4A99 JUMP JUMPDEST SWAP11 POP SWAP11 POP POP PUSH1 0x20 PUSH2 0x4B50 DUP14 DUP3 DUP15 ADD PUSH2 0x41F2 JUMP JUMPDEST SWAP9 POP POP PUSH1 0x40 PUSH2 0x4B61 DUP14 DUP3 DUP15 ADD PUSH2 0x41C6 JUMP JUMPDEST SWAP8 POP POP PUSH1 0x60 DUP12 ADD CALLDATALOAD PUSH8 0xFFFFFFFFFFFFFFFF DUP2 GT ISZERO PUSH2 0x4B82 JUMPI PUSH2 0x4B81 PUSH2 0x4178 JUMP JUMPDEST JUMPDEST PUSH2 0x4B8E DUP14 DUP3 DUP15 ADD PUSH2 0x46E2 JUMP JUMPDEST SWAP7 POP SWAP7 POP POP PUSH1 0x80 PUSH2 0x4BA1 DUP14 DUP3 DUP15 ADD PUSH2 0x41C6 JUMP JUMPDEST SWAP5 POP POP PUSH1 0xA0 PUSH2 0x4BB2 DUP14 DUP3 DUP15 ADD PUSH2 0x41C6 JUMP JUMPDEST SWAP4 POP POP PUSH1 0xC0 PUSH2 0x4BC3 DUP14 DUP3 DUP15 ADD PUSH2 0x41F2 JUMP JUMPDEST SWAP3 POP POP PUSH1 0xE0 PUSH2 0x4BD4 DUP14 DUP3 DUP15 ADD PUSH2 0x4761 JUMP JUMPDEST SWAP2 POP POP SWAP3 SWAP6 SWAP9 SWAP12 SWAP2 SWAP5 SWAP8 SWAP11 POP SWAP3 SWAP6 SWAP9 POP JUMP JUMPDEST PUSH2 0x4BEF DUP2 PUSH2 0x419D JUMP JUMPDEST DUP3 MSTORE POP POP JUMP JUMPDEST PUSH1 0x0 PUSH1 0x40 DUP3 ADD SWAP1 POP DUP2 DUP2 SUB PUSH1 0x0 DUP4 ADD MSTORE PUSH2 0x4C0F DUP2 DUP6 PUSH2 0x49BD JUMP JUMPDEST SWAP1 POP PUSH2 0x4C1E PUSH1 0x20 DUP4 ADD DUP5 PUSH2 0x4BE6 JUMP JUMPDEST SWAP4 SWAP3 POP POP POP JUMP JUMPDEST PUSH1 0x0 DUP1 PUSH1 0x0 DUP1 PUSH1 0x0 DUP1 PUSH1 0x0 DUP1 PUSH1 0x0 DUP1 PUSH1 0x0 PUSH2 0x140 DUP13 DUP15 SUB SLT ISZERO PUSH2 0x4C4B JUMPI PUSH2 0x4C4A PUSH2 0x4173 JUMP JUMPDEST JUMPDEST PUSH1 0x0 PUSH2 0x4C59 DUP15 DUP3 DUP16 ADD PUSH2 0x41C6 JUMP JUMPDEST SWAP12 POP POP PUSH1 0x20 PUSH2 0x4C6A DUP15 DUP3 DUP16 ADD PUSH2 0x41F2 JUMP JUMPDEST SWAP11 POP POP PUSH1 0x40 DUP13 ADD CALLDATALOAD PUSH8 0xFFFFFFFFFFFFFFFF DUP2 GT ISZERO PUSH2 0x4C8B JUMPI PUSH2 0x4C8A PUSH2 0x4178 JUMP JUMPDEST JUMPDEST PUSH2 0x4C97 DUP15 DUP3 DUP16 ADD PUSH2 0x46E2 JUMP JUMPDEST SWAP10 POP SWAP10 POP POP PUSH1 0x60 PUSH2 0x4CAA DUP15 DUP3 DUP16 ADD PUSH2 0x44D5 JUMP JUMPDEST SWAP8 POP POP PUSH1 0x80 PUSH2 0x4CBB DUP15 DUP3 DUP16 ADD PUSH2 0x41F2 JUMP JUMPDEST SWAP7 POP POP PUSH1 0xA0 PUSH2 0x4CCC DUP15 DUP3 DUP16 ADD PUSH2 0x41F2 JUMP JUMPDEST SWAP6 POP POP PUSH1 0xC0 PUSH2 0x4CDD DUP15 DUP3 DUP16 ADD PUSH2 0x41F2 JUMP JUMPDEST SWAP5 POP POP PUSH1 0xE0 PUSH2 0x4CEE DUP15 DUP3 DUP16 ADD PUSH2 0x41C6 JUMP JUMPDEST SWAP4 POP POP PUSH2 0x100 PUSH2 0x4D00 DUP15 DUP3 DUP16 ADD PUSH2 0x41C6 JUMP JUMPDEST SWAP3 POP POP PUSH2 0x120 PUSH2 0x4D12 DUP15 DUP3 DUP16 ADD PUSH2 0x41F2 JUMP JUMPDEST SWAP2 POP POP SWAP3 SWAP6 SWAP9 SWAP12 POP SWAP3 SWAP6 SWAP9 SWAP12 SWAP1 SWAP4 SWAP7 SWAP10 POP JUMP JUMPDEST PUSH2 0x4D2E DUP2 PUSH2 0x4247 JUMP JUMPDEST DUP3 MSTORE POP POP JUMP JUMPDEST PUSH1 0x0 PUSH1 0x20 DUP3 ADD SWAP1 POP PUSH2 0x4D49 PUSH1 0x0 DUP4 ADD DUP5 PUSH2 0x4D25 JUMP JUMPDEST SWAP3 SWAP2 POP POP JUMP JUMPDEST PUSH1 0x0 DUP1 PUSH1 0x40 DUP4 DUP6 SUB SLT ISZERO PUSH2 0x4D66 JUMPI PUSH2 0x4D65 PUSH2 0x4173 JUMP JUMPDEST JUMPDEST PUSH1 0x0 PUSH2 0x4D74 DUP6 DUP3 DUP7 ADD PUSH2 0x41C6 JUMP JUMPDEST SWAP3 POP POP PUSH1 0x20 PUSH2 0x4D85 DUP6 DUP3 DUP7 ADD PUSH2 0x41C6 JUMP JUMPDEST SWAP2 POP POP SWAP3 POP SWAP3 SWAP1 POP JUMP JUMPDEST PUSH1 0x0 DUP1 PUSH1 0x0 PUSH1 0x60 DUP5 DUP7 SUB SLT ISZERO PUSH2 0x4DA8 JUMPI PUSH2 0x4DA7 PUSH2 0x4173 JUMP JUMPDEST JUMPDEST PUSH1 0x0 PUSH2 0x4DB6 DUP7 DUP3 DUP8 ADD PUSH2 0x41C6 JUMP JUMPDEST SWAP4 POP POP PUSH1 0x20 PUSH2 0x4DC7 DUP7 DUP3 DUP8 ADD PUSH2 0x41C6 JUMP JUMPDEST SWAP3 POP POP PUSH1 0x40 PUSH2 0x4DD8 DUP7 DUP3 DUP8 ADD PUSH2 0x41C6 JUMP JUMPDEST SWAP2 POP POP SWAP3 POP SWAP3 POP SWAP3 JUMP JUMPDEST PUSH1 0x0 DUP1 PUSH1 0x0 PUSH1 0x60 DUP5 DUP7 SUB SLT ISZERO PUSH2 0x4DFB JUMPI PUSH2 0x4DFA PUSH2 0x4173 JUMP JUMPDEST JUMPDEST PUSH1 0x0 PUSH2 0x4E09 DUP7 DUP3 DUP8 ADD PUSH2 0x41C6 JUMP JUMPDEST SWAP4 POP POP PUSH1 0x20 PUSH2 0x4E1A DUP7 DUP3 DUP8 ADD PUSH2 0x41C6 JUMP JUMPDEST SWAP3 POP POP PUSH1 0x40 PUSH2 0x4E2B DUP7 DUP3 DUP8 ADD PUSH2 0x41F2 JUMP JUMPDEST SWAP2 POP POP SWAP3 POP SWAP3 POP SWAP3 JUMP JUMPDEST PUSH1 0x0 DUP2 MLOAD SWAP1 POP SWAP2 SWAP1 POP JUMP JUMPDEST PUSH1 0x0 DUP3 DUP3 MSTORE PUSH1 0x20 DUP3 ADD SWAP1 POP SWAP3 SWAP2 POP POP JUMP JUMPDEST PUSH1 0x0 PUSH2 0x4E5C DUP3 PUSH2 0x4E35 JUMP JUMPDEST PUSH2 0x4E66 DUP2 DUP6 PUSH2 0x4E40 JUMP JUMPDEST SWAP4 POP PUSH2 0x4E76 DUP2 DUP6 PUSH1 0x20 DUP7 ADD PUSH2 0x4589 JUMP JUMPDEST PUSH2 0x4E7F DUP2 PUSH2 0x4287 JUMP JUMPDEST DUP5 ADD SWAP2 POP POP SWAP3 SWAP2 POP POP JUMP JUMPDEST PUSH1 0x0 PUSH1 0x20 DUP3 ADD SWAP1 POP DUP2 DUP2 SUB PUSH1 0x0 DUP4 ADD MSTORE PUSH2 0x4EA4 DUP2 DUP5 PUSH2 0x4E51 JUMP JUMPDEST SWAP1 POP SWAP3 SWAP2 POP POP JUMP JUMPDEST PUSH32 0x4753323033000000000000000000000000000000000000000000000000000000 PUSH1 0x0 DUP3 ADD MSTORE POP JUMP JUMPDEST PUSH1 0x0 PUSH2 0x4EE2 PUSH1 0x5 DUP4 PUSH2 0x4E40 JUMP JUMPDEST SWAP2 POP PUSH2 0x4EED DUP3 PUSH2 0x4EAC JUMP JUMPDEST PUSH1 0x20 DUP3 ADD SWAP1 POP SWAP2 SWAP1 POP JUMP JUMPDEST PUSH1 0x0 PUSH1 0x20 DUP3 ADD SWAP1 POP DUP2 DUP2 SUB PUSH1 0x0 DUP4 ADD MSTORE PUSH2 0x4F11 DUP2 PUSH2 0x4ED5 JUMP JUMPDEST SWAP1 POP SWAP2 SWAP1 POP JUMP JUMPDEST PUSH32 0x4753323034000000000000000000000000000000000000000000000000000000 PUSH1 0x0 DUP3 ADD MSTORE POP JUMP JUMPDEST PUSH1 0x0 PUSH2 0x4F4E PUSH1 0x5 DUP4 PUSH2 0x4E40 JUMP JUMPDEST SWAP2 POP PUSH2 0x4F59 DUP3 PUSH2 0x4F18 JUMP JUMPDEST PUSH1 0x20 DUP3 ADD SWAP1 POP SWAP2 SWAP1 POP JUMP JUMPDEST PUSH1 0x0 PUSH1 0x20 DUP3 ADD SWAP1 POP DUP2 DUP2 SUB PUSH1 0x0 DUP4 ADD MSTORE PUSH2 0x4F7D DUP2 PUSH2 0x4F41 JUMP JUMPDEST SWAP1 POP SWAP2 SWAP1 POP JUMP JUMPDEST PUSH32 0x4E487B7100000000000000000000000000000000000000000000000000000000 PUSH1 0x0 MSTORE PUSH1 0x11 PUSH1 0x4 MSTORE PUSH1 0x24 PUSH1 0x0 REVERT JUMPDEST PUSH1 0x0 PUSH2 0x4FBE DUP3 PUSH2 0x4135 JUMP JUMPDEST SWAP2 POP PUSH32 0xFFFFFFFFFFFFFFFFFFFFFFFFFFFFFFFFFFFFFFFFFFFFFFFFFFFFFFFFFFFFFFFF DUP3 SUB PUSH2 0x4FF0 JUMPI PUSH2 0x4FEF PUSH2 0x4F84 JUMP JUMPDEST JUMPDEST PUSH1 0x1 DUP3 ADD SWAP1 POP SWAP2 SWAP1 POP JUMP JUMPDEST PUSH32 0x4753303230000000000000000000000000000000000000000000000000000000 PUSH1 0x0 DUP3 ADD MSTORE POP JUMP JUMPDEST PUSH1 0x0 PUSH2 0x5031 PUSH1 0x5 DUP4 PUSH2 0x4E40 JUMP JUMPDEST SWAP2 POP PUSH2 0x503C DUP3 PUSH2 0x4FFB JUMP JUMPDEST PUSH1 0x20 DUP3 ADD SWAP1 POP SWAP2 SWAP1 POP JUMP JUMPDEST PUSH1 0x0 PUSH1 0x20 DUP3 ADD SWAP1 POP DUP2 DUP2 SUB PUSH1 0x0 DUP4 ADD MSTORE PUSH2 0x5060 DUP2 PUSH2 0x5024 JUMP JUMPDEST SWAP1 POP SWAP2 SWAP1 POP JUMP JUMPDEST PUSH32 0x4753303237000000000000000000000000000000000000000000000000000000 PUSH1 0x0 DUP3 ADD MSTORE POP JUMP JUMPDEST PUSH1 0x0 PUSH2 0x509D PUSH1 0x5 DUP4 PUSH2 0x4E40 JUMP JUMPDEST SWAP2 POP PUSH2 0x50A8 DUP3 PUSH2 0x5067 JUMP JUMPDEST PUSH1 0x20 DUP3 ADD SWAP1 POP SWAP2 SWAP1 POP JUMP JUMPDEST PUSH1 0x0 PUSH1 0x20 DUP3 ADD SWAP1 POP DUP2 DUP2 SUB PUSH1 0x0 DUP4 ADD MSTORE PUSH2 0x50CC DUP2 PUSH2 0x5090 JUMP JUMPDEST SWAP1 POP SWAP2 SWAP1 POP JUMP JUMPDEST PUSH32 0x4753303231000000000000000000000000000000000000000000000000000000 PUSH1 0x0 DUP3 ADD MSTORE POP JUMP JUMPDEST PUSH1 0x0 PUSH2 0x5109 PUSH1 0x5 DUP4 PUSH2 0x4E40 JUMP JUMPDEST SWAP2 POP PUSH2 0x5114 DUP3 PUSH2 0x50D3 JUMP JUMPDEST PUSH1 0x20 DUP3 ADD SWAP1 POP SWAP2 SWAP1 POP JUMP JUMPDEST PUSH1 0x0 PUSH1 0x20 DUP3 ADD SWAP1 POP DUP2 DUP2 SUB PUSH1 0x0 DUP4 ADD MSTORE PUSH2 0x5138 DUP2 PUSH2 0x50FC JUMP JUMPDEST SWAP1 POP SWAP2 SWAP1 POP JUMP JUMPDEST PUSH32 0x4753303232000000000000000000000000000000000000000000000000000000 PUSH1 0x0 DUP3 ADD MSTORE POP JUMP JUMPDEST PUSH1 0x0 PUSH2 0x5175 PUSH1 0x5 DUP4 PUSH2 0x4E40 JUMP JUMPDEST SWAP2 POP PUSH2 0x5180 DUP3 PUSH2 0x513F JUMP JUMPDEST PUSH1 0x20 DUP3 ADD SWAP1 POP SWAP2 SWAP1 POP JUMP JUMPDEST PUSH1 0x0 PUSH1 0x20 DUP3 ADD SWAP1 POP DUP2 DUP2 SUB PUSH1 0x0 DUP4 ADD MSTORE PUSH2 0x51A4 DUP2 PUSH2 0x5168 JUMP JUMPDEST SWAP1 POP SWAP2 SWAP1 POP JUMP JUMPDEST PUSH32 0x4753303233000000000000000000000000000000000000000000000000000000 PUSH1 0x0 DUP3 ADD MSTORE POP JUMP JUMPDEST PUSH1 0x0 PUSH2 0x51E1 PUSH1 0x5 DUP4 PUSH2 0x4E40 JUMP JUMPDEST SWAP2 POP PUSH2 0x51EC DUP3 PUSH2 0x51AB JUMP JUMPDEST PUSH1 0x20 DUP3 ADD SWAP1 POP SWAP2 SWAP1 POP JUMP JUMPDEST PUSH1 0x0 PUSH1 0x20 DUP3 ADD SWAP1 POP DUP2 DUP2 SUB PUSH1 0x0 DUP4 ADD MSTORE PUSH2 0x5210 DUP2 PUSH2 0x51D4 JUMP JUMPDEST SWAP1 POP SWAP2 SWAP1 POP JUMP JUMPDEST PUSH1 0x0 PUSH1 0x40 DUP3 ADD SWAP1 POP DUP2 DUP2 SUB PUSH1 0x0 DUP4 ADD MSTORE PUSH2 0x5231 DUP2 DUP6 PUSH2 0x45B3 JUMP JUMPDEST SWAP1 POP DUP2 DUP2 SUB PUSH1 0x20 DUP4 ADD MSTORE PUSH2 0x5245 DUP2 DUP5 PUSH2 0x45B3 JUMP JUMPDEST SWAP1 POP SWAP4 SWAP3 POP POP POP JUMP JUMPDEST PUSH1 0x0 PUSH32 0xFFFFFFFF00000000000000000000000000000000000000000000000000000000 DUP3 AND SWAP1 POP SWAP2 SWAP1 POP JUMP JUMPDEST PUSH2 0x5283 DUP2 PUSH2 0x524E JUMP JUMPDEST DUP2 EQ PUSH2 0x528E JUMPI PUSH1 0x0 DUP1 REVERT JUMPDEST POP JUMP JUMPDEST PUSH1 0x0 DUP2 MLOAD SWAP1 POP PUSH2 0x52A0 DUP2 PUSH2 0x527A JUMP JUMPDEST SWAP3 SWAP2 POP POP JUMP JUMPDEST PUSH1 0x0 PUSH1 0x20 DUP3 DUP5 SUB SLT ISZERO PUSH2 0x52BC JUMPI PUSH2 0x52BB PUSH2 0x4173 JUMP JUMPDEST JUMPDEST PUSH1 0x0 PUSH2 0x52CA DUP5 DUP3 DUP6 ADD PUSH2 0x5291 JUMP JUMPDEST SWAP2 POP POP SWAP3 SWAP2 POP POP JUMP JUMPDEST PUSH32 0x4753303234000000000000000000000000000000000000000000000000000000 PUSH1 0x0 DUP3 ADD MSTORE POP JUMP JUMPDEST PUSH1 0x0 PUSH2 0x5309 PUSH1 0x5 DUP4 PUSH2 0x4E40 JUMP JUMPDEST SWAP2 POP PUSH2 0x5314 DUP3 PUSH2 0x52D3 JUMP JUMPDEST PUSH1 0x20 DUP3 ADD SWAP1 POP SWAP2 SWAP1 POP JUMP JUMPDEST PUSH1 0x0 PUSH1 0x20 DUP3 ADD SWAP1 POP DUP2 DUP2 SUB PUSH1 0x0 DUP4 ADD MSTORE PUSH2 0x5338 DUP2 PUSH2 0x52FC JUMP JUMPDEST SWAP1 POP SWAP2 SWAP1 POP JUMP JUMPDEST PUSH32 0x4753303235000000000000000000000000000000000000000000000000000000 PUSH1 0x0 DUP3 ADD MSTORE POP JUMP JUMPDEST PUSH1 0x0 PUSH2 0x5375 PUSH1 0x5 DUP4 PUSH2 0x4E40 JUMP JUMPDEST SWAP2 POP PUSH2 0x5380 DUP3 PUSH2 0x533F JUMP JUMPDEST PUSH1 0x20 DUP3 ADD SWAP1 POP SWAP2 SWAP1 POP JUMP JUMPDEST PUSH1 0x0 PUSH1 0x20 DUP3 ADD SWAP1 POP DUP2 DUP2 SUB PUSH1 0x0 DUP4 ADD MSTORE PUSH2 0x53A4 DUP2 PUSH2 0x5368 JUMP JUMPDEST SWAP1 POP SWAP2 SWAP1 POP JUMP JUMPDEST PUSH1 0x0 DUP2 SWAP1 POP SWAP3 SWAP2 POP POP JUMP JUMPDEST PUSH32 0x19457468657265756D205369676E6564204D6573736167653A0A333200000000 PUSH1 0x0 DUP3 ADD MSTORE POP JUMP JUMPDEST PUSH1 0x0 PUSH2 0x53EC PUSH1 0x1C DUP4 PUSH2 0x53AB JUMP JUMPDEST SWAP2 POP PUSH2 0x53F7 DUP3 PUSH2 0x53B6 JUMP JUMPDEST PUSH1 0x1C DUP3 ADD SWAP1 POP SWAP2 SWAP1 POP JUMP JUMPDEST PUSH1 0x0 DUP2 SWAP1 POP SWAP2 SWAP1 POP JUMP JUMPDEST PUSH2 0x541D PUSH2 0x5418 DUP3 PUSH2 0x4247 JUMP JUMPDEST PUSH2 0x5402 JUMP JUMPDEST DUP3 MSTORE POP POP JUMP JUMPDEST PUSH1 0x0 PUSH2 0x542E DUP3 PUSH2 0x53DF JUMP JUMPDEST SWAP2 POP PUSH2 0x543A DUP3 DUP5 PUSH2 0x540C JUMP JUMPDEST PUSH1 0x20 DUP3 ADD SWAP2 POP DUP2 SWAP1 POP SWAP3 SWAP2 POP POP JUMP JUMPDEST PUSH1 0x0 PUSH1 0xFF DUP3 AND SWAP1 POP SWAP2 SWAP1 POP JUMP JUMPDEST PUSH1 0x0 PUSH2 0x5461 DUP3 PUSH2 0x5449 JUMP JUMPDEST SWAP2 POP PUSH2 0x546C DUP4 PUSH2 0x5449 JUMP JUMPDEST SWAP3 POP DUP3 DUP3 SUB SWAP1 POP PUSH1 0xFF DUP2 GT ISZERO PUSH2 0x5485 JUMPI PUSH2 0x5484 PUSH2 0x4F84 JUMP JUMPDEST JUMPDEST SWAP3 SWAP2 POP POP JUMP JUMPDEST PUSH2 0x5494 DUP2 PUSH2 0x5449 JUMP JUMPDEST DUP3 MSTORE POP POP JUMP JUMPDEST PUSH1 0x0 PUSH1 0x80 DUP3 ADD SWAP1 POP PUSH2 0x54AF PUSH1 0x0 DUP4 ADD DUP8 PUSH2 0x4D25 JUMP JUMPDEST PUSH2 0x54BC PUSH1 0x20 DUP4 ADD DUP7 PUSH2 0x548B JUMP JUMPDEST PUSH2 0x54C9 PUSH1 0x40 DUP4 ADD DUP6 PUSH2 0x4D25 JUMP JUMPDEST PUSH2 0x54D6 PUSH1 0x60 DUP4 ADD DUP5 PUSH2 0x4D25 JUMP JUMPDEST SWAP6 SWAP5 POP POP POP POP POP JUMP JUMPDEST PUSH32 0x4753303236000000000000000000000000000000000000000000000000000000 PUSH1 0x0 DUP3 ADD MSTORE POP JUMP JUMPDEST PUSH1 0x0 PUSH2 0x5515 PUSH1 0x5 DUP4 PUSH2 0x4E40 JUMP JUMPDEST SWAP2 POP PUSH2 0x5520 DUP3 PUSH2 0x54DF JUMP JUMPDEST PUSH1 0x20 DUP3 ADD SWAP1 POP SWAP2 SWAP1 POP JUMP JUMPDEST PUSH1 0x0 PUSH1 0x20 DUP3 ADD SWAP1 POP DUP2 DUP2 SUB PUSH1 0x0 DUP4 ADD MSTORE PUSH2 0x5544 DUP2 PUSH2 0x5508 JUMP JUMPDEST SWAP1 POP SWAP2 SWAP1 POP JUMP JUMPDEST PUSH32 0x4753313034000000000000000000000000000000000000000000000000000000 PUSH1 0x0 DUP3 ADD MSTORE POP JUMP JUMPDEST PUSH1 0x0 PUSH2 0x5581 PUSH1 0x5 DUP4 PUSH2 0x4E40 JUMP JUMPDEST SWAP2 POP PUSH2 0x558C DUP3 PUSH2 0x554B JUMP JUMPDEST PUSH1 0x20 DUP3 ADD SWAP1 POP SWAP2 SWAP1 POP JUMP JUMPDEST PUSH1 0x0 PUSH1 0x20 DUP3 ADD SWAP1 POP DUP2 DUP2 SUB PUSH1 0x0 DUP4 ADD MSTORE PUSH2 0x55B0 DUP2 PUSH2 0x5574 JUMP JUMPDEST SWAP1 POP SWAP2 SWAP1 POP JUMP JUMPDEST PUSH1 0x0 PUSH2 0x55C2 DUP3 PUSH2 0x4135 JUMP JUMPDEST SWAP2 POP PUSH2 0x55CD DUP4 PUSH2 0x4135 JUMP JUMPDEST SWAP3 POP DUP3 DUP3 MUL PUSH2 0x55DB DUP2 PUSH2 0x4135 JUMP JUMPDEST SWAP2 POP DUP3 DUP3 DIV DUP5 EQ DUP4 ISZERO OR PUSH2 0x55F2 JUMPI PUSH2 0x55F1 PUSH2 0x4F84 JUMP JUMPDEST JUMPDEST POP SWAP3 SWAP2 POP POP JUMP JUMPDEST PUSH32 0x4753313031000000000000000000000000000000000000000000000000000000 PUSH1 0x0 DUP3 ADD MSTORE POP JUMP JUMPDEST PUSH1 0x0 PUSH2 0x562F PUSH1 0x5 DUP4 PUSH2 0x4E40 JUMP JUMPDEST SWAP2 POP PUSH2 0x563A DUP3 PUSH2 0x55F9 JUMP JUMPDEST PUSH1 0x20 DUP3 ADD SWAP1 POP SWAP2 SWAP1 POP JUMP JUMPDEST PUSH1 0x0 PUSH1 0x20 DUP3 ADD SWAP1 POP DUP2 DUP2 SUB PUSH1 0x0 DUP4 ADD MSTORE PUSH2 0x565E DUP2 PUSH2 0x5622 JUMP JUMPDEST SWAP1 POP SWAP2 SWAP1 POP JUMP JUMPDEST PUSH32 0x4753313032000000000000000000000000000000000000000000000000000000 PUSH1 0x0 DUP3 ADD MSTORE POP JUMP JUMPDEST PUSH1 0x0 PUSH2 0x569B PUSH1 0x5 DUP4 PUSH2 0x4E40 JUMP JUMPDEST SWAP2 POP PUSH2 0x56A6 DUP3 PUSH2 0x5665 JUMP JUMPDEST PUSH1 0x20 DUP3 ADD SWAP1 POP SWAP2 SWAP1 POP JUMP JUMPDEST PUSH1 0x0 PUSH1 0x20 DUP3 ADD SWAP1 POP DUP2 DUP2 SUB PUSH1 0x0 DUP4 ADD MSTORE PUSH2 0x56CA DUP2 PUSH2 0x568E JUMP JUMPDEST SWAP1 POP SWAP2 SWAP1 POP JUMP JUMPDEST PUSH32 0x4753323031000000000000000000000000000000000000000000000000000000 PUSH1 0x0 DUP3 ADD MSTORE POP JUMP JUMPDEST PUSH1 0x0 PUSH2 0x5707 PUSH1 0x5 DUP4 PUSH2 0x4E40 JUMP JUMPDEST SWAP2 POP PUSH2 0x5712 DUP3 PUSH2 0x56D1 JUMP JUMPDEST PUSH1 0x20 DUP3 ADD SWAP1 POP SWAP2 SWAP1 POP JUMP JUMPDEST PUSH1 0x0 PUSH1 0x20 DUP3 ADD SWAP1 POP DUP2 DUP2 SUB PUSH1 0x0 DUP4 ADD MSTORE PUSH2 0x5736 DUP2 PUSH2 0x56FA JUMP JUMPDEST SWAP1 POP SWAP2 SWAP1 POP JUMP JUMPDEST PUSH32 0x4753323032000000000000000000000000000000000000000000000000000000 PUSH1 0x0 DUP3 ADD MSTORE POP JUMP JUMPDEST PUSH1 0x0 PUSH2 0x5773 PUSH1 0x5 DUP4 PUSH2 0x4E40 JUMP JUMPDEST SWAP2 POP PUSH2 0x577E DUP3 PUSH2 0x573D JUMP JUMPDEST PUSH1 0x20 DUP3 ADD SWAP1 POP SWAP2 SWAP1 POP JUMP JUMPDEST PUSH1 0x0 PUSH1 0x20 DUP3 ADD SWAP1 POP DUP2 DUP2 SUB PUSH1 0x0 DUP4 ADD MSTORE PUSH2 0x57A2 DUP2 PUSH2 0x5766 JUMP JUMPDEST SWAP1 POP SWAP2 SWAP1 POP JUMP JUMPDEST PUSH1 0x0 PUSH2 0x57B5 DUP4 DUP6 PUSH2 0x4578 JUMP JUMPDEST SWAP4 POP PUSH2 0x57C2 DUP4 DUP6 DUP5 PUSH2 0x4344 JUMP JUMPDEST PUSH2 0x57CB DUP4 PUSH2 0x4287 JUMP JUMPDEST DUP5 ADD SWAP1 POP SWAP4 SWAP3 POP POP POP JUMP JUMPDEST PUSH32 0x4E487B7100000000000000000000000000000000000000000000000000000000 PUSH1 0x0 MSTORE PUSH1 0x21 PUSH1 0x4 MSTORE PUSH1 0x24 PUSH1 0x0 REVERT JUMPDEST PUSH1 0x2 DUP2 LT PUSH2 0x5816 JUMPI PUSH2 0x5815 PUSH2 0x57D6 JUMP JUMPDEST JUMPDEST POP JUMP JUMPDEST PUSH1 0x0 DUP2 SWAP1 POP PUSH2 0x5827 DUP3 PUSH2 0x5805 JUMP JUMPDEST SWAP2 SWAP1 POP JUMP JUMPDEST PUSH1 0x0 PUSH2 0x5837 DUP3 PUSH2 0x5819 JUMP JUMPDEST SWAP1 POP SWAP2 SWAP1 POP JUMP JUMPDEST PUSH2 0x5847 DUP2 PUSH2 0x582C JUMP JUMPDEST DUP3 MSTORE POP POP JUMP JUMPDEST PUSH2 0x5856 DUP2 PUSH2 0x4738 JUMP JUMPDEST DUP3 MSTORE POP POP JUMP JUMPDEST PUSH1 0x0 PUSH2 0x160 DUP3 ADD SWAP1 POP PUSH2 0x5872 PUSH1 0x0 DUP4 ADD DUP16 PUSH2 0x4BE6 JUMP JUMPDEST PUSH2 0x587F PUSH1 0x20 DUP4 ADD DUP15 PUSH2 0x413F JUMP JUMPDEST DUP2 DUP2 SUB PUSH1 0x40 DUP4 ADD MSTORE PUSH2 0x5892 DUP2 DUP13 DUP15 PUSH2 0x57A9 JUMP JUMPDEST SWAP1 POP PUSH2 0x58A1 PUSH1 0x60 DUP4 ADD DUP12 PUSH2 0x583E JUMP JUMPDEST PUSH2 0x58AE PUSH1 0x80 DUP4 ADD DUP11 PUSH2 0x413F JUMP JUMPDEST PUSH2 0x58BB PUSH1 0xA0 DUP4 ADD DUP10 PUSH2 0x413F JUMP JUMPDEST PUSH2 0x58C8 PUSH1 0xC0 DUP4 ADD DUP9 PUSH2 0x413F JUMP JUMPDEST PUSH2 0x58D5 PUSH1 0xE0 DUP4 ADD DUP8 PUSH2 0x4BE6 JUMP JUMPDEST PUSH2 0x58E3 PUSH2 0x100 DUP4 ADD DUP7 PUSH2 0x584D JUMP JUMPDEST DUP2 DUP2 SUB PUSH2 0x120 DUP4 ADD MSTORE PUSH2 0x58F6 DUP2 DUP6 PUSH2 0x45B3 JUMP JUMPDEST SWAP1 POP PUSH2 0x5906 PUSH2 0x140 DUP4 ADD DUP5 PUSH2 0x4BE6 JUMP JUMPDEST SWAP14 SWAP13 POP POP POP POP POP POP POP POP POP POP POP POP POP JUMP JUMPDEST PUSH1 0x0 PUSH2 0x5922 DUP3 PUSH2 0x4135 JUMP JUMPDEST SWAP2 POP PUSH2 0x592D DUP4 PUSH2 0x4135 JUMP JUMPDEST SWAP3 POP DUP3 DUP3 ADD SWAP1 POP DUP1 DUP3 GT ISZERO PUSH2 0x5945 JUMPI PUSH2 0x5944 PUSH2 0x4F84 JUMP JUMPDEST JUMPDEST SWAP3 SWAP2 POP POP JUMP JUMPDEST PUSH32 0x4E487B7100000000000000000000000000000000000000000000000000000000 PUSH1 0x0 MSTORE PUSH1 0x12 PUSH1 0x4 MSTORE PUSH1 0x24 PUSH1 0x0 REVERT JUMPDEST PUSH1 0x0 PUSH2 0x5985 DUP3 PUSH2 0x4135 JUMP JUMPDEST SWAP2 POP PUSH2 0x5990 DUP4 PUSH2 0x4135 JUMP JUMPDEST SWAP3 POP DUP3 PUSH2 0x59A0 JUMPI PUSH2 0x599F PUSH2 0x594B JUMP JUMPDEST JUMPDEST DUP3 DUP3 DIV SWAP1 POP SWAP3 SWAP2 POP POP JUMP JUMPDEST PUSH32 0x4753303130000000000000000000000000000000000000000000000000000000 PUSH1 0x0 DUP3 ADD MSTORE POP JUMP JUMPDEST PUSH1 0x0 PUSH2 0x59E1 PUSH1 0x5 DUP4 PUSH2 0x4E40 JUMP JUMPDEST SWAP2 POP PUSH2 0x59EC DUP3 PUSH2 0x59AB JUMP JUMPDEST PUSH1 0x20 DUP3 ADD SWAP1 POP SWAP2 SWAP1 POP JUMP JUMPDEST PUSH1 0x0 PUSH1 0x20 DUP3 ADD SWAP1 POP DUP2 DUP2 SUB PUSH1 0x0 DUP4 ADD MSTORE PUSH2 0x5A10 DUP2 PUSH2 0x59D4 JUMP JUMPDEST SWAP1 POP SWAP2 SWAP1 POP JUMP JUMPDEST PUSH1 0x0 PUSH2 0x5A22 DUP3 PUSH2 0x4135 JUMP JUMPDEST SWAP2 POP PUSH2 0x5A2D DUP4 PUSH2 0x4135 JUMP JUMPDEST SWAP3 POP DUP3 DUP3 SUB SWAP1 POP DUP2 DUP2 GT ISZERO PUSH2 0x5A45 JUMPI PUSH2 0x5A44 PUSH2 0x4F84 JUMP JUMPDEST JUMPDEST SWAP3 SWAP2 POP POP JUMP JUMPDEST PUSH32 0x4753303133000000000000000000000000000000000000000000000000000000 PUSH1 0x0 DUP3 ADD MSTORE POP JUMP JUMPDEST PUSH1 0x0 PUSH2 0x5A81 PUSH1 0x5 DUP4 PUSH2 0x4E40 JUMP JUMPDEST SWAP2 POP PUSH2 0x5A8C DUP3 PUSH2 0x5A4B JUMP JUMPDEST PUSH1 0x20 DUP3 ADD SWAP1 POP SWAP2 SWAP1 POP JUMP JUMPDEST PUSH1 0x0 PUSH1 0x20 DUP3 ADD SWAP1 POP DUP2 DUP2 SUB PUSH1 0x0 DUP4 ADD MSTORE PUSH2 0x5AB0 DUP2 PUSH2 0x5A74 JUMP JUMPDEST SWAP1 POP SWAP2 SWAP1 POP JUMP JUMPDEST PUSH1 0x0 PUSH1 0x40 DUP3 ADD SWAP1 POP PUSH2 0x5ACC PUSH1 0x0 DUP4 ADD DUP6 PUSH2 0x4D25 JUMP JUMPDEST PUSH2 0x5AD9 PUSH1 0x20 DUP4 ADD DUP5 PUSH2 0x449B JUMP JUMPDEST SWAP4 SWAP3 POP POP POP JUMP JUMPDEST PUSH32 0x4753303031000000000000000000000000000000000000000000000000000000 PUSH1 0x0 DUP3 ADD MSTORE POP JUMP JUMPDEST PUSH1 0x0 PUSH2 0x5B16 PUSH1 0x5 DUP4 PUSH2 0x4E40 JUMP JUMPDEST SWAP2 POP PUSH2 0x5B21 DUP3 PUSH2 0x5AE0 JUMP JUMPDEST PUSH1 0x20 DUP3 ADD SWAP1 POP SWAP2 SWAP1 POP JUMP JUMPDEST PUSH1 0x0 PUSH1 0x20 DUP3 ADD SWAP1 POP DUP2 DUP2 SUB PUSH1 0x0 DUP4 ADD MSTORE PUSH2 0x5B45 DUP2 PUSH2 0x5B09 JUMP JUMPDEST SWAP1 POP SWAP2 SWAP1 POP JUMP JUMPDEST PUSH32 0x4E487B7100000000000000000000000000000000000000000000000000000000 PUSH1 0x0 MSTORE PUSH1 0x32 PUSH1 0x4 MSTORE PUSH1 0x24 PUSH1 0x0 REVERT JUMPDEST PUSH1 0x0 DUP2 SWAP1 POP SWAP2 SWAP1 POP JUMP JUMPDEST PUSH1 0x0 PUSH2 0x5B94 PUSH1 0x20 DUP5 ADD DUP5 PUSH2 0x41C6 JUMP JUMPDEST SWAP1 POP SWAP3 SWAP2 POP POP JUMP JUMPDEST PUSH1 0x0 PUSH1 0x20 DUP3 ADD SWAP1 POP SWAP2 SWAP1 POP JUMP JUMPDEST PUSH1 0x0 PUSH2 0x5BB5 DUP4 DUP6 PUSH2 0x4968 JUMP JUMPDEST SWAP4 POP PUSH2 0x5BC0 DUP3 PUSH2 0x5B7B JUMP JUMPDEST DUP1 PUSH1 0x0 JUMPDEST DUP6 DUP2 LT ISZERO PUSH2 0x5BF9 JUMPI PUSH2 0x5BD6 DUP3 DUP5 PUSH2 0x5B85 JUMP JUMPDEST PUSH2 0x5BE0 DUP9 DUP3 PUSH2 0x4998 JUMP JUMPDEST SWAP8 POP PUSH2 0x5BEB DUP4 PUSH2 0x5B9C JUMP JUMPDEST SWAP3 POP POP PUSH1 0x1 DUP2 ADD SWAP1 POP PUSH2 0x5BC4 JUMP JUMPDEST POP DUP6 SWAP3 POP POP POP SWAP4 SWAP3 POP POP POP JUMP JUMPDEST PUSH1 0x0 PUSH1 0x80 DUP3 ADD SWAP1 POP DUP2 DUP2 SUB PUSH1 0x0 DUP4 ADD MSTORE PUSH2 0x5C21 DUP2 DUP8 DUP10 PUSH2 0x5BA9 JUMP JUMPDEST SWAP1 POP PUSH2 0x5C30 PUSH1 0x20 DUP4 ADD DUP7 PUSH2 0x413F JUMP JUMPDEST PUSH2 0x5C3D PUSH1 0x40 DUP4 ADD DUP6 PUSH2 0x4BE6 JUMP JUMPDEST PUSH2 0x5C4A PUSH1 0x60 DUP4 ADD DUP5 PUSH2 0x4BE6 JUMP JUMPDEST SWAP7 SWAP6 POP POP POP POP POP POP JUMP JUMPDEST PUSH32 0x4753313035000000000000000000000000000000000000000000000000000000 PUSH1 0x0 DUP3 ADD MSTORE POP JUMP JUMPDEST PUSH1 0x0 PUSH2 0x5C8A PUSH1 0x5 DUP4 PUSH2 0x4E40 JUMP JUMPDEST SWAP2 POP PUSH2 0x5C95 DUP3 PUSH2 0x5C54 JUMP JUMPDEST PUSH1 0x20 DUP3 ADD SWAP1 POP SWAP2 SWAP1 POP JUMP JUMPDEST PUSH1 0x0 PUSH1 0x20 DUP3 ADD SWAP1 POP DUP2 DUP2 SUB PUSH1 0x0 DUP4 ADD MSTORE PUSH2 0x5CB9 DUP2 PUSH2 0x5C7D JUMP JUMPDEST SWAP1 POP SWAP2 SWAP1 POP JUMP JUMPDEST PUSH32 0x4753313036000000000000000000000000000000000000000000000000000000 PUSH1 0x0 DUP3 ADD MSTORE POP JUMP JUMPDEST PUSH1 0x0 PUSH2 0x5CF6 PUSH1 0x5 DUP4 PUSH2 0x4E40 JUMP JUMPDEST SWAP2 POP PUSH2 0x5D01 DUP3 PUSH2 0x5CC0 JUMP JUMPDEST PUSH1 0x20 DUP3 ADD SWAP1 POP SWAP2 SWAP1 POP JUMP JUMPDEST PUSH1 0x0 PUSH1 0x20 DUP3 ADD SWAP1 POP DUP2 DUP2 SUB PUSH1 0x0 DUP4 ADD MSTORE PUSH2 0x5D25 DUP2 PUSH2 0x5CE9 JUMP JUMPDEST SWAP1 POP SWAP2 SWAP1 POP JUMP JUMPDEST PUSH32 0x4753303330000000000000000000000000000000000000000000000000000000 PUSH1 0x0 DUP3 ADD MSTORE POP JUMP JUMPDEST PUSH1 0x0 PUSH2 0x5D62 PUSH1 0x5 DUP4 PUSH2 0x4E40 JUMP JUMPDEST SWAP2 POP PUSH2 0x5D6D DUP3 PUSH2 0x5D2C JUMP JUMPDEST PUSH1 0x20 DUP3 ADD SWAP1 POP SWAP2 SWAP1 POP JUMP JUMPDEST PUSH1 0x0 PUSH1 0x20 DUP3 ADD SWAP1 POP DUP2 DUP2 SUB PUSH1 0x0 DUP4 ADD MSTORE PUSH2 0x5D91 DUP2 PUSH2 0x5D55 JUMP JUMPDEST SWAP1 POP SWAP2 SWAP1 POP JUMP JUMPDEST PUSH32 0x4753313033000000000000000000000000000000000000000000000000000000 PUSH1 0x0 DUP3 ADD MSTORE POP JUMP JUMPDEST PUSH1 0x0 PUSH2 0x5DCE PUSH1 0x5 DUP4 PUSH2 0x4E40 JUMP JUMPDEST SWAP2 POP PUSH2 0x5DD9 DUP3 PUSH2 0x5D98 JUMP JUMPDEST PUSH1 0x20 DUP3 ADD SWAP1 POP SWAP2 SWAP1 POP JUMP JUMPDEST PUSH1 0x0 PUSH1 0x20 DUP3 ADD SWAP1 POP DUP2 DUP2 SUB PUSH1 0x0 DUP4 ADD MSTORE PUSH2 0x5DFD DUP2 PUSH2 0x5DC1 JUMP JUMPDEST SWAP1 POP SWAP2 SWAP1 POP JUMP JUMPDEST PUSH2 0x5E0D DUP2 PUSH2 0x524E JUMP JUMPDEST DUP3 MSTORE POP POP JUMP JUMPDEST PUSH1 0x0 PUSH1 0x20 DUP3 ADD SWAP1 POP PUSH2 0x5E28 PUSH1 0x0 DUP4 ADD DUP5 PUSH2 0x5E04 JUMP JUMPDEST SWAP3 SWAP2 POP POP JUMP JUMPDEST PUSH2 0x5E37 DUP2 PUSH2 0x448F JUMP JUMPDEST DUP2 EQ PUSH2 0x5E42 JUMPI PUSH1 0x0 DUP1 REVERT JUMPDEST POP JUMP JUMPDEST PUSH1 0x0 DUP2 MLOAD SWAP1 POP PUSH2 0x5E54 DUP2 PUSH2 0x5E2E JUMP JUMPDEST SWAP3 SWAP2 POP POP JUMP JUMPDEST PUSH1 0x0 PUSH1 0x20 DUP3 DUP5 SUB SLT ISZERO PUSH2 0x5E70 JUMPI PUSH2 0x5E6F PUSH2 0x4173 JUMP JUMPDEST JUMPDEST PUSH1 0x0 PUSH2 0x5E7E DUP5 DUP3 DUP6 ADD PUSH2 0x5E45 JUMP JUMPDEST SWAP2 POP POP SWAP3 SWAP2 POP POP JUMP JUMPDEST PUSH32 0x4753333030000000000000000000000000000000000000000000000000000000 PUSH1 0x0 DUP3 ADD MSTORE POP JUMP JUMPDEST PUSH1 0x0 PUSH2 0x5EBD PUSH1 0x5 DUP4 PUSH2 0x4E40 JUMP JUMPDEST SWAP2 POP PUSH2 0x5EC8 DUP3 PUSH2 0x5E87 JUMP JUMPDEST PUSH1 0x20 DUP3 ADD SWAP1 POP SWAP2 SWAP1 POP JUMP JUMPDEST PUSH1 0x0 PUSH1 0x20 DUP3 ADD SWAP1 POP DUP2 DUP2 SUB PUSH1 0x0 DUP4 ADD MSTORE PUSH2 0x5EEC DUP2 PUSH2 0x5EB0 JUMP JUMPDEST SWAP1 POP SWAP2 SWAP1 POP JUMP JUMPDEST PUSH32 0x4753323035000000000000000000000000000000000000000000000000000000 PUSH1 0x0 DUP3 ADD MSTORE POP JUMP JUMPDEST PUSH1 0x0 PUSH2 0x5F29 PUSH1 0x5 DUP4 PUSH2 0x4E40 JUMP JUMPDEST SWAP2 POP PUSH2 0x5F34 DUP3 PUSH2 0x5EF3 JUMP JUMPDEST PUSH1 0x20 DUP3 ADD SWAP1 POP SWAP2 SWAP1 POP JUMP JUMPDEST PUSH1 0x0 PUSH1 0x20 DUP3 ADD SWAP1 POP DUP2 DUP2 SUB PUSH1 0x0 DUP4 ADD MSTORE PUSH2 0x5F58 DUP2 PUSH2 0x5F1C JUMP JUMPDEST SWAP1 POP SWAP2 SWAP1 POP JUMP JUMPDEST PUSH1 0x0 DUP2 SWAP1 POP SWAP3 SWAP2 POP POP JUMP JUMPDEST PUSH1 0x0 PUSH2 0x5F76 DUP4 DUP6 PUSH2 0x5F5F JUMP JUMPDEST SWAP4 POP PUSH2 0x5F83 DUP4 DUP6 DUP5 PUSH2 0x4344 JUMP JUMPDEST DUP3 DUP5 ADD SWAP1 POP SWAP4 SWAP3 POP POP POP JUMP JUMPDEST PUSH1 0x0 PUSH2 0x5F9C DUP3 DUP5 DUP7 PUSH2 0x5F6A JUMP JUMPDEST SWAP2 POP DUP2 SWAP1 POP SWAP4 SWAP3 POP POP POP JUMP JUMPDEST PUSH1 0x0 PUSH2 0x160 DUP3 ADD SWAP1 POP PUSH2 0x5FBE PUSH1 0x0 DUP4 ADD DUP15 PUSH2 0x4D25 JUMP JUMPDEST PUSH2 0x5FCB PUSH1 0x20 DUP4 ADD DUP14 PUSH2 0x4BE6 JUMP JUMPDEST PUSH2 0x5FD8 PUSH1 0x40 DUP4 ADD DUP13 PUSH2 0x413F JUMP JUMPDEST PUSH2 0x5FE5 PUSH1 0x60 DUP4 ADD DUP12 PUSH2 0x4D25 JUMP JUMPDEST PUSH2 0x5FF2 PUSH1 0x80 DUP4 ADD DUP11 PUSH2 0x583E JUMP JUMPDEST PUSH2 0x5FFF PUSH1 0xA0 DUP4 ADD DUP10 PUSH2 0x413F JUMP JUMPDEST PUSH2 0x600C PUSH1 0xC0 DUP4 ADD DUP9 PUSH2 0x413F JUMP JUMPDEST PUSH2 0x6019 PUSH1 0xE0 DUP4 ADD DUP8 PUSH2 0x413F JUMP JUMPDEST PUSH2 0x6027 PUSH2 0x100 DUP4 ADD DUP7 PUSH2 0x4BE6 JUMP JUMPDEST PUSH2 0x6035 PUSH2 0x120 DUP4 ADD DUP6 PUSH2 0x4BE6 JUMP JUMPDEST PUSH2 0x6043 PUSH2 0x140 DUP4 ADD DUP5 PUSH2 0x413F JUMP JUMPDEST SWAP13 SWAP12 POP POP POP POP POP POP POP POP POP POP POP POP JUMP JUMPDEST PUSH1 0x0 PUSH32 0xFF00000000000000000000000000000000000000000000000000000000000000 DUP3 AND SWAP1 POP SWAP2 SWAP1 POP JUMP JUMPDEST PUSH1 0x0 DUP2 SWAP1 POP SWAP2 SWAP1 POP JUMP JUMPDEST PUSH2 0x609A PUSH2 0x6095 DUP3 PUSH2 0x6053 JUMP JUMPDEST PUSH2 0x607F JUMP JUMPDEST DUP3 MSTORE POP POP JUMP JUMPDEST PUSH1 0x0 PUSH2 0x60AC DUP3 DUP8 PUSH2 0x6089 JUMP JUMPDEST PUSH1 0x1 DUP3 ADD SWAP2 POP PUSH2 0x60BC DUP3 DUP7 PUSH2 0x6089 JUMP JUMPDEST PUSH1 0x1 DUP3 ADD SWAP2 POP PUSH2 0x60CC DUP3 DUP6 PUSH2 0x540C JUMP JUMPDEST PUSH1 0x20 DUP3 ADD SWAP2 POP PUSH2 0x60DC DUP3 DUP5 PUSH2 0x540C JUMP JUMPDEST PUSH1 0x20 DUP3 ADD SWAP2 POP DUP2 SWAP1 POP SWAP6 SWAP5 POP POP POP POP POP JUMP JUMPDEST PUSH1 0x0 DUP2 SWAP1 POP SWAP2 SWAP1 POP JUMP JUMPDEST PUSH1 0x0 PUSH2 0x6113 PUSH2 0x610E PUSH2 0x6109 DUP5 PUSH2 0x417D JUMP JUMPDEST PUSH2 0x60EE JUMP JUMPDEST PUSH2 0x417D JUMP JUMPDEST SWAP1 POP SWAP2 SWAP1 POP JUMP JUMPDEST PUSH1 0x0 PUSH2 0x6125 DUP3 PUSH2 0x60F8 JUMP JUMPDEST SWAP1 POP SWAP2 SWAP1 POP JUMP JUMPDEST PUSH1 0x0 PUSH2 0x6137 DUP3 PUSH2 0x611A JUMP JUMPDEST SWAP1 POP SWAP2 SWAP1 POP JUMP JUMPDEST PUSH2 0x6147 DUP2 PUSH2 0x612C JUMP JUMPDEST DUP3 MSTORE POP POP JUMP JUMPDEST PUSH1 0x0 PUSH1 0x60 DUP3 ADD SWAP1 POP PUSH2 0x6162 PUSH1 0x0 DUP4 ADD DUP7 PUSH2 0x4D25 JUMP JUMPDEST PUSH2 0x616F PUSH1 0x20 DUP4 ADD DUP6 PUSH2 0x413F JUMP JUMPDEST PUSH2 0x617C PUSH1 0x40 DUP4 ADD DUP5 PUSH2 0x613E JUMP JUMPDEST SWAP5 SWAP4 POP POP POP POP JUMP JUMPDEST PUSH1 0x0 PUSH2 0x618F DUP3 PUSH2 0x4135 JUMP JUMPDEST SWAP2 POP PUSH1 0x0 DUP3 SUB PUSH2 0x61A2 JUMPI PUSH2 0x61A1 PUSH2 0x4F84 JUMP JUMPDEST JUMPDEST PUSH1 0x1 DUP3 SUB SWAP1 POP SWAP2 SWAP1 POP JUMP JUMPDEST PUSH32 0x4753303331000000000000000000000000000000000000000000000000000000 PUSH1 0x0 DUP3 ADD MSTORE POP JUMP JUMPDEST PUSH1 0x0 PUSH2 0x61E3 PUSH1 0x5 DUP4 PUSH2 0x4E40 JUMP JUMPDEST SWAP2 POP PUSH2 0x61EE DUP3 PUSH2 0x61AD JUMP JUMPDEST PUSH1 0x20 DUP3 ADD SWAP1 POP SWAP2 SWAP1 POP JUMP JUMPDEST PUSH1 0x0 PUSH1 0x20 DUP3 ADD SWAP1 POP DUP2 DUP2 SUB PUSH1 0x0 DUP4 ADD MSTORE PUSH2 0x6212 DUP2 PUSH2 0x61D6 JUMP JUMPDEST SWAP1 POP SWAP2 SWAP1 POP JUMP JUMPDEST PUSH32 0x4753303131000000000000000000000000000000000000000000000000000000 PUSH1 0x0 DUP3 ADD MSTORE POP JUMP JUMPDEST PUSH1 0x0 PUSH2 0x624F PUSH1 0x5 DUP4 PUSH2 0x4E40 JUMP JUMPDEST SWAP2 POP PUSH2 0x625A DUP3 PUSH2 0x6219 JUMP JUMPDEST PUSH1 0x20 DUP3 ADD SWAP1 POP SWAP2 SWAP1 POP JUMP JUMPDEST PUSH1 0x0 PUSH1 0x20 DUP3 ADD SWAP1 POP DUP2 DUP2 SUB PUSH1 0x0 DUP4 ADD MSTORE PUSH2 0x627E DUP2 PUSH2 0x6242 JUMP JUMPDEST SWAP1 POP SWAP2 SWAP1 POP JUMP JUMPDEST PUSH32 0x4753303132000000000000000000000000000000000000000000000000000000 PUSH1 0x0 DUP3 ADD MSTORE POP JUMP JUMPDEST PUSH1 0x0 PUSH2 0x62BB PUSH1 0x5 DUP4 PUSH2 0x4E40 JUMP JUMPDEST SWAP2 POP PUSH2 0x62C6 DUP3 PUSH2 0x6285 JUMP JUMPDEST PUSH1 0x20 DUP3 ADD SWAP1 POP SWAP2 SWAP1 POP JUMP JUMPDEST PUSH1 0x0 PUSH1 0x20 DUP3 ADD SWAP1 POP DUP2 DUP2 SUB PUSH1 0x0 DUP4 ADD MSTORE PUSH2 0x62EA DUP2 PUSH2 0x62AE JUMP JUMPDEST SWAP1 POP SWAP2 SWAP1 POP JUMP JUMPDEST PUSH32 0x4753323030000000000000000000000000000000000000000000000000000000 PUSH1 0x0 DUP3 ADD MSTORE POP JUMP JUMPDEST PUSH1 0x0 PUSH2 0x6327 PUSH1 0x5 DUP4 PUSH2 0x4E40 JUMP JUMPDEST SWAP2 POP PUSH2 0x6332 DUP3 PUSH2 0x62F1 JUMP JUMPDEST PUSH1 0x20 DUP3 ADD SWAP1 POP SWAP2 SWAP1 POP JUMP JUMPDEST PUSH1 0x0 PUSH1 0x20 DUP3 ADD SWAP1 POP DUP2 DUP2 SUB PUSH1 0x0 DUP4 ADD MSTORE PUSH2 0x6356 DUP2 PUSH2 0x631A JUMP JUMPDEST SWAP1 POP SWAP2 SWAP1 POP JUMP JUMPDEST PUSH32 0x4753343030000000000000000000000000000000000000000000000000000000 PUSH1 0x0 DUP3 ADD MSTORE POP JUMP JUMPDEST PUSH1 0x0 PUSH2 0x6393 PUSH1 0x5 DUP4 PUSH2 0x4E40 JUMP JUMPDEST SWAP2 POP PUSH2 0x639E DUP3 PUSH2 0x635D JUMP JUMPDEST PUSH1 0x20 DUP3 ADD SWAP1 POP SWAP2 SWAP1 POP JUMP JUMPDEST PUSH1 0x0 PUSH1 0x20 DUP3 ADD SWAP1 POP DUP2 DUP2 SUB PUSH1 0x0 DUP4 ADD MSTORE PUSH2 0x63C2 DUP2 PUSH2 0x6386 JUMP JUMPDEST SWAP1 POP SWAP2 SWAP1 POP JUMP JUMPDEST PUSH32 0x4753313030000000000000000000000000000000000000000000000000000000 PUSH1 0x0 DUP3 ADD MSTORE POP JUMP JUMPDEST PUSH1 0x0 PUSH2 0x63FF PUSH1 0x5 DUP4 PUSH2 0x4E40 JUMP JUMPDEST SWAP2 POP PUSH2 0x640A DUP3 PUSH2 0x63C9 JUMP JUMPDEST PUSH1 0x20 DUP3 ADD SWAP1 POP SWAP2 SWAP1 POP JUMP JUMPDEST PUSH1 0x0 PUSH1 0x20 DUP3 ADD SWAP1 POP DUP2 DUP2 SUB PUSH1 0x0 DUP4 ADD MSTORE PUSH2 0x642E DUP2 PUSH2 0x63F2 JUMP JUMPDEST SWAP1 POP SWAP2 SWAP1 POP JUMP JUMPDEST PUSH32 0x4753303032000000000000000000000000000000000000000000000000000000 PUSH1 0x0 DUP3 ADD MSTORE POP JUMP JUMPDEST PUSH1 0x0 PUSH2 0x646B PUSH1 0x5 DUP4 PUSH2 0x4E40 JUMP JUMPDEST SWAP2 POP PUSH2 0x6476 DUP3 PUSH2 0x6435 JUMP JUMPDEST PUSH1 0x20 DUP3 ADD SWAP1 POP SWAP2 SWAP1 POP JUMP JUMPDEST PUSH1 0x0 PUSH1 0x20 DUP3 ADD SWAP1 POP DUP2 DUP2 SUB PUSH1 0x0 DUP4 ADD MSTORE PUSH2 0x649A DUP2 PUSH2 0x645E JUMP JUMPDEST SWAP1 POP SWAP2 SWAP1 POP JUMP JUMPDEST PUSH32 0x4753303030000000000000000000000000000000000000000000000000000000 PUSH1 0x0 DUP3 ADD MSTORE POP JUMP JUMPDEST PUSH1 0x0 PUSH2 0x64D7 PUSH1 0x5 DUP4 PUSH2 0x4E40 JUMP JUMPDEST SWAP2 POP PUSH2 0x64E2 DUP3 PUSH2 0x64A1 JUMP JUMPDEST PUSH1 0x20 DUP3 ADD SWAP1 POP SWAP2 SWAP1 POP JUMP JUMPDEST PUSH1 0x0 PUSH1 0x20 DUP3 ADD SWAP1 POP DUP2 DUP2 SUB PUSH1 0x0 DUP4 ADD MSTORE PUSH2 0x6506 DUP2 PUSH2 0x64CA JUMP JUMPDEST SWAP1 POP SWAP2 SWAP1 POP JUMP JUMPDEST PUSH1 0x0 PUSH1 0x40 DUP3 ADD SWAP1 POP PUSH2 0x6522 PUSH1 0x0 DUP4 ADD DUP6 PUSH2 0x4BE6 JUMP JUMPDEST PUSH2 0x652F PUSH1 0x20 DUP4 ADD DUP5 PUSH2 0x413F JUMP JUMPDEST SWAP4 SWAP3 POP POP POP JUMP INVALID LOG2 PUSH5 0x6970667358 0x22 SLT KECCAK256 PUSH14 0x9920BBC32B93CFF878EACBEDEAA9 0xDA 0xEB GASLIMIT PUSH5 0xDFF9E35F38 0x5D 0x4A 0xD8 CALLVALUE DELEGATECALL 0xC3 CHAINID 0xD3 PUSH5 0x736F6C6343 STOP ADDMOD SGT STOP CALLER "},"gasEstimates":{"creation":{"codeDepositCost":"5192800","executionCost":"28324","totalCost":"5221124"},"external":{"":"infinite","VERSION()":"infinite","addOwnerWithThreshold(address,uint256)":"infinite","approveHash(bytes32)":"26552","approvedHashes(address,bytes32)":"3117","changeThreshold(uint256)":"infinite","checkNSignatures(bytes32,bytes,bytes,uint256)":"infinite","checkSignatures(bytes32,bytes,bytes)":"infinite","disableModule(address,address)":"infinite","domainSeparator()":"infinite","enableModule(address)":"55048","encodeTransactionData(address,uint256,bytes,uint8,uint256,uint256,uint256,address,address,uint256)":"infinite","execTransaction(address,uint256,bytes,uint8,uint256,uint256,uint256,address,address,bytes)":"infinite","execTransactionFromModule(address,uint256,bytes,uint8)":"infinite","execTransactionFromModuleReturnData(address,uint256,bytes,uint8)":"infinite","getChainId()":"417","getModulesPaginated(address,uint256)":"infinite","getOwners()":"infinite","getStorageAt(uint256,uint256)":"infinite","getThreshold()":"2526","getTransactionHash(address,uint256,bytes,uint8,uint256,uint256,uint256,address,address,uint256)":"infinite","isModuleEnabled(address)":"3041","isOwner(address)":"2996","nonce()":"2475","removeOwner(address,address,uint256)":"infinite","setFallbackHandler(address)":"23905","setGuard(address)":"infinite","setup(address[],uint256,address,bytes,address,address,uint256,address)":"infinite","signedMessages(bytes32)":"2833","simulateAndRevert(address,bytes)":"infinite","swapOwner(address,address,address)":"infinite"},"internal":{"handlePayment(uint256,uint256,uint256,address,address payable)":"infinite"}},"methodIdentifiers":{"VERSION()":"ffa1ad74","addOwnerWithThreshold(address,uint256)":"0d582f13","approveHash(bytes32)":"d4d9bdcd","approvedHashes(address,bytes32)":"7d832974","changeThreshold(uint256)":"694e80c3","checkNSignatures(bytes32,bytes,bytes,uint256)":"12fb68e0","checkSignatures(bytes32,bytes,bytes)":"934f3a11","disableModule(address,address)":"e009cfde","domainSeparator()":"f698da25","enableModule(address)":"610b5925","encodeTransactionData(address,uint256,bytes,uint8,uint256,uint256,uint256,address,address,uint256)":"e86637db","execTransaction(address,uint256,bytes,uint8,uint256,uint256,uint256,address,address,bytes)":"6a761202","execTransactionFromModule(address,uint256,bytes,uint8)":"468721a7","execTransactionFromModuleReturnData(address,uint256,bytes,uint8)":"5229073f","getChainId()":"3408e470","getModulesPaginated(address,uint256)":"cc2f8452","getOwners()":"a0e67e2b","getStorageAt(uint256,uint256)":"5624b25b","getThreshold()":"e75235b8","getTransactionHash(address,uint256,bytes,uint8,uint256,uint256,uint256,address,address,uint256)":"d8d11f78","isModuleEnabled(address)":"2d9ad53d","isOwner(address)":"2f54bf6e","nonce()":"affed0e0","removeOwner(address,address,uint256)":"f8dc5dd9","setFallbackHandler(address)":"f08a0323","setGuard(address)":"e19a9dd9","setup(address[],uint256,address,bytes,address,address,uint256,address)":"b63e800d","signedMessages(bytes32)":"5ae6bd37","simulateAndRevert(address,bytes)":"b4faba09","swapOwner(address,address,address)":"e318b52b"}},"storageLayout":{"storage":[{"astId":2184,"contract":"@safe-global/safe-contracts/contracts/Safe.sol:Safe","label":"singleton","offset":0,"slot":"0","type":"t_address"},{"astId":1174,"contract":"@safe-global/safe-contracts/contracts/Safe.sol:Safe","label":"modules","offset":0,"slot":"1","type":"t_mapping(t_address,t_address)"},{"astId":1592,"contract":"@safe-global/safe-contracts/contracts/Safe.sol:Safe","label":"owners","offset":0,"slot":"2","type":"t_mapping(t_address,t_address)"},{"astId":1594,"contract":"@safe-global/safe-contracts/contracts/Safe.sol:Safe","label":"ownerCount","offset":0,"slot":"3","type":"t_uint256"},{"astId":1596,"contract":"@safe-global/safe-contracts/contracts/Safe.sol:Safe","label":"threshold","offset":0,"slot":"4","type":"t_uint256"},{"astId":82,"contract":"@safe-global/safe-contracts/contracts/Safe.sol:Safe","label":"nonce","offset":0,"slot":"5","type":"t_uint256"},{"astId":84,"contract":"@safe-global/safe-contracts/contracts/Safe.sol:Safe","label":"_deprecatedDomainSeparator","offset":0,"slot":"6","type":"t_bytes32"},{"astId":88,"contract":"@safe-global/safe-contracts/contracts/Safe.sol:Safe","label":"signedMessages","offset":0,"slot":"7","type":"t_mapping(t_bytes32,t_uint256)"},{"astId":94,"contract":"@safe-global/safe-contracts/contracts/Safe.sol:Safe","label":"approvedHashes","offset":0,"slot":"8","type":"t_mapping(t_address,t_mapping(t_bytes32,t_uint256))"}],"types":{"t_address":{"encoding":"inplace","label":"address","numberOfBytes":"20"},"t_bytes32":{"encoding":"inplace","label":"bytes32","numberOfBytes":"32"},"t_mapping(t_address,t_address)":{"encoding":"mapping","key":"t_address","label":"mapping(address => address)","numberOfBytes":"32","value":"t_address"},"t_mapping(t_address,t_mapping(t_bytes32,t_uint256))":{"encoding":"mapping","key":"t_address","label":"mapping(address => mapping(bytes32 => uint256))","numberOfBytes":"32","value":"t_mapping(t_bytes32,t_uint256)"},"t_mapping(t_bytes32,t_uint256)":{"encoding":"mapping","key":"t_bytes32","label":"mapping(bytes32 => uint256)","numberOfBytes":"32","value":"t_uint256"},"t_uint256":{"encoding":"inplace","label":"uint256","numberOfBytes":"32"}}},"userdoc":{"kind":"user","methods":{"addOwnerWithThreshold(address,uint256)":{"notice":"Adds the owner `owner` to the Safe and updates the threshold to `_threshold`."},"approveHash(bytes32)":{"notice":"Marks hash `hashToApprove` as approved."},"changeThreshold(uint256)":{"notice":"Changes the threshold of the Safe to `_threshold`."},"checkNSignatures(bytes32,bytes,bytes,uint256)":{"notice":"Checks whether the signature provided is valid for the provided data and hash. Reverts otherwise."},"checkSignatures(bytes32,bytes,bytes)":{"notice":"Checks whether the signature provided is valid for the provided data and hash. Reverts otherwise."},"disableModule(address,address)":{"notice":"Disables the module `module` for the Safe."},"enableModule(address)":{"notice":"Enables the module `module` for the Safe."},"encodeTransactionData(address,uint256,bytes,uint8,uint256,uint256,uint256,address,address,uint256)":{"notice":"Returns the pre-image of the transaction hash (see getTransactionHash)."},"execTransaction(address,uint256,bytes,uint8,uint256,uint256,uint256,address,address,bytes)":{"notice":"Executes a `operation` {0: Call, 1: DelegateCall}} transaction to `to` with `value` (Native Currency)          and pays `gasPrice` * `gasLimit` in `gasToken` token to `refundReceiver`."},"execTransactionFromModule(address,uint256,bytes,uint8)":{"notice":"Execute `operation` (0: Call, 1: DelegateCall) to `to` with `value` (Native Token)"},"execTransactionFromModuleReturnData(address,uint256,bytes,uint8)":{"notice":"Execute `operation` (0: Call, 1: DelegateCall) to `to` with `value` (Native Token) and return data"},"getChainId()":{"notice":"Returns the ID of the chain the contract is currently deployed on."},"getModulesPaginated(address,uint256)":{"notice":"Returns an array of modules.         If all entries fit into a single page, the next pointer will be 0x1.         If another page is present, next will be the last element of the returned array."},"getOwners()":{"notice":"Returns a list of Safe owners."},"getStorageAt(uint256,uint256)":{"notice":"Reads `length` bytes of storage in the currents contract"},"getThreshold()":{"notice":"Returns the number of required confirmations for a Safe transaction aka the threshold."},"getTransactionHash(address,uint256,bytes,uint8,uint256,uint256,uint256,address,address,uint256)":{"notice":"Returns transaction hash to be signed by owners."},"isModuleEnabled(address)":{"notice":"Returns if an module is enabled"},"isOwner(address)":{"notice":"Returns if `owner` is an owner of the Safe."},"removeOwner(address,address,uint256)":{"notice":"Removes the owner `owner` from the Safe and updates the threshold to `_threshold`."},"setFallbackHandler(address)":{"notice":"Set Fallback Handler to `handler` for the Safe."},"setGuard(address)":{"notice":"Set Transaction Guard `guard` for the Safe. Make sure you trust the guard."},"setup(address[],uint256,address,bytes,address,address,uint256,address)":{"notice":"Sets an initial storage of the Safe contract."},"swapOwner(address,address,address)":{"notice":"Replaces the owner `oldOwner` in the Safe with `newOwner`."}},"version":1}}}}