{"@safe-global/safe-contracts/contracts/proxies/SafeProxyFactory.sol":{"SafeProxyFactory":{"abi":[{"anonymous":false,"inputs":[{"indexed":true,"internalType":"contract SafeProxy","name":"proxy","type":"address"},{"indexed":false,"internalType":"address","name":"singleton","type":"address"}],"name":"ProxyCreation","type":"event"},{"inputs":[{"internalType":"address","name":"_singleton","type":"address"},{"internalType":"bytes","name":"initializer","type":"bytes"},{"internalType":"uint256","name":"saltNonce","type":"uint256"}],"name":"createChainSpecificProxyWithNonce","outputs":[{"internalType":"contract SafeProxy","name":"proxy","type":"address"}],"stateMutability":"nonpayable","type":"function"},{"inputs":[{"internalType":"address","name":"_singleton","type":"address"},{"internalType":"bytes","name":"initializer","type":"bytes"},{"internalType":"uint256","name":"saltNonce","type":"uint256"},{"internalType":"contract IProxyCreationCallback","name":"callback","type":"address"}],"name":"createProxyWithCallback","outputs":[{"internalType":"contract SafeProxy","name":"proxy","type":"address"}],"stateMutability":"nonpayable","type":"function"},{"inputs":[{"internalType":"address","name":"_singleton","type":"address"},{"internalType":"bytes","name":"initializer","type":"bytes"},{"internalType":"uint256","name":"saltNonce","type":"uint256"}],"name":"createProxyWithNonce","outputs":[{"internalType":"contract SafeProxy","name":"proxy","type":"address"}],"stateMutability":"nonpayable","type":"function"},{"inputs":[],"name":"getChainId","outputs":[{"internalType":"uint256","name":"","type":"uint256"}],"stateMutability":"view","type":"function"},{"inputs":[],"name":"proxyCreationCode","outputs":[{"internalType":"bytes","name":"","type":"bytes"}],"stateMutability":"pure","type":"function"}],"devdoc":{"author":"Stefan George - @Georgi87","kind":"dev","methods":{"createChainSpecificProxyWithNonce(address,bytes,uint256)":{"details":"Allows to create a new proxy contract that should exist only on 1 network (e.g. specific governance or admin accounts)      by including the chain id in the create2 salt. Such proxies cannot be created on other networks by replaying the transaction.","params":{"_singleton":"Address of singleton contract. Must be deployed at the time of execution.","initializer":"Payload for a message call to be sent to a new proxy contract.","saltNonce":"Nonce that will be used to generate the salt to calculate the address of the new proxy contract."}},"createProxyWithCallback(address,bytes,uint256,address)":{"params":{"_singleton":"Address of singleton contract. Must be deployed at the time of execution.","callback":"Callback that will be invoked after the new proxy contract has been successfully deployed and initialized.","initializer":"Payload for a message call to be sent to a new proxy contract.","saltNonce":"Nonce that will be used to generate the salt to calculate the address of the new proxy contract."}},"createProxyWithNonce(address,bytes,uint256)":{"params":{"_singleton":"Address of singleton contract. Must be deployed at the time of execution.","initializer":"Payload for a message call to be sent to a new proxy contract.","saltNonce":"Nonce that will be used to generate the salt to calculate the address of the new proxy contract."}},"getChainId()":{"returns":{"_0":"The ID of the current chain as a uint256."}},"proxyCreationCode()":{"details":"Allows to retrieve the creation code used for the Proxy deployment. With this it is easily possible to calculate predicted address."}},"title":"Proxy Factory - Allows to create a new proxy contract and execute a message call to the new proxy within one transaction.","version":1},"evm":{"bytecode":{"linkReferences":{},"object":"608060405234801561001057600080fd5b50611065806100206000396000f3fe60806040523480156200001157600080fd5b50600436106200005e5760003560e01c80631688f0b914620000635780633408e470146200009957806353e5d93514620000bb578063d18af54d14620000dd578063ec9e80bb1462000113575b600080fd5b6200008160048036038101906200007b919062000756565b62000149565b6040516200009091906200083c565b60405180910390f35b620000a3620001e7565b604051620000b291906200086a565b60405180910390f35b620000c5620001f4565b604051620000d4919062000910565b60405180910390f35b620000fb6004803603810190620000f5919062000979565b62000221565b6040516200010a91906200083c565b60405180910390f35b6200013160048036038101906200012b919062000756565b62000317565b6040516200014091906200083c565b60405180910390f35b6000808380519060200120836040516020016200016892919062000a5e565b6040516020818303038152906040528051906020012090506200018d858583620003c0565b91508173ffffffffffffffffffffffffffffffffffffffff167f4f51faf6c4561ff95f067657e43439f0f856d97c04d9ec9070a6199ad418e23586604051620001d7919062000a9f565b60405180910390a2509392505050565b6000804690508091505090565b606060405180602001620002089062000532565b6020820181038252601f19601f82011660405250905090565b60008083836040516020016200023992919062000b34565b6040516020818303038152906040528051906020012060001c90506200026186868362000149565b9150600073ffffffffffffffffffffffffffffffffffffffff168373ffffffffffffffffffffffffffffffffffffffff16146200030e578273ffffffffffffffffffffffffffffffffffffffff16631e52b518838888886040518563ffffffff1660e01b8152600401620002d9949392919062000b64565b600060405180830381600087803b158015620002f457600080fd5b505af115801562000309573d6000803e3d6000fd5b505050505b50949350505050565b6000808380519060200120836200032d620001e7565b604051602001620003419392919062000bb8565b60405160208183030381529060405280519060200120905062000366858583620003c0565b91508173ffffffffffffffffffffffffffffffffffffffff167f4f51faf6c4561ff95f067657e43439f0f856d97c04d9ec9070a6199ad418e23586604051620003b0919062000a9f565b60405180910390a2509392505050565b6000620003cd846200051f565b6200040f576040517f08c379a0000000000000000000000000000000000000000000000000000000008152600401620004069062000c5c565b60405180910390fd5b600060405180602001620004239062000532565b6020820181038252601f19601f820116604052508573ffffffffffffffffffffffffffffffffffffffff166040516020016200046192919062000cc0565b6040516020818303038152906040529050828151826020016000f59150600073ffffffffffffffffffffffffffffffffffffffff168273ffffffffffffffffffffffffffffffffffffffff1603620004f0576040517f08c379a0000000000000000000000000000000000000000000000000000000008152600401620004e79062000d3c565b60405180910390fd5b600084511115620005175760008060008651602088016000875af1036200051657600080fd5b5b509392505050565b600080823b905060008111915050919050565b6102d18062000d5f83390190565b6000604051905090565b600080fd5b600080fd5b600073ffffffffffffffffffffffffffffffffffffffff82169050919050565b6000620005818262000554565b9050919050565b620005938162000574565b81146200059f57600080fd5b50565b600081359050620005b38162000588565b92915050565b600080fd5b600080fd5b6000601f19601f8301169050919050565b7f4e487b7100000000000000000000000000000000000000000000000000000000600052604160045260246000fd5b6200060e82620005c3565b810181811067ffffffffffffffff8211171562000630576200062f620005d4565b5b80604052505050565b60006200064562000540565b905062000653828262000603565b919050565b600067ffffffffffffffff821115620006765762000675620005d4565b5b6200068182620005c3565b9050602081019050919050565b82818337600083830152505050565b6000620006b4620006ae8462000658565b62000639565b905082815260208101848484011115620006d357620006d2620005be565b5b620006e08482856200068e565b509392505050565b600082601f8301126200070057620006ff620005b9565b5b8135620007128482602086016200069d565b91505092915050565b6000819050919050565b62000730816200071b565b81146200073c57600080fd5b50565b600081359050620007508162000725565b92915050565b6000806000606084860312156200077257620007716200054a565b5b60006200078286828701620005a2565b935050602084013567ffffffffffffffff811115620007a657620007a56200054f565b5b620007b486828701620006e8565b9250506040620007c7868287016200073f565b9150509250925092565b6000819050919050565b6000620007fc620007f6620007f08462000554565b620007d1565b62000554565b9050919050565b60006200081082620007db565b9050919050565b6000620008248262000803565b9050919050565b620008368162000817565b82525050565b60006020820190506200085360008301846200082b565b92915050565b62000864816200071b565b82525050565b600060208201905062000881600083018462000859565b92915050565b600081519050919050565b600082825260208201905092915050565b60005b83811015620008c3578082015181840152602081019050620008a6565b60008484015250505050565b6000620008dc8262000887565b620008e8818562000892565b9350620008fa818560208601620008a3565b6200090581620005c3565b840191505092915050565b600060208201905081810360008301526200092c8184620008cf565b905092915050565b6000620009418262000574565b9050919050565b620009538162000934565b81146200095f57600080fd5b50565b600081359050620009738162000948565b92915050565b600080600080608085870312156200099657620009956200054a565b5b6000620009a687828801620005a2565b945050602085013567ffffffffffffffff811115620009ca57620009c96200054f565b5b620009d887828801620006e8565b9350506040620009eb878288016200073f565b9250506060620009fe8782880162000962565b91505092959194509250565b6000819050919050565b6000819050919050565b62000a3362000a2d8262000a0a565b62000a14565b82525050565b6000819050919050565b62000a5862000a52826200071b565b62000a39565b82525050565b600062000a6c828562000a1e565b60208201915062000a7e828462000a43565b6020820191508190509392505050565b62000a998162000574565b82525050565b600060208201905062000ab6600083018462000a8e565b92915050565b600062000ac982620007db565b9050919050565b600062000add8262000abc565b9050919050565b60008160601b9050919050565b600062000afe8262000ae4565b9050919050565b600062000b128262000af1565b9050919050565b62000b2e62000b288262000ad0565b62000b05565b82525050565b600062000b42828562000a43565b60208201915062000b54828462000b19565b6014820191508190509392505050565b600060808201905062000b7b60008301876200082b565b62000b8a602083018662000a8e565b818103604083015262000b9e8185620008cf565b905062000baf606083018462000859565b95945050505050565b600062000bc6828662000a1e565b60208201915062000bd8828562000a43565b60208201915062000bea828462000a43565b602082019150819050949350505050565b600082825260208201905092915050565b7f53696e676c65746f6e20636f6e7472616374206e6f74206465706c6f79656400600082015250565b600062000c44601f8362000bfb565b915062000c518262000c0c565b602082019050919050565b6000602082019050818103600083015262000c778162000c35565b9050919050565b600081905092915050565b600062000c968262000887565b62000ca2818562000c7e565b935062000cb4818560208601620008a3565b80840191505092915050565b600062000cce828562000c89565b915062000cdc828462000a43565b6020820191508190509392505050565b7f437265617465322063616c6c206661696c656400000000000000000000000000600082015250565b600062000d2460138362000bfb565b915062000d318262000cec565b602082019050919050565b6000602082019050818103600083015262000d578162000d15565b905091905056fe608060405234801561001057600080fd5b506040516102d13803806102d18339818101604052810190610032919061014a565b600073ffffffffffffffffffffffffffffffffffffffff168173ffffffffffffffffffffffffffffffffffffffff16036100a1576040517f08c379a0000000000000000000000000000000000000000000000000000000008152600401610098906101fa565b60405180910390fd5b806000806101000a81548173ffffffffffffffffffffffffffffffffffffffff021916908373ffffffffffffffffffffffffffffffffffffffff1602179055505061021a565b600080fd5b600073ffffffffffffffffffffffffffffffffffffffff82169050919050565b6000610117826100ec565b9050919050565b6101278161010c565b811461013257600080fd5b50565b6000815190506101448161011e565b92915050565b6000602082840312156101605761015f6100e7565b5b600061016e84828501610135565b91505092915050565b600082825260208201905092915050565b7f496e76616c69642073696e676c65746f6e20616464726573732070726f76696460008201527f6564000000000000000000000000000000000000000000000000000000000000602082015250565b60006101e4602283610177565b91506101ef82610188565b604082019050919050565b60006020820190508181036000830152610213816101d7565b9050919050565b60a9806102286000396000f3fe608060405273ffffffffffffffffffffffffffffffffffffffff600054167fa619486e0000000000000000000000000000000000000000000000000000000060003503604f578060005260206000f35b3660008037600080366000845af43d6000803e60008103606e573d6000fd5b3d6000f3fea264697066735822122006cd08c34e8eb7a5ced4d3f21b317a68f4b06f0033bbbc390fb6f2952834e6f164736f6c63430008130033a2646970667358221220d9706c41bd06bd6b71937df30fd4ed50604c2756711845ad34b60e688d6c754464736f6c63430008130033","opcodes":"PUSH1 0x80 PUSH1 0x40 MSTORE CALLVALUE DUP1 ISZERO PUSH2 0x10 JUMPI PUSH1 0x0 DUP1 REVERT JUMPDEST POP PUSH2 0x1065 DUP1 PUSH2 0x20 PUSH1 0x0 CODECOPY PUSH1 0x0 RETURN INVALID PUSH1 0x80 PUSH1 0x40 MSTORE CALLVALUE DUP1 ISZERO PUSH3 0x11 JUMPI PUSH1 0x0 DUP1 REVERT JUMPDEST POP PUSH1 0x4 CALLDATASIZE LT PUSH3 0x5E JUMPI PUSH1 0x0 CALLDATALOAD PUSH1 0xE0 SHR DUP1 PUSH4 0x1688F0B9 EQ PUSH3 0x63 JUMPI DUP1 PUSH4 0x3408E470 EQ PUSH3 0x99 JUMPI DUP1 PUSH4 0x53E5D935 EQ PUSH3 0xBB JUMPI DUP1 PUSH4 0xD18AF54D EQ PUSH3 0xDD JUMPI DUP1 PUSH4 0xEC9E80BB EQ PUSH3 0x113 JUMPI JUMPDEST PUSH1 0x0 DUP1 REVERT JUMPDEST PUSH3 0x81 PUSH1 0x4 DUP1 CALLDATASIZE SUB DUP2 ADD SWAP1 PUSH3 0x7B SWAP2 SWAP1 PUSH3 0x756 JUMP JUMPDEST PUSH3 0x149 JUMP JUMPDEST PUSH1 0x40 MLOAD PUSH3 0x90 SWAP2 SWAP1 PUSH3 0x83C JUMP JUMPDEST PUSH1 0x40 MLOAD DUP1 SWAP2 SUB SWAP1 RETURN JUMPDEST PUSH3 0xA3 PUSH3 0x1E7 JUMP JUMPDEST PUSH1 0x40 MLOAD PUSH3 0xB2 SWAP2 SWAP1 PUSH3 0x86A JUMP JUMPDEST PUSH1 0x40 MLOAD DUP1 SWAP2 SUB SWAP1 RETURN JUMPDEST PUSH3 0xC5 PUSH3 0x1F4 JUMP JUMPDEST PUSH1 0x40 MLOAD PUSH3 0xD4 SWAP2 SWAP1 PUSH3 0x910 JUMP JUMPDEST PUSH1 0x40 MLOAD DUP1 SWAP2 SUB SWAP1 RETURN JUMPDEST PUSH3 0xFB PUSH1 0x4 DUP1 CALLDATASIZE SUB DUP2 ADD SWAP1 PUSH3 0xF5 SWAP2 SWAP1 PUSH3 0x979 JUMP JUMPDEST PUSH3 0x221 JUMP JUMPDEST PUSH1 0x40 MLOAD PUSH3 0x10A SWAP2 SWAP1 PUSH3 0x83C JUMP JUMPDEST PUSH1 0x40 MLOAD DUP1 SWAP2 SUB SWAP1 RETURN JUMPDEST PUSH3 0x131 PUSH1 0x4 DUP1 CALLDATASIZE SUB DUP2 ADD SWAP1 PUSH3 0x12B SWAP2 SWAP1 PUSH3 0x756 JUMP JUMPDEST PUSH3 0x317 JUMP JUMPDEST PUSH1 0x40 MLOAD PUSH3 0x140 SWAP2 SWAP1 PUSH3 0x83C JUMP JUMPDEST PUSH1 0x40 MLOAD DUP1 SWAP2 SUB SWAP1 RETURN JUMPDEST PUSH1 0x0 DUP1 DUP4 DUP1 MLOAD SWAP1 PUSH1 0x20 ADD KECCAK256 DUP4 PUSH1 0x40 MLOAD PUSH1 0x20 ADD PUSH3 0x168 SWAP3 SWAP2 SWAP1 PUSH3 0xA5E JUMP JUMPDEST PUSH1 0x40 MLOAD PUSH1 0x20 DUP2 DUP4 SUB SUB DUP2 MSTORE SWAP1 PUSH1 0x40 MSTORE DUP1 MLOAD SWAP1 PUSH1 0x20 ADD KECCAK256 SWAP1 POP PUSH3 0x18D DUP6 DUP6 DUP4 PUSH3 0x3C0 JUMP JUMPDEST SWAP2 POP DUP2 PUSH20 0xFFFFFFFFFFFFFFFFFFFFFFFFFFFFFFFFFFFFFFFF AND PUSH32 0x4F51FAF6C4561FF95F067657E43439F0F856D97C04D9EC9070A6199AD418E235 DUP7 PUSH1 0x40 MLOAD PUSH3 0x1D7 SWAP2 SWAP1 PUSH3 0xA9F JUMP JUMPDEST PUSH1 0x40 MLOAD DUP1 SWAP2 SUB SWAP1 LOG2 POP SWAP4 SWAP3 POP POP POP JUMP JUMPDEST PUSH1 0x0 DUP1 CHAINID SWAP1 POP DUP1 SWAP2 POP POP SWAP1 JUMP JUMPDEST PUSH1 0x60 PUSH1 0x40 MLOAD DUP1 PUSH1 0x20 ADD PUSH3 0x208 SWAP1 PUSH3 0x532 JUMP JUMPDEST PUSH1 0x20 DUP3 ADD DUP2 SUB DUP3 MSTORE PUSH1 0x1F NOT PUSH1 0x1F DUP3 ADD AND PUSH1 0x40 MSTORE POP SWAP1 POP SWAP1 JUMP JUMPDEST PUSH1 0x0 DUP1 DUP4 DUP4 PUSH1 0x40 MLOAD PUSH1 0x20 ADD PUSH3 0x239 SWAP3 SWAP2 SWAP1 PUSH3 0xB34 JUMP JUMPDEST PUSH1 0x40 MLOAD PUSH1 0x20 DUP2 DUP4 SUB SUB DUP2 MSTORE SWAP1 PUSH1 0x40 MSTORE DUP1 MLOAD SWAP1 PUSH1 0x20 ADD KECCAK256 PUSH1 0x0 SHR SWAP1 POP PUSH3 0x261 DUP7 DUP7 DUP4 PUSH3 0x149 JUMP JUMPDEST SWAP2 POP PUSH1 0x0 PUSH20 0xFFFFFFFFFFFFFFFFFFFFFFFFFFFFFFFFFFFFFFFF AND DUP4 PUSH20 0xFFFFFFFFFFFFFFFFFFFFFFFFFFFFFFFFFFFFFFFF AND EQ PUSH3 0x30E JUMPI DUP3 PUSH20 0xFFFFFFFFFFFFFFFFFFFFFFFFFFFFFFFFFFFFFFFF AND PUSH4 0x1E52B518 DUP4 DUP9 DUP9 DUP9 PUSH1 0x40 MLOAD DUP6 PUSH4 0xFFFFFFFF AND PUSH1 0xE0 SHL DUP2 MSTORE PUSH1 0x4 ADD PUSH3 0x2D9 SWAP5 SWAP4 SWAP3 SWAP2 SWAP1 PUSH3 0xB64 JUMP JUMPDEST PUSH1 0x0 PUSH1 0x40 MLOAD DUP1 DUP4 SUB DUP2 PUSH1 0x0 DUP8 DUP1 EXTCODESIZE ISZERO DUP1 ISZERO PUSH3 0x2F4 JUMPI PUSH1 0x0 DUP1 REVERT JUMPDEST POP GAS CALL ISZERO DUP1 ISZERO PUSH3 0x309 JUMPI RETURNDATASIZE PUSH1 0x0 DUP1 RETURNDATACOPY RETURNDATASIZE PUSH1 0x0 REVERT JUMPDEST POP POP POP POP JUMPDEST POP SWAP5 SWAP4 POP POP POP POP JUMP JUMPDEST PUSH1 0x0 DUP1 DUP4 DUP1 MLOAD SWAP1 PUSH1 0x20 ADD KECCAK256 DUP4 PUSH3 0x32D PUSH3 0x1E7 JUMP JUMPDEST PUSH1 0x40 MLOAD PUSH1 0x20 ADD PUSH3 0x341 SWAP4 SWAP3 SWAP2 SWAP1 PUSH3 0xBB8 JUMP JUMPDEST PUSH1 0x40 MLOAD PUSH1 0x20 DUP2 DUP4 SUB SUB DUP2 MSTORE SWAP1 PUSH1 0x40 MSTORE DUP1 MLOAD SWAP1 PUSH1 0x20 ADD KECCAK256 SWAP1 POP PUSH3 0x366 DUP6 DUP6 DUP4 PUSH3 0x3C0 JUMP JUMPDEST SWAP2 POP DUP2 PUSH20 0xFFFFFFFFFFFFFFFFFFFFFFFFFFFFFFFFFFFFFFFF AND PUSH32 0x4F51FAF6C4561FF95F067657E43439F0F856D97C04D9EC9070A6199AD418E235 DUP7 PUSH1 0x40 MLOAD PUSH3 0x3B0 SWAP2 SWAP1 PUSH3 0xA9F JUMP JUMPDEST PUSH1 0x40 MLOAD DUP1 SWAP2 SUB SWAP1 LOG2 POP SWAP4 SWAP3 POP POP POP JUMP JUMPDEST PUSH1 0x0 PUSH3 0x3CD DUP5 PUSH3 0x51F JUMP JUMPDEST PUSH3 0x40F JUMPI PUSH1 0x40 MLOAD PUSH32 0x8C379A000000000000000000000000000000000000000000000000000000000 DUP2 MSTORE PUSH1 0x4 ADD PUSH3 0x406 SWAP1 PUSH3 0xC5C JUMP JUMPDEST PUSH1 0x40 MLOAD DUP1 SWAP2 SUB SWAP1 REVERT JUMPDEST PUSH1 0x0 PUSH1 0x40 MLOAD DUP1 PUSH1 0x20 ADD PUSH3 0x423 SWAP1 PUSH3 0x532 JUMP JUMPDEST PUSH1 0x20 DUP3 ADD DUP2 SUB DUP3 MSTORE PUSH1 0x1F NOT PUSH1 0x1F DUP3 ADD AND PUSH1 0x40 MSTORE POP DUP6 PUSH20 0xFFFFFFFFFFFFFFFFFFFFFFFFFFFFFFFFFFFFFFFF AND PUSH1 0x40 MLOAD PUSH1 0x20 ADD PUSH3 0x461 SWAP3 SWAP2 SWAP1 PUSH3 0xCC0 JUMP JUMPDEST PUSH1 0x40 MLOAD PUSH1 0x20 DUP2 DUP4 SUB SUB DUP2 MSTORE SWAP1 PUSH1 0x40 MSTORE SWAP1 POP DUP3 DUP2 MLOAD DUP3 PUSH1 0x20 ADD PUSH1 0x0 CREATE2 SWAP2 POP PUSH1 0x0 PUSH20 0xFFFFFFFFFFFFFFFFFFFFFFFFFFFFFFFFFFFFFFFF AND DUP3 PUSH20 0xFFFFFFFFFFFFFFFFFFFFFFFFFFFFFFFFFFFFFFFF AND SUB PUSH3 0x4F0 JUMPI PUSH1 0x40 MLOAD PUSH32 0x8C379A000000000000000000000000000000000000000000000000000000000 DUP2 MSTORE PUSH1 0x4 ADD PUSH3 0x4E7 SWAP1 PUSH3 0xD3C JUMP JUMPDEST PUSH1 0x40 MLOAD DUP1 SWAP2 SUB SWAP1 REVERT JUMPDEST PUSH1 0x0 DUP5 MLOAD GT ISZERO PUSH3 0x517 JUMPI PUSH1 0x0 DUP1 PUSH1 0x0 DUP7 MLOAD PUSH1 0x20 DUP9 ADD PUSH1 0x0 DUP8 GAS CALL SUB PUSH3 0x516 JUMPI PUSH1 0x0 DUP1 REVERT JUMPDEST JUMPDEST POP SWAP4 SWAP3 POP POP POP JUMP JUMPDEST PUSH1 0x0 DUP1 DUP3 EXTCODESIZE SWAP1 POP PUSH1 0x0 DUP2 GT SWAP2 POP POP SWAP2 SWAP1 POP JUMP JUMPDEST PUSH2 0x2D1 DUP1 PUSH3 0xD5F DUP4 CODECOPY ADD SWAP1 JUMP JUMPDEST PUSH1 0x0 PUSH1 0x40 MLOAD SWAP1 POP SWAP1 JUMP JUMPDEST PUSH1 0x0 DUP1 REVERT JUMPDEST PUSH1 0x0 DUP1 REVERT JUMPDEST PUSH1 0x0 PUSH20 0xFFFFFFFFFFFFFFFFFFFFFFFFFFFFFFFFFFFFFFFF DUP3 AND SWAP1 POP SWAP2 SWAP1 POP JUMP JUMPDEST PUSH1 0x0 PUSH3 0x581 DUP3 PUSH3 0x554 JUMP JUMPDEST SWAP1 POP SWAP2 SWAP1 POP JUMP JUMPDEST PUSH3 0x593 DUP2 PUSH3 0x574 JUMP JUMPDEST DUP2 EQ PUSH3 0x59F JUMPI PUSH1 0x0 DUP1 REVERT JUMPDEST POP JUMP JUMPDEST PUSH1 0x0 DUP2 CALLDATALOAD SWAP1 POP PUSH3 0x5B3 DUP2 PUSH3 0x588 JUMP JUMPDEST SWAP3 SWAP2 POP POP JUMP JUMPDEST PUSH1 0x0 DUP1 REVERT JUMPDEST PUSH1 0x0 DUP1 REVERT JUMPDEST PUSH1 0x0 PUSH1 0x1F NOT PUSH1 0x1F DUP4 ADD AND SWAP1 POP SWAP2 SWAP1 POP JUMP JUMPDEST PUSH32 0x4E487B7100000000000000000000000000000000000000000000000000000000 PUSH1 0x0 MSTORE PUSH1 0x41 PUSH1 0x4 MSTORE PUSH1 0x24 PUSH1 0x0 REVERT JUMPDEST PUSH3 0x60E DUP3 PUSH3 0x5C3 JUMP JUMPDEST DUP2 ADD DUP2 DUP2 LT PUSH8 0xFFFFFFFFFFFFFFFF DUP3 GT OR ISZERO PUSH3 0x630 JUMPI PUSH3 0x62F PUSH3 0x5D4 JUMP JUMPDEST JUMPDEST DUP1 PUSH1 0x40 MSTORE POP POP POP JUMP JUMPDEST PUSH1 0x0 PUSH3 0x645 PUSH3 0x540 JUMP JUMPDEST SWAP1 POP PUSH3 0x653 DUP3 DUP3 PUSH3 0x603 JUMP JUMPDEST SWAP2 SWAP1 POP JUMP JUMPDEST PUSH1 0x0 PUSH8 0xFFFFFFFFFFFFFFFF DUP3 GT ISZERO PUSH3 0x676 JUMPI PUSH3 0x675 PUSH3 0x5D4 JUMP JUMPDEST JUMPDEST PUSH3 0x681 DUP3 PUSH3 0x5C3 JUMP JUMPDEST SWAP1 POP PUSH1 0x20 DUP2 ADD SWAP1 POP SWAP2 SWAP1 POP JUMP JUMPDEST DUP3 DUP2 DUP4 CALLDATACOPY PUSH1 0x0 DUP4 DUP4 ADD MSTORE POP POP POP JUMP JUMPDEST PUSH1 0x0 PUSH3 0x6B4 PUSH3 0x6AE DUP5 PUSH3 0x658 JUMP JUMPDEST PUSH3 0x639 JUMP JUMPDEST SWAP1 POP DUP3 DUP2 MSTORE PUSH1 0x20 DUP2 ADD DUP5 DUP5 DUP5 ADD GT ISZERO PUSH3 0x6D3 JUMPI PUSH3 0x6D2 PUSH3 0x5BE JUMP JUMPDEST JUMPDEST PUSH3 0x6E0 DUP5 DUP3 DUP6 PUSH3 0x68E JUMP JUMPDEST POP SWAP4 SWAP3 POP POP POP JUMP JUMPDEST PUSH1 0x0 DUP3 PUSH1 0x1F DUP4 ADD SLT PUSH3 0x700 JUMPI PUSH3 0x6FF PUSH3 0x5B9 JUMP JUMPDEST JUMPDEST DUP2 CALLDATALOAD PUSH3 0x712 DUP5 DUP3 PUSH1 0x20 DUP7 ADD PUSH3 0x69D JUMP JUMPDEST SWAP2 POP POP SWAP3 SWAP2 POP POP JUMP JUMPDEST PUSH1 0x0 DUP2 SWAP1 POP SWAP2 SWAP1 POP JUMP JUMPDEST PUSH3 0x730 DUP2 PUSH3 0x71B JUMP JUMPDEST DUP2 EQ PUSH3 0x73C JUMPI PUSH1 0x0 DUP1 REVERT JUMPDEST POP JUMP JUMPDEST PUSH1 0x0 DUP2 CALLDATALOAD SWAP1 POP PUSH3 0x750 DUP2 PUSH3 0x725 JUMP JUMPDEST SWAP3 SWAP2 POP POP JUMP JUMPDEST PUSH1 0x0 DUP1 PUSH1 0x0 PUSH1 0x60 DUP5 DUP7 SUB SLT ISZERO PUSH3 0x772 JUMPI PUSH3 0x771 PUSH3 0x54A JUMP JUMPDEST JUMPDEST PUSH1 0x0 PUSH3 0x782 DUP7 DUP3 DUP8 ADD PUSH3 0x5A2 JUMP JUMPDEST SWAP4 POP POP PUSH1 0x20 DUP5 ADD CALLDATALOAD PUSH8 0xFFFFFFFFFFFFFFFF DUP2 GT ISZERO PUSH3 0x7A6 JUMPI PUSH3 0x7A5 PUSH3 0x54F JUMP JUMPDEST JUMPDEST PUSH3 0x7B4 DUP7 DUP3 DUP8 ADD PUSH3 0x6E8 JUMP JUMPDEST SWAP3 POP POP PUSH1 0x40 PUSH3 0x7C7 DUP7 DUP3 DUP8 ADD PUSH3 0x73F JUMP JUMPDEST SWAP2 POP POP SWAP3 POP SWAP3 POP SWAP3 JUMP JUMPDEST PUSH1 0x0 DUP2 SWAP1 POP SWAP2 SWAP1 POP JUMP JUMPDEST PUSH1 0x0 PUSH3 0x7FC PUSH3 0x7F6 PUSH3 0x7F0 DUP5 PUSH3 0x554 JUMP JUMPDEST PUSH3 0x7D1 JUMP JUMPDEST PUSH3 0x554 JUMP JUMPDEST SWAP1 POP SWAP2 SWAP1 POP JUMP JUMPDEST PUSH1 0x0 PUSH3 0x810 DUP3 PUSH3 0x7DB JUMP JUMPDEST SWAP1 POP SWAP2 SWAP1 POP JUMP JUMPDEST PUSH1 0x0 PUSH3 0x824 DUP3 PUSH3 0x803 JUMP JUMPDEST SWAP1 POP SWAP2 SWAP1 POP JUMP JUMPDEST PUSH3 0x836 DUP2 PUSH3 0x817 JUMP JUMPDEST DUP3 MSTORE POP POP JUMP JUMPDEST PUSH1 0x0 PUSH1 0x20 DUP3 ADD SWAP1 POP PUSH3 0x853 PUSH1 0x0 DUP4 ADD DUP5 PUSH3 0x82B JUMP JUMPDEST SWAP3 SWAP2 POP POP JUMP JUMPDEST PUSH3 0x864 DUP2 PUSH3 0x71B JUMP JUMPDEST DUP3 MSTORE POP POP JUMP JUMPDEST PUSH1 0x0 PUSH1 0x20 DUP3 ADD SWAP1 POP PUSH3 0x881 PUSH1 0x0 DUP4 ADD DUP5 PUSH3 0x859 JUMP JUMPDEST SWAP3 SWAP2 POP POP JUMP JUMPDEST PUSH1 0x0 DUP2 MLOAD SWAP1 POP SWAP2 SWAP1 POP JUMP JUMPDEST PUSH1 0x0 DUP3 DUP3 MSTORE PUSH1 0x20 DUP3 ADD SWAP1 POP SWAP3 SWAP2 POP POP JUMP JUMPDEST PUSH1 0x0 JUMPDEST DUP4 DUP2 LT ISZERO PUSH3 0x8C3 JUMPI DUP1 DUP3 ADD MLOAD DUP2 DUP5 ADD MSTORE PUSH1 0x20 DUP2 ADD SWAP1 POP PUSH3 0x8A6 JUMP JUMPDEST PUSH1 0x0 DUP5 DUP5 ADD MSTORE POP POP POP POP JUMP JUMPDEST PUSH1 0x0 PUSH3 0x8DC DUP3 PUSH3 0x887 JUMP JUMPDEST PUSH3 0x8E8 DUP2 DUP6 PUSH3 0x892 JUMP JUMPDEST SWAP4 POP PUSH3 0x8FA DUP2 DUP6 PUSH1 0x20 DUP7 ADD PUSH3 0x8A3 JUMP JUMPDEST PUSH3 0x905 DUP2 PUSH3 0x5C3 JUMP JUMPDEST DUP5 ADD SWAP2 POP POP SWAP3 SWAP2 POP POP JUMP JUMPDEST PUSH1 0x0 PUSH1 0x20 DUP3 ADD SWAP1 POP DUP2 DUP2 SUB PUSH1 0x0 DUP4 ADD MSTORE PUSH3 0x92C DUP2 DUP5 PUSH3 0x8CF JUMP JUMPDEST SWAP1 POP SWAP3 SWAP2 POP POP JUMP JUMPDEST PUSH1 0x0 PUSH3 0x941 DUP3 PUSH3 0x574 JUMP JUMPDEST SWAP1 POP SWAP2 SWAP1 POP JUMP JUMPDEST PUSH3 0x953 DUP2 PUSH3 0x934 JUMP JUMPDEST DUP2 EQ PUSH3 0x95F JUMPI PUSH1 0x0 DUP1 REVERT JUMPDEST POP JUMP JUMPDEST PUSH1 0x0 DUP2 CALLDATALOAD SWAP1 POP PUSH3 0x973 DUP2 PUSH3 0x948 JUMP JUMPDEST SWAP3 SWAP2 POP POP JUMP JUMPDEST PUSH1 0x0 DUP1 PUSH1 0x0 DUP1 PUSH1 0x80 DUP6 DUP8 SUB SLT ISZERO PUSH3 0x996 JUMPI PUSH3 0x995 PUSH3 0x54A JUMP JUMPDEST JUMPDEST PUSH1 0x0 PUSH3 0x9A6 DUP8 DUP3 DUP9 ADD PUSH3 0x5A2 JUMP JUMPDEST SWAP5 POP POP PUSH1 0x20 DUP6 ADD CALLDATALOAD PUSH8 0xFFFFFFFFFFFFFFFF DUP2 GT ISZERO PUSH3 0x9CA JUMPI PUSH3 0x9C9 PUSH3 0x54F JUMP JUMPDEST JUMPDEST PUSH3 0x9D8 DUP8 DUP3 DUP9 ADD PUSH3 0x6E8 JUMP JUMPDEST SWAP4 POP POP PUSH1 0x40 PUSH3 0x9EB DUP8 DUP3 DUP9 ADD PUSH3 0x73F JUMP JUMPDEST SWAP3 POP POP PUSH1 0x60 PUSH3 0x9FE DUP8 DUP3 DUP9 ADD PUSH3 0x962 JUMP JUMPDEST SWAP2 POP POP SWAP3 SWAP6 SWAP2 SWAP5 POP SWAP3 POP JUMP JUMPDEST PUSH1 0x0 DUP2 SWAP1 POP SWAP2 SWAP1 POP JUMP JUMPDEST PUSH1 0x0 DUP2 SWAP1 POP SWAP2 SWAP1 POP JUMP JUMPDEST PUSH3 0xA33 PUSH3 0xA2D DUP3 PUSH3 0xA0A JUMP JUMPDEST PUSH3 0xA14 JUMP JUMPDEST DUP3 MSTORE POP POP JUMP JUMPDEST PUSH1 0x0 DUP2 SWAP1 POP SWAP2 SWAP1 POP JUMP JUMPDEST PUSH3 0xA58 PUSH3 0xA52 DUP3 PUSH3 0x71B JUMP JUMPDEST PUSH3 0xA39 JUMP JUMPDEST DUP3 MSTORE POP POP JUMP JUMPDEST PUSH1 0x0 PUSH3 0xA6C DUP3 DUP6 PUSH3 0xA1E JUMP JUMPDEST PUSH1 0x20 DUP3 ADD SWAP2 POP PUSH3 0xA7E DUP3 DUP5 PUSH3 0xA43 JUMP JUMPDEST PUSH1 0x20 DUP3 ADD SWAP2 POP DUP2 SWAP1 POP SWAP4 SWAP3 POP POP POP JUMP JUMPDEST PUSH3 0xA99 DUP2 PUSH3 0x574 JUMP JUMPDEST DUP3 MSTORE POP POP JUMP JUMPDEST PUSH1 0x0 PUSH1 0x20 DUP3 ADD SWAP1 POP PUSH3 0xAB6 PUSH1 0x0 DUP4 ADD DUP5 PUSH3 0xA8E JUMP JUMPDEST SWAP3 SWAP2 POP POP JUMP JUMPDEST PUSH1 0x0 PUSH3 0xAC9 DUP3 PUSH3 0x7DB JUMP JUMPDEST SWAP1 POP SWAP2 SWAP1 POP JUMP JUMPDEST PUSH1 0x0 PUSH3 0xADD DUP3 PUSH3 0xABC JUMP JUMPDEST SWAP1 POP SWAP2 SWAP1 POP JUMP JUMPDEST PUSH1 0x0 DUP2 PUSH1 0x60 SHL SWAP1 POP SWAP2 SWAP1 POP JUMP JUMPDEST PUSH1 0x0 PUSH3 0xAFE DUP3 PUSH3 0xAE4 JUMP JUMPDEST SWAP1 POP SWAP2 SWAP1 POP JUMP JUMPDEST PUSH1 0x0 PUSH3 0xB12 DUP3 PUSH3 0xAF1 JUMP JUMPDEST SWAP1 POP SWAP2 SWAP1 POP JUMP JUMPDEST PUSH3 0xB2E PUSH3 0xB28 DUP3 PUSH3 0xAD0 JUMP JUMPDEST PUSH3 0xB05 JUMP JUMPDEST DUP3 MSTORE POP POP JUMP JUMPDEST PUSH1 0x0 PUSH3 0xB42 DUP3 DUP6 PUSH3 0xA43 JUMP JUMPDEST PUSH1 0x20 DUP3 ADD SWAP2 POP PUSH3 0xB54 DUP3 DUP5 PUSH3 0xB19 JUMP JUMPDEST PUSH1 0x14 DUP3 ADD SWAP2 POP DUP2 SWAP1 POP SWAP4 SWAP3 POP POP POP JUMP JUMPDEST PUSH1 0x0 PUSH1 0x80 DUP3 ADD SWAP1 POP PUSH3 0xB7B PUSH1 0x0 DUP4 ADD DUP8 PUSH3 0x82B JUMP JUMPDEST PUSH3 0xB8A PUSH1 0x20 DUP4 ADD DUP7 PUSH3 0xA8E JUMP JUMPDEST DUP2 DUP2 SUB PUSH1 0x40 DUP4 ADD MSTORE PUSH3 0xB9E DUP2 DUP6 PUSH3 0x8CF JUMP JUMPDEST SWAP1 POP PUSH3 0xBAF PUSH1 0x60 DUP4 ADD DUP5 PUSH3 0x859 JUMP JUMPDEST SWAP6 SWAP5 POP POP POP POP POP JUMP JUMPDEST PUSH1 0x0 PUSH3 0xBC6 DUP3 DUP7 PUSH3 0xA1E JUMP JUMPDEST PUSH1 0x20 DUP3 ADD SWAP2 POP PUSH3 0xBD8 DUP3 DUP6 PUSH3 0xA43 JUMP JUMPDEST PUSH1 0x20 DUP3 ADD SWAP2 POP PUSH3 0xBEA DUP3 DUP5 PUSH3 0xA43 JUMP JUMPDEST PUSH1 0x20 DUP3 ADD SWAP2 POP DUP2 SWAP1 POP SWAP5 SWAP4 POP POP POP POP JUMP JUMPDEST PUSH1 0x0 DUP3 DUP3 MSTORE PUSH1 0x20 DUP3 ADD SWAP1 POP SWAP3 SWAP2 POP POP JUMP JUMPDEST PUSH32 0x53696E676C65746F6E20636F6E7472616374206E6F74206465706C6F79656400 PUSH1 0x0 DUP3 ADD MSTORE POP JUMP JUMPDEST PUSH1 0x0 PUSH3 0xC44 PUSH1 0x1F DUP4 PUSH3 0xBFB JUMP JUMPDEST SWAP2 POP PUSH3 0xC51 DUP3 PUSH3 0xC0C JUMP JUMPDEST PUSH1 0x20 DUP3 ADD SWAP1 POP SWAP2 SWAP1 POP JUMP JUMPDEST PUSH1 0x0 PUSH1 0x20 DUP3 ADD SWAP1 POP DUP2 DUP2 SUB PUSH1 0x0 DUP4 ADD MSTORE PUSH3 0xC77 DUP2 PUSH3 0xC35 JUMP JUMPDEST SWAP1 POP SWAP2 SWAP1 POP JUMP JUMPDEST PUSH1 0x0 DUP2 SWAP1 POP SWAP3 SWAP2 POP POP JUMP JUMPDEST PUSH1 0x0 PUSH3 0xC96 DUP3 PUSH3 0x887 JUMP JUMPDEST PUSH3 0xCA2 DUP2 DUP6 PUSH3 0xC7E JUMP JUMPDEST SWAP4 POP PUSH3 0xCB4 DUP2 DUP6 PUSH1 0x20 DUP7 ADD PUSH3 0x8A3 JUMP JUMPDEST DUP1 DUP5 ADD SWAP2 POP POP SWAP3 SWAP2 POP POP JUMP JUMPDEST PUSH1 0x0 PUSH3 0xCCE DUP3 DUP6 PUSH3 0xC89 JUMP JUMPDEST SWAP2 POP PUSH3 0xCDC DUP3 DUP5 PUSH3 0xA43 JUMP JUMPDEST PUSH1 0x20 DUP3 ADD SWAP2 POP DUP2 SWAP1 POP SWAP4 SWAP3 POP POP POP JUMP JUMPDEST PUSH32 0x437265617465322063616C6C206661696C656400000000000000000000000000 PUSH1 0x0 DUP3 ADD MSTORE POP JUMP JUMPDEST PUSH1 0x0 PUSH3 0xD24 PUSH1 0x13 DUP4 PUSH3 0xBFB JUMP JUMPDEST SWAP2 POP PUSH3 0xD31 DUP3 PUSH3 0xCEC JUMP JUMPDEST PUSH1 0x20 DUP3 ADD SWAP1 POP SWAP2 SWAP1 POP JUMP JUMPDEST PUSH1 0x0 PUSH1 0x20 DUP3 ADD SWAP1 POP DUP2 DUP2 SUB PUSH1 0x0 DUP4 ADD MSTORE PUSH3 0xD57 DUP2 PUSH3 0xD15 JUMP JUMPDEST SWAP1 POP SWAP2 SWAP1 POP JUMP INVALID PUSH1 0x80 PUSH1 0x40 MSTORE CALLVALUE DUP1 ISZERO PUSH2 0x10 JUMPI PUSH1 0x0 DUP1 REVERT JUMPDEST POP PUSH1 0x40 MLOAD PUSH2 0x2D1 CODESIZE SUB DUP1 PUSH2 0x2D1 DUP4 CODECOPY DUP2 DUP2 ADD PUSH1 0x40 MSTORE DUP2 ADD SWAP1 PUSH2 0x32 SWAP2 SWAP1 PUSH2 0x14A JUMP JUMPDEST PUSH1 0x0 PUSH20 0xFFFFFFFFFFFFFFFFFFFFFFFFFFFFFFFFFFFFFFFF AND DUP2 PUSH20 0xFFFFFFFFFFFFFFFFFFFFFFFFFFFFFFFFFFFFFFFF AND SUB PUSH2 0xA1 JUMPI PUSH1 0x40 MLOAD PUSH32 0x8C379A000000000000000000000000000000000000000000000000000000000 DUP2 MSTORE PUSH1 0x4 ADD PUSH2 0x98 SWAP1 PUSH2 0x1FA JUMP JUMPDEST PUSH1 0x40 MLOAD DUP1 SWAP2 SUB SWAP1 REVERT JUMPDEST DUP1 PUSH1 0x0 DUP1 PUSH2 0x100 EXP DUP2 SLOAD DUP2 PUSH20 0xFFFFFFFFFFFFFFFFFFFFFFFFFFFFFFFFFFFFFFFF MUL NOT AND SWAP1 DUP4 PUSH20 0xFFFFFFFFFFFFFFFFFFFFFFFFFFFFFFFFFFFFFFFF AND MUL OR SWAP1 SSTORE POP POP PUSH2 0x21A JUMP JUMPDEST PUSH1 0x0 DUP1 REVERT JUMPDEST PUSH1 0x0 PUSH20 0xFFFFFFFFFFFFFFFFFFFFFFFFFFFFFFFFFFFFFFFF DUP3 AND SWAP1 POP SWAP2 SWAP1 POP JUMP JUMPDEST PUSH1 0x0 PUSH2 0x117 DUP3 PUSH2 0xEC JUMP JUMPDEST SWAP1 POP SWAP2 SWAP1 POP JUMP JUMPDEST PUSH2 0x127 DUP2 PUSH2 0x10C JUMP JUMPDEST DUP2 EQ PUSH2 0x132 JUMPI PUSH1 0x0 DUP1 REVERT JUMPDEST POP JUMP JUMPDEST PUSH1 0x0 DUP2 MLOAD SWAP1 POP PUSH2 0x144 DUP2 PUSH2 0x11E JUMP JUMPDEST SWAP3 SWAP2 POP POP JUMP JUMPDEST PUSH1 0x0 PUSH1 0x20 DUP3 DUP5 SUB SLT ISZERO PUSH2 0x160 JUMPI PUSH2 0x15F PUSH2 0xE7 JUMP JUMPDEST JUMPDEST PUSH1 0x0 PUSH2 0x16E DUP5 DUP3 DUP6 ADD PUSH2 0x135 JUMP JUMPDEST SWAP2 POP POP SWAP3 SWAP2 POP POP JUMP JUMPDEST PUSH1 0x0 DUP3 DUP3 MSTORE PUSH1 0x20 DUP3 ADD SWAP1 POP SWAP3 SWAP2 POP POP JUMP JUMPDEST PUSH32 0x496E76616C69642073696E676C65746F6E20616464726573732070726F766964 PUSH1 0x0 DUP3 ADD MSTORE PUSH32 0x6564000000000000000000000000000000000000000000000000000000000000 PUSH1 0x20 DUP3 ADD MSTORE POP JUMP JUMPDEST PUSH1 0x0 PUSH2 0x1E4 PUSH1 0x22 DUP4 PUSH2 0x177 JUMP JUMPDEST SWAP2 POP PUSH2 0x1EF DUP3 PUSH2 0x188 JUMP JUMPDEST PUSH1 0x40 DUP3 ADD SWAP1 POP SWAP2 SWAP1 POP JUMP JUMPDEST PUSH1 0x0 PUSH1 0x20 DUP3 ADD SWAP1 POP DUP2 DUP2 SUB PUSH1 0x0 DUP4 ADD MSTORE PUSH2 0x213 DUP2 PUSH2 0x1D7 JUMP JUMPDEST SWAP1 POP SWAP2 SWAP1 POP JUMP JUMPDEST PUSH1 0xA9 DUP1 PUSH2 0x228 PUSH1 0x0 CODECOPY PUSH1 0x0 RETURN INVALID PUSH1 0x80 PUSH1 0x40 MSTORE PUSH20 0xFFFFFFFFFFFFFFFFFFFFFFFFFFFFFFFFFFFFFFFF PUSH1 0x0 SLOAD AND PUSH32 0xA619486E00000000000000000000000000000000000000000000000000000000 PUSH1 0x0 CALLDATALOAD SUB PUSH1 0x4F JUMPI DUP1 PUSH1 0x0 MSTORE PUSH1 0x20 PUSH1 0x0 RETURN JUMPDEST CALLDATASIZE PUSH1 0x0 DUP1 CALLDATACOPY PUSH1 0x0 DUP1 CALLDATASIZE PUSH1 0x0 DUP5 GAS DELEGATECALL RETURNDATASIZE PUSH1 0x0 DUP1 RETURNDATACOPY PUSH1 0x0 DUP2 SUB PUSH1 0x6E JUMPI RETURNDATASIZE PUSH1 0x0 REVERT JUMPDEST RETURNDATASIZE PUSH1 0x0 RETURN INVALID LOG2 PUSH5 0x6970667358 0x22 SLT KECCAK256 MOD 0xCD ADDMOD 0xC3 0x4E DUP15 0xB7 0xA5 0xCE 0xD4 0xD3 CALLCODE SHL BALANCE PUSH27 0x68F4B06F0033BBBC390FB6F2952834E6F164736F6C634300081300 CALLER LOG2 PUSH5 0x6970667358 0x22 SLT KECCAK256 0xD9 PUSH17 0x6C41BD06BD6B71937DF30FD4ED50604C27 JUMP PUSH18 0x1845AD34B60E688D6C754464736F6C634300 ADDMOD SGT STOP CALLER "},"gasEstimates":{"creation":{"codeDepositCost":"839400","executionCost":"877","totalCost":"840277"},"external":{"createChainSpecificProxyWithNonce(address,bytes,uint256)":"infinite","createProxyWithCallback(address,bytes,uint256,address)":"infinite","createProxyWithNonce(address,bytes,uint256)":"infinite","getChainId()":"349","proxyCreationCode()":"infinite"},"internal":{"deployProxy(address,bytes memory,bytes32)":"infinite","isContract(address)":"2647"}},"methodIdentifiers":{"createChainSpecificProxyWithNonce(address,bytes,uint256)":"ec9e80bb","createProxyWithCallback(address,bytes,uint256,address)":"d18af54d","createProxyWithNonce(address,bytes,uint256)":"1688f0b9","getChainId()":"3408e470","proxyCreationCode()":"53e5d935"}},"storageLayout":{"storage":[],"types":null},"userdoc":{"kind":"user","methods":{"createChainSpecificProxyWithNonce(address,bytes,uint256)":{"notice":"Deploys a new chain-specific proxy with `_singleton` singleton and `saltNonce` salt. Optionally executes an initializer call to a new proxy."},"createProxyWithCallback(address,bytes,uint256,address)":{"notice":"Deploy a new proxy with `_singleton` singleton and `saltNonce` salt.         Optionally executes an initializer call to a new proxy and calls a specified callback address `callback`."},"createProxyWithNonce(address,bytes,uint256)":{"notice":"Deploys a new proxy with `_singleton` singleton and `saltNonce` salt. Optionally executes an initializer call to a new proxy."},"getChainId()":{"notice":"Returns the ID of the chain the contract is currently deployed on."}},"version":1}}}}